:020000040800F2
:100000004043002099020008A1020008A302000852
:10001000A5020008A7020008A902000800000000CD
:10002000000000000000000000000000DD010008EA
:10003000AD0200080000000031020008212700087E
:10004000B3020008B3020008B3020008B3020008BC
:10005000B3020008B3020008B3020008B3020008AC
:10006000B3020008B3020008B3020008B30200089C
:10007000B3020008B3020008B3020008B30200088C
:10008000B3020008B3020008B30200080000000039
:10009000000000000000000000000000B3020008A3
:1000A000B302000815280008B3020008B3020008D4
:1000B000000000000000000000000000B302000883
:1000C000B3020008B3020008B3020008B30200083C
:1000D000B3020008B3020008512C00080000000021
:1000E000B3020008B3020008000000000000000096
:1000F000000000000000000000000000B302000843
:100100000000000000000000B30200080000000032
:10011000000000000000000021280008000000008E
:10012000B3020008B3020008B3020008B3020008DB
:10013000B302000800000000000000000000000002
:1001400000000000000000000000000000000000AF
:10015000B3020008B3020008B3020008B3020008AB
:10016000000000000000000000000000000000008F
:10017000000000000000000000000000000000007F
:10018000B3020008B30200080000000000000000F5
:1001900000000000B30200080000000000000000A2
:1001A000000000000000000000000000000000004F
:1001B000000000000000000000000000B302000882
:1001C000B3020008B3020008DFF80CD000F02CFCEA
:1001D00000480047E13D0008404300202B4B1968D0
:1001E0000868B0E8F04F80F30988BFF36F8F4FF0D5
:1001F000000080F311887047000000000648006886
:10020000006880F3088862B661B6BFF34F8FBFF312
:100210006F8F00DF00BF00BF08ED00E0DFF80C00CB
:10022000016841F470010160704700BF88ED00E093
:10023000EFF30980BFF36F8F144B1A681EF0100F95
:1002400008BF20ED108A20E9F04F106008B44FF08D
:10025000500080F31188BFF34F8FBFF36F8F04F00E
:100260000DFA4FF0000080F3118808BC1968086887
:10027000B0E8F04F1EF0100F08BFB0EC108A80F30A
:100280000988BFF36F8F704700BF00BF0C010020CB
:10029000EFF3058070470000064880470648004796
:1002A000FEE7FEE7FEE7FEE7FEE7FEE7FEE7FEE726
:1002B000FEE7FEE7C1270008C90100082DE9F05F4D
:1002C0000546002092469B468846064681464024C5
:1002D0001BE0284641464746224600F066FA534650
:1002E0005A46C01A914110D311461846224600F0D2
:1002F0004DFA2D1A67EB01084F46224601200021D6
:1003000000F044FA17EB00094E41201EA4F101044D
:10031000DFDC484631462A464346BDE8F09F40EAC6
:1003200001039B0703D009E008C9121F08C0042A73
:10033000FAD203E011F8013B00F8013B521EF9D25A
:10034000704770B5064602F02FFD046805460A2284
:100350000021304600F04BFA2C6070BD2DE9FE4FB5
:10036000804681EA0300C00F0C46009021F0004156
:1003700023F00045B8EB0200A94105D240462146D2
:1003800090461C460B46024623F00040104347D0DF
:10039000270DC7F30A00C3F30A510290401A0190D7
:1003A00040286BDAC3F3130040F4801B0098924698
:1003B00020B10023D2EB030A63EB0B0B01985946E3
:1003C000C0F14002504600F0E1F906460D465046A5
:1003D0005946019A00F0F9F910EB08006141002438
:1003E00087EA115284EAE7731A4340D0009A62B355
:1003F000019A012A4FEA075215DC001B61EB02014A
:100400004FF0004202EA0752CDE90042001C41F5DC
:10041000801132462B4600F068FA03B0BDE8F08F39
:1004200040462146F9E7001B61EB0201001C41F543
:10043000801300185B412018A2F5001747EB030159
:1004400040EAD570B6196D4111E06D084FEA3606E5
:1004500045EAC0754FEA0752001B61EB0201001C20
:1004600041F5801149084FEA3000001951413246E8
:100470002B4603B0BDE8F04F00F028BA00980122E7
:1004800040000023D0EB020263EBE07300982146AA
:100490004FEAE074B8EB000061EB0401E9E783F098
:1004A00000435BE781F0004158E72DE9FE4F81EA08
:1004B000030404F0004421F0004100944FF0000BCD
:1004C00023F0004350EA01045ED052EA03045BD0FB
:1004D000C3F30A54C1F30A552C44A4F2F334019433
:1004E000A0FB0254C1F3130141F48011C3F31303C1
:1004F00043F4801301FB024400FB034E840A970A75
:1005000044EA815447EA8357A4FB076802958D0AA1
:1005100005FB07854FEA932C04FB0C542705029D2D
:100520004FEA065847EA1637B5EB08056EEB070C9D
:10053000870E920E47EA811742EA8312A7FB020157
:10054000B6EB0B0164EB00042B0D43EA0C335E1891
:1005500044EB1C50DA465146E7FB0201C5F3130495
:100560004FEA0B3343EA14534FEA0432019C43EA47
:100570000603A4F10C040294009CCDE900B400F041
:10058000B4F903B0BDE8F08F00200146F9E72DE98A
:10059000F04D81EA030404F0004B21F000451446BD
:1005A0004FF0000A23F0004150EA050220D054EA3F
:1005B00001021DD0C5F30A570246C5F31303C1F368
:1005C0001300C1F30A5640F4801543F48013A7EBDF
:1005D0000608101BD64608F2FD3873EB050002D35F
:1005E00008F1010801E092185B41B8F1000F03DA4D
:1005F00000200146BDE8F08D00204FF48011064632
:1006000084460EE0171B73EB050705D3121B63EB43
:10061000050306434CEA010C49084FEA30009218E2
:100620005B4150EA0107EDD152EA030012D082EAA1
:10063000040083EA0501084305D0101BAB4106D234
:100640000122002306E000224FF0004302E06FF099
:10065000010253101AEB06004CEB085110EB0A0094
:1006600041EB0B01BDE8F04D00F030B90EB5C10F04
:1006700080EAE0700844CA07002140F233438DE865
:100680000E000A460B4600F030F903B000BD70B50D
:10069000C1F30A5201F000450024C1F3130140F2F6
:1006A000FF3341F480119A4201DA002070BD40F21C
:1006B00033439A42A2F2334203DC524200F075F80F
:1006C00000E090402C43F1D0404270BD00F0004269
:1006D00030F000400AD0C10D01F56071C0F3160082
:1006E00042EA0151C2084007114370470020014609
:1006F0007047000030B5041E71F1000404DB4FF0B8
:100700000044404264EB0101141E73F1000405DB58
:100710001C464FF00043524263EB04038B4208BF78
:10072000824230BD30B5041E71F1000404DB4FF08D
:100730000044404264EB0101141E73F1000405DB28
:100740001C464FF00043524263EB0403994208BF3A
:10075000904230BD01F0004330B421F0004150EA36
:10076000010206D00A0DA2F56072C1F31301002A3E
:1007700002DC30BC00207047440F44EAC104C100D1
:10078000E01830BC00EBC25000F069B8202A04DB4E
:10079000203A00FA02F1002070479140C2F1200394
:1007A00020FA03F3194390407047202A04DB203AD3
:1007B00021FA02F00021704721FA02F3D040C2F181
:1007C00020029140084319467047202A06DBCB17C8
:1007D000203A41FA02F043EAE07306E041FA02F3FC
:1007E000D040C2F1200291400843194670472DE9DC
:1007F000F04791460F4680460446002614F8015BF8
:100800002DB100F023F90068405DC007F6D12B2D13
:1008100002D02D2D18D0641E4A463946204600F0DD
:1008200019F927B13968A14201D1C7F800807105D3
:100830004FF002040BD54042002803DD02F0B4FA69
:100840000460A007BDE8F08746F48066E4E700286E
:10085000F8DA02F0A9FA04606FF00040F2E700292C
:10086000A8BF7047401C490008BF20F00100704736
:1008700010B4B0FA80FC00FA0CF050EA010404BF96
:1008800010BC704749B1CCF1200421FA04F411FAEC
:100890000CF118BF012121430843A3EB0C01CB1D30
:1008A0004FEA00614FEA102042BF002010BC7047A1
:1008B00000EBC35010440029A4BF10BC7047401C7B
:1008C000490008BF20F0010010BC704710B5141E8D
:1008D00073F1000408DA401C41F1000192185B41F9
:1008E0001A4301D120F0010010BD2DE9F04D9246D0
:1008F0009B4611B1B1FA81F202E0B0FA80F22032E7
:100900009046FFF743FF04460F4640EA0A0041EADB
:100910000B0153465A46084313D0114653EA0100CF
:1009200019D0C8F140025046FFF73FFF05460E467A
:10093000504659464246FFF729FF084305D001209B
:1009400004E020463946BDE8F08D0020054346EA24
:10095000E0762C4337430A986305E40AA0EB0800CD
:100960000022FD0A44EA47540A3002D5002001461D
:10097000E9E7010510196941DDE9084500196941F8
:10098000BDE8F04DA2E72DE9F04D00231A461B1AF1
:100990008A4103DB00200146BDE8F08DC1F30A5215
:1009A000C1F3130141F480154FF0000BD10702D1C0
:1009B00000186D41521E0027044640F2FF113846D0
:1009C00001EB620A3E468046024600204FF4801149
:1009D000FFF7EBFEC2197141BB1846EB0100B4EB07
:1009E000030C75EB000C04D3E41A65EB0005174605
:1009F0000E46241908F101006D4180463428E3DDDC
:100A0000F91946EB0600091BA84103D24FF0FF324B
:100A1000134601E0002213461BEB070046EB0A5188
:100A2000BDE8F04DFFF752BF064C074D06E0E06809
:100A300040F0010394E8070098471034AC42F6D325
:100A4000FFF7C6FB644D0008844D0008004870475E
:100A5000044D00082DE9F05F824600780027154616
:100A60008B460AF10104B946302801D09DB113E04C
:100A700014F8010B0127782803D0582801D045B17C
:100A80000AE00DB1102D07D10027102514F8010B35
:100A900002E0082500E00A250026B0460EE005FB2E
:100AA000080005FB06F1012701EB10461FFA80F84C
:100AB000B6F5803F00D3B94614F8010B294600F083
:100AC00025F80028EBDABBF1000F05D00FB1641E4A
:100AD00000E05446CBF80040B9F1000F06D002F018
:100AE00063F902210160C81EBDE8F09F48EA064094
:100AF000FAE70EB540F2334102910021CDE9001131
:100B00000A460B46FFF7F1FE03B000BD3A2800D2BB
:100B1000303820F02002412A01D3A2F13700884268
:100B200001D34FF0FF30704770B58C1810F8015B9F
:100B300015F0070301D110F8013B2A1106D110F876
:100B4000012B03E010F8016B01F8016B5B1EF9D17A
:100B50002B0705D40023521E0DD401F8013BFAE700
:100B600010F8013BCB1A921C03E013F8015B01F86B
:100B7000015B521EF9D5A142D8D3002070BD000000
:100B8000454910B54A6822F440324A604A684368D1
:100B90001A434A6001684A6822F480724A60016818
:100BA0004A68036942EA03224A6001684A6822F0FF
:100BB00040724A6001684A6883681A434A60016863
:100BC0008A6822F400628A6001688A68C3681A43EE
:100BD0008A60816A6FF07062D14201688A6822F08F
:100BE00070628A6001688A680CD0836A1A438A60DE
:100BF00001688A6822F040528A6001688A68C36A84
:100C00001A4301E022F040528A6001688A6822F0AB
:100C100002028A6001688A68836942EA43028A6044
:100C2000016A002901684A680FD042F400624A60F4
:100C300001684A6822F460424A6001684A68174CB9
:100C4000436A04EB43331A4301E022F400624A6032
:100C50000168CA6A22F47002CA620168CA6A838B98
:100C60000F4C04EB03531A43CA6201688A6822F4EA
:100C700000728A6001688A68036B42EA43228A60D4
:100C800001688A6822F480628A6001688A68406923
:100C900042EA8020886010BD0023014000E0FFFF91
:100CA0000000F0FF10B501221021144800F05CFA9A
:100CB000144C9FED131A94ED080AF8EEC00A94ED57
:100CC000070AB8EEC00A01F077F94FF4487000F057
:100CD00083F994ED080AE0699FED0B1AF8EEC00A5B
:100CE000401D00EE100AB8EEC00A01F065F9BDE83B
:100CF000104040F2EE2000F06FB900000008024002
:100D000000003EC3000000200000B4C278B50024FB
:100D1000009490F83C20012A19D0012280F83C2050
:100D20000A6807230568092A13D9EE680A3A02EB14
:100D3000420293409E43EE600B788A680A3B03EBC5
:100D400043039A400368DD682A43DA6010E002201A
:100D500078BD2E6902EB420293409E432E610B78D0
:100D60008A6803EB43039A4003681D692A431A61AA
:100D70004A681F23072A13D205686E6B521E02EBC6
:100D8000820293409E436E630B790A885B1E92B287
:100D900003EB83039A4003685D6B2A435A6327E0A1
:100DA00005680D2A12D22E6BD21F02EB82029340ED
:100DB0009E432E630B790A88DB1F92B203EB8303F9
:100DC0009A4003681D6B2A431A6311E0EE6A0D3ADC
:100DD00002EB820293409E43EE620B790A880D3B40
:100DE00092B203EB83039A400368DD6A2A43DA6216
:100DF000164B0568144A9D4206D10D68122D03D189
:100E0000556845F48005556005689D4218D10B680A
:100E1000102B01D0112B13D1536843F400035360FE
:100E2000096810290CD10A490A4A0968B1FBF2F194
:100E300001EB8101490000E0491E00910029FBD12E
:100E400080F83C40002078BD002301400020014094
:100E5000E400002040420F000068C06C704770B58D
:100E600004004FF0000503D0206C002610B107E00D
:100E7000012070BD666484F83C60204600F01AF8DA
:100E8000206CC00610D4206C20F4885040F0020082
:100E900020642046FFF774FE6664206C20F0020098
:100EA00040F00100206400E0012584F83C60284601
:100EB00070BD000000B500680C4987B0884212D1AF
:100EC0000B480021026842F480720260006800F45E
:100ED00080700590012000900320CDE90101694652
:100EE000044800F08BF807B000BD0000002001406E
:100EF000443802400000024018B50021009190F8EB
:100F00003C20012A07D0012280F83C200268936827
:100F1000DB0702D011E0022018BD936843F0010303
:100F20009360204A204B1268B2FBF3F202EB4202BC
:100F300000E0521E0092002AFBD102689368DB0792
:100F40002DD0036C40F20164A34343F48073036427
:100F500053685B0505D5036C23F4005343F48053B9
:100F60000364036CDB0404D5436C23F00603436481
:100F700000E0416480F83C100C496FF022031360DC
:100F800049680068C90602D00949884207D18168CA
:100F900011F0405F03D1816841F080418160002001
:100FA00018BD0000E400002040420F000023014073
:100FB0000020014090F83510022903D080214165BE
:100FC00001207047052180F835100068016821F084
:100FD000010101600020704770B5044600F0CAF8B6
:100FE0000546601C02D004480078044400F0C2F8B2
:100FF000401BA042FAD370BDD80000202DE9F84F65
:10100000DFF84CB100224FF001084FF0030A4FF017
:101010000F090BF1040E00BF0B6808FA02F423401D
:10102000A3427DD14D68022D01D0122D0ED1D508DD
:1010300000EB850CDCF820505607F70E09FA07F68E
:10104000B5430E69BE402E43CCF8206006685500BB
:101050000F790AFA05FC07F0030726EA0C06AF40F1
:10106000374307604E68012E05D0022E03D0112EA3
:1010700001D0122E0ED18768CE6827EA0C07AE4049
:101080003E4386604668A6430C79C4F3001494403E
:1010900034434460C4688E6824EA0C04AE4026439E
:1010A000C6604C68E4004DD52A4C256845F480455F
:1010B0002560246822F0030504F480440094264C43
:1010C0002E19D6F8084895072F0F09FA07F5AC43F3
:1010D000224DA84201D100250AE0214DA84201D1AC
:1010E000012505E01F4DA84201D1022500E007259A
:1010F000BD402543C6F80858DBF800405D464E6801
:101100009C43F60300D51C432C60DEF80040754676
:101110004E689C43B60300D51C432C600C4D00E088
:1011200010E008352C684E689C43F60200D51C433D
:101130002C60074D0C352C684E689C43B60200D5D8
:101140001C432C60521C102AFFF466AFBDE8F88FD8
:10115000003C0140443802400030014000000240A1
:1011600000040240000802400AB18161704709048E
:10117000FBE700000148806870470000D8000020AD
:10118000024881680278114481607047D8000020CD
:101190000B4810B5016841F400710160016841F429
:1011A00080610160016841F480710160032000F0FA
:1011B000B1F8002000F006F800F03EF8002010BD65
:1011C000003C024010B5014688B00022192000F012
:1011D00081F8192000F072F813480024016841F0EA
:1011E00001010160006805A900F001000690684651
:1011F00000F03AF900F06EF90C490D4AB0FBF1F13C
:101200000C48491E026040F2E732C0E90324C0E9FD
:10121000011400F07BFB10B1012008B010BD05489F
:1012200000F0AEFBF9E700004438024040420F00F6
:1012300000000140100200201F4808B5016841F479
:1012400080410160006800F4804000901A48001F4F
:10125000016841F080510160006800F0805000900A
:10126000032000F057F8002211466FF00B0000F049
:1012700031F8002211466FF00A0000F02BF800222E
:1012800011466FF0090000F025F800221146501FAA
:1012900000F020F800221146101F00F01BF8002279
:1012A0000F21901E00F016F800220F21BDE8084023
:1012B000501E00F00FB800004438024000F01F023A
:1012C000012191404009800000F1E020C0F80011A8
:1012D00070470000F0B40E4B1B680C46C3F30223AA
:1012E000C3F10705042D00D90425191D072901D2D2
:1012F000002300E0DB1E012606FA05F1491E21400D
:1013000099409E40761E16403143F0BC00F044BE2A
:101310000CED00E0064900F0070208684FF6FF03F5
:10132000184040EA0220034A10430860704700005A
:101330000CED00E00000FA052DE9F0470E4605002F
:1013400065D0DFF81481D8F80000F7B200F00F0084
:10135000B04207D288F80070D8F8000000F00F0003
:10136000B04254D128683D4C810712D5400703D5BF
:10137000206840F4E05020602878000703D52068FA
:1013800040F4604020602068A96820F0F000084325
:1013900020602878C0072DD03049686808390128B6
:1013A00012D0022813D0032811D009688907002918
:1013B0002DDA216821F0030101432160FFF7DAFEF5
:1013C000814641F2883A0EE009688903EFE709682F
:1013D0008901ECE7FFF7CEFEA0EB0901514502D9E8
:1013E0000320BDE8F0872068696800F00C00B0EBCE
:1013F000810FEFD1D8F80010404601F00F01B14243
:1014000007D90770006800F00F00B04201D001203A
:10141000E7E72878400705D52068E96820F4E05020
:10142000084320602878000706D52068296920F441
:10143000604040EAC100206000F05CF82168084A82
:10144000C1F30311515CC840064908600020FFF752
:10145000B9FE0020C5E70000003C02400838024009
:10146000604A0008E40000200F2202600C4A136862
:1014700003F003034360136803F0F0038360136811
:1014800003F4E053C36012684FF4E05303EAD2025E
:1014900002610448006800F00F0008607047000017
:1014A00008380240003C02400148006870470000D4
:1014B000E40000200448054900680968044AC1F3B3
:1014C0008221515CC8407047E40000200838024087
:1014D000704A00080448054900680968044AC1F3D5
:1014E0004231515CC8407047E40000200838024097
:1014F000704A0008154810B5006810F00C02144836
:1015000013D04110042A0FD0082A0ED10F4C241FEB
:101510002268236802F03F025B0207D52068C0F30F
:101520008810A0FB010106E0084610BD2168C1F348
:101530008811A1FB00010023FEF7C0FE2168C1F362
:101540000141491C4900B0FBF1F010BD08380240D0
:101550000024F4002DE9F84F05460078DFF800B3C9
:10156000C04CC0074AD0DBF800105846C1F38101D7
:10157000012908D00068C0F3810002280AD1201D8B
:101580000068400206D52068800337D568680028C7
:1015900072D033E06868B0F5803F10D0B0F5A02F6E
:1015A000206810D020F480302060206820F4802053
:1015B00020606868A8B1FFF7DDFD06460DE02068F1
:1015C00040F48030F4E740F480202060F7E700BF6B
:1015D000FFF7D0FD801B64286FD820688003F7D503
:1015E0000CE0FFF7C7FD064605E000BFFFF7C2FDB0
:1015F000801B6428F0D820688003F7D42878DFF8AF
:10160000688280074FF0000940D5DBF8001058468B
:1016100011F00C0F09D00068C0F3810002280BD133
:101620008F48001F0068400206D42068800715D547
:10163000E868012820D111E0E868B8B10120C8F8B5
:101640000000FFF797FD064605E000BFFFF792FD9B
:10165000801B0228C0D820688007F7D52068296938
:1016600020F0F80040EAC10020600FE0C8F80090C8
:10167000FFF780FD064606E0EFE000BFFFF77AFDCA
:10168000801B022819D820688007F7D42878000723
:1016900022D5734E754869696C3679B101210160B4
:1016A000FFF768FD074604E0FFF764FDC01B022852
:1016B00003D830688007F7D50EE089E0C0F80090C5
:1016C000FFF758FD074604E0FFF754FDC01B022852
:1016D0007ED830688007F7D42878400768D5DFF8CF
:1016E00080A100270AF1380ADAF80000C0000BD404
:1016F000DAF8001041F08051CAF80010DAF8000062
:10170000012700F080500090594E3068C00510D479
:10171000306840F480703060FFF72CFD009005E0E9
:10172000FFF728FD0099401A022851D83068C005FB
:10173000F6D54B4EA868683601280FD005283068CA
:1017400010D020F001003060306820F004003060DC
:10175000A868B8B1FFF70EFD00900FE0306840F0C8
:101760000100F4E740F004003060F7E7FFF702FD06
:101770000099411A41F28830814266D8306880076A
:10178000F4D50EE0FFF7F6FC009007E0FFF7F2FC5F
:101790000099411A41F28830814256D8306880075A
:1017A000F4D42FB1DAF8001021F08051CAF80010FB
:1017B000A869D0B3DBF80010C1F3810102294CD035
:1017C0000228484607D0C8F86000FFF7D3FC00E0C5
:1017D0003BE005463CE04746C8F86000FFF7CAFC1E
:1017E000064604E0FFF7C6FC801B02282DD82068BF
:1017F0008001F7D4F5E907010843E9681D4A490863
:1018000002EB0141AA6841EA82110843297C40EABF
:101810000160297D40EA01711148001F016001202B
:101820003866FFF7A7FC054605E014E0FFF7A2FCC9
:10183000401B022809D820688001F7D50BE000BFC3
:10184000FFF798FC401B022802D90320BDE8F88F5F
:1018500020688001F4D40020F8E70120F6E70000BA
:10186000083802400038024000004742800E4742DC
:10187000007000400000FFFF4FF0E02104280869DD
:1018800003D020F004000861704740F00400FAE73C
:1018900010B5401EB0F1807F01D3012010BD4FF084
:1018A000E02460610F21601700F076FB0020A0614A
:1018B00007202061002010BD7047704730B590F8B8
:1018C0003820012A20D0012280F83820022380F815
:1018D000393003685C6824F070045C6003685C68FD
:1018E0000D682C435C6003689C6824F080049C6055
:1018F00003689C6849680C439C6080F8392000218B
:1019000080F83810084630BD022030BD10B5040004
:1019100003D094F8390010B107E0012010BD002079
:1019200084F83800204600F00DF8022084F83900D1
:10193000211D206800F07AFF012084F83900002082
:1019400010BD000008B500680B49884212D10B4851
:10195000016841F0100101600068002200F01000F1
:10196000009005213620FFF7B5FCBDE80840362081
:10197000FFF7A4BC08BD0000001000404038024042
:101980000168CA6842F00102CA600068016841F05B
:101990000101016000207047704770B5044600687F
:1019A00001694FF00005C943890715D4C168C943CF
:1019B000890711D4E91E0161012020762068806921
:1019C0008007204602D0FFF7E7FF04E000F098F818
:1019D000204600F096F8257620680169C94349073A
:1019E00017D4C168C943490713D46FF004010161DA
:1019F000022020762068806910F4407F204602D0C3
:101A0000FFF7CAFF04E000F07BF8204600F079F809
:101A1000257620680169C943090716D4C168C943FE
:101A2000090712D46FF008010161042020762068B4
:101A3000C0698007204602D0FFF7AEFF04E000F047
:101A40005FF8204600F05DF8257620680169C943FB
:101A5000C90617D4C168C943C90613D46FF0100171
:101A60000161082020762068C06910F4407F20467C
:101A700002D0FFF791FF04E000F042F8204600F0AA
:101A800040F8257620680169C943C90708D1C168B3
:101A9000C943C90704D1891E0161204600F032F80C
:101AA00020680169C943090609D4C168C943090608
:101AB00005D46FF0800101612046FFF7FDFE20682C
:101AC0000169C943490609D4C168C943490605D417
:101AD0006FF040010161204600F01EF820680169A6
:101AE000C94389060BD4C168C943890607D46FF07E
:101AF000200101612046BDE87040FFF7DEBE70BDE9
:101B00007047704700680349884201D1FFF738BB2E
:101B100070470000000001407047704770B50268D0
:101B200004461068D168536910F00F0F50D003F0CD
:101B3000010501F4907635435DD0C20705D0CA0592
:101B400003D5E26B42F00102E263420705D5DA07F2
:101B500003D0E26B42F00202E263820705D5DA07A6
:101B600003D0E26B42F00402E263020705D5DA0714
:101B700003D0E26B42F00802E263E26B002A33D04A
:101B8000800604D5880602D5204600F093FE206822
:101B90004069E16BC0F38010090700D428B32046E8
:101BA00000F07AFE2068416949061AD5416921F0A2
:101BB00040014161606BA0B11B490165606BFFF79B
:101BC000F9F9002810D0606B016DBDE8704008473E
:101BD000830610D58B060ED52046BDE8704000F078
:101BE00069BE2046FFF799FF70BD2046FFF795FFBD
:101BF0000020E06370BD030606D50B0604D5204621
:101C0000BDE8704000F0F2BF4006F3D54806F1D5BC
:101C1000D168204621F04001D160202184F839109C
:101C200000F089F870BD00008928000870B5040034
:101C300004D094F83900002510B106E0012070BDF1
:101C400084F83850204600F023F8242084F8390026
:101C50002068C16821F40051C160204600F070FE88
:101C60002068016921F4904101612068416921F0F7
:101C70002A0141612068C16841F40051C160E563F7
:101C8000202084F8390084F83A00002070BD00005C
:101C900000B50068124987B088421ED1114801681A
:101CA00041F4003101600068694600F4003005909D
:101CB0000C2000900220019001200290032003904C
:101CC000072004900848FFF799F9002205212620F3
:101CD000FFF700FB2620FFF7F1FA07B000BD000078
:101CE00000440040403802400000024090F83A3082
:101CF000202B1DD1D1B1CAB190F83830012B17D0AB
:101D000081628285C2850021C163222280F83A2047
:101D100080F8381001684A6942F001024A6100689F
:101D2000C16841F49071C160002070470120704784
:101D300002207047704770477FB512481049002451
:101D400001604FF4803141600461846109020462E2
:101D500081600D49C0E90A140125C460C56145616F
:101D60000463FFF77CF800B1FEE7CDE90045694662
:101D700004480294FEF7CAFF002800D0FEE77FBDAA
:101D8000002001404C0100200100000F2DE9F0432C
:101D90003B4887B00024016841F0040101600168FC
:101DA00001F004010591016841F0800101600168C2
:101DB00001F080010591016841F0010101600168B5
:101DC00001F001010591016841F002010160006824
:101DD0002C4F00F00200059000224FF4EC613846D1
:101DE000FFF7C2F9DFF8A0804FF4C2660022314647
:101DF0004046FFF7B9F9DFF8949000224FF487616D
:101E00004846FFF7B1F94FF4005000902048CDE963
:101E1000010469464046FFF7F1F84FF4487000901E
:101E20000125CDE90154694638460394FFF7E6F8E9
:101E30004FF48860CDE90005CDE902546946384683
:101E4000FFF7DCF80096CDE901546946404603945B
:101E5000FFF7D4F84FF482600090CDE90154694651
:101E600048460394FFF7CAF82820CDE90005CDE9DC
:101E7000025469464846FFF7C1F807B0BDE8F08351
:101E800030380240000002400008024000040240D6
:101E9000000021102DED048B61253A4C9FED3A8A0C
:101EA000DFED3A8A9FED3A9A012002F025F8E06CC6
:101EB0000028F9D0206D0028F6D0606D0028F3D0FE
:101EC00060680028F0D02078622845D101F05EFFDC
:101ED00068B3632020706420FFF77EF8FEF7E2FE0F
:101EE000607862281DD0672804D0722805D0792830
:101EF00026D119E0234E983601E0224EA43696ED05
:101F0000020AB8EEC01A96ED010AF8EEC00A96ED84
:101F1000000AB8EEC00A00F04FF8B0681E30B0609A
:101F20000EE0184EB036EAE7164EBC36E7E72570ED
:101F3000B0EE481AF0EE680AB0EE490A00F03CF83C
:101F4000E06C0028B0D0206D0028ADD0606D002876
:101F5000AAD060680028A7D020786328A4D10022E6
:101F600010210C48FFF700F940F2DC50FFF734F87D
:101F7000B0EE481AF0EE680AB0EE490A00F01CF81C
:101F8000257091E70000002059ABCAC10000000095
:101F9000ABDC0443000802400907090E002806DAFA
:101FA00000F00F0000F1E02080F8141D704700F1F0
:101FB000E02080F80014704770B52DED0A8BF0EE2C
:101FC00040AAF0EE609A2AEEAA0AB0EE418A09EE23
:101FD000A90A10EE100AFEF779FB41EC100B01F094
:101FE0006DFA51EC100BFEF7B5FB09EE100A18EE76
:101FF000100AFEF76BFB9FED8EBB53EC1B2BFEF71D
:10200000ADF941EC1C0B18EE100AFEF75FFB53EC28
:102010001B2BFEF7A3F953EC1C2BFEF746FA69EED7
:10202000098A41EC1C0B18EE900AFEF74FFB53ECAB
:102030001C2BFEF793F941EC100B01F03FFA51EC29
:10204000100BFEF787FB0AEE100A18EE100AFEF7D7
:102050003DFB53EC1B2BFEF781F941EC1C0B18EEFA
:10206000100AFEF733FB53EC1B2BFEF777F953EC0A
:102070001C2BFEF71AFA41EC1C0B18EE900AFEF727
:1020800025FB53EC1C2BFEF769F99FED6BCB53EC52
:102090001C2BFEF763F953EC1C2BFEF700FA9FEDA7
:1020A000681B53EC112BFEF772FAFEF753FB08EE98
:1020B000900A19EE100AFEF709FB41EC1C0B18EE12
:1020C000100AFEF703FB53EC1B2BFEF747F953EC0A
:1020D0001C2BFEF75CFA41EC100B01F015F851ECEB
:1020E000100BFEF737FB05461AEE100A56498842D8
:1020F0007EDCF5EEC0AA554CF1EE10FA0ED1B0EE32
:10210000690A02F061F9FEF7B1FA9FED511B53EC39
:10211000112BFEF7CAF9C4E91E010BE089EEAA0AE9
:1021200010EE100AFEF7D2FA41EC100B00F0ECFFB3
:1021300084ED1E0B2846FEF7C9FA88EE8A0A41ECA8
:102140001B0B10EE100AFEF7C1FA41EC100B00F069
:102150002FFE53EC1B2B51EC100BFEF7FFF83B4D01
:10216000B0EE480A8035C5E9000102F02DF9FEF70E
:102170007DFA41EC1A0B95ED000B01F031F99FED62
:1021800036BB51EC100B53EC1B2BFEF78EF941ECD8
:10219000180B19EE100AFEF799FA53EC182BFEF7FC
:1021A0007EF953EC1B2BFEF7F2F941EC100B00F01B
:1021B000FFFD53EC1A2B51EC100BFEF776F9C5E935
:1021C000020194ED1E0B02F0E3F810EE100AFEF788
:1021D0007DFAC4E91E0195ED000B02F0D9F810EE6E
:1021E000100AFEF773FAC5E9000195ED020B00E055
:1021F0001AE002F0CDF810EE100AFEF767FA9FED34
:10220000180BC5E9020185ED040B2078622806D081
:10221000FA2060625020A062E0623C20206300202F
:10222000E064206560656060BDEC0A8B70BD0000F5
:102230000000000000A05E400000000000A1D940A6
:1022400000000000004074400000A2430000002095
:1022500038E92F54FB21F93F0000000000406440A2
:1022600000000000008056C0012001F045FEFBE7A1
:102270002DED028B9FED468B474F484C4FF49679DE
:102280004FF0FA084FF480664FF4FA7A5FF00105D8
:1022900094ED160B53EC102B94ED1E0B51EC100B20
:1022A000FEF7FDF841EC100B01F0FEF853EC182B93
:1022B00051EC100BFEF736FA64D294ED1E0B53EC82
:1022C000102B94ED160B51EC100BFEF713FA08D2FD
:1022D000A068401C05D14846FEF77EFEC4F8248065
:1022E000A56094ED1E0B53EC102B94ED160B51ECE6
:1022F000100BFEF717FA0AD2A068012807D148464A
:10230000FEF76AFE4FF0FF30C4F82480A060207A08
:102310001021401EC2B22248FEF726FF012231469C
:102320003846FEF721FF012001F0E6FD606A002833
:1023300005DD504601F03EFD606A401E60620022ED
:1023400031463846FEF710FF012001F0D5FD606AE6
:10235000002805DD504601F02DFD606A401E6062D8
:10236000A068FEF783F99FED0F1B53EC112BFEF7CE
:102370009CF894ED161B53EC112BFDF7EFFFC4E90D
:10238000160185E70120E56401F0B6FD80E7000055
:10239000EC51B81E85EBB13F000002400000002068
:1023A000000402409544ECCF2234AF3F2DED028B68
:1023B0009FED468B474D484F4FF496794FF05008AC
:1023C0004FF4FA7AA5F180045FF0010694ED180B42
:1023D00053EC102B95ED000B51EC100BFEF75FF852
:1023E00041EC100B01F060F853EC182B51EC100B82
:1023F000FEF798F965D295ED000B53EC102B94ED98
:10240000180B51EC100BFEF78DF90AD2E068012889
:1024100007D14846FEF7E0FD4FF0FF30C4F82880B2
:10242000E06095ED000B53EC102B94ED180B51EC84
:10243000100BFEF75FF908D2E068401C05D1484652
:10244000FEF7CAFDC4F82880E660207B4FF4807157
:10245000401EC2B22148FEF787FE012220213846E5
:10246000FEF782FE012001F047FDA06A002805DD8D
:10247000504601F09FFCA06A401EA062002220216D
:102480003846FEF771FE012001F036FDA06A0028F3
:1024900005DD504601F08EFCA06A401EA062E06897
:1024A000FEF7E4F89FED0E1B53EC112BFDF7FDFF3B
:1024B00094ED181B53EC112BFDF750FFC4E91801E4
:1024C00084E70120266501F017FD7FE7EC51B81E77
:1024D00085EBB13F80000020000402400000024074
:1024E0003F0A674FB354AC3F2DED028B9FED468BF7
:1024F000474D484F4FF496794FF050084FF4FA7A11
:10250000A5F180045FF0010694ED1A0B53EC102B3B
:1025100095ED020B51EC100BFDF7C1FF41EC100BD8
:1025200000F0C2FF53EC182B51EC100BFEF7FAF839
:1025300064D295ED020B53EC102B94ED1A0B51EC79
:10254000100BFEF7D7F808D22069401C05D1484689
:10255000FEF742FDC4F82C80266195ED020B53EC8A
:10256000102B94ED1A0B51EC100BFEF7DBF80AD28E
:102570002069012807D14846FEF72EFD4FF0FF30B5
:10258000C4F82C802061207C2021401CC2B2384637
:10259000FEF7EAFD012240213846FEF7E5FD012065
:1025A00001F0AAFCE06A002805DD504601F002FCBB
:1025B000E06A401EE062002240213846FEF7D4FD6A
:1025C000012001F099FCE06A002805DD504601F089
:1025D000F1FBE06A401EE0622069FEF747F89FEDDC
:1025E0000E1B53EC112BFDF760FF94ED1A1B53ECFF
:1025F000112BFDF7B3FEC4E91A0185E701206665DA
:1026000001F07AFC80E70000EC51B81E85EBB13F89
:1026100080000020000002409BF48CB77450AC3F57
:102620002DED028B01263A4D9FED378BA5F18004ED
:1026300094ED1C0B53EC102B95ED040B51EC100B8F
:10264000FDF72DFF41EC100B00F02EFF53EC182B83
:1026500051EC100BFEF766F850D295ED040B53ECDD
:10266000102B94ED1C0B51EC100BFEF743F806D227
:102670006069401C03D13C20FEF7AEFC666195ED1D
:10268000040B53EC102B94ED1C0B51EC100BFEF7CC
:1026900049F808D26069012805D13C20FEF79CFC6E
:1026A0004FF0FF306061207D1A4F401EC2B24FF4E0
:1026B00080613846FEF758FD012208213846FEF7B2
:1026C00053FD012001F018FC002208213846FEF7D6
:1026D0004BFD012001F010FC6069FDF7C7FF9FED85
:1026E0000E1B53EC112BFDF7E0FE94ED1C1B53EC7D
:1026F000112BFDF733FEC4E91C0199E70120666048
:1027000001F0FAFB94E70000EC51B81E85EBB13FF5
:1027100080000020000402405E6017C48E66AC3F5B
:1027200001F0F5BB30B5244893B00025016841F0B5
:1027300080510160006800F0805012901F480168CD
:1027400041F4404101600068022400F440401290CE
:102750000120039010200490009406940820CDE9F5
:1027600007506420CDE909040420CDE90B04684634
:10277000FEF7F0FE00B1FEE70DA90F2081E8310061
:102780004FF48050CDE9100503210DA8FEF7D4FDCC
:1027900000B1FEE7FEF788FE4FF47A71B0FBF1F06E
:1027A000FFF776F80420FFF767F800220F21501E8C
:1027B000FEF790FD13B030BD40380240007000407D
:1027C0001048016841F4700101600F48016841F050
:1027D000010101600C4A00210832116002680B4BB4
:1027E0001A400260031D0A4A1A60026822F480221D
:1027F000026005480C3001600249580680390860C3
:102800007047000088ED00E000380240FFFFF6FE50
:10281000103000240148FFF7C0B80000100200206B
:102820000148FFF7BAB800009401002030B50268F3
:10283000114B124C984201D0A04203D122F07005F6
:102840004A682A43984207D0A04205D00C4CA042C7
:1028500002D00C4CA04203D122F44074CA68224337
:1028600002608A68C2620A688262984201D109697C
:1028700001630121416130BD00000140000C0040B6
:10288000004001400048014010B5806B0021C18527
:10289000C184FFF742F910BD0168CA6822F4907242
:1028A000CA6001684A6922F001024A61202180F869
:1028B0003A10704710B590F83A10222901D0022042
:1028C00010BD8168B1F5805F11D0016900290168F0
:1028D0001FD0496801F07F03816A4A1C82620B7035
:1028E000C18D491E0904090CC18518D026E0026972
:1028F000816A002A0268526805D0D2B20A80816AD1
:10290000491C8162ECE7C2F308020A80816A891CD3
:10291000F7E74A68816A4B1C83620A70E0E7016846
:10292000CA6822F49072CA6001684A6922F0010202
:102930004A61202180F83A10FFF7FCF9002010BD11
:102940002DE9F04104460068016921F44052E16834
:10295000114301612168C86849F20C629043236900
:10296000A268E5691A4363692B431A430243CA60AC
:102970002168486920F44072A06910434861E16908
:102980006425B1F5004F9748974A21684FF0320807
:102990003FD0914201D081427CD1FEF79BFD00EBFC
:1029A000C00101EB001061688900B0FBF1F6FEF791
:1029B00091FD00EBC00101EB001061688900B0FBE4
:1029C000F1F0B0FBF5F06FF01801484306EB800121
:1029D00008EB0110B0FBF5F000F0F006FEF77AFD11
:1029E00000EBC00101EB001061688900B0FBF1F061
:1029F000B0FBF5F006EB0016FEF76CFD00EBC00136
:102A000001EB001061688900B0FBF1F7FEF762FD91
:102A1000D2E0914201D081423DD1FEF75BFD00EB57
:102A2000C00101EB001061684900B0FBF1F0B0FBA0
:102A3000F5F00601FEF74EFD00EBC00101EB0010C2
:102A400061684900B0FBF1F7FEF744FD00EBC001FF
:102A500001EB001061684900B0FBF1F0B0FBF5F04C
:102A60006FF01801484307EB800108EBC100B0FB91
:102A7000F5F000F0F80006EB4006FEF72BFD00EB4A
:102A8000C00101EB001061684900B0FBF1F7FEF7EF
:102A900021FD3CE055E0FEF70DFD00EBC00101EB30
:102AA000001061684900B0FBF1F0B0FBF5F00601E1
:102AB000FEF700FD00EBC00101EB0010616849006A
:102AC000B0FBF1F7FEF7F6FC00EBC00101EB0010E4
:102AD00061684900B0FBF1F0B0FBF5F06FF0180150
:102AE000484307EB800108EBC100B0FBF5F000F0B4
:102AF000F80006EB4006FEF7DDFC00EBC00101EB41
:102B0000001061684900B0FBF1F7FEF7D3FC00EB61
:102B1000C00101EB001061684900B0FBF1F0B0FBAF
:102B2000F5F06FF01801484307EB800108EBC10096
:102B3000B0FBF5F000F00700216830448860BDE884
:102B4000F081FEF7B7FC00EBC00101EB00106168FB
:102B50008900B0FBF1F6FEF7ADFC00EBC00101EB24
:102B6000001061688900B0FBF1F0B0FBF5F06FF088
:102B70001801484306EB800108EB0110B0FBF5F0AB
:102B800000F0F006FEF796FC00EBC00101EB001030
:102B900061688900B0FBF1F0B0FBF5F006EB0016C0
:102BA000FEF788FC00EBC00101EB001061688900B2
:102BB000B0FBF1F7FEF77EFC00EBC00101EB00106B
:102BC00061688900B0FBF1F0B0FBF5F06FF018011F
:102BD000484307EB800108EB0110B0FBF5F000F073
:102BE0000F00A9E7001401400010014090F83910CF
:102BF000212901D0022070478168B1F5805F016A08
:102C00000BD04A1C0262026809785160C18C491ECF
:102C10000904090CC1840ED017E009880268C1F3C9
:102C20000801516001690029016A02D0491C016252
:102C3000ECE7891CFBE70168CA6822F08002CA60E1
:102C40000068C16841F04001C16000207047000089
:102C50002DE9F0413548FEF761FF0722344933483A
:102C6000FFF744F832483349334D02780A7042780E
:102C70004A7082788A70C1782970017969704179C7
:102C8000A9702E4980792E4F08702E49387809781E
:102C9000884248D12846FDF754FB2B4C2060202069
:102CA00028706870A8702348FDF74BFB0646DFF8D4
:102CB0009C802068FDF7DAFC9FED251B53EC112B5F
:102CC000FDF7F3FB9FED241B53EC112BFDF7E7FB06
:102CD000FDF7DDFC054620603046FDF7C7FC9FEDA3
:102CE000201B53EC112BFDF7E0FB9FED1F1B53EC5A
:102CF000112BFDF733FBFDF7CAFCC01DC8F800001F
:102D0000592D01DD2D1D256094ED000A9FED181A47
:102D1000F8EEC00A00EE100AB8EEC00AFFF74CF950
:102D2000144800783870BDE8F0810000D001002020
:102D3000CE000020C8000020CB00002001000020B1
:102D400000000020E4490008200000201C000020B2
:102D50008A8EE4F21FD2DF3F0E2DB29DEF736340E7
:102D6000FED478E92631E0BF14AE47E17A787440AA
:102D7000000013C3E549000803B40198410000981E
:102D800050EAC12018BF04204A0D18BF40F00100CE
:102D900040F2FF72B2EB515F08BF40F00200012821
:102DA00008BF052002B07047004870474801002066
:102DB00010B5B94A2DED020B2DED0C8B82B00F9999
:102DC00021F000409FEDB6CB90422CDBA0F14053A8
:102DD0000E9AA3F17F631A430FD0B349884202DCF5
:102DE00016D10E98A0B19DED0E0B02B0BDEC0C8B70
:102DF00002B0BDE8104000F087BF0029C1BF9FEDC1
:102E0000AC0B02B0BDEC0C8B02B0C8BF10BD16E01D
:102E1000012000F0B5FF02B0BDEC0C8B02B0BDE8A4
:102E2000104000F07DBFA44A9FEDA59B9FEDA6AB8F
:102E300090425EDAA6499FEDA8CB814208DBB0EE56
:102E40004C0AF0EE6C0A02B0BDEC0C8B02B010BD67
:102E50009DED0E0B53EC102B51EC100BFDF725FBE9
:102E600041EC180B9E480621B0EE480AF0EE680AC5
:102E7000784400F035FE53EC182B51EC100BFDF7A5
:102E800014FB41EC1B0B9748B0EE480AF0EE680AC1
:102E90000421784400F024FE53EC182B51EC100B65
:102EA000FDF703FB53EC192BFDF758FA41EC100B1F
:102EB00051EC1B0B53EC102BFDF769FB41EC100B95
:102EC00053EC102B9DED0E0B51EC100BFDF7EDFAB2
:102ED00053EC1A2BFDF7E6FA9DED0E1B53EC112B6C
:102EE000FDF7E0FA53EC1C2BFDF7DCFA41EC100B7C
:102EF000A9E79FED7D8B9FED7EBB9DED0E0B00291D
:102F000053EC192B51EC100B52DAFDF727FA53EC66
:102F1000182BFDF7CAFA41EC180B77480621B0EEE2
:102F2000480AF0EE680A784400F0DAFD53EC182BFA
:102F300051EC100BFDF7B9FA41EC1D0B6F48B0EEE8
:102F4000480AF0EE680A0421784400F0C9FD53EC09
:102F5000182B51EC100BFDF7A8FA53EC192BFDF7C9
:102F6000FDF941EC190B51EC180B01F037FA41EC6B
:102F7000180B53EC192B51EC1D0BFDF708FB53EC10
:102F8000182BFDF792FA53EC1A2BFDF788FA41EC57
:102F9000100B51EC180B53EC102BFDF7DFF953EC31
:102FA0001B2BFDF782FA53EC1C2BFDF77BFA6DE02F
:102FB000FDF778FA53EC182BFDF777FA41EC180B74
:102FC00001F00CFA41EC1A0B00208DED00AB0090E3
:102FD0009DED000B51EC1A0B53EC102BFDF7BEF9D5
:102FE0009DED000B41EC1C0B53EC102B51EC100B26
:102FF000FDF75BFA53EC182BFDF754FA53EC1C2B3E
:10300000FDF7C5FA41EC1C0B3D48B0EE480AF0EE66
:10301000680A0621784400F063FD53EC182B51EC4C
:10302000100BFDF742FA41EC1D0B3648B0EE480A92
:10303000F0EE680A0421784400F052FD53EC182B9E
:1030400051EC100BFDF731FA53EC192BFDF786F913
:1030500041EC100B51EC1D0B53EC102BFDF797FAC4
:1030600053EC1A2BFDF721FA53EC1C2BFDF776F9E4
:1030700041EC100B53EC102B9DED000B51EC100BA1
:10308000FDF76CF953EC1B2BFDF70FFA41EC100B1D
:10309000D9E60000000000000000F03F0000000042
:1030A000182D4454FB2109400000F07F000000006F
:1030B00000000000000000000000E03F00000000F1
:1030C000000000000000F03F075C143326A6913C8E
:1030D0000000603C00000000182D4454FB21F93F23
:1030E000041C0000121C0000000000000000E03F73
:1030F00000000000000000404E1B00005C1B0000B0
:10310000601A00006E1A000070B59B482DED020B8E
:103110002DED068B079D25F00044A04218DC974852
:10312000844202DC0AD1069840B19DED060BBDEC4D
:10313000068B02B0BDE8704000F0E6BD002DCCBFAC
:103140009FED8F0B9FED900BBDEC068B02B070BD19
:103150008F48A04215DD8F48A042D8BF4FF0FF3402
:1031600058DD9DED060B51EC100BFFF705FE042812
:1031700008BF00F0E5FD9DED060BBDEC068B02B02F
:1031800070BD9DED060B51EC100B00F01DFECDE95E
:10319000060181489FED828BA0423CDD8248A0421F
:1031A0001FDD00249FED82AB9DED060B53EC1A2B27
:1031B00051EC100BFDF7D2F89DED060B41EC190B0D
:1031C00053EC1A2B51EC100BFDF76FF953EC182B45
:1031D000FDF765F953EC192BFDF7D9F9CDE9060197
:1031E00049E09DED060B012453EC182B51EC100B1C
:1031F000FDF7B4F89DED060B41EC190B53EC182BC1
:1032000051EC100BFDF74BF953EC192BFDF7BFF9FF
:10321000CDE906012FE06848A0421FDD02249FEDA2
:10322000689B9DED060B53EC192B51EC100BFDF731
:103230003CF953EC182BFDF791F89DED060B41EC92
:10324000180B53EC192B51EC100BFDF728F953EC2C
:10325000182BFDF79CF9CDE906010CE09DED060B5E
:10326000032453EC102B9FED580B51EC100BFDF782
:103270008EF9CDE906019DED060B53EC102B51ECB8
:10328000100BFDF712F941EC180B53EC182BFDF75E
:103290000CF941EC190B4E480621B0EE490AF0EE4C
:1032A000690A784400F01CFC53EC182B51EC100B0D
:1032B000FDF7FBF841EC180B4648B0EE490AF0EE7A
:1032C000690A0521784400F00BFC53EC192B51ECF2
:1032D000100BFDF7EAF841EC100B51EC180B53EC16
:1032E000102B002C0EDAFDF739F89DED061B53EC80
:1032F000112BFDF7DAF89DED061B53EC112BFDF7B2
:10330000D1F835E0FDF72AF89DED061B53EC112BA3
:10331000FDF7CBF841EC100B2F48784400EBC400CC
:1033200090ED001B51EC100B53EC112BFDF7B7F88F
:103330009DED061B53EC112BFDF7B1F841EC100B82
:103340002648784400EBC40090ED001B51EC100BB4
:1033500053EC112BFDF7A6F841EC100B002DA2BF8A
:10336000BDEC068B02B070BD51EC100B81F000413A
:1033700041EC100B01E70000000010440000F07F5A
:10338000182D4454FB21F93F182D4454FB21F9BF5B
:103390000000DC3F0000203E0000F33F0000000082
:1033A000000000000000F03F0000E63F00000000C9
:1033B000000000000000004000800340000000000A
:1033C000000000000000F83F000000000000F0BF17
:1033D0008A18000040180000CA1700008217000079
:1033E00010B52F499FED2C1B2DED020B84B00598D5
:1033F00020F000408842D8BF9DED040B2DDD294907
:10340000884209D1049840B94FF0010000F0B8FC9F
:1034100000F086FC06B010BD05DB9DED040B00F04E
:1034200073FC06B010BD68469DED040B00F084F8F7
:1034300010F0030004BF9DED021B9DED000B0CD0AE
:1034400001280ED09DED021B9DED000B022817D028
:10345000012000F0C1FB06B010BD00F089FA06B0F3
:1034600010BD9DED021B9DED000B012000F0B4FB93
:1034700051EC100B81F0004106B041EC100B10BD77
:1034800000F076FA51EC100B81F0004106B041ECEF
:10349000100B10BD00000000000000000000000044
:1034A000FB21E93F0000F07F2DED020B019820F099
:1034B000004001909DED000B02B0704700B52DED6E
:1034C000048BB0EE409AF0EE609A83B051EC190B89
:1034D000FDF759FA41EC180B18EE100A18EE901A85
:1034E0008DED008B002818BF0120084320F000401C
:1034F000C0F17F6000F1E040C00F14D019EE101A47
:1035000019EE900A8DED009B002918BF0121084398
:1035100020F00040C0F17F6000F1E040C00F04BF28
:10352000012000F02DFCB0EE480A03B0F0EE680A6E
:10353000BDEC048B00BD00002DE9F14F04462DEDDC
:10354000020B2DED088B8AB09FEDE70B80ED020B8F
:10355000139EE74826F0004585420ADC9DED120BDC
:10356000002084ED000B0AB0BDEC088B03B0BDE871
:10357000F08FE0489FEDE0AB9FEDE1BBA84247DD57
:10358000E14F9FEDE39B9FEDE48B9DED120B53EC20
:103590001A2B51EC100B002E1CDDFCF780FF41ECC8
:1035A000100BBD4208D053EC1B2B51EC100BFCF759
:1035B00076FFC4E900010BE053EC192B51EC100B22
:1035C000FCF76DFF53EC182BFCF769FFC4E9000111
:1035D0000120C8E7FCF7C2FE41EC100BBD4208D049
:1035E00053EC1B2B51EC100BFCF7B8FEC4E90001A7
:1035F0000BE053EC192B51EC100BFCF7AFFE53EC26
:10360000182BFCF7ABFEC4E900014FF0FF30AAE72E
:10361000C348A84279DB9DED120B51EC100B00F072
:10362000D3FB41EC180B9FEDC00B53EC102BFCF7B8
:103630003CFF9FEDBF1B53EC112BFCF78FFEFDF7FA
:1036400026F80746FDF712F841EC190B53EC1A2B3C
:10365000FCF72BFF53EC182BFCF724FF41EC180B65
:1036600053EC1B2B51EC190BFCF71FFFDFF8C8A222
:1036700041EC100B4FEA15580125FA4453EC102B7E
:1036800051EC180BFCF70BFF032DC4E900013DD0F2
:10369000C1F30A5005EB4511A8EB00001139814236
:1036A00034DA0AEB051BB0EE48AA9BED000BF0EEF6
:1036B00068AA53EC102B51EC190BFCF7F6FE41EC09
:1036C0001B0B51EC1A0B53EC1B2BFCF7E8FE41ECE7
:1036D000180B51EC1A0B53EC182BFCF7E0FE53ECD3
:1036E0001B2BFCF7DCFE9BED020B41EC1A0B53ECA1
:1036F000102B51EC190BFCF7D8FE53EC1A2BFCF7EE
:10370000CEFE41EC100B6D1CB8E70EE0002EA8BFFA
:103710003846BFF628AF94ED000B51EC100B81F04A
:103720000041C4E9000178421DE7C6F3130040F4EC
:10373000801EC6F30A50A0F2F530471100F01F05B5
:10374000C5F12000DDF848B00890002006900790F1
:103750000520EC467949002D07EB0002794408BFAB
:1037600051F8221009D051F8223001EB8201AB4010
:103770004A68089922FA01F11943A1FB0E26A1FB20
:103780000B131A449A4234BF0123002303EB0608AB
:103790000CEB8003D3E901A60E448E4234BF012115
:1037A000002192448A4411B1924502D903E0924526
:1037B00001D2012100E00021C3E901A641444CF8F7
:1037C0002010011EA0F10100C4DC029800F100509D
:1037D000850F0298DDE903678000DDF81480FCF7AF
:1037E00045FF41EC1A0B3046FDF783F99FED541B62
:1037F00053EC112BFCF759FE41EC1B0B3846FDF73F
:1038000078F99FED511B53EC112BFCF74EFE41EC68
:10381000180B4046FDF76DF99FED4D1B53EC112B36
:10382000FCF743FE41EC190B51EC180B53EC192B30
:10383000FCF794FD53EC1B2BFCF790FD53EC1A2B7B
:10384000FCF78CFDCDE90801002008909DED080BE8
:1038500053EC1A2B51EC100BFCF721FE53EC1B2BF5
:10386000FCF71DFE53EC182BFCF719FE53EC192B3B
:10387000FCF718FE9FED381B53EC112BFCF715FEDF
:103880009FED370B41EC180B53EC102B9DED080B03
:1038900051EC100BFCF709FE53EC182BFCF75EFD06
:1038A0009FED310B41EC180B53EC102B9DED080BE9
:1038B00051EC100BFCF7F9FD53EC182BFCF74EFD07
:1038C00041EC100B139810F0004F06D06D4251ECF4
:1038D000100B81F0004141EC100B284684ED000BE9
:1038E00041E60000000000000000000000000000B1
:1038F000FB21E93F7CD9024000004054FB21F93F05
:103900003163621A61B4D03DFB21F93F0000000031
:103910000000601A61B4D03D7370032E8A19A33B76
:10392000FB2139410000000083C8C96D305FE43FCE
:10393000000000000000E03F1215000060140000CD
:10394000000000000000103E000000000000103CDD
:10395000000000000000103A182D4454FB21F93DEE
:103960003326A611460B113C00000054FB21F93D03
:1039700010B52DED040B2DED088B82B0B0EE419A01
:10398000F0EE619A0B9820F000449FED4BABB4F140
:10399000795F11DA9DED0A0B51EC100BFCF777FE05
:1039A000002801BFB0EE4A0AF0EE6A0A02B0BDEC90
:1039B000088B04BF04B010BD9DED0A0B53EC102B17
:1039C00051EC100BFCF771FD41EC180B3C48062143
:1039D000B0EE480AF0EE680A784400F081F853EC43
:1039E000182B51EC100BFCF760FD9DED0A0B41EC20
:1039F0001B0B53EC192B51EC100BFCF756FD41EC53
:103A0000190B53EC1B2B51EC180BFCF74EFD53EC30
:103A1000192BFCF744FD9FED2C0B41EC190B53ECDB
:103A2000102B51EC180BFCF740FD41EC100B284813
:103A3000844210DA53EC192B51EC100BFCF72FFDDC
:103A400053EC1A2BFCF72EFD41EC100B02B0BDEC31
:103A5000088B04B010BD1F48A042BCBF9FED1E1BC9
:103A60008DED001B06DBA4F50010019000200090F6
:103A70009DED001B51EC100B53EC112BFCF70FFDCF
:103A80009DED000B41EC180B53EC102B51EC1A0B75
:103A9000FCF705FD41EC1A0B53EC192B51EC180BFC
:103AA000FCF7FDFC53EC1A2BFCF7FCFC41EC100B73
:103AB000CCE7000000000000000000000000F03F24
:103AC0008411000000000000000000000000E03F42
:103AD0003333D33F0000E93F000000000000D23F35
:103AE00070B504462DED028B4D1E00EBC500B0EE07
:103AF000408AF0EE608A90ED000B35F0060017D09A
:103B000053EC182B51EC100BFCF7CFFC41EC100BD5
:103B10006D1E04EBC50090ED001B51EC100B53EC37
:103B2000112BFCF71BFC41EC100B35F00600E7D124
:103B3000022D36D0042D1CD0062D1CBFBDEC028BEF
:103B400070BD53EC182B51EC100BFCF7AEFC94ED50
:103B50000A1B53EC112BFCF701FC53EC182BFCF760
:103B6000A4FC94ED081B53EC112BFCF7F7FB41EC84
:103B7000100B53EC182B51EC100BFCF796FC94ED4A
:103B8000061B53EC112BFCF7E9FB53EC182BFCF74D
:103B90008CFC94ED040B53EC102BFCF7DFFB41EC99
:103BA000100B53EC182B51EC100BFCF77EFC94ED32
:103BB000021B53EC112BFCF7D1FB53EC182BFCF739
:103BC00074FC94ED001B53EC112BFCF7C7FBBDEC10
:103BD000028B41EC100B70BD31B504462DED040B8A
:103BE0002DED0A8BB0EE41BAF0EE61BA0B989DED67
:103BF0000A0B20F00040B0F1795F0DDA51EC100BA8
:103C0000FFF7BAF8042808BF00F09AF89DED0A0BF8
:103C1000BDEC0A8B05B030BD53EC102B51EC100BF2
:103C2000FCF743FC41EC180B9DED0A0B53EC182BF1
:103C300051EC100BFCF739FC41EC190B2C48B0EEA1
:103C4000480AF0EE680A05217844FFF749FF9FED26
:103C50002ACBB0EE40AAF0EE60AA9CB353EC1C2B2A
:103C600051EC190BFCF721FC41EC1C0B53EC1A2B0B
:103C700051EC190BFCF719FC9FED210B41EC190BD2
:103C800053EC102B51EC1B0BFCF70FFC53EC192BD6
:103C9000FCF705FC53EC182BFCF707FC53EC1B2B33
:103CA000FCF7FDFB53EC1C2BFCF7F9FB9DED0A1B0D
:103CB00053EC112BFCF7F6FBBDEC0A8B05B041EC85
:103CC000100B30BDFFE753EC1A2B51EC180BFCF72F
:103CD000ECFB53EC1C2BFCF741FB53EC192BFCF7D2
:103CE000E4FB9DED0A1B53EC112BFCF737FBE3E7DC
:103CF0000C10000000000000495555555555C5BF32
:103D0000000000000000E03F10B553EC102B51EC18
:103D1000100BFCF723FB41EC100B10BD0000000062
:103D20009FED050B10B553EC102B51EC100BFCF76D
:103D30002EFC41EC100B10BD000000000000000044
:103D40009FED050B10B553EC102B51EC100BFCF74D
:103D5000ACFB41EC100B10BD000000000000001097
:103D600002E008C8121F08C1002AFAD17047704744
:103D7000002001E001C1121F002AFBD170470000A2
:103D800001490860704700004801002010B507484D
:103D9000FDF7B2F80548FDF75FF80549642888612A
:103DA00001DA012010BD002010BD00004C010020F0
:103DB00000000020002104E00222521C1A2AFCDB31
:103DC000491C8142F8DB704782B0CDE9000121F047
:103DD000004001909DED000B02B051EC100B7047BC
:103DE000A0B0FDF7D5F9FEF79DFCFDF7CFFF3B4CEA
:103DF0003948002520604FF41650C4E901050C2015
:103E0000E560C4E90450A5612046E561FDF70EFFB9
:103E100000B1FEE7314832493C3801600221C0E977
:103E20000115C160FDF772FD00B1FEE72B481E953C
:103E30001EA93C381F95FDF741FD00B1FEE7FDF7D7
:103E40007BFF2068C16841F02001C1601422254930
:103E50006846FCF764FA0021684600F062F8224CDC
:103E6000204914226063143105A8FCF758FA002198
:103E700005A800F056F81B49A063142228310AA8AF
:103E8000FCF74DFA00210AA800F04BF81549E06351
:103E900014223C310FA8FCF742FA00210FA800F0D1
:103EA00040F8104920641422503114A8FCF737FA66
:103EB000002114A800F035F80A4960641422643126
:103EC00019A8FCF72CFA002119A800F02AF8A06420
:103ED00000F018F8FEE7000000440040D001002088
:103EE00000100040E84900080000002001460020C2
:103EF000842900D0C81C704710B5012000F05CFB7D
:103F0000002010BD10B500F07DFB002010BD10B5E5
:103F100000F094FC012803D0BDE8104000F04CBC38
:103F200010BD3EB504460D46B0F90800FFF7DEFFB0
:103F300002A9CDE90001208A2B4682B2D4E9001003
:103F400000F050FC012801D000203EBD02983EBD8B
:103F50002DE9F041184C0F460546E6682068001D23
:103F600000F073FA38B9206890F82C1001208840CE
:103F7000216981432161681C07D137B12168BDE8FF
:103F8000F0410E48091D00F098BA20683544B5424A
:103F90004560216805D2A06BBDE8F041091D00F025
:103FA00074BA606B091D00F070FAA06A854200D2F5
:103FB000A562BDE8F08100000C010020283F002030
:103FC0002DE9F041054600F085FA2E4CA068401C12
:103FD000A06020682C4F10B1606940B32DE02560CF
:103FE000A068012829D1002606EB860007EB800097
:103FF00000F03DFA761C072EF6D323488C3000F0F3
:1040000036FA2148A03000F032FA1F48B43000F0F0
:104010002EFA1D48C83000F02AFA1B48DC3000F0A8
:1040200026FA19488C3060631430A06305E02068DC
:10403000E96AC06A884200D82560606A401C6062F4
:10404000E96A0120226988401043206101EB810068
:1040500007EB8000291D00F030FA00F05BFA606980
:1040600000280CD02068E96AC06A884207D2074954
:104070004FF080500860BFF34F8FBFF36F8FBDE8E4
:10408000F08100000C0100204C3E002004ED00E017
:1040900070B5114E114C17E000F0E8FA3068B8B175
:1040A00000F03EFC00F016FAF068C568281D00F02C
:1040B000CCF9A068401EA0606068401E606000F0FF
:1040C00029FA284600F00CF860680028E4D170BD99
:1040D00000F026FCF8E70000143F00200C0100204F
:1040E00010B50446006B00F029FA2046BDE81040E8
:1040F00000F024BA10484FF47051420706D0C01D9A
:104100000D4920F00700411AC1F570510B4A0023F8
:104110000144C2E900030839103A21F00701116097
:104120004B600B600B1AC0E9001393604FF0004026
:104130005360D060704700004C020020F80000205F
:10414000074C4FF08056074DFFF7A2FF206801286B
:10415000FAD92E60BFF34F8FBFF36F8FF4E70000E3
:104160004C3E002004ED00E02DE9F0479A46DDE9E1
:10417000098481466FF00303206B03EB8202104435
:10418000089D20F00706700707D0502080F31188A3
:10419000BFF34F8FBFF36F8FFEE723180A5C83F8DE
:1041A00034200A5C12B1401C1028F6D3002784F892
:1041B0004370072D00D30625E562C4E91157201D81
:1041C00000F060F904F1180000F05CF92461C5F119
:1041D00007006462A061E76484F850705246494663
:1041E000304600F0BFF82060B8F1000F01D0C8F8E9
:1041F0000040BDE8F087000030B5114900E01146ED
:104200000A688242FBD34B685C18844203D1406841
:1042100018444860084643681C18944209D1084C69
:10422000103C2468A24209D052681A4442600A68CD
:1042300012680260814200D0086030BD0460F9E776
:10424000F80000200648416B096829B1416BC96834
:10425000C9684968816270474FF0FF31FAE7000092
:104260000C01002008484068401C4FF0500080F3CB
:10427000118804D0BFF34F8FBFF36F8FFEE7BFF3FA
:104280004F8FBFF36F8FFEE7000100202DE9F04153
:104290000546002700F0EAF9314E306808B9FFF70B
:1042A00029FFF06805424BD1C5B3083568070ED029
:1042B00005F00700C0F108000544680707D050204A
:1042C00080F31188BFF34F8FBFF36F8FFEE72DB3DD
:1042D0007068854234D82248103001460C6801E0ED
:1042E00020460C466168A94202D221680029F7D114
:1042F00031688C4224D00768216801606068083703
:10430000411B10290FD96019420708D0502080F3B3
:104310001188BFF34F8FBFF36F8FFEE710E041604E
:104320006560FFF769FF61687068401A7060B26885
:10433000904200D2B060F06801430020C4E900015F
:1043400000F0EEFA780707D0502080F31188BFF311
:104350004F8FBFF36F8FFEE73846BDE8F081000056
:10436000E800002010B5031F4FF080741C601B1F75
:1043700021F001011960191F044B0B6014390A6008
:10438000091F6FF0020244380A6010BD6542000840
:104390009FED091B10B553EC112B51EC100BFCF7E2
:1043A00084F89FED071B53EC112BFCF7F0F8FCF79A
:1043B000D1F900EE100A10BD000000000080764028
:1043C00038E92F54FB211940B5EEC00AF1EE10FA7E
:1043D00001DB012070474FF0FF30704700B52DED35
:1043E000048B83B041EC190BFCF7CDFA41EC180BB0
:1043F00018EE100A18EE901A8DED008B002818BFE9
:104400000120084320F00040C0F17F6000F1E0404F
:10441000C00F14D019EE101A19EE900A8DED009B02
:10442000002918BF0121084320F00040C0F17F603F
:1044300000F1E040C00F04BF0120FFF7A1FC51ECE8
:10444000180B03B0BDEC048B00BDD0E9013201694B
:104450009A60D0E901235A604A68824201D1826899
:104460004A60002202610868401E0860704700F13F
:1044700008014FF0FF32C0E90112C1600161002163
:104480000160704700210161704730B50B685A1C0C
:1044900002D000F1080202E0026904E022465468FA
:1044A00025689D42FAD953684B6099608A605160D3
:1044B00008610168491C016030BD42684A60936828
:1044C0008B6093685960916008610168491C0160C4
:1044D00070470000502080F31188BFF34F8FBFF367
:1044E0006F8F0A494868401C486001280CD1084871
:1044F000006810F0FF0F07D0502080F31188BFF341
:104500004F8FBFF36F8FFEE7704700000001002060
:1045100004ED00E00849486828B1401E486001D118
:1045200080F311887047502080F31188BFF34F8FBC
:10453000BFF36F8FFEE700000001002070B5002878
:1045400027D0144DA0F108046168E868014207D142
:10455000502080F31188BFF34F8FBFF36F8FFEE7BA
:1045600022683AB1502080F31188BFF34F8FBFF318
:104570006F8FFEE78143616000F078F860686968DA
:10458000084468602046FFF737FEBDE8704000F041
:10459000C7B970BDE8000020064840F26C710068A1
:1045A000B0FBF1F14FF0E020491E416107210161AC
:1045B00070470000E400002010B5020014D00F483E
:1045C000006B38B1502080F31188BFF34F8FBFF3D9
:1045D0006F8FFEE700F04AF800211046FFF7B8FCA5
:1045E00000F09EF9002807D105494FF0805008607F
:1045F000BFF34F8FBFF36F8F10BD00000C01002081
:1046000004ED00E01CB515480024CDE90040234628
:10461000802213A1144800F0E5F8012809D0401CBD
:104620001AD1502080F31188BFF34F8FBFF36F8FE3
:10463000FEE7502080F31188BFF34F8FBFF36F8FD9
:1046400006484FF0FF312C38816201214161C4607E
:10465000BDE81C4000F040B81CBD0000380100203F
:1046600049444C4500000000414100080248016BEC
:10467000491C0163704700000C0100201448016BC5
:1046800011B10121C16170470021C1610169B1FA15
:1046900081F1C1F11F0101EB81020E4951F8223075
:1046A0006BB101EB820101F108034A6852684A606C
:1046B0009A4201D152684A60D16801607047502027
:1046C00080F31188BFF34F8FBFF36F8FFEE70000B9
:1046D0000C0100204C3E00201CB532480168324AD3
:1046E000914207D1502080F31188BFF34F8FBFF361
:1046F0006F8FFEE700682C49491E884207D1502081
:1047000080F31188BFF34F8FBFF36F8FFEE7274908
:1047100008780190FF20087008788DF800009DF857
:1047200000009DF8002000F0F000904207D05020DB
:1047300080F31188BFF34F8FBFF36F8FFEE79DF8B3
:1047400000001B4A00F0500010700720906005E048
:104750009DF800305B008DF80030401E9DF8003061
:104760001B06F5D4000200F4E06090600198087028
:104770000C482030016841F470010160016841F08B
:1047800070410160FFF708FF00205060FBF746FD15
:104790000848016841F040410160FBF72FFD00200F
:1047A0001CBD000000ED00E071C20F4100E400E01C
:1047B0000001002034EF00E010B5502080F3118894
:1047C000BFF34F8FBFF36F8F00F046F818B1044965
:1047D0004FF080500860002080F3118810BD000069
:1047E00004ED00E02DE9FF5F8346DDE90E87994681
:1047F00016468A469000FFF749FD05001AD054205E
:10480000FFF744FD040012D025630021CDE90241E9
:10481000CDE900874B46324651465846FFF7A4FC87
:104820002046FFF7CDFB012004B0BDE8F09F2846ED
:10483000FFF784FE4FF0FF30F6E7000005484169BE
:1048400019B1006B18B10020704701207047022099
:10485000704700000C0100202DE9F0412E4C00278C
:10486000206B40B1A069401CA061E06900B1012744
:104870003846BDE8F081E668761CE66013D1606BCF
:10488000006838B1502080F31188BFF34F8FBFF319
:104890006F8FFEE7606BA16B6163A063206A401CB1
:1048A0002062FFF7CFFCA06ADFF87080864209D350
:1048B000606B006880B1606BC068C56868688642DC
:1048C0000DD2A0622068C06A00EB800158F8210078
:1048D0000128CAD90127C8E74FF0FF30F1E7281DAA
:1048E000FFF7B3FDA86A18B105F11800FFF7ADFD99
:1048F000E86A0121226981401143216100EB8001B6
:1049000008EB8100291DFFF7D8FDE86A2168C96A14
:104910008842CDD30127CBE70C0100204C3E00207C
:104920002DE9F0472C4D00242746286B38B1FFF7BE
:10493000D1FD286B401E2863286B40B146E0502013
:1049400080F31188BFF34F8FBFF36F8FFEE7A96825
:10495000224E0120D1B3A6F1B40980463068E8B1F7
:10496000F068C46804F11800FFF76FFD201DFFF721
:104970006CFDE06A2A6908FA00F11143296100EB35
:10498000800109EB8100211DFFF797FDE06A29688E
:10499000C96A8842E2D3C5F81C80DFE70CB1FFF793
:1049A00051FCAC6944B14646FFF756FF00B1EE61D9
:1049B000641EF9D10020A861E86938B108490127CF
:1049C00038070860BFF34F8FBFF36F8FFFF7A2FD6B
:1049D0003846BDE8F08700000C010020003F0020B1
:1049E00004ED00E061620000584D000869220008F3
:1049F000000000000000000080000000084D0008DA
:104A0000712200080000000000000000800000008B
:104A1000184D0008AD230008000000000000000051
:104A200080000000284D0008E9240008FDFF000078
:104A30000000000080000000384D0008212600081A
:104A4000FDFF00000000000080000000484D00084D
:104A5000951E00080000000000000000800000001B
:104A6000000000000000000001020304060708091E
:104A70000000000001020304555555555555C53F2A
:104A80007D6FEB0312D6D4BF5544880E55C1C93F84
:104A90003B8F68B52882A4BF88B20175E0EF493F1B
:104AA00009F7FD0DE13D023F4B2D8A1C273A03C05B
:104AB000C88A599CE52A004059018D1B6C06E6BF47
:104AC00082922EB1C5B8B33F4FBB610567ACDD3FE5
:104AD000182D4454FB21E93F9BF681D20B73EF3F25
:104AE000182D4454FB21F93FE2652F227F2B7A3C9D
:104AF000075C143326A6813CBDCBF07A8807703C56
:104B0000075C143326A6913CC4EB98999999C9BFC8
:104B1000711623FEC671BCBF6D9A74AFF2B0B3BFFD
:104B20009AFDDE522DDEADBF2F6C6A2C44B4A2BFBD
:104B30000D5555555555D53FFF8300922449C23F29
:104B40006E204CC5CD45B73F513DD0A0660DB13F5D
:104B5000EB0D76244B7BA93F11DA22E33AAD903F6F
:104B60004C5555555555A53F7751C1166CC156BF8B
:104B70009015CB19A001FA3EAD529C804F7E92BE9B
:104B8000C4B1B4BD9EEE213ED43888BEE9FAA8BDBA
:104B900000004054FB21F93F3163621A61B4D03DFB
:104BA0000000601A61B4D03D7370032E8A19A33BD4
:104BB0000000002E8A19A33BC14920259A837B3926
:104BC00000000000000000006E83F9A22915444E89
:104BD000D15727FCC0DD34F5999562DB4190433C09
:104BE000AB6351FE61C5BBDE3A6E24B7E0D24D42E5
:104BF000EA2E49061C92D1091CEB1DFE3EA729B1E5
:104C0000F53582E88444BB2E26709CE9417E5FB472
:104C100039D69139F43953838B5F849C3B28F9BD95
:104C2000FF97F81F0F9805DE8B112FEF1F6D0A5AA3
:104C3000CF7E366DB709CB27663F464F2DEA5F9E84
:104C4000C7BA27757BF1E5EBF739073DEA92528A3F
:104C5000B15FFB6B085D8D1FA6F810111111813F2C
:104C6000D561C119A0012ABF7DFEB157E31DC73E22
:104C7000EB9C2B8AE6E55ABE7CD5CF5A3AD9E53D66
:104C8000004040404040404040404141414141405F
:104C90004040404040404040404040404040404014
:104CA00040050202020202020202020202020202A3
:104CB00002202020202020202020200202020202A8
:104CC0000202909090909090101010101010101000
:104CD000101010101010101010101010020202020C
:104CE0000202888888888888080808080808080850
:104CF000080808080808080808080808020202024C
:104D000040000000814C000853746570706572317A
:104D10005F5461736B00000053746570706572328C
:104D20005F5461736B00000053746570706572337B
:104D30005F5461736B00000053746570706572346A
:104D40005F5461736B0000004D61696E5F41726D6D
:104D50005F5461736B00000064656661756C745428
:104D600061736B00844D0008000000204C010000BE
:104D7000280B0008D84D00084C010020F441000029
:104D8000703D00086361675A01041AFF012908C1D8
:104D900032FA5A5004022F3C2B9A99011D41C0CD82
:104DA000CC01540C4E40D48056C05B8056184A410A
:104DB000181920329632B41A7E909AF00C29181ADB
:104DC0004C086918690C011029C48210031D24F4D1
:084DD0001AAA010144000000D1
:04000005080001C925
:00000001FF
