:020000040800F2
:10000000D842002099020008A1020008A3020008BB
:10001000A5020008A7020008A902000800000000CD
:10002000000000000000000000000000DD010008EA
:10003000AD0200080000000031020008D5220008CF
:10004000B3020008B3020008B3020008B3020008BC
:10005000B3020008B3020008B3020008B3020008AC
:10006000B3020008B3020008B3020008B30200089C
:10007000B3020008B3020008B3020008B30200088C
:10008000B3020008B3020008B30200080000000039
:10009000000000000000000000000000B3020008A3
:1000A000B3020008C9230008B3020008B302000825
:1000B000000000000000000000000000B302000883
:1000C000B3020008B3020008B3020008B30200083C
:1000D000B3020008B3020008052800080000000071
:1000E000B3020008B3020008000000000000000096
:1000F000000000000000000000000000B302000843
:100100000000000000000000B30200080000000032
:100110000000000000000000D523000800000000DF
:10012000B3020008B3020008B3020008B3020008DB
:10013000B302000800000000000000000000000002
:1001400000000000000000000000000000000000AF
:10015000B3020008B3020008B3020008B3020008AB
:10016000000000000000000000000000000000008F
:10017000000000000000000000000000000000007F
:10018000B3020008B30200080000000000000000F5
:1001900000000000B30200080000000000000000A2
:1001A000000000000000000000000000000000004F
:1001B000000000000000000000000000B302000882
:1001C000B3020008B3020008DFF80CD000F0E0FB37
:1001D000004800479D460008D84200202B4B196874
:1001E0000868B0E8F04F80F30988BFF36F8F4FF0D5
:1001F000000080F311887047000000000648006886
:10020000006880F3088862B661B6BFF34F8FBFF312
:100210006F8F00DF00BF00BF08ED00E0DFF80C00CB
:10022000016841F470010160704700BF88ED00E093
:10023000EFF30980BFF36F8F144B1A681EF0100F95
:1002400008BF20ED108A20E9F04F106008B44FF08D
:10025000500080F31188BFF34F8FBFF36F8F04F00E
:1002600047FE4FF0000080F3118808BC1968086849
:10027000B0E8F04F1EF0100F08BFB0EC108A80F30A
:100280000988BFF36F8F704700BF00BFA800002030
:10029000EFF3058070470000064880470648004796
:1002A000FEE7FEE7FEE7FEE7FEE7FEE7FEE7FEE726
:1002B000FEE7FEE775230008C90100082DE9F05F9D
:1002C0000546002092469B468846064681464024C5
:1002D0001BE0284641464746224600F03AFA53467C
:1002E0005A46C01A914110D311461846224600F0D2
:1002F00021FA2D1A67EB01084F4622460120002102
:1003000000F018FA17EB00094E41201EA4F1010479
:10031000DFDC484631462A464346BDE8F09F40EAC6
:1003200001039B0703D009E008C9121F08C0042A73
:10033000FAD203E011F8013B00F8013B521EF9D25A
:1003400070472DE9FE4F804681EA0300C00F0C463E
:10035000009021F0004123F00045B8EB0200A941D4
:1003600005D24046214690461C460B46024623F0E5
:100370000040104347D0270DC7F30A00C3F30A51CA
:100380000290401A019040286BDAC3F3130040F446
:10039000801B0098924620B10023D2EB030A63EB46
:1003A0000B0B01985946C0F14002504600F0C2F9CB
:1003B00006460D4650465946019A00F0DAF910EB10
:1003C00008006141002487EA115284EAE7731A4366
:1003D00040D0009A62B3019A012A4FEA075215DC15
:1003E000001B61EB02014FF0004202EA0752CDE927
:1003F0000042001C41F5801132462B4600F011FAF4
:1004000003B0BDE8F08F40462146F9E7001B61EBE1
:100410000201001C41F5801300185B412018A2F571
:10042000001747EB030140EAD570B6196D4111E0A2
:100430006D084FEA360645EAC0754FEA0752001BC1
:1004400061EB0201001C41F5801149084FEA3000C0
:100450000019514132462B4603B0BDE8F04F00F081
:10046000D1B90098012240000023D0EB020263EBD7
:10047000E073009821464FEAE074B8EB000061EBAE
:100480000401E9E783F000435BE781F0004158E7AE
:100490002DE9FE4F81EA030404F0004421F00041FD
:1004A00000944FF0000B23F0004350EA01045ED0AB
:1004B00052EA03045BD0C3F30A54C1F30A552C4437
:1004C000A4F2F3340194A0FB0254C1F3130141F4EC
:1004D0008011C3F3130343F4801301FB024400FBB8
:1004E000034E840A970A44EA815447EA8357A4FBDF
:1004F000076802958D0A05FB07854FEA932C04FBDC
:100500000C542705029D4FEA065847EA1637B5EB0B
:1005100008056EEB070C870E920E47EA811742EA38
:100520008312A7FB0201B6EB0B0164EB00042B0D59
:1005300043EA0C335E1844EB1C50DA465146E7FBA5
:100540000201C5F313044FEA0B3343EA14534FEA95
:100550000432019C43EA0603A4F10C040294009CBB
:10056000CDE900B400F05DF903B0BDE8F08F0020E4
:100570000146F9E72DE9F04D81EA030404F0004B50
:1005800021F0004514464FF0000A23F0004150EAE4
:10059000050220D054EA01021DD0C5F30A570246D5
:1005A000C5F31303C1F31300C1F30A5640F48015D9
:1005B00043F48013A7EB0608101BD64608F2FD385B
:1005C00073EB050002D308F1010801E092185B41CA
:1005D000B8F1000F03DA00200146BDE8F08D0020DD
:1005E0004FF48011064684460EE0171B73EB050797
:1005F00005D3121B63EB050306434CEA010C4908C3
:100600004FEA300092185B4150EA0107EDD152EAFF
:10061000030012D082EA040083EA0501084305D0F2
:10062000101BAB4106D20122002306E000224FF04E
:10063000004302E06FF0010253101AEB06004CEB8E
:10064000085110EB0A0041EB0B01BDE8F04D00F042
:10065000D9B80EB5C10F80EAE0700844CA0700217E
:1006600040F233438DE80E000A460B4600F0D9F8FD
:1006700003B000BD00F0004230F000400AD0C10DD0
:1006800001F56071C0F3160042EA0151C20840074B
:1006900011437047002001467047000030B5041E2A
:1006A00071F1000404DB4FF00044404264EB0101AF
:1006B000141E73F1000405DB1C464FF00043524248
:1006C00063EB04038B4208BF824230BD30B5041E89
:1006D00071F1000404DB4FF00044404264EB01017F
:1006E000141E73F1000405DB1C464FF00043524218
:1006F00063EB0403994208BF904230BD01F0004310
:1007000030B421F0004150EA010206D00A0DA2F5F2
:100710006072C1F31301002A02DC30BC0020704774
:10072000440F44EAC104C100E01830BC00EBC250E1
:1007300000F031B8202A04DB203A00FA02F1002050
:1007400070479140C2F1200320FA03F3194390400F
:100750007047202A04DB203A21FA02F0002170477A
:1007600021FA02F3D040C2F1200291400843194619
:100770007047202A06DBCB17203A41FA02F043EA01
:10078000E07306E041FA02F3D040C2F1200291404A
:100790000843194670470029A8BF7047401C49000C
:1007A00008BF20F00100704710B4B0FA80FC00FAD6
:1007B0000CF050EA010404BF10BC704749B1CCF101
:1007C000200421FA04F411FA0CF118BF012121438D
:1007D0000843A3EB0C01CB1D4FEA00614FEA102048
:1007E00042BF002010BC704700EBC35010440029EA
:1007F000A4BF10BC7047401C490008BF20F0010096
:1008000010BC704710B5141E73F1000408DA401CC8
:1008100041F1000192185B411A4301D120F001001F
:1008200010BD2DE9F04D92469B4611B1B1FA81F20F
:1008300002E0B0FA80F220329046FFF77BFF0446D8
:100840000F4640EA0A0041EA0B0153465A46084364
:1008500013D0114653EA010019D0C8F140025046A6
:10086000FFF777FF05460E46504659464246FFF7CA
:1008700061FF084305D0012004E020463946BDE869
:10088000F08D0020054346EAE0762C4337430A9872
:100890006305E40AA0EB08000022FD0A44EA47547D
:1008A0000A3002D500200146E9E701051019694127
:1008B000DDE9084500196941BDE8F04DA2E770B5D2
:1008C00021F0004303430CD0C1F30A550024D5EBBB
:1008D000040564EB0403D617AD1AB34102DB002014
:1008E000014670BD201841EB025170BD2DE9F04D5D
:1008F00000231A461B1A8A4103DB00200146BDE88B
:10090000F08DC1F30A52C1F3130141F480154FF089
:10091000000BD10702D100186D41521E002704467A
:1009200040F2FF11384601EB620A3E46804602461D
:1009300000204FF48011FFF70CFFC2197141BB1862
:1009400046EB0100B4EB030C75EB000C04D3E41A86
:1009500065EB000517460E46241908F101006D41AC
:1009600080463428E3DDF91946EB0600091BA8414F
:1009700003D24FF0FF32134601E0002213461BEB77
:10098000070046EB0A51BDE8F04DFFF73BBF000002
:10099000064C074D06E0E06840F0010394E80700CC
:1009A00098471034AC42F6D3FFF712FCE455000828
:1009B000045600080EB540F2334102910021CDE902
:1009C00000110A460B46FFF72CFF03B000BD70B5BF
:1009D000C1F30A5201F000450024C1F3130140F2B3
:1009E000FF3341F480119A4201DA002070BD40F2D9
:1009F00033439A42A2F2334203DC5242FFF7A9FE8C
:100A000000E090402C43F1D0404270BD454910B504
:100A10004A6822F440324A604A6843681A434A608E
:100A200001684A6822F480724A6001684A68036972
:100A300042EA03224A6001684A6822F040724A6032
:100A400001684A6883681A434A6001688A6822F428
:100A500000628A6001688A68C3681A438A60816A92
:100A60006FF07062D14201688A6822F070628A6019
:100A700001688A680CD0836A1A438A6001688A68B0
:100A800022F040528A6001688A68C36A1A4301E012
:100A900022F040528A6001688A6822F002028A606D
:100AA00001688A68836942EA43028A60016A002910
:100AB00001684A680FD042F400624A6001684A68DF
:100AC00022F460424A6001684A68174C436A04EBAA
:100AD00043331A4301E022F400624A600168CA6AA3
:100AE00022F47002CA620168CA6A838B0F4C04EB5D
:100AF00003531A43CA6201688A6822F400728A604A
:100B000001688A68036B42EA43228A6001688A6846
:100B100022F480628A6001688A68406942EA802023
:100B2000886010BD0023014000E0FFFF0000F0FFDF
:100B3000002104E00222521C1A2AFCDB491C8142DB
:100B4000F8DB70472DE9F041012210211E4800F02A
:100B50005DFA0122DFF8748017023946404600F042
:100B600055FA1B4C00264FF4FA750122202120462D
:100B700000F04CFA2846FFF7DBFF00222021204638
:100B800000F044FA2846FFF7D3FF761CC82EECDBB2
:100B900000223946404600F039FA00260122202181
:100BA000204600F033FA2846FFF7C2FF002220213A
:100BB000204600F02BFA2846FFF7BAFF761CC82E15
:100BC000ECDBBDE8F08100000008024000000240BC
:100BD0000004024078B50024009490F83C20012ADB
:100BE00019D0012280F83C200A6807230568092AE9
:100BF00013D9EE680A3A02EB420293409E43EE603C
:100C00000B788A680A3B03EB43039A400368DD686C
:100C10002A43DA6010E0022078BD2E6902EB42021E
:100C200093409E432E610B788A6803EB43039A40FE
:100C300003681D692A431A614A681F23072A13D2D1
:100C400005686E6B521E02EB820293409E436E63F8
:100C50000B790A885B1E92B203EB83039A40036808
:100C60005D6B2A435A6327E005680D2A12D22E6B6A
:100C7000D21F02EB820293409E432E630B790A88B7
:100C8000DB1F92B203EB83039A4003681D6B2A4378
:100C90001A6311E0EE6A0D3A02EB820293409E4322
:100CA000EE620B790A880D3B92B203EB83039A4004
:100CB0000368DD6A2A43DA62164B0568144A9D42CE
:100CC00006D10D68122D03D1556845F48005556095
:100CD00005689D4218D10B68102B01D0112B13D140
:100CE000536843F400035360096810290CD10A4982
:100CF0000A4A0968B1FBF2F101EB8101490000E009
:100D0000491E00910029FBD180F83C40002078BDAD
:100D100000230140002001408000002040420F00DD
:100D20000068C06C704770B504004FF0000503D038
:100D3000206C002610B107E0012070BD666484F8C5
:100D40003C60204600F01AF8206CC00610D4206CDD
:100D500020F4885040F0020020642046FFF756FE41
:100D60006664206C20F0020040F00100206400E086
:100D7000012584F83C60284670BD000000B500687D
:100D80000C4987B0884212D10B480021026842F416
:100D900080720260006800F480700590012000906D
:100DA0000320CDE901016946044800F079F807B055
:100DB00000BD000000200140443802400000024015
:100DC00018B50021009190F83C20012A07D001229B
:100DD00080F83C2002689368DB0702D011E0022013
:100DE00018BD936843F001039360204A204B1268BA
:100DF000B2FBF3F202EB420200E0521E0092002A24
:100E0000FBD102689368DB072DD0036C40F20164CC
:100E1000A34343F48073036453685B0505D5036CF7
:100E200023F4005343F480530364036CDB0404D5C0
:100E3000436C23F00603436400E0416480F83C10F7
:100E40000C496FF02203136049680068C90602D09C
:100E50000949884207D1816811F0405F03D1816858
:100E600041F080418160002018BD0000800000201A
:100E700040420F00002301400020014090F835104F
:100E8000022903D08021416501207047052180F8A7
:100E900035100068016821F00101016000207047F1
:100EA0002DE9F84FDFF84CB100224FF001084FF068
:100EB000030A4FF00F090BF1040E00BF0B6808FA8C
:100EC00002F42340A3427DD14D68022D01D0122DA2
:100ED0000ED1D50800EB850CDCF820505607F70E34
:100EE00009FA07F6B5430E69BE402E43CCF82060E0
:100EF000066855000F790AFA05FC07F0030726EA91
:100F00000C06AF40374307604E68012E05D0022E15
:100F100003D0112E01D0122E0ED18768CE6827EA99
:100F20000C07AE403E4386604668A6430C79C4F386
:100F30000014944034434460C4688E6824EA0C046E
:100F4000AE402643C6604C68E4004DD52A4C256867
:100F500045F480452560246822F0030504F48044AC
:100F60000094264C2E19D6F8084895072F0F09FA39
:100F700007F5AC43224DA84201D100250AE0214DDE
:100F8000A84201D1012505E01F4DA84201D102254B
:100F900000E00725BD402543C6F80858DBF80040AF
:100FA0005D464E689C43F60300D51C432C60DEF87A
:100FB000004075464E689C43B60300D51C432C6028
:100FC0000C4D00E010E008352C684E689C43F6029A
:100FD00000D51C432C60074D0C352C684E689C4393
:100FE000B60200D51C432C60521C102AFFF466AFD9
:100FF000BDE8F88F003C0140443802400030014019
:101000000000024000040240000802400AB1816171
:1010100070470904FBE70000014880687047000042
:101020007400002002488168027811448160704792
:10103000740000200B4810B5016841F40071016094
:10104000016841F480610160016841F480710160D0
:10105000032000F0B1F8002000F006F800F03EF8A0
:10106000002010BD003C024010B5014688B00022AF
:10107000192000F081F8192000F072F813480024BC
:10108000016841F001010160006805A900F001005C
:101090000690684600F03AF900F06EF90C490D4AE6
:1010A000B0FBF1F10C48491E026040F2E732C0E9A2
:1010B0000324C0E9011400F07BFB10B1012008B04B
:1010C00010BD054800F0AEFBF9E7000044380240CF
:1010D00040420F0000000140AC0100201F4808B54D
:1010E000016841F480410160006800F48040009094
:1010F0001A48001F016841F080510160006800F04B
:1011000080500090032000F057F8002211466FF045
:101110000B0000F031F8002211466FF00A0000F0D9
:101120002BF8002211466FF0090000F025F800228C
:101130001146501F00F020F800221146101F00F049
:101140001BF800220F21901E00F016F800220F213C
:10115000BDE80840501E00F00FB8000044380240BF
:1011600000F01F02012191404009800000F1E020C1
:10117000C0F8001170470000F0B40E4B1B680C461D
:10118000C3F30223C3F10705042D00D90425191D5B
:10119000072901D2002300E0DB1E012606FA05F133
:1011A000491E214099409E40761E16403143F0BCB6
:1011B00000F09EBE0CED00E0064900F00702086852
:1011C0004FF6FF03184040EA0220034A104308602C
:1011D000704700000CED00E00000FA052DE9F04733
:1011E0000E46050065D0DFF81481D8F80000F7B28C
:1011F00000F00F00B04207D288F80070D8F8000065
:1012000000F00F00B04254D128683D4C810712D540
:10121000400703D5206840F4E0502060287800079C
:1012200003D5206840F4604020602068A96820F061
:10123000F000084320602878C0072DD03049686846
:101240000839012812D0022813D0032811D00968C8
:10125000890700292DDA216821F00301014321606B
:10126000FFF7DAFE814641F2883A0EE00968890309
:10127000EFE709688901ECE7FFF7CEFEA0EB090173
:10128000514502D90320BDE8F0872068696800F065
:101290000C00B0EB810FEFD1D8F80010404601F000
:1012A0000F01B14207D90770006800F00F00B0428B
:1012B00001D00120E7E72878400705D52068E968D4
:1012C00020F4E050084320602878000706D5206805
:1012D000296920F4604040EAC100206000F05CF819
:1012E0002168084AC1F30311515CC84006490860EF
:1012F0000020FFF7B9FE0020C5E70000003C0240D7
:1013000008380240D4520008800000200F220260FA
:101310000C4A136803F003034360136803F0F003FF
:101320008360136803F4E053C36012684FF4E05322
:1013300003EAD20202610448006800F00F0008606E
:101340007047000008380240003C02400148006835
:1013500070470000800000200448054900680968C3
:10136000044AC1F38221515CC840704780000020CC
:1013700008380240E452000804480549006809683A
:10138000044AC1F34231515CC840704780000020DC
:1013900008380240E4520008154810B5006810F003
:1013A0000C02144813D04110042A0FD0082A0ED181
:1013B0000F4C241F2268236802F03F025B0207D50E
:1013C0002068C0F38810A0FB010106E0084610BDAC
:1013D0002168C1F38811A1FB00010023FEF76EFF15
:1013E0002168C1F30141491C4900B0FBF1F010BD77
:1013F000083802400024F4002DE9F84F0546007833
:10140000DFF800B3C04CC0074AD0DBF800105846E4
:10141000C1F38101012908D00068C0F381000228CE
:101420000AD1201D0068400206D52068800337D508
:101430006868002872D033E06868B0F5803F10D04B
:10144000B0F5A02F206810D020F4803020602068F4
:1014500020F4802020606868A8B1FFF7DDFD064613
:101460000DE0206840F48030F4E740F480202060F4
:10147000F7E700BFFFF7D0FD801B64286FD8206816
:101480008003F7D50CE0FFF7C7FD064605E000BF77
:10149000FFF7C2FD801B6428F0D820688003F7D4D2
:1014A0002878DFF8688280074FF0000940D5DBF824
:1014B0000010584611F00C0F09D00068C0F38100ED
:1014C00002280BD18F48001F0068400206D4206814
:1014D000800715D5E868012820D111E0E868B8B187
:1014E0000120C8F80000FFF797FD064605E000BFA1
:1014F000FFF792FD801B0228C0D820688007F7D52F
:101500002068296920F0F80040EAC10020600FE05F
:10151000C8F80090FFF780FD064606E0EFE000BF48
:10152000FFF77AFD801B022819D820688007F7D4BE
:101530002878000722D5734E754869696C3679B1F1
:1015400001210160FFF768FD074604E0FFF764FD35
:10155000C01B022803D830688007F7D50EE089E069
:10156000C0F80090FFF758FD074604E0FFF754FD70
:10157000C01B02287ED830688007F7D4287840073F
:1015800068D5DFF880A100270AF1380ADAF80000F0
:10159000C0000BD4DAF8001041F08051CAF80010F6
:1015A000DAF80000012700F080500090594E3068B2
:1015B000C00510D4306840F480703060FFF72CFD17
:1015C000009005E0FFF728FD0099401A022851D845
:1015D0003068C005F6D54B4EA868683601280FD094
:1015E0000528306810D020F001003060306820F00D
:1015F00004003060A868B8B1FFF70EFD00900FE05E
:10160000306840F00100F4E740F004003060F7E794
:10161000FFF702FD0099411A41F28830814266D8F5
:1016200030688007F4D50EE0FFF7F6FC009007E085
:10163000FFF7F2FC0099411A41F28830814256D8F6
:1016400030688007F4D42FB1DAF8001021F080510F
:10165000CAF80010A869D0B3DBF80010C1F381010B
:1016600002294CD00228484607D0C8F86000FFF78E
:10167000D3FC00E03BE005463CE04746C8F860008C
:10168000FFF7CAFC064604E0FFF7C6FC801B0228F1
:101690002DD820688001F7D4F5E907010843E968EF
:1016A0001D4A490802EB0141AA6841EA8211084338
:1016B000297C40EA0160297D40EA01711148001F40
:1016C000016001203866FFF7A7FC054605E014E03D
:1016D000FFF7A2FC401B022809D820688001F7D53B
:1016E0000BE000BFFFF798FC401B022802D9032043
:1016F000BDE8F88F20688001F4D40020F8E70120CD
:10170000F6E7000008380240003802400000474277
:10171000800E4742007000400000FFFF4FF0E021C4
:101720000428086903D020F004000861704740F0E5
:101730000400FAE710B5401EB0F1807F01D301200C
:1017400010BD4FF0E02460610F21601700F0D0FB66
:101750000020A06107202061002010BD7047704765
:1017600030B590F83820012A20D0012280F83820A6
:10177000022380F8393003685C6824F070045C60F0
:1017800003685C680D682C435C6003689C6824F007
:1017900080049C6003689C6849680C439C6080F8E6
:1017A0003920002180F83810084630BD022030BDB5
:1017B00010B5040003D094F8390010B107E00120FF
:1017C00010BD002084F83800204600F00DF80220FB
:1017D00084F83900211D206800F002FE012084F801
:1017E0003900002010BD000008B500680B49884290
:1017F00012D10B48016841F010010160006800221D
:1018000000F01000009005213620FFF7B5FCBDE880
:1018100008403620FFF7A4BC08BD000000100040BF
:10182000403802400168CA6842F00102CA6000689C
:10183000016841F00101016000207047704770B5F8
:101840000446006801694FF00005C943890715D4B3
:10185000C168C943890711D4E91E016101202076BE
:10186000206880698007204602D0FFF7E7FF04E088
:1018700000F098F8204600F096F825762068016977
:10188000C943490717D4C168C943490713D46FF046
:1018900004010161022020762068806910F4407FF5
:1018A000204602D0FFF7CAFF04E000F07BF8204694
:1018B00000F079F8257620680169C943090716D434
:1018C000C168C943090712D46FF0080101610420FF
:1018D00020762068C0698007204602D0FFF7AEFF5F
:1018E00004E000F05FF8204600F05DF825762068FF
:1018F0000169C943C90617D4C168C943C90613D4CD
:101900006FF010010161082020762068C06910F492
:10191000407F204602D0FFF791FF04E000F042F83C
:10192000204600F040F8257620680169C943C907C0
:1019300008D1C168C943C90704D1891E0161204685
:1019400000F032F820680169C943090609D4C1686A
:10195000C943090605D46FF0800101612046FFF7F5
:10196000FDFE20680169C943490609D4C168C9431D
:10197000490605D46FF040010161204600F01EF8D1
:1019800020680169C94389060BD4C168C943890627
:1019900007D46FF0200101612046BDE87040FFF7D9
:1019A000DEBE70BD7047704700680349884201D1B0
:1019B000FFF738BB704700000000014070477047D8
:1019C00070B5026804461068D168536910F00F0FB3
:1019D00050D003F0010501F4907635435DD0C20785
:1019E00005D0CA0503D5E26B42F00102E26342076B
:1019F00005D5DA0703D0E26B42F00202E263820708
:101A000005D5DA0703D0E26B42F00402E263020775
:101A100005D5DA0703D0E26B42F00802E263E26B1D
:101A2000002A33D0800604D5880602D5204600F06F
:101A30001BFD20684069E16BC0F38010090700D4EA
:101A400028B3204600F002FD2068416949061AD5F6
:101A5000416921F040014161606BA0B11B49016502
:101A6000606BFFF70BFA002810D0606B016DBDE8CA
:101A700070400847830610D58B060ED52046BDE87A
:101A8000704000F0F1BC2046FFF799FF70BD204682
:101A9000FFF795FF0020E06370BD030606D50B0637
:101AA00004D52046BDE8704000F07ABE4006F3D56C
:101AB0004806F1D5D168204621F04001D1602021AF
:101AC00084F8391000F089F870BD00003D2400084A
:101AD00070B5040004D094F83900002510B106E078
:101AE000012070BD84F83850204600F023F82420EF
:101AF00084F839002068C16821F40051C160204693
:101B000000F0F8FC2068016921F49041016120682F
:101B1000416921F02A0141612068C16841F4005106
:101B2000C160E563202084F8390084F83A00002081
:101B300070BD000000B50068124987B088421ED110
:101B40001148016841F4003101600068694600F401
:101B5000003005900C20009002200190012002909E
:101B600003200390072004900848FFF799F900220A
:101B700005212620FFF700FB2620FFF7F1FA07B02A
:101B800000BD000000440040403802400000024018
:101B900090F83A30202B1DD1D1B1CAB190F838302D
:101BA000012B17D081628285C2850021C163222268
:101BB00080F83A2080F8381001684A6942F0010242
:101BC0004A610068C16841F49071C16000207047AB
:101BD0000120704702207047704770477FB5124858
:101BE0001049002401604FF4803141600461846138
:101BF0000902046281600D49C0E90A140125C4602C
:101C0000C56145610463FFF78EF800B1FEE7CDE9D9
:101C10000045694604480294FEF7DCFF002800D026
:101C2000FEE77FBD00200140E80000200100000F1A
:101C30002DE9F047314886B00024016841F00401E5
:101C40000160016801F004010591016841F0800123
:101C50000160016801F080010591016841F0010116
:101C60000160016801F001010591016841F0020184
:101C700001600068DFF8888000F002004FF4EC6536
:101C80000590002229464046FFF7C0F9DFF874901E
:101C90004FF4C266002231464846FFF7B7F9DFF835
:101CA00068A04FF48767002239465046FFF7AEF927
:101CB0004FF4005000901548CDE9010469464846AC
:101CC000FFF7EEF800950125CDE90154694640463D
:101CD0000394FFF7E5F80096CDE9015469464846BC
:101CE0000394FFF7DDF80097CDE9015469465046AB
:101CF0000394FFF7D5F806B0BDE8F087303802400E
:101D000000000240000802400004024000002110D0
:101D10002DED0A8B9FED6D8B9FED6ECB6F4C9FED84
:101D2000709A6125206BFEF7A5FC41EC100B01F0C9
:101D30000BF9B0EE40BAF0EE60BAA06BFEF79AFC79
:101D400041EC100B01F000F953EC182B51EC100B87
:101D5000FEF79EFB41EC1A0B606BFEF78BFC41EC2F
:101D6000100B01F0F1F853EC182B51EC100BFEF7AF
:101D70008FFB53EC1A2BFEF7E4FA53EC1B2BFEF708
:101D800087FBFEF7BBFCA064206BFEF773FC41EC05
:101D9000100B01F065FFB0EE40BAF0EE60BAA06B38
:101DA000FEF768FC41EC100B01F0CEF853EC182B59
:101DB00051EC100BFEF76CFB41EC1A0B606BFEF75D
:101DC00059FC41EC100B01F0BFF853EC182B51EC0F
:101DD000100BFEF75DFB53EC1A2BFEF7B2FA53EC37
:101DE0001B2BFEF755FBFEF789FCE064A06BFEF7AA
:101DF00041FC41EC100B01F033FF53EC182B51EC7C
:101E0000100BFEF745FB41EC1A0B606BFEF732FC42
:101E100041EC100B01F024FF53EC182B51EC100B8C
:101E2000FEF736FB53EC1A2BFEF78BFA53EC1C2B08
:101E3000FEF728FBFEF762FCA060206D00283FF44F
:101E400071AF606D0028FAD0A06D0028F7D0E0686F
:101E50000028F4D02078622824D102F0FFFB60B182
:101E600063202070FEF76EFE9FED1F0A9FED1D1A86
:101E7000F0EE400A00F04CF808E0B0EE490AB0EE8F
:101E8000401AF0EE400A00F043F82570206D00285B
:101E9000D5D0606D0028D2D0A06D0028CFD0E068EA
:101EA0000028CCD0207863287FF43CAF002210219A
:101EB0000E48FFF7ABF8B0EE490AB0EE401AF0EE6C
:101EC000400A00F025F825702CE700000000000013
:101ED000004064400000000000005440000000206A
:101EE000000000000000D3430000FA430008024055
:101EF0000907090E002806DA00F00F0000F1E020C3
:101F000080F8141D704700F1E02080F8001470473D
:101F100010B52DED0E8BF0EE409AB0EE609A29EEE2
:101F2000A90AB0EE418A09EE090A10EE100AFEF77E
:101F3000A1FB41EC100B01F0F7FE51EC100BFEF78A
:101F4000DDFB08EE900A9FED860A38EE008A18EE57
:101F5000100AFEF78FFB41EC100B9FED82ABB0EE49
:101F60004A1AF0EE6A1A01F053F8B0EE40DAF0EED9
:101F700060DA18EE900AFEF77DFB41EC100BB0EE34
:101F80004A1AF0EE6A1A01F043F8B0EE40CAF0EED9
:101F900060CAB0EE4A1AF0EE6A1A9FED74EBB0EE2A
:101FA0004E0AF0EE6E0A01F033F8B0EE40BAF0EEF1
:101FB00060BAB0EE4A1AF0EE6A1AB0EE4E0AF0EECF
:101FC0006E0A01F025F8B0EE401AF0EE601A53ECFC
:101FD0001B2B51EC110BFEF755FA53EC1C2BFEF7A3
:101FE00051FA53EC1D2BFEF74DFA9FED621B53EC9B
:101FF000112BFEF7BFFAFEF781FB0BEE100AF5EE90
:10200000C09A5E4CF1EE10FA04D19FED5D0A84EDAA
:102010000F0A0EE089EE290A10EE100AFEF72AFBDD
:1020200041EC100B00F024FE51EC100BFEF766FBA8
:10203000E06338EE8B0A10EE100AFEF71BFB41EC52
:10204000190B1BEE100AFEF715FB41EC100BB0EE5E
:102050004A1AF0EE6A1A00F0DBFFB0EE40BAF0EE7A
:1020600060BA18EE100AFEF705FB41EC100BB0EE5B
:102070004A1AF0EE6A1A00F0CBFFB0EE40CAF0EE5A
:1020800060CA18EE900AFEF7F5FA41EC100BB0EEBC
:102090004A1AF0EE6A1A00F0BBFFB0EE401AF0EEFA
:1020A000601A53EC1C2B51EC110BFEF74AF953EC60
:1020B0001B2BFEF7E7F941EC100B01F035FEB0EEFB
:1020C00040BAF0EE60BA18EE100AFEF7D3FA53ECFD
:1020D0001B2BFEF7D7F953EC192BFEF74BFA41EC0B
:1020E000100B00F0C5FD53EC1A2B51EC100BFEF752
:1020F000CFF9FEF703FB2064FEF7BCFA41EC100BAE
:1021000000F022FFB0EE409AF0EE609AE06BFEF72E
:10211000B1FA41EC100B00F017FFB0EE408AF0EE80
:10212000608AA06CFEF7A6FA53EC1E2BFEF722FA8B
:1021300053EC182BFEF7ACF953EC192BFEF7A2F970
:1021400041EC100B00F0E8FB51EC100BFEF7D6FA57
:102150009FED0C0A606484ED010ABDEC0E8B10BD8E
:102160000000A0420000000000000040000000004D
:102170000040644000000000004074C000000020E7
:102180000000B4420000B4C2012002F013FBFBE7E0
:102190002DED048B9FED428BDFF80C81434C4FF407
:1021A0007A790125E06BFEF765FA53EC182BFEF700
:1021B00069F941EC190B206BFEF75CFA53EC192B13
:1021C000FEF76CFA14D3E06BFEF754FAB0EE481A3F
:1021D000F0EE681A53EC112BFEF7B3F841EC190B33
:1021E000206BFEF747FA53EC192BFEF76FFA55D226
:1021F00094ED0C0AD4ED0F0AB4EEE00AF1EE10FAF9
:102200000BD22069401C08D1012210214046FEF764
:10221000FDFE484602F0CEFA256194ED0C0AD4ED9D
:102220000F0AB4EEE00AF1EE10FA0DDD2069012884
:102230000AD1002210214046FEF7E8FE484602F08F
:10224000B9FA4FF0FF3020610122194F9602314652
:102250003846FEF7DBFE012002F0ACFA00223146E0
:102260003846FEF7D3FE012002F0A4FA2069FEF7FB
:10227000F0F99FED101B53EC112BFEF709F941EC1F
:10228000190B206BFEF7F6F953EC192BFEF759F8F2
:10229000FEF734FA20630020206583E7256581E797
:1022A0009A9999999999B93F000402400000002039
:1022B000000002409544ECCF2234AF3F012002F0F1
:1022C00079FAFBE7012002F075FAFBE7012002F042
:1022D00071FAFBE702F07ABA30B5244893B00025D2
:1022E000016841F080510160006800F08050129058
:1022F0001F48016841F4404101600068022400F475
:102300004040129001200390102004900094069405
:102310000820CDE907506420CDE909040420CDE967
:102320000B046846FFF768F800B1FEE70DA90F201F
:1023300081E831004FF48050CDE9100503210DA84C
:10234000FEF74CFF00B1FEE7FFF700F84FF47A719B
:10235000B0FBF1F0FFF7EEF90420FFF7DFF9002200
:102360000F21501EFEF708FF13B030BD4038024069
:10237000007000401048016841F4700101600F488E
:10238000016841F0010101600C4A0021083211602E
:1023900002680B4B1A400260031D0A4A1A60026869
:1023A00022F48022026005480C3001600249580680
:1023B000803908607047000088ED00E00038024076
:1023C000FFFFF6FE103000240148FFF738BA000086
:1023D000AC0100200148FFF732BA000030010020B4
:1023E00030B50268114B124C984201D0A04203D183
:1023F00022F070054A682A43984207D0A04205D0CF
:102400000C4CA04202D00C4CA04203D122F44074E8
:10241000CA68224302608A68C2620A68826298427D
:1024200001D1096901630121416130BD0000014012
:10243000000C0040004001400048014010B5806B96
:102440000021C185C184FFF7BAFA10BD0168CA68CE
:1024500022F49072CA6001684A6922F001024A615E
:10246000202180F83A10704710B590F83A102229D0
:1024700001D0022010BD8168B1F5805F11D00169E3
:10248000002901681FD0496801F07F03816A4A1C56
:1024900082620B70C18D491E0904090CC18518D0D8
:1024A00026E00269816A002A0268526805D0D2B229
:1024B0000A80816A491C8162ECE7C2F308020A8043
:1024C000816A891CF7E74A68816A4B1C83620A703B
:1024D000E0E70168CA6822F49072CA6001684A693C
:1024E00022F001024A61202180F83A10FFF774FBC4
:1024F000002010BD2DE9F04104460068016921F477
:102500004052E168114301612168C86849F20C62D8
:1025100090432369A268E5691A4363692B431A4310
:102520000243CA602168486920F44072A0691043E0
:102530004861E1696425B1F5004F9748974A2168E1
:102540004FF032083FD0914201D081427CD1FEF75A
:1025500013FF00EBC00101EB001061688900B0FBC4
:10256000F1F6FEF709FF00EBC00101EB0010616816
:102570008900B0FBF1F0B0FBF5F06FF018014843B3
:1025800006EB800108EB0110B0FBF5F000F0F0065F
:10259000FEF7F2FE00EBC00101EB0010616889005C
:1025A000B0FBF1F0B0FBF5F006EB0016FEF7E4FE31
:1025B00000EBC00101EB001061688900B0FBF1F78E
:1025C000FEF7DAFED2E0914201D081423DD1FEF722
:1025D000D3FE00EBC00101EB001061684900B0FBC5
:1025E000F1F0B0FBF5F00601FEF7C6FE00EBC0010E
:1025F00001EB001061684900B0FBF1F7FEF7BCFE8B
:1026000000EBC00101EB001061684900B0FBF1F084
:10261000B0FBF5F06FF01801484307EB800108EBC1
:10262000C100B0FBF5F000F0F80006EB4006FEF745
:10263000A3FE00EBC00101EB001061684900B0FB94
:10264000F1F7FEF799FE3CE055E0FEF785FE00EB62
:10265000C00101EB001061684900B0FBF1F0B0FB74
:10266000F5F00601FEF778FE00EBC00101EB00106B
:1026700061684900B0FBF1F7FEF76EFE00EBC001A8
:1026800001EB001061684900B0FBF1F0B0FBF5F020
:102690006FF01801484307EB800108EBC100B0FB65
:1026A000F5F000F0F80006EB4006FEF755FE00EBF3
:1026B000C00101EB001061684900B0FBF1F7FEF7C3
:1026C0004BFE00EBC00101EB001061684900B0FB5C
:1026D000F1F0B0FBF5F06FF01801484307EB800113
:1026E00008EBC100B0FBF5F000F0070021683044B2
:1026F0008860BDE8F081FEF72FFE00EBC00101EB22
:10270000001061688900B0FBF1F6FEF725FE00EBD2
:10271000C00101EB001061688900B0FBF1F0B0FB73
:10272000F5F06FF01801484306EB800108EB01104B
:10273000B0FBF5F000F0F006FEF70EFE00EBC00176
:1027400001EB001061688900B0FBF1F0B0FBF5F01F
:1027500006EB0016FEF700FE00EBC00101EB0010D7
:1027600061688900B0FBF1F7FEF7F6FD00EBC001F0
:1027700001EB001061688900B0FBF1F0B0FBF5F0EF
:102780006FF01801484307EB800108EB0110B0FB24
:10279000F5F000F00F00A9E700140140001001401F
:1027A00090F83910212901D0022070478168B1F5D5
:1027B000805F016A0BD04A1C02620268097851608E
:1027C000C18C491E0904090CC1840ED017E0098888
:1027D0000268C1F30801516001690029016A02D051
:1027E000491C0162ECE7891CFBE70168CA6822F01A
:1027F0008002CA600068C16841F04001C1600020E9
:10280000704700002DE9F0412A48FFF7D9F8062269
:1028100029492848FFF7BCF9284C2748284923684C
:102820005B1C236002780A7046784E7087788F7040
:102830002449C578062B0D7090F804C081F801C0BA
:102840004079887033D1303A02EBC20101EB0211BA
:102850001D4A06EB860307EB810102EB4303194493
:102860001A4B303D196005EBC50303EB051300EB74
:1028700083000CEB8C0302EB43021044144A154D09
:10288000154B10602A781B789A420ED000EE100A81
:102890009FED121AF8EEC00A00EE101AB8EEC00A48
:1028A000FFF736FB0E480078287000202060BDE856
:1028B000F08100006C0100206E0000206400002008
:1028C000680000206B000020F0FDFFFF5C0000208E
:1028D0006000002000000020595200080000C8C21B
:1028E0005852000803B401984100009850EAC120F2
:1028F00018BF04204A0D18BF40F0010040F2FF72DB
:10290000B2EB515F08BF40F00200012808BF05206C
:1029100002B070470000000010B5B94A2DED020B5F
:102920002DED0C8B82B00F9921F000409FEDB6CBBE
:1029300090422CDBA0F140530E9AA3F17F631A431F
:102940000FD0B349884202DC16D10E98A0B19DED9C
:102950000E0B02B0BDEC0C8B02B0BDE8104001F0D4
:1029600023BE0029C1BF9FEDAC0B02B0BDEC0C8BA8
:1029700002B0C8BF10BD16E0012001F069FE02B030
:10298000BDEC0C8B02B0BDE8104001F021BEA44AA2
:102990009FEDA59B9FEDA6AB90425EDAA6499FED09
:1029A000A8CB814208DBB0EE4C0AF0EE6C0A02B014
:1029B000BDEC0C8B02B010BD9DED0E0B53EC102B3B
:1029C00051EC100BFDF764FD41EC180B9E480621FD
:1029D000B0EE480AF0EE680A784401F0B9FC53EC16
:1029E000182B51EC100BFDF753FD41EC1B0B9748D6
:1029F000B0EE480AF0EE680A0421784401F0A8FC21
:102A000053EC182B51EC100BFDF742FD53EC192B36
:102A1000FDF797FC41EC100B51EC1B0B53EC102B0A
:102A2000FDF7A8FD41EC100B53EC102B9DED0E0BA8
:102A300051EC100BFDF72CFD53EC1A2BFDF725FD87
:102A40009DED0E1B53EC112BFDF71FFD53EC1C2BC2
:102A5000FDF71BFD41EC100BA9E79FED7D8B9FED72
:102A60007EBB9DED0E0B002953EC192B51EC100B86
:102A700052DAFDF766FC53EC182BFDF709FD41EC2B
:102A8000180B77480621B0EE480AF0EE680A784441
:102A900001F05EFC53EC182B51EC100BFDF7F8FC29
:102AA00041EC1D0B6F48B0EE480AF0EE680A0421B5
:102AB000784401F04DFC53EC182B51EC100BFDF752
:102AC000E7FC53EC192BFDF73CFC41EC190B51ECE6
:102AD000180B02F0BDF841EC180B53EC192B51EC1C
:102AE0001D0BFDF747FD53EC182BFDF7D1FC53EC04
:102AF0001A2BFDF7C7FC41EC100B51EC180B53ECF3
:102B0000102BFDF71EFC53EC1B2BFDF7C1FC53EC07
:102B10001C2BFDF7BAFC6DE0FDF7B7FC53EC182B4E
:102B2000FDF7B6FC41EC180B02F092F841EC1A0BE1
:102B300000208DED00AB00909DED000B51EC1A0BC9
:102B400053EC102BFDF7FDFB9DED000B41EC1C0B36
:102B500053EC102B51EC100BFDF79AFC53EC182B97
:102B6000FDF793FC53EC1C2BFDF704FD41EC1C0B13
:102B70003D48B0EE480AF0EE680A0621784401F0BC
:102B8000E7FB53EC182B51EC100BFDF781FC41ECEB
:102B90001D0B3648B0EE480AF0EE680A042178446E
:102BA00001F0D6FB53EC182B51EC100BFDF770FC29
:102BB00053EC192BFDF7C5FB41EC100B51EC1D0B31
:102BC00053EC102BFDF7D6FC53EC1A2BFDF760FCF1
:102BD00053EC1C2BFDF7B5FB41EC100B53EC102B09
:102BE0009DED000B51EC100BFDF7ABFB53EC1B2BD9
:102BF000FDF74EFC41EC100BD9E600000000000090
:102C00000000F03F00000000182D4454FB21094053
:102C10000000F07F00000000000000000000000045
:102C20000000E03F00000000000000000000F03F56
:102C3000075C143326A6913C0000603C00000000B5
:102C4000182D4454FB21F93F1429000022290000CB
:102C5000000000000000E03F000000000000004015
:102C60005E2800006C280000702700007E2700000E
:102C700070B59B482DED020B2DED068B079D25F0C1
:102C80000044A04218DC9748844202DC0AD106982E
:102C900040B19DED060BBDEC068B02B0BDE8704067
:102CA00001F082BC002DCCBF9FED8F0B9FED900BF0
:102CB000BDEC068B02B070BD8F48A04215DD8F4879
:102CC000A042D8BF4FF0FF3458DD9DED060B51EC0C
:102CD000100BFFF707FE042808BF01F099FC9DEDDB
:102CE000060BBDEC068B02B070BD9DED060B51ECE2
:102CF000100B01F0C7FCCDE9060181489FED828BE6
:102D0000A0423CDD8248A0421FDD00249FED82AB43
:102D10009DED060B53EC1A2B51EC100BFDF711FB3C
:102D20009DED060B41EC190B53EC1A2B51EC100BDB
:102D3000FDF7AEFB53EC182BFDF7A4FB53EC192B5E
:102D4000FDF718FCCDE9060149E09DED060B0124D5
:102D500053EC182B51EC100BFDF7F3FA9DED060B1D
:102D600041EC190B53EC182B51EC100BFDF78AFBBF
:102D700053EC192BFDF7FEFBCDE906012FE0684867
:102D8000A0421FDD02249FED689B9DED060B53ECD6
:102D9000192B51EC100BFDF77BFB53EC182BFDF7B7
:102DA000D0FA9DED060B41EC180B53EC192B51ECAE
:102DB000100BFDF767FB53EC182BFDF7DBFBCDE9A0
:102DC00006010CE09DED060B032453EC102B9FED48
:102DD000580B51EC100BFDF7CDFBCDE906019DED35
:102DE000060B53EC102B51EC100BFDF751FB41EC93
:102DF000180B53EC182BFDF74BFB41EC190B4E480D
:102E00000621B0EE490AF0EE690A784401F0A0FA12
:102E100053EC182B51EC100BFDF73AFB41EC180B5F
:102E20004648B0EE490AF0EE690A0521784401F0FF
:102E30008FFA53EC192B51EC100BFDF729FB41ECE9
:102E4000100B51EC180B53EC102B002C0EDAFDF785
:102E500078FA9DED061B53EC112BFDF719FB9DED48
:102E6000061B53EC112BFDF710FB35E0FDF769FA5B
:102E70009DED061B53EC112BFDF70AFB41EC100BEB
:102E80002F48784400EBC40090ED001B51EC100B70
:102E900053EC112BFDF7F6FA9DED061B53EC112BAD
:102EA000FDF7F0FA41EC100B2648784400EBC40023
:102EB00090ED001B51EC100B53EC112BFDF7E5FAD4
:102EC00041EC100B002DA2BFBDEC068B02B070BD13
:102ED00051EC100B81F0004141EC100B01E70000B8
:102EE000000010440000F07F182D4454FB21F93FEE
:102EF000182D4454FB21F9BF0000DC3F0000203EA8
:102F00000000F33F00000000000000000000F03F60
:102F10000000E63F0000000000000000000000404C
:102F20000080034000000000000000000000F83FA7
:102F3000000000000000F0BF9A25000050250000AE
:102F4000DA2400009224000010B52F499FED2C1BBD
:102F50002DED020B84B0059820F000408842D8BFC8
:102F60009DED040B2DDD2949884209D1049840B913
:102F70004FF0010001F06CFB01F02AFB06B010BD20
:102F800005DB9DED040B01F00FFB06B010BD68469C
:102F90009DED040B00F008FF10F0030004BF9DED51
:102FA000021B9DED000B0CD001280ED09DED021BE5
:102FB0009DED000B022817D0012001F045FA06B064
:102FC00010BD01F00DF906B010BD9DED021B9DED89
:102FD000000B012001F038FA51EC100B81F0004198
:102FE00006B041EC100B10BD01F0FAF851EC100BDB
:102FF00081F0004106B041EC100B10BD0000000054
:103000000000000000000000FB21E93F0000F07F0D
:103010002DE9F04D2DED040B2DED0E8B96B0DDE975
:103020002550279CDDF890A025F0004624F00048AC
:10303000BAF1000F14BF0121002101EB4502FC4948
:1030400053184A1093422AD3002814BF01230023A7
:1030500003EB44030B44F7498B4220D358EA0001A9
:103060009FEDF59B76D0DFF8D8B35D4503D1BAF17B
:10307000000F05D188E0BAF1000F08BF002100D091
:10308000012101EB450111F5001F08D8002814BFEC
:103090000121002101EB440111F5001F0BD99DED29
:1030A000261B9DED240B16B0BDEC0E8B04B0BDE8C5
:1030B000F04D01F083BA0027002DBCBFE1498845DF
:1030C00021DAE1498845A8BF02271CDAC3451ADC8A
:1030D000DE4901EB2851142908DDC1F1340220FA40
:1030E00002F101FA02F282420DD108E058B9C1F1B1
:1030F000140228FA02F101FA02F2424503D101F06A
:103100000101C1F1020756EA0A0124D1002C22DA9A
:10311000002D18BF022F01D0012F0AD0022001F08C
:1031200097FA16B0BDEC0E8B04B0BDE8F04D01F07F
:1031300023BA022001F08CFA01F01EFA51EC100BB8
:1031400081F0004141EC100B16B0BDEC0E8B04B0C9
:10315000BDE8F08D18E09FEDBEAB9FEDBF8B002862
:1031600071D1B848804522D105F1804010F580101A
:1031700008BFBAF1000F07D0B3450ADC002CA8BF86
:103180009DED260BE0DA0DE0B0EE490AF0EE690A9B
:10319000DAE7002C06DA9DED260B51EC100B81F0DE
:1031A00000416FE0AE48784490ED000BCCE7D84585
:1031B0004DD1002C48DA2EB186423AD1BAF1000F37
:1031C00042D126E0BAF1000F13D0022001F040FAFC
:1031D00001F00EFA8DED020B9DED240B8DED000B31
:1031E00010EE900A039961F31E0003909DED020B0F
:1031F000AAE78DED02AB9DED240B1AEE901A10EEAE
:10320000900A8DED000B61F31E0003909DED020B03
:103210009AE78DED028B9DED240B18EE901A10EEBF
:10322000900A8DED000B61F31E0003909DED020BE3
:103230008AE709DA9DED240B51EC190B53EC102BA6
:10324000FDF798F91EE020E09DED240B7CE7864217
:103250001BDAB4F1804F0DD0A4F10050B0F1FF5053
:1032600013D1002D11DB9DED240B51EC100B01F05F
:10327000EFFC07E09DED240B53EC102B51EC100BF1
:1032800000F0C2BC41EC100B5EE79DED240B51EC4D
:10329000100B01F0F7F9BAF1000FCDE90E0142D1A0
:1032A0009FED710B46B3A6F1E040B0F17F600CD00A
:1032B0005E4538D1002D00DAA7B3022F0CBF0120E4
:1032C0004FF0FF30FDF7C5F9DCE7002D01DD002CE4
:1032D0000DDA002D01DD002C1FDB002D16DA002C8D
:1032E00014DB012F08BF9FED620B3FF42DAFB0EE52
:1032F0004A0AF0EE6A0A27E7022F18BF002D0CD009
:10330000012F0AD1002DFFF61FAF06E0002DB8BF38
:10331000002C08DA012F3FF417AFB0EE480AF0EEA8
:10332000680A11E71BE0012000EBE57050EA070195
:1033300015D0791EB0EE498AF0EE698A084308BFBD
:103340009FED4D8B4E480025804570DD4D494E4820
:10335000884514DDB0420DDB002C19DB2FE0012085
:1033600001F076F916B0BDEC0E8B04B0BDE8F04D5F
:1033700001F02EB9B34502DC002C09DC1FE08642C7
:1033800002DA002C1BDA03E05E452BDD002C16DD93
:10339000022001F05DF901F02BF98DED020B53ECE9
:1033A0001A2B51EC180BFDF773F8CDE900010399C6
:1033B000019861F31E0003909DED020BC4E602200C
:1033C00001F046F901F024F910EE901A18EE900A77
:1033D0008DED020B8DED008B61F31E0003909DEDD2
:1033E000020BB1E69DED0E0B53EC192B51EC100BBB
:1033F000FDF748F89FED260BCDE9080153EC102BA3
:103400009DED080B51EC100BFDF742F89FED221BD0
:1034100053EC112BFDF739F89DED081B53EC112BE4
:10342000FDF736F89FED1E1B53EC112B3CE08CE0B2
:10343000FFFF1F00FFFF0F00000000000000F03F33
:103440000000F03F0000F07F0000404301FCFFFF60
:10345000000000000000F07F0000000000000000FD
:10346000E6220000000000000000000000000080D4
:10347000000000000000F0FF000000000000F0BFAE
:103480000000E0410000F043FFFFEF3F00000000BC
:10349000000000000000D03F555555555555D53F0B
:1034A000000000000000E03FFCF7EFFF9DED080B7F
:1034B00041EC1A0B53EC102B51EC100BFCF7E8FF0E
:1034C00053EC1A2BFCF7E4FF41EC1A0B9FEDFE0BBB
:1034D00053EC102B9DED080B51EC100BFCF7D8FFB3
:1034E00041EC1B0B9FEDFA0B51EC1A0B53EC102B1C
:1034F000FCF7CEFF41EC1A0B9FEDF70B53EC102BB2
:103500009DED080B51EC100BFCF7C2FF53EC1A2B8E
:10351000FCF7B8FF41EC1A0B51EC1B0B53EC1A2BC8
:10352000FCF70FFF0690CDE906519DED060B53EC1D
:103530001B2B51EC100BFCF7A5FF53EC1A2BFCF7DF
:10354000A4FF41EC100B00F0A1B90020B6F5801FDC
:103550000EDA9FEDE30B53EC102B9DED0E0B51ECAF
:10356000100BFCF795FFCDE90E016FF034000E460D
:1035700000EB2650A0F2FF37C6F31300DA4940F003
:103580007F6646F040568842D8BF002408DDD74900
:103590008142C8BF012403DC0024A6F580167F1CED
:1035A000D348784400EBC4000F9690ED00CB9DED1E
:1035B0000E0B53EC1C2B51EC100BFCF763FF9DED35
:1035C0000E0B41EC1B0B53EC1C2B51EC100BFCF7BE
:1035D000B8FE41EC100B51EC190B53EC102BFCF71F
:1035E000C9FF41EC1D0B51EC1B0B53EC1D2BFCF7E1
:1035F0004FFF41EC1A0BBF488DED10AB784410958E
:1036000090ED000B4FF0005040EA660000EB844064
:103610008DED080B00F5002009909DED080B53EC93
:103620001C2B51EC100BFCF72DFF9DED0E1B53ECEA
:10363000112BFCF72AFF41EC100B53EC102B9DEDE6
:10364000100B51EC100BFCF723FF9DED080B41EC28
:103650001C0B53EC102B9DED100B51EC100BFCF7D9
:1036600017FF53EC1B2BFCF710FF53EC1C2BFCF744
:1036700009FF53EC1D2BFCF70BFF41EC1C0B53EC2B
:103680001A2B51EC1A0BFCF703FF41EC1B0B9A4869
:103690000621B0EE4B0AF0EE6B0A784400F058FEBB
:1036A000B0EE401AF0EE601AB0EE41DAF0EE61DAF8
:1036B00053EC1B2B51EC1B0BFCF7EAFE53EC1D2BC0
:1036C000FCF7E6FE9DED100B41EC1B0B53EC1A2BA7
:1036D00051EC100BFCF735FE53EC1C2BFCF7D8FE1D
:1036E00053EC1B2BFCF72DFE9DED100B41EC1B0B3F
:1036F00053EC102B51EC100BFCF7CAFE41EC1D0BE8
:103700009FED7FEB53EC1E2BFCF71BFE53EC1B2BAA
:10371000FCF717FE0890CDE908519DED080B53EC1E
:103720001E2B51EC100BFCF7ADFE53EC1D2BFCF7E0
:10373000A9FE53EC1B2BFCF7A8FE9DED080B41ECFA
:103740001D0B53EC102B9DED100B51EC100BFCF7E7
:103750009FFE41EC1B0B53EC1A2B51EC1D0BFCF79D
:1037600097FE9DED080B41EC1A0B53EC102B51EC1E
:103770001C0BFCF78DFE53EC1A2BFCF7E2FD41EC21
:103780001A0B51EC1B0B53EC1A2BFCF7DAFD0C90C7
:10379000CDE90C519DED0C0B53EC1B2B51EC100B98
:1037A000FCF770FE53EC1A2BFCF76FFE41EC1B0B81
:1037B0009FED550B53EC102B9DED0C0B51EC100BAA
:1037C000FCF766FE41EC1A0B9FED510B51EC1B0B05
:1037D00053EC102BFCF75CFE41EC1B0B9FED4E0BEA
:1037E00053EC102B9DED0C0B51EC100BFCF750FE25
:1037F00053EC1B2BFCF7A5FD41EC100B484878441B
:1038000000EBC40090ED001B51EC100B53EC112B9E
:10381000FCF797FD41EC1B0B3846FCF71AFFCDE98E
:10382000080153EC1B2B51EC1A0BFCF78AFD41EC01
:10383000100B3C48784400EBC40090ED00CB51ECF9
:10384000100B53EC1C2BFCF77CFD9DED081B53EC7F
:10385000112BFCF776FD0690CDE906519DED080B86
:1038600053EC102B9DED060B51EC100BFCF70AFEF0
:1038700053EC1C2BFCF706FE53EC1A2BFCF702FE54
:1038800053EC1B2BFCF701FE41EC100B9DED261BAE
:1038900053EC102B8DED001B00959DED260B51EC8C
:1038A000100BFCF7F5FD9DED000B41EC1A0B53ECF2
:1038B000102B9DED260B51EC100BFCF7E3FD9DED5D
:1038C000061B53EC112B2FE0000000604715F73F5B
:1038D000FE822B654715F73F44DF5DF80BAE543E83
:1038E00000000000000040438E9803007AB60B00F1
:1038F000321E0000901E00006A1D00000000000043
:103900000000000000000840000000E009C7EE3F92
:10391000FD033ADC09C7EE3FF5015B14E02F3EBE24
:10392000F61B0000B01B0000FCF7B2FD53EC1A2B95
:10393000FCF707FD9DED060B41EC1A0B53EC102B29
:103940009DED000B51EC100BFCF7A2FDCDE90C0135
:103950009DED0C0B51EC1A0B53EC102BFCF7F1FC0A
:10396000CDE902010C46AA498C422FDB611A0843BB
:1039700018D19DED0C0B53EC102B9DED020B51EC6F
:10398000100BFCF77FFD41EC1B0B9FEDA30B51ECE3
:103990001A0B53EC102BFCF7D4FC53EC1B2BFCF74D
:1039A00095FE2DD2022000F053FE00F021FE10EE15
:1039B000901A18EE900A8DED020B8DED008B61F3DD
:1039C0001E0003909DED020BFFF7BEBB944A24F04E
:1039D0000041914214D39349214408437FF4EFAC52
:1039E0009DED0C0B53EC102B9DED020B51EC100BCD
:1039F000FCF748FD53EC1A2BFCF768FE7FF6DFACB2
:103A000024F000408849894A002601EB2051824277
:103A10002BDA481C4FF4801121FA00F02044844A2C
:103A2000C0F30A517A44A1F2FF3192ED000B814AB2
:103A30008DED080BCA4020EA0202C0F3130040F4E7
:103A40008010C1F1140120FA01F60992002CB8BFD0
:103A500076429DED080B53EC102B9DED0C0B51ECB9
:103A6000100BFCF70FFDCDE90C019DED0C0B51EC9B
:103A70001A0B53EC102BFCF764FC9FED6F0B0890B6
:103A8000CDE9085153EC102B9DED080B51EC100BB8
:103A9000FCF7FEFC41EC1B0B9FED690B53EC102B6C
:103AA0009DED080B51EC100BFCF7F2FC9DED0C0B9F
:103AB00041EC1C0B53EC102B9DED080B51EC100B43
:103AC000FCF7E0FC53EC1A2BFCF7DFFC9FED5E1BD0
:103AD00053EC112BFCF7DCFC53EC1C2BFCF731FCFA
:103AE00041EC1A0B51EC1B0B53EC1A2BFCF729FC85
:103AF000CDE902019DED020B53EC1B2B51EC100B99
:103B0000FCF7C0FC53EC1A2BFCF7BFFC9DED020B3D
:103B100041EC1A0B53EC102B51EC100BFCF7B8FCDA
:103B2000CDE908014A489DED080B0521784400F0D5
:103B30000FFC9DED081B51EC100B53EC112BFCF707
:103B4000A7FC9DED021B53EC112BFCF79EFCCDE96D
:103B500006019DED020B53EC1A2B51EC100BFCF7F8
:103B600097FC53EC1A2BFCF7ECFB9FED3B0B41EC65
:103B70001A0B53EC102B9DED060B51EC100BFCF7C0
:103B800081FC9DED060B41EC1B0B53EC102B9DEDC6
:103B9000020B51EC100BFCF77BFC53EC1B2BFCF7DE
:103BA000E9FC53EC1A2BFCF76DFC9DED021B53EC6A
:103BB000112BFCF767FC53EC192BFCF766FCCDE9E5
:103BC000020101EB065001150029C8BF039015DC66
:103BD0009DED020B324651EC100BFCF770FEFEF728
:103BE00081FE042808BF00F013FD32469DED020B54
:103BF00051EC100BFCF763FECDE902019DED020BC9
:103C000051EC180B53EC102BFCF742FCFFF73ABBBE
:103C10000000904000000000FE822B654715973C95
:103C200000CC904000346F3F01FCFFFF0000E03FFC
:103C3000681A0000FFFF0F0000000000432EE63F5F
:103C4000396CA80C615C20BEEF39FAFE422EE63FCB
:103C50000819000000000000000000000000004003
:103C600010B52F499FED2C1B2DED020B84B005984C
:103C700020F000408842DCBF00209DED040B32DDC7
:103C80002849884209D1049840B94FF0010000F05A
:103C9000DFFC00F09DFC06B010BD05DB9DED040BC4
:103CA00000F082FC06B010BD68469DED040B00F0EC
:103CB0007BF810F0030011D0012818D09DED021BF5
:103CC0009DED000B02281AD000F08AFA51EC100B7F
:103CD00081F0004106B041EC100B10BD9DED021BC0
:103CE0009DED000B012000F0AFFB06B010BD9DED77
:103CF000021B9DED000B00F073FA06B010BD012011
:103D000000F0A2FB51EC100B81F0004106B041EC39
:103D1000100B10BD000000000000000000000000BB
:103D2000FB21E93F0000F07F00B52DED048BB0EEE4
:103D3000409AF0EE609A83B051EC190BFCF7D6FD77
:103D400041EC180B18EE100A18EE901A8DED008B4E
:103D5000002818BF0120084320F00040C0F17F6018
:103D600000F1E040C00F14D019EE101A19EE900ABD
:103D70008DED009B002918BF0121084320F0004071
:103D8000C0F17F6000F1E040C00F04BF012000F0EF
:103D90005FFCB0EE480A03B0F0EE680ABDEC048B9D
:103DA00000BD0000000000002DE9F14F04462DED9C
:103DB000020B2DED088B8AB09FEDE70B80ED020B17
:103DC000139EE74826F0004585420ADC9DED120B64
:103DD000002084ED000B0AB0BDEC088B03B0BDE8F9
:103DE000F08FE0489FEDE0AB9FEDE1BBA84247DDDF
:103DF000E14F9FEDE39B9FEDE48B9DED120B53ECA8
:103E00001A2B51EC100B002E1CDDFCF73BFB41EC98
:103E1000100BBD4208D053EC1B2B51EC100BFCF7E0
:103E200031FBC4E900010BE053EC192B51EC100BF2
:103E3000FCF728FB53EC182BFCF724FBC4E900012A
:103E40000120C8E7FCF77DFA41EC100BBD4208D019
:103E500053EC1B2B51EC100BFCF773FAC4E9000177
:103E60000BE053EC192B51EC100BFCF76AFA53ECF6
:103E7000182BFCF766FAC4E900014FF0FF30AAE7FF
:103E8000C348A84279DB9DED120B51EC100B00F0FA
:103E9000F9FB41EC180B9FEDC00B53EC102BFCF71A
:103EA000F7FA9FEDBF1B53EC112BFCF74AFAFCF716
:103EB0008EFD0746FCF7CDFB41EC190B53EC1A2B9A
:103EC000FCF7E6FA53EC182BFCF7DFFA41EC180B81
:103ED00053EC1B2B51EC190BFCF7DAFADFF8C8A2F4
:103EE00041EC100B4FEA15580125FA4453EC102B06
:103EF00051EC180BFCF7C6FA032DC4E900013DD0C4
:103F0000C1F30A5005EB4511A8EB000011398142BD
:103F100034DA0AEB051BB0EE48AA9BED000BF0EE7D
:103F200068AA53EC102B51EC190BFCF7B1FA41ECD9
:103F30001B0B51EC1A0B53EC1B2BFCF7A3FA41ECB7
:103F4000180B51EC1A0B53EC182BFCF79BFA53ECA3
:103F50001B2BFCF797FA9BED020B41EC1A0B53EC71
:103F6000102B51EC190BFCF793FA53EC1A2BFCF7BE
:103F700089FA41EC100B6D1CB8E70EE0002EA8BFCB
:103F80003846BFF628AF94ED000B51EC100B81F0D2
:103F90000041C4E9000178421DE7C6F3130040F474
:103FA000801EC6F30A50A0F2F530471100F01F053D
:103FB000C5F12000DDF848B0089000200690079079
:103FC0000520EC467949002D07EB0002794408BF33
:103FD00051F8221009D051F8223001EB8201AB4098
:103FE0004A68089922FA01F11943A1FB0E26A1FBA8
:103FF0000B131A449A4234BF0123002303EB060833
:104000000CEB8003D3E901A60E448E4234BF01219C
:10401000002192448A4411B1924502D903E09245AD
:1040200001D2012100E00021C3E901A641444CF87E
:104030002010011EA0F10100C4DC029800F1005024
:10404000850F0298DDE903678000DDF81480FCF736
:1040500000FB41EC1A0B3046FCF7ACFC9FED541B07
:1040600053EC112BFCF714FA41EC1B0B3846FCF710
:10407000A1FC9FED511B53EC112BFCF709FA41EC0D
:10408000180B4046FCF796FC9FED4D1B53EC112B93
:10409000FCF7FEF941EC190B51EC180B53EC192B02
:1040A000FCF74FF953EC1B2BFCF74BF953EC1A2B95
:1040B000FCF747F9CDE90801002008909DED080BB9
:1040C00053EC1A2B51EC100BFCF7DCF953EC1B2BC7
:1040D000FCF7D8F953EC182BFCF7D4F953EC192B57
:1040E000FCF7D3F99FED381B53EC112BFCF7D0F9FB
:1040F0009FED370B41EC180B53EC102B9DED080B8B
:1041000051EC100BFCF7C4F953EC182BFCF719F920
:104110009FED310B41EC180B53EC102B9DED080B70
:1041200051EC100BFCF7B4F953EC182BFCF709F920
:1041300041EC100B139810F0004F06D06D4251EC7B
:10414000100B81F0004141EC100B284684ED000B70
:1041500041E6000000000000000000000000000038
:10416000FB21E93F7CD9024000004054FB21F93F8C
:104170003163621A61B4D03DFB21F93F00000000B9
:104180000000601A61B4D03D7370032E8A19A33BFE
:10419000FB2139410000000083C8C96D305FE43F56
:1041A000000000000000E03FAA150000F814000025
:1041B000000000000000103E000000000000103C65
:1041C000000000000000103A182D4454FB21F93D76
:1041D0003326A611460B113C00000054FB21F93D8B
:1041E00010B52DED040B2DED088B82B0B0EE419A89
:1041F000F0EE619A0B9820F000449FED4BABB4F1C8
:10420000795F11DA9DED0A0B51EC100BFCF7DFFB27
:10421000002801BFB0EE4A0AF0EE6A0A02B0BDEC17
:10422000088B04BF04B010BD9DED0A0B53EC102B9E
:1042300051EC100BFCF72CF941EC180B3C48062113
:10424000B0EE480AF0EE680A784400F081F853ECCA
:10425000182B51EC100BFCF71BF99DED0A0B41ECF0
:104260001B0B53EC192B51EC100BFCF711F941EC23
:10427000190B53EC1B2B51EC180BFCF709F953EC01
:10428000192BFCF7FFF89FED2C0B41EC190B53ECAD
:10429000102B51EC180BFCF7FBF841EC100B2848E5
:1042A000844210DA53EC192B51EC100BFCF7EAF8AE
:1042B00053EC1A2BFCF7E9F841EC100B02B0BDEC03
:1042C000088B04B010BD1F48A042BCBF9FED1E1B51
:1042D0008DED001B06DBA4F500100190002000907E
:1042E0009DED001B51EC100B53EC112BFCF7CAF8A1
:1042F0009DED000B41EC180B53EC102B51EC1A0BFD
:10430000FCF7C0F841EC1A0B53EC192B51EC180BCD
:10431000FCF7B8F853EC1A2BFCF7B7F841EC100B8C
:10432000CCE7000000000000000000000000F03FAB
:104330001412000000000000000000000000E03F38
:104340003333D33F0000E93F000000000000D23FBC
:1043500070B504462DED028B4D1E00EBC500B0EE8E
:10436000408AF0EE608A90ED000B35F0060017D021
:1043700053EC182B51EC100BFCF78AF841EC100BA6
:104380006D1E04EBC50090ED001B51EC100B53ECBF
:10439000112BFBF7D6FF41EC100B35F00600E7D1EF
:1043A000022D36D0042D1CD0062D1CBFBDEC028B77
:1043B00070BD53EC182B51EC100BFCF769F894ED21
:1043C0000A1B53EC112BFBF7BCFF53EC182BFCF72B
:1043D0005FF894ED081B53EC112BFBF7B2FF41EC97
:1043E000100B53EC182B51EC100BFCF751F894ED1B
:1043F000061B53EC112BFBF7A4FF53EC182BFCF717
:1044000047F894ED040B53EC102BFBF79AFF41ECAB
:10441000100B53EC182B51EC100BFCF739F894ED02
:10442000021B53EC112BFBF78CFF53EC182BFCF702
:104430002FF894ED001B53EC112BFBF782FFBDEC22
:10444000028B41EC100B70BD31B504462DED040B11
:104450002DED0A8BB0EE41BAF0EE61BA0B989DEDEE
:104460000A0B20F00040B0F1795F0DDA51EC100B2F
:10447000FEF738FA042808BF00F0CAF89DED0A0BD1
:10448000BDEC0A8B05B030BD53EC102B51EC100B7A
:10449000FBF7FEFF41EC180B9DED0A0B53EC182BBC
:1044A00051EC100BFBF7F4FF41EC190B2C48B0EE6C
:1044B000480AF0EE680A05217844FFF749FF9FEDAE
:1044C0002ACBB0EE40AAF0EE60AA9CB353EC1C2BB2
:1044D00051EC190BFBF7DCFF41EC1C0B53EC1A2BD6
:1044E00051EC190BFBF7D4FF9FED210B41EC190B9D
:1044F00053EC102B51EC1B0BFBF7CAFF53EC192BA1
:10450000FBF7C0FF53EC182BFBF7C2FF53EC1B2B40
:10451000FBF7B8FF53EC1C2BFBF7B4FF9DED0A1B18
:1045200053EC112BFBF7B1FFBDEC0A8B05B041EC4E
:10453000100B30BDFFE753EC1A2B51EC180BFBF7B7
:10454000A7FF53EC1C2BFBF7FCFE53EC192BFBF7DE
:104550009FFF9DED0A1B53EC112BFBF7F2FEE3E7E7
:10456000A410000000000000495555555555C5BF21
:10457000000000000000E03F9FED070B10B553EC7A
:10458000102B9FED070B51EC100BFBF7F3FF41ECE9
:10459000100B10BD00000000000000000000000033
:1045A000000000000000F03F10B553EC102B51EC60
:1045B000100BFBF7C6FE41EC100B10BD10B553EC11
:1045C000112B51EC100BFBF7BCFE41EC100B10BD96
:1045D0009FED050B10B553EC102B51EC100BFBF7B6
:1045E000C9FF41EC100B10BD0000000000000000EE
:1045F0009FED050B10B553EC102B51EC100BFBF796
:1046000047FF41EC100B10BD0000000000000070DF
:104610009FED050B10B553EC102B51EC100BFBF775
:1046200037FF41EC100B10BD00000000000000102F
:1046300002E008C8121F08C1002AFAD1704770476B
:10464000002001E001C1121F002AFBD170470000C9
:104650000149086070470000E400002010B50748D9
:10466000FCF7AEFB0548FCF75BFB05496428486195
:1046700001DA012010BD002010BD0000E80000207C
:104680000000002082B0CDE9000121F0004001903F
:104690009DED000B02B051EC100B7047A0B0FCF781
:1046A000C9FCFDF719FEFDF7C3FA3B4C394800255C
:1046B00020604FF41650C4E901050C20E560C4E900
:1046C0000450A5612046E561FDF702FA00B1FEE75E
:1046D000314832493C3801600221C0E90115C1600E
:1046E000FDF766F800B1FEE72B481E951EA93C3881
:1046F0001F95FDF735F800B1FEE7FDF76FFA20686A
:10470000C16841F02001C160142225496846FBF7C9
:1047100006FE0021684600F063F8224C204914226E
:10472000A061143105A8FBF7FAFD002105A800F0EF
:1047300057F81B49E061142228310AA8FBF7EFFD66
:1047400000210AA800F04CF81549206214223C31DF
:104750000FA8FBF7E4FD00210FA800F041F8104975
:1047600060621422503114A8FBF7D9FD002114A86F
:1047700000F036F80A49A0621422643119A8FBF748
:10478000CEFD002119A800F02BF8E06200F019F826
:10479000FEE70000004400406C01002000100040D3
:1047A0005C5200080000002001460020842900D04F
:1047B000C81C704710B500B9012000F037FB00207D
:1047C00010BD10B500F058FB002010BD10B500F072
:1047D0006FFC012803D0BDE8104000F027BC10BDDD
:1047E0003EB504460D46B0F90800FFF7DDFF02A90B
:1047F000CDE90001208A2B4682B2D4E9001000F0F6
:104800002BFC012801D000203EBD02983EBD0000D7
:104810002DE9F041184C0F460546E6682068001D5A
:1048200000F04DFA38B9206890F82C10012088402B
:10483000216981432161681C07D137B12168BDE836
:10484000F0410E48091D00F072BA20683544B542A7
:104850004560216805D2A06BBDE8F041091D00F05C
:104860004EBA606B091D00F04AFAA06A854200D278
:10487000A562BDE8F0810000A8000020C43E002031
:104880002DE9F041054600F05FFA2E4CA068401C6F
:10489000A06020682C4F10B1606940B32DE0256006
:1048A000A068012829D1002606EB860007EB8000CE
:1048B00000F017FA761C072EF6D323488C3000F050
:1048C00010FA2148A03000F00CFA1F48B43000F074
:1048D00008FA1D48C83000F004FA1B48DC3000F02C
:1048E00000FA19488C3060631430A06305E020683A
:1048F000E96AC06A884200D82560606A401C60622C
:10490000E96A0120226988401043206101EB81009F
:1049100007EB8000291D00F00AFA00F035FA606903
:1049200000280CD02068E96AC06A884207D207498B
:104930004FF080500860BFF34F8FBFF36F8FBDE81B
:10494000F0810000A8000020E83D002004ED00E018
:1049500070B5114E114C17E000F0C2FA3068B8B1D2
:1049600000F018FC00F0F0F9F068C568281D00F0B0
:10497000A6F9A068401EA0606068401E606000F05C
:1049800003FA284600F00CF860680028E4D170BDF6
:1049900000F000FCF8E70000B03E0020A800002076
:1049A00010B50446006B00F003FA2046BDE8104045
:1049B00000F0FEB910484FF47051420706D0C01DF8
:1049C0000D4920F00700411AC1F570510B4A002330
:1049D0000144C2E900030839103A21F007011160CF
:1049E0004B600B600B1AC0E9001393604FF000405E
:1049F0005360D06070470000E80100209400002060
:104A0000074C4FF08056074DFFF7A2FF20680128A2
:104A1000FAD92E60BFF34F8FBFF36F8FF4E700001A
:104A2000E83D002004ED00E02DE9F0479A46DDE97D
:104A3000098481466FF00303206B03EB820210446C
:104A4000089D20F00706700707D0502080F31188DA
:104A5000BFF34F8FBFF36F8FFEE723180A5C83F815
:104A600034200A5C12B1401C1028F6D3002784F8C9
:104A70004370072D00D30625E562C4E91157201DB8
:104A800000F03AF904F1180000F036F92461C5F19C
:104A900007006462A061E76484F85070524649469A
:104AA000304600F0BFF82060B8F1000F01D0C8F820
:104AB0000040BDE8F087000030B5114900E0114624
:104AC0000A688242FBD34B685C18844203D1406879
:104AD00018444860084643681C18944209D1084CA1
:104AE000103C2468A24209D052681A4442600A6805
:104AF00012680260814200D0086030BD0460F9E7AE
:104B0000940000200648416B096829B1416BC968CF
:104B1000C9684968816270474FF0FF31FAE70000C9
:104B2000A800002008484068401C4FF0500080F367
:104B3000118804D0BFF34F8FBFF36F8FFEE7BFF331
:104B40004F8FBFF36F8FFEE79C0000202DE9F041EF
:104B50000546002700F0C4F9314E306808B9FFF768
:104B600029FFF06805424BD1C5B3083568070ED060
:104B700005F00700C0F108000544680707D0502081
:104B800080F31188BFF34F8FBFF36F8FFEE72DB314
:104B90007068854234D82248103001460C6801E024
:104BA00020460C466168A94202D221680029F7D14B
:104BB00031688C4224D0076821680160606808373A
:104BC000411B10290FD96019420708D0502080F3EB
:104BD0001188BFF34F8FBFF36F8FFEE710E0416086
:104BE0006560FFF769FF61687068401A7060B268BD
:104BF000904200D2B060F06801430020C4E9000197
:104C000000F0C8FA780707D0502080F31188BFF36E
:104C10004F8FBFF36F8FFEE73846BDE8F08100008D
:104C20008400002010B5031F4FF080741C601B1F10
:104C300021F001011960191F044B0B6014390A603F
:104C4000091F6FF0020244380A6010BD254B0008AE
:104C500000B52DED048B83B041EC190BFBF746FE3C
:104C600041EC180B18EE100A18EE901A8DED008B1F
:104C7000002818BF0120084320F00040C0F17F60E9
:104C800000F1E040C00F14D019EE101A19EE900A8E
:104C90008DED009B002918BF0121084320F0004042
:104CA000C0F17F6000F1E040C00F04BF0120FFF7BA
:104CB000CFFC51EC180B03B0BDEC048B00BDD0E968
:104CC000013201699A60D0E901235A604A68824240
:104CD00001D182684A60002202610868401E0860B3
:104CE000704700F108014FF0FF32C0E90112C160C6
:104CF000016100210160704700210161704730B5FA
:104D00000B685A1C02D000F1080202E0026904E0BC
:104D10002246546825689D42FAD953684B609960D1
:104D20008A60516008610168491C016030BD4268B9
:104D30004A6093688B60936859609160086101686C
:104D4000491C016070470000502080F31188BFF3B8
:104D50004F8FBFF36F8F0A494868401C4860012895
:104D60000CD10848006810F0FF0F07D0502080F3E6
:104D70001188BFF34F8FBFF36F8FFEE770470000BE
:104D80009C00002004ED00E00849486828B1401E5E
:104D9000486001D180F311887047502080F311885A
:104DA000BFF34F8FBFF36F8FFEE700009C00002022
:104DB00070B5002827D0144DA0F108046168E86898
:104DC000014207D1502080F31188BFF34F8FBFF30A
:104DD0006F8FFEE722683AB1502080F31188BFF34D
:104DE0004F8FBFF36F8FFEE78143616000F078F86B
:104DF00060686968084468602046FFF75DFEBDE8AA
:104E0000704000F0C7B970BD8400002006484FF420
:104E10007A710068B0FBF1F14FF0E020491E41616A
:104E200007210161704700008000002010B50200DA
:104E300014D00F48006B38B1502080F31188BFF3B5
:104E40004F8FBFF36F8FFEE700F04AF80021104646
:104E5000FFF7DEFC00F09EF9002807D105494FF06E
:104E600080500860BFF34F8FBFF36F8F10BD0000FD
:104E7000A800002004ED00E01CB515480024CDE991
:104E800000402346802213A1144800F0E5F80128D1
:104E900009D0401C1AD1502080F31188BFF34F8FE6
:104EA000BFF36F8FFEE7502080F31188BFF34F8F61
:104EB000BFF36F8F06484FF0FF312C38816201211C
:104EC0004161C460BDE81C4000F040B81CBD00005A
:104ED000D400002049444C4500000000014A00086D
:104EE0000248016B491C016370470000A8000020C4
:104EF0001448016B11B10121C16170470021C161EA
:104F00000169B1FA81F1C1F11F0101EB81020E4982
:104F100051F822306BB101EB820101F108034A68BC
:104F200052684A609A4201D152684A60D168016071
:104F30007047502080F31188BFF34F8FBFF36F8FFE
:104F4000FEE70000A8000020E83D00201CB5324824
:104F50000168324A914207D1502080F31188BFF393
:104F60004F8FBFF36F8FFEE700682C49491E8842C0
:104F700007D1502080F31188BFF34F8FBFF36F8F9D
:104F8000FEE7274908780190FF20087008788DF81F
:104F900000009DF800009DF8002000F0F000904215
:104FA00007D0502080F31188BFF34F8FBFF36F8F6E
:104FB000FEE79DF800001B4A00F05000107007202B
:104FC000906005E09DF800305B008DF80030401ED9
:104FD0009DF800301B06F5D4000200F4E0609060FC
:104FE000019808700C482030016841F4700101609C
:104FF000016841F070410160FFF708FF0020506038
:10500000FBF70CF90848016841F040410160FBF7EB
:10501000F5F800201CBD000000ED00E071C20F415A
:1050200000E400E09C00002034EF00E010B55020C8
:1050300080F31188BFF34F8FBFF36F8F00F046F8F6
:1050400018B104494FF080500860002080F31188A7
:1050500010BD000004ED00E02DE9FF5F8346DDE9AF
:105060000E87994616468A469000FFF76FFD0500A9
:105070001AD05420FFF76AFD040012D025630021E6
:10508000CDE90241CDE900874B46324651465846AC
:10509000FFF7CAFC2046FFF7F3FB012004B0BDE890
:1050A000F09F2846FFF784FE4FF0FF30F6E7000040
:1050B0000548416919B1006B18B100207047012003
:1050C0007047022070470000A80000202DE9F04141
:1050D0002E4C0027206B40B1A069401CA061E06904
:1050E00000B101273846BDE8F081E668761CE6602D
:1050F00013D1606B006838B1502080F31188BFF382
:105100004F8FBFF36F8FFEE7606BA16B6163A0638E
:10511000206A401C2062FFF7F5FCA06ADFF870806F
:10512000864209D3606B006880B1606BC068C56857
:10513000686886420DD2A0622068C06A00EB8001D8
:1051400058F821000128CAD90127C8E74FF0FF30DD
:10515000F1E7281DFFF7B3FDA86A18B105F11800A3
:10516000FFF7ADFDE86A0121226981401143216109
:1051700000EB800108EB8100291DFFF7D8FDE86AEC
:105180002168C96A8842CDD30127CBE7A800002057
:10519000E83D00202DE9F0472C4D00242746286BE0
:1051A00038B1FFF7D1FD286B401E2863286B40B152
:1051B00046E0502080F31188BFF34F8FBFF36F8F0D
:1051C000FEE7A968224E0120D1B3A6F1B4098046BA
:1051D0003068E8B1F068C46804F11800FFF76FFDAB
:1051E000201DFFF76CFDE06A2A6908FA00F11143FF
:1051F000296100EB800109EB8100211DFFF797FD7C
:10520000E06A2968C96A8842E2D3C5F81C80DFE7F2
:105210000CB1FFF777FCAC6944B14646FFF756FF87
:1052200000B1EE61641EF9D10020A861E86938B1CF
:105230000849012738070860BFF34F8FBFF36F8F0E
:10524000FFF7A2FD3846BDE8F0870000A800002067
:105250009C3E002004ED00E062630000D855000889
:10526000892100080000000000000000800000000C
:10527000885500089121000800000000000000008F
:105280008000000098550008BD22000800000000C2
:105290000000000080000000A8550008C52200089A
:1052A000FDFF00000000000080000000B85500086D
:1052B000CD220008FDFF000000000000800000007B
:1052C000C8550008111D0008000000000000000083
:1052D0008000000000000000000000000102030444
:1052E0000607080900000000010203040000000096
:1052F000555555555555C53F7D6FEB0312D6D4BF57
:105300005544880E55C1C93F3B8F68B52882A4BF5C
:1053100088B20175E0EF493F09F7FD0DE13D023F1D
:105320004B2D8A1C273A03C0C88A599CE52A0040A5
:1053300059018D1B6C06E6BF82922EB1C5B8B33FF2
:105340004FBB610567ACDD3F182D4454FB21E93F9D
:105350009BF681D20B73EF3F182D4454FB21F93F8C
:10536000E2652F227F2B7A3C075C143326A6813C12
:10537000BDCBF07A8807703C075C143326A6913CBD
:10538000C4EB98999999C9BF711623FEC671BCBF29
:105390006D9A74AFF2B0B3BF9AFDDE522DDEADBF91
:1053A0002F6C6A2C44B4A2BF0D5555555555D53FA9
:1053B000FF8300922449C23F6E204CC5CD45B73FC4
:1053C000513DD0A0660DB13FEB0D76244B7BA93F3C
:1053D00011DA22E33AAD903F000000000000F03FF8
:1053E000000000000000F83F000000000000000086
:1053F0000000004003B8E23F000000000000000091
:1054000006D0CF43EBFD4C3E033333333333E33F1E
:10541000FFAB6FDBB66DDB3F4D268F515555D53F4A
:1054200001411DA96074D13F65DBC9934A86CD3F18
:10543000EF4E454A287ECA3F3E5555555555C53F06
:1054400093BDBE166CC166BF2CDE25AF6A56113FF8
:10545000F16BD2C541BDBBBED0A4BE726937663EFA
:105460004C5555555555A53F7751C1166CC156BF82
:105470009015CB19A001FA3EAD529C804F7E92BE92
:10548000C4B1B4BD9EEE213ED43888BEE9FAA8BDB1
:10549000000000000000000000004054FB21F93F24
:1054A0003163621A61B4D03D0000601A61B4D03D2E
:1054B0007370032E8A19A33B0000002E8A19A33BA8
:1054C000C14920259A837B390000000000000000BC
:1054D0006E83F9A22915444ED15727FCC0DD34F55F
:1054E000999562DB4190433CAB6351FE61C5BBDEE5
:1054F0003A6E24B7E0D24D42EA2E49061C92D109F9
:105500001CEB1DFE3EA729B1F53582E88444BB2E75
:1055100026709CE9417E5FB439D69139F4395383C2
:105520008B5F849C3B28F9BDFF97F81F0F9805DE21
:105530008B112FEF1F6D0A5ACF7E366DB709CB271F
:10554000663F464F2DEA5F9EC7BA27757BF1E5EBB4
:10555000F739073DEA92528AB15FFB6B085D8D1FF8
:10556000A6F810111111813FD561C119A0012ABF00
:105570007DFEB157E31DC73EEB9C2B8AE6E55ABE84
:105580007CD5CF5A3AD9E53D537465707065723158
:105590005F5461736B000000537465707065723204
:1055A0005F5461736B0000005374657070657233F3
:1055B0005F5461736B0000005374657070657234E2
:1055C0005F5461736B0000004D61696E5F41726DE5
:1055D0005F5461736B00000064656661756C7454A0
:1055E00061736B000456000800000020E800000012
:1055F00030460008EC560008E8000020F0410000AA
:1056000040460008610000000000000000000000AB
:105610000000000001000000000000000000000089
:10562000000000000000000000000000000000007A
:10563000000000000000000000000000000000006A
:10564000000000000000000000000000000000005A
:10565000000000000000000000000000000000004A
:10566000000000000000000000000000000000003A
:105670000000000000000000010000001000000019
:10568000000000000024F400000000000000000002
:10569000000000000000000000000000000000000A
:1056A00000000000AAAAAAAA000000000000000052
:1056B00000000000000000000000000000000000EA
:1056C00000000000000000000000000000000000DA
:1056D00000000000000000000000000000000000CA
:0C56E000000000000000000000000000BE
:04000005080001C925
:00000001FF
