:020000040800F2
:100000004043002099020008A1020008A302000852
:10001000A5020008A7020008A902000800000000CD
:10002000000000000000000000000000DD010008EA
:10003000AD0200080000000031020008D1260008CF
:10004000B3020008B3020008B3020008B3020008BC
:10005000B3020008B3020008B3020008B3020008AC
:10006000B3020008B3020008B3020008B30200089C
:10007000B3020008B3020008B3020008B30200088C
:10008000B3020008B3020008B30200080000000039
:10009000000000000000000000000000B3020008A3
:1000A000B3020008C5270008B3020008B302000825
:1000B000000000000000000000000000B302000883
:1000C000B3020008B3020008B3020008B30200083C
:1000D000B3020008B3020008012C00080000000071
:1000E000B3020008B3020008000000000000000096
:1000F000000000000000000000000000B302000843
:100100000000000000000000B30200080000000032
:100110000000000000000000D127000800000000DF
:10012000B3020008B3020008B3020008B3020008DB
:10013000B302000800000000000000000000000002
:1001400000000000000000000000000000000000AF
:10015000B3020008B3020008B3020008B3020008AB
:10016000000000000000000000000000000000008F
:10017000000000000000000000000000000000007F
:10018000B3020008B30200080000000000000000F5
:1001900000000000B30200080000000000000000A2
:1001A000000000000000000000000000000000004F
:1001B000000000000000000000000000B302000882
:1001C000B3020008B3020008DFF80CD000F02CFCEA
:1001D00000480047B93D0008404300202B4B1968F8
:1001E0000868B0E8F04F80F30988BFF36F8F4FF0D5
:1001F000000080F311887047000000000648006886
:10020000006880F3088862B661B6BFF34F8FBFF312
:100210006F8F00DF00BF00BF08ED00E0DFF80C00CB
:10022000016841F470010160704700BF88ED00E093
:10023000EFF30980BFF36F8F144B1A681EF0100F95
:1002400008BF20ED108A20E9F04F106008B44FF08D
:10025000500080F31188BFF34F8FBFF36F8F04F00E
:10026000EDF94FF0000080F3118808BC19680868A8
:10027000B0E8F04F1EF0100F08BFB0EC108A80F30A
:100280000988BFF36F8F704700BF00BF10010020C7
:10029000EFF3058070470000064880470648004796
:1002A000FEE7FEE7FEE7FEE7FEE7FEE7FEE7FEE726
:1002B000FEE7FEE771270008C90100082DE9F05F9D
:1002C0000546002092469B468846064681464024C5
:1002D0001BE0284641464746224600F066FA534650
:1002E0005A46C01A914110D311461846224600F0D2
:1002F0004DFA2D1A67EB01084F46224601200021D6
:1003000000F044FA17EB00094E41201EA4F101044D
:10031000DFDC484631462A464346BDE8F09F40EAC6
:1003200001039B0703D009E008C9121F08C0042A73
:10033000FAD203E011F8013B00F8013B521EF9D25A
:10034000704770B5064602F019FD046805460A229A
:100350000021304600F04BFA2C6070BD2DE9FE4FB5
:10036000804681EA0300C00F0C46009021F0004156
:1003700023F00045B8EB0200A94105D240462146D2
:1003800090461C460B46024623F00040104347D0DF
:10039000270DC7F30A00C3F30A510290401A0190D7
:1003A00040286BDAC3F3130040F4801B0098924698
:1003B00020B10023D2EB030A63EB0B0B01985946E3
:1003C000C0F14002504600F0E1F906460D465046A5
:1003D0005946019A00F0F9F910EB08006141002438
:1003E00087EA115284EAE7731A4340D0009A62B355
:1003F000019A012A4FEA075215DC001B61EB02014A
:100400004FF0004202EA0752CDE90042001C41F5DC
:10041000801132462B4600F068FA03B0BDE8F08F39
:1004200040462146F9E7001B61EB0201001C41F543
:10043000801300185B412018A2F5001747EB030159
:1004400040EAD570B6196D4111E06D084FEA3606E5
:1004500045EAC0754FEA0752001B61EB0201001C20
:1004600041F5801149084FEA3000001951413246E8
:100470002B4603B0BDE8F04F00F028BA00980122E7
:1004800040000023D0EB020263EBE07300982146AA
:100490004FEAE074B8EB000061EB0401E9E783F098
:1004A00000435BE781F0004158E72DE9FE4F81EA08
:1004B000030404F0004421F0004100944FF0000BCD
:1004C00023F0004350EA01045ED052EA03045BD0FB
:1004D000C3F30A54C1F30A552C44A4F2F334019433
:1004E000A0FB0254C1F3130141F48011C3F31303C1
:1004F00043F4801301FB024400FB034E840A970A75
:1005000044EA815447EA8357A4FB076802958D0AA1
:1005100005FB07854FEA932C04FB0C542705029D2D
:100520004FEA065847EA1637B5EB08056EEB070C9D
:10053000870E920E47EA811742EA8312A7FB020157
:10054000B6EB0B0164EB00042B0D43EA0C335E1891
:1005500044EB1C50DA465146E7FB0201C5F3130495
:100560004FEA0B3343EA14534FEA0432019C43EA47
:100570000603A4F10C040294009CCDE900B400F041
:10058000B4F903B0BDE8F08F00200146F9E72DE98A
:10059000F04D81EA030404F0004B21F000451446BD
:1005A0004FF0000A23F0004150EA050220D054EA3F
:1005B00001021DD0C5F30A570246C5F31303C1F368
:1005C0001300C1F30A5640F4801543F48013A7EBDF
:1005D0000608101BD64608F2FD3873EB050002D35F
:1005E00008F1010801E092185B41B8F1000F03DA4D
:1005F00000200146BDE8F08D00204FF48011064632
:1006000084460EE0171B73EB050705D3121B63EB43
:10061000050306434CEA010C49084FEA30009218E2
:100620005B4150EA0107EDD152EA030012D082EAA1
:10063000040083EA0501084305D0101BAB4106D234
:100640000122002306E000224FF0004302E06FF099
:10065000010253101AEB06004CEB085110EB0A0094
:1006600041EB0B01BDE8F04D00F030B90EB5C10F04
:1006700080EAE0700844CA07002140F233438DE865
:100680000E000A460B4600F030F903B000BD70B50D
:10069000C1F30A5201F000450024C1F3130140F2F6
:1006A000FF3341F480119A4201DA002070BD40F21C
:1006B00033439A42A2F2334203DC524200F075F80F
:1006C00000E090402C43F1D0404270BD00F0004269
:1006D00030F000400AD0C10D01F56071C0F3160082
:1006E00042EA0151C2084007114370470020014609
:1006F0007047000030B5041E71F1000404DB4FF0B8
:100700000044404264EB0101141E73F1000405DB58
:100710001C464FF00043524263EB04038B4208BF78
:10072000824230BD30B5041E71F1000404DB4FF08D
:100730000044404264EB0101141E73F1000405DB28
:100740001C464FF00043524263EB0403994208BF3A
:10075000904230BD01F0004330B421F0004150EA36
:10076000010206D00A0DA2F56072C1F31301002A3E
:1007700002DC30BC00207047440F44EAC104C100D1
:10078000E01830BC00EBC25000F069B8202A04DB4E
:10079000203A00FA02F1002070479140C2F1200394
:1007A00020FA03F3194390407047202A04DB203AD3
:1007B00021FA02F00021704721FA02F3D040C2F181
:1007C00020029140084319467047202A06DBCB17C8
:1007D000203A41FA02F043EAE07306E041FA02F3FC
:1007E000D040C2F1200291400843194670472DE9DC
:1007F000F04791460F4680460446002614F8015BF8
:100800002DB100F023F90068405DC007F6D12B2D13
:1008100002D02D2D18D0641E4A463946204600F0DD
:1008200019F927B13968A14201D1C7F800807105D3
:100830004FF002040BD54042002803DD02F09EFA7F
:100840000460A007BDE8F08746F48066E4E700286E
:10085000F8DA02F093FA04606FF00040F2E7002942
:10086000A8BF7047401C490008BF20F00100704736
:1008700010B4B0FA80FC00FA0CF050EA010404BF96
:1008800010BC704749B1CCF1200421FA04F411FAEC
:100890000CF118BF012121430843A3EB0C01CB1D30
:1008A0004FEA00614FEA102042BF002010BC7047A1
:1008B00000EBC35010440029A4BF10BC7047401C7B
:1008C000490008BF20F0010010BC704710B5141E8D
:1008D00073F1000408DA401C41F1000192185B41F9
:1008E0001A4301D120F0010010BD2DE9F04D9246D0
:1008F0009B4611B1B1FA81F202E0B0FA80F22032E7
:100900009046FFF743FF04460F4640EA0A0041EADB
:100910000B0153465A46084313D0114653EA0100CF
:1009200019D0C8F140025046FFF73FFF05460E467A
:10093000504659464246FFF729FF084305D001209B
:1009400004E020463946BDE8F08D0020054346EA24
:10095000E0762C4337430A986305E40AA0EB0800CD
:100960000022FD0A44EA47540A3002D5002001461D
:10097000E9E7010510196941DDE9084500196941F8
:10098000BDE8F04DA2E72DE9F04D00231A461B1AF1
:100990008A4103DB00200146BDE8F08DC1F30A5215
:1009A000C1F3130141F480154FF0000BD10702D1C0
:1009B00000186D41521E0027044640F2FF113846D0
:1009C00001EB620A3E468046024600204FF4801149
:1009D000FFF7EBFEC2197141BB1846EB0100B4EB07
:1009E000030C75EB000C04D3E41A65EB0005174605
:1009F0000E46241908F101006D4180463428E3DDDC
:100A0000F91946EB0600091BA84103D24FF0FF324B
:100A1000134601E0002213461BEB070046EB0A5188
:100A2000BDE8F04DFFF752BF064C074D06E0E06809
:100A300040F0010394E8070098471034AC42F6D325
:100A4000FFF7C6FB044D0008244D0008004870471E
:100A5000B44C00082DE9F05F824600780027154667
:100A60008B460AF10104B946302801D09DB113E04C
:100A700014F8010B0127782803D0582801D045B17C
:100A80000AE00DB1102D07D10027102514F8010B35
:100A900002E0082500E00A250026B0460EE005FB2E
:100AA000080005FB06F1012701EB10461FFA80F84C
:100AB000B6F5803F00D3B94614F8010B294600F083
:100AC00025F80028EBDABBF1000F05D00FB1641E4A
:100AD00000E05446CBF80040B9F1000F06D002F018
:100AE0004DF902210160C81EBDE8F09F48EA0640AA
:100AF000FAE70EB540F2334102910021CDE9001131
:100B00000A460B46FFF7F1FE03B000BD3A2800D2BB
:100B1000303820F02002412A01D3A2F13700884268
:100B200001D34FF0FF30704770B58C1810F8015B9F
:100B300015F0070301D110F8013B2A1106D110F876
:100B4000012B03E010F8016B01F8016B5B1EF9D17A
:100B50002B0705D40023521E0DD401F8013BFAE700
:100B600010F8013BCB1A921C03E013F8015B01F86B
:100B7000015B521EF9D5A142D8D3002070BD000000
:100B8000454910B54A6822F440324A604A684368D1
:100B90001A434A6001684A6822F480724A60016818
:100BA0004A68036942EA03224A6001684A6822F0FF
:100BB00040724A6001684A6883681A434A60016863
:100BC0008A6822F400628A6001688A68C3681A43EE
:100BD0008A60816A6FF07062D14201688A6822F08F
:100BE00070628A6001688A680CD0836A1A438A60DE
:100BF00001688A6822F040528A6001688A68C36A84
:100C00001A4301E022F040528A6001688A6822F0AB
:100C100002028A6001688A68836942EA43028A6044
:100C2000016A002901684A680FD042F400624A60F4
:100C300001684A6822F460424A6001684A68174CB9
:100C4000436A04EB43331A4301E022F400624A6032
:100C50000168CA6A22F47002CA620168CA6A838B98
:100C60000F4C04EB03531A43CA6201688A6822F4EA
:100C700000728A6001688A68036B42EA43228A60D4
:100C800001688A6822F480628A6001688A68406923
:100C900042EA8020886010BD0023014000E0FFFF91
:100CA0000000F0FF10B501221021264800F082FA62
:100CB000264C9FED251A94ED070AF8EEC00A94ED34
:100CC000060AB8EEC00A01F0D9F94FF4167000F028
:100CD000A9F9206B022802DB6078672823D0606BBB
:100CE000022802DB607872281DD0A06B022802DB8C
:100CF0006078622817D0E06B022802DB60787928E0
:100D000011D094ED070A9FED121AF8EEC00A94ED87
:100D1000060AB8EEC00A01F0B1F940F28A20BDE837
:100D2000104000F07FB994ED070A9FED0A1AF8EE23
:100D3000C00A94ED060AB8EEC00A01F09FF940F22D
:100D40005230ECE700080240000034C300000020ED
:100D50000000BEC2000070C278B50024009490F874
:100D60003C20012A19D0012280F83C200A68072380
:100D70000568092A13D9EE680A3A02EB4202934049
:100D80009E43EE600B788A680A3B03EB43039A406C
:100D90000368DD682A43DA6010E0022078BD2E691E
:100DA00002EB420293409E432E610B788A6803EB6C
:100DB00043039A4003681D692A431A614A681F2346
:100DC000072A13D205686E6B521E02EB8202934013
:100DD0009E436E630B790A885B1E92B203EB83031A
:100DE0009A4003685D6B2A435A6327E005680D2A21
:100DF00012D22E6BD21F02EB820293409E432E63CF
:100E00000B790A88DB1F92B203EB83039A400368D5
:100E10001D6B2A431A6311E0EE6A0D3A02EB82025F
:100E200093409E43EE620B790A880D3B92B203EB2E
:100E300083039A400368DD6A2A43DA62164B056829
:100E4000144A9D4206D10D68122D03D1556845F410
:100E50008005556005689D4218D10B68102B01D0A4
:100E6000112B13D1536843F4000353600968102910
:100E70000CD10A490A4A0968B1FBF2F101EB810180
:100E8000490000E0491E00910029FBD180F83C4058
:100E9000002078BD0023014000200140E800002030
:100EA00040420F000068C06C704770B504004FF0FE
:100EB000000503D0206C002610B107E0012070BDB2
:100EC000666484F83C60204600F01AF8206CC00686
:100ED00010D4206C20F4885040F00200206420469A
:100EE000FFF74EFE6664206C20F0020040F0010027
:100EF000206400E0012584F83C60284670BD0000B5
:100F000000B500680C4987B0884212D10B48002117
:100F1000026842F480720260006800F480700590FC
:100F2000012000900320CDE901016946044800F04A
:100F30008BF807B000BD000000200140443802409B
:100F40000000024018B50021009190F83C20012AD1
:100F500007D0012280F83C2002689368DB0702D0AA
:100F600011E0022018BD936843F001039360204A0A
:100F7000204B1268B2FBF3F202EB420200E0521E79
:100F80000092002AFBD102689368DB072DD0036C26
:100F900040F20164A34343F48073036453685B0528
:100FA00005D5036C23F4005343F480530364036CAE
:100FB000DB0404D5436C23F00603436400E0416482
:100FC00080F83C100C496FF02203136049680068F8
:100FD000C90602D00949884207D1816811F0405FF3
:100FE00003D1816841F080418160002018BD00007C
:100FF000E800002040420F00002301400020014093
:1010000090F83510022903D08021416501207047F6
:10101000052180F835100068016821F001010160A8
:101020000020704770B5044600F0CAF80546601C01
:1010300002D004480078044400F0C2F8401BA042EB
:10104000FAD370BDDC0000202DE9F84FDFF84CB179
:1010500000224FF001084FF0030A4FF00F090BF187
:10106000040E00BF0B6808FA02F42340A3427DD1AE
:101070004D68022D01D0122D0ED1D50800EB850C44
:10108000DCF820505607F70E09FA07F6B5430E694B
:10109000BE402E43CCF82060066855000F790AFA4E
:1010A00005FC07F0030726EA0C06AF40374307604C
:1010B0004E68012E05D0022E03D0112E01D0122E23
:1010C0000ED18768CE6827EA0C07AE403E438660A3
:1010D0004668A6430C79C4F300149440344344603A
:1010E000C4688E6824EA0C04AE402643C6604C688F
:1010F000E4004DD52A4C256845F4804525602468D8
:1011000022F0030504F480440094264C2E19D6F8EE
:10111000084895072F0F09FA07F5AC43224DA8425E
:1011200001D100250AE0214DA84201D1012505E0A9
:101130001F4DA84201D1022500E00725BD402543EF
:10114000C6F80858DBF800405D464E689C43F6033D
:1011500000D51C432C60DEF8004075464E689C4369
:10116000B60300D51C432C600C4D00E010E00835A0
:101170002C684E689C43F60200D51C432C60074D3A
:101180000C352C684E689C43B60200D51C432C607D
:10119000521C102AFFF466AFBDE8F88F003C0140F6
:1011A0004438024000300140000002400004024088
:1011B000000802400AB1816170470904FBE70000A2
:1011C0000148806870470000DC0000200248816808
:1011D0000278114481607047DC0000200B4810B594
:1011E000016841F400710160016841F480610160AF
:1011F000016841F480710160032000F0B1F8002023
:1012000000F006F800F03EF8002010BD003C02405F
:1012100010B5014688B00022192000F081F819208D
:1012200000F072F813480024016841F001010160E8
:10123000006805A900F001000690684600F03AF940
:1012400000F06EF90C490D4AB0FBF1F10C48491E53
:10125000026040F2E732C0E90324C0E9011400F063
:101260007BFB10B1012008B010BD054800F0AEFBBB
:10127000F9E700004438024040420F0000000140FE
:10128000140200201F4808B5016841F48041016044
:10129000006800F4804000901A48001F016841F087
:1012A00080510160006800F080500090032000F041
:1012B00057F8002211466FF00B0000F031F80022C1
:1012C00011466FF00A0000F02BF8002211466FF073
:1012D000090000F025F800221146501F00F020F808
:1012E00000221146101F00F01BF800220F21901E53
:1012F00000F016F800220F21BDE80840501E00F053
:101300000FB800004438024000F01F020121914054
:101310004009800000F1E020C0F800117047000093
:10132000F0B40E4B1B680C46C3F30223C3F1070550
:10133000042D00D90425191D072901D2002300E03E
:10134000DB1E012606FA05F1491E214099409E4008
:10135000761E16403143F0BC00F080BE0CED00E07C
:10136000064900F0070208684FF6FF03184040EAFC
:101370000220034A10430860704700000CED00E0B3
:101380000000FA052DE9F0470E46050065D0DFF8AC
:101390001481D8F80000F7B200F00F00B04207D275
:1013A00088F80070D8F8000000F00F00B04254D167
:1013B00028683D4C810712D5400703D5206840F4CA
:1013C000E05020602878000703D5206840F4604092
:1013D00020602068A96820F0F00008432060287889
:1013E000C0072DD0304968680839012812D002287A
:1013F00013D0032811D00968890700292DDA216844
:1014000021F0030101432160FFF7DAFE814641F23A
:10141000883A0EE009688903EFE709688901ECE77B
:10142000FFF7CEFEA0EB0901514502D90320BDE82C
:10143000F0872068696800F00C00B0EB810FEFD1F5
:10144000D8F80010404601F00F01B14207D90770EB
:10145000006800F00F00B04201D00120E7E72878D3
:10146000400705D52068E96820F4E0500843206073
:101470002878000706D52068296920F4604040EAF2
:10148000C100206000F05CF82168084AC1F3031134
:10149000515CC840064908600020FFF7B9FE0020F3
:1014A000C5E70000003C0240083802400C4A000832
:1014B000E80000200F2202600C4A136803F00303C7
:1014C0004360136803F0F0038360136803F4E05390
:1014D000C36012684FF4E05303EAD2020261044889
:1014E000006800F00F0008607047000008380240F4
:1014F000003C02400148006870470000E8000020FE
:101500000448054900680968044AC1F38221515C16
:10151000C8407047E8000020083802401C4A000814
:101520000448054900680968044AC1F34231515C26
:10153000C8407047E8000020083802401C4A0008F4
:10154000154810B5006810F00C02144813D0411073
:10155000042A0FD0082A0ED10F4C241F22682368BA
:1015600002F03F025B0207D52068C0F38810A0FBA1
:10157000010106E0084610BD2168C1F38811A1FBF6
:1015800000010023FEF79AFE2168C1F30141491CC6
:101590004900B0FBF1F010BD083802400024F4000F
:1015A0002DE9F84F05460078DFF800B3C04CC007BE
:1015B0004AD0DBF800105846C1F38101012908D058
:1015C0000068C0F3810002280AD1201D0068400293
:1015D00006D52068800337D56868002872D033E0CC
:1015E0006868B0F5803F10D0B0F5A02F206810D00B
:1015F00020F480302060206820F48020206068681B
:10160000A8B1FFF7DDFD06460DE0206840F480300C
:10161000F4E740F480202060F7E700BFFFF7D0FD3B
:10162000801B64286FD820688003F7D50CE0FFF793
:10163000C7FD064605E000BFFFF7C2FD801B64281A
:10164000F0D820688003F7D42878DFF86882800714
:101650004FF0000940D5DBF80010584611F00C0F90
:1016600009D00068C0F3810002280BD18F48001F09
:101670000068400206D42068800715D5E868012874
:1016800020D111E0E868B8B10120C8F80000FFF7E8
:1016900097FD064605E000BFFFF792FD801B02287C
:1016A000C0D820688007F7D52068296920F0F800A5
:1016B00040EAC10020600FE0C8F80090FFF780FD0D
:1016C000064606E0EFE000BFFFF77AFD801B022828
:1016D00019D820688007F7D42878000722D5734EE0
:1016E000754869696C3679B101210160FFF768FDC1
:1016F000074604E0FFF764FDC01B022803D83068EA
:101700008007F7D50EE089E0C0F80090FFF758FD9C
:10171000074604E0FFF754FDC01B02287ED830685E
:101720008007F7D42878400768D5DFF880A1002724
:101730000AF1380ADAF80000C0000BD4DAF8001019
:1017400041F08051CAF80010DAF80000012700F0DB
:1017500080500090594E3068C00510D4306840F475
:1017600080703060FFF72CFD009005E0FFF728FD4A
:101770000099401A022851D83068C005F6D54B4E62
:10178000A868683601280FD00528306810D020F0EE
:1017900001003060306820F004003060A868B8B103
:1017A000FFF70EFD00900FE0306840F00100F4E715
:1017B00040F004003060F7E7FFF702FD0099411A9E
:1017C00041F28830814266D830688007F4D50EE057
:1017D000FFF7F6FC009007E0FFF7F2FC0099411AD2
:1017E00041F28830814256D830688007F4D42FB156
:1017F000DAF8001021F08051CAF80010A869D0B3BF
:10180000DBF80010C1F3810102294CD002284846C0
:1018100007D0C8F86000FFF7D3FC00E03BE00546C6
:101820003CE04746C8F86000FFF7CAFC064604E003
:10183000FFF7C6FC801B02282DD820688001F7D452
:10184000F5E907010843E9681D4A490802EB01412F
:10185000AA6841EA82110843297C40EA0160297D97
:1018600040EA01711148001F016001203866FFF74E
:10187000A7FC054605E014E0FFF7A2FC401B022888
:1018800009D820688001F7D50BE000BFFFF798FC6E
:10189000401B022802D90320BDE8F88F2068800190
:1018A000F4D40020F8E70120F6E7000008380240F1
:1018B0000038024000004742800E4742007000405E
:1018C0000000FFFF4FF0E0210428086903D020F05A
:1018D00004000861704740F00400FAE710B5401EAC
:1018E000B0F1807F01D3012010BD4FF0E024606192
:1018F0000F21601700F0B2FB0020A06107202061DB
:10190000002010BD7047704730B590F83820012A8C
:1019100020D0012280F83820022380F83930036873
:101920005C6824F070045C6003685C680D682C439C
:101930005C6003689C6824F080049C6003689C6879
:1019400049680C439C6080F83920002180F83810E9
:10195000084630BD022030BD10B5040003D094F815
:10196000390010B107E0012010BD002084F83800D4
:10197000204600F00DF8022084F83900211D20686F
:1019800000F02CFF012084F83900002010BD000079
:1019900008B500680B49884212D10B48016841F034
:1019A000100101600068002200F010000090052185
:1019B0003620FFF7B5FCBDE808403620FFF7A4BC91
:1019C00008BD000000100040403802400168CA68AD
:1019D00042F00102CA600068016841F00101016043
:1019E00000207047704770B50446006801694FF0E9
:1019F0000005C943890715D4C168C943890711D4B3
:101A0000E91E016101202076206880698007204658
:101A100002D0FFF7E7FF04E000F098F8204600F05E
:101A200096F8257620680169C943490717D4C1682B
:101A3000C943490713D46FF00401016102202076E5
:101A40002068806910F4407F204602D0FFF7CAFF6B
:101A500004E000F07BF8204600F079F82576206855
:101A60000169C943090716D4C168C943090712D4DB
:101A70006FF008010161042020762068C0698007AA
:101A8000204602D0FFF7AEFF04E000F05FF82046EA
:101A900000F05DF8257620680169C943C90617D4AE
:101AA000C168C943C90613D46FF010010161082051
:101AB00020762068C06910F4407F204602D0FFF7EE
:101AC00091FF04E000F042F8204600F040F825764F
:101AD00020680169C943C90708D1C168C943C9075A
:101AE00004D1891E0161204600F032F820680169A6
:101AF000C943090609D4C168C943090605D46FF072
:101B0000800101612046FFF7FDFE20680169C9439D
:101B1000490609D4C168C943490605D46FF040019C
:101B20000161204600F01EF820680169C94389065A
:101B30000BD4C168C943890607D46FF02001016145
:101B40002046BDE87040FFF7DEBE70BD70477047AD
:101B500000680349884201D1FFF738BB7047000095
:101B6000000001407047704770B502680446106875
:101B7000D168536910F00F0F50D003F0010501F444
:101B8000907635435DD0C20705D0CA0503D5E26B18
:101B900042F00102E263420705D5DA0703D0E26BA7
:101BA00042F00202E263820705D5DA0703D0E26B56
:101BB00042F00402E263020705D5DA0703D0E26BC4
:101BC00042F00802E263E26B002A33D0800604D5BB
:101BD000880602D5204600F045FE20684069E16B8A
:101BE000C0F38010090700D428B3204600F02CFE73
:101BF0002068416949061AD5416921F040014161D7
:101C0000606BA0B11B490165606BFFF7F9F9002813
:101C100010D0606B016DBDE870400847830610D599
:101C20008B060ED52046BDE8704000F01BBE204656
:101C3000FFF799FF70BD2046FFF795FF0020E06396
:101C400070BD030606D50B0604D52046BDE87040DE
:101C500000F0A4BF4006F3D54806F1D5D168204670
:101C600021F04001D160202184F8391000F089F87A
:101C700070BD00003928000870B5040004D094F845
:101C80003900002510B106E0012070BD84F83850FD
:101C9000204600F023F8242084F839002068C16829
:101CA00021F40051C160204600F022FE2068016945
:101CB00021F4904101612068416921F02A014161CC
:101CC0002068C16841F40051C160E563202084F8B8
:101CD000390084F83A00002070BD000000B50068AB
:101CE000124987B088421ED11148016841F4003181
:101CF00001600068694600F4003005900C200090F7
:101D000002200190012002900320039007200490FC
:101D10000848FFF799F9002205212620FFF700FB6C
:101D20002620FFF7F1FA07B000BD00000044004094
:101D3000403802400000024090F83A30202B1DD17C
:101D4000D1B1CAB190F83830012B17D081628285A9
:101D5000C2850021C163222280F83A2080F8381021
:101D600001684A6942F001024A610068C16841F4B1
:101D70009071C160002070470120704702207047B9
:101D8000704770477FB512481049002401604FF436
:101D900080314160046184610902046281600D49FF
:101DA000C0E90A140125C460C56145610463FFF7F9
:101DB0007CF800B1FEE7CDE900456946044802948D
:101DC000FEF7CAFF002800D0FEE77FBD00200140DB
:101DD000500100200100000F2DE9F0433B4887B07F
:101DE0000024016841F004010160016801F0040170
:101DF0000591016841F080010160016801F08001F6
:101E00000591016841F001010160016801F00101E3
:101E10000591016841F00201016000682C4F00F05B
:101E20000200059000224FF4EC613846FFF7C2F93A
:101E3000DFF8A0804FF4C266002231464046FFF72B
:101E4000B9F9DFF8949000224FF487614846FFF714
:101E5000B1F94FF4005000902048CDE901046946E3
:101E60004046FFF7F1F84FF4487000900125CDE9A6
:101E70000154694638460394FFF7E6F84FF488604A
:101E8000CDE90005CDE9025469463846FFF7DCF894
:101E90000096CDE90154694640460394FFF7D4F813
:101EA0004FF482600090CDE901546946484603949E
:101EB000FFF7CAF82820CDE90005CDE902546946AC
:101EC0004846FFF7C1F807B0BDE8F083303802405C
:101ED00000000240000802400004024000002110FF
:101EE0002DED048B6126584C9FED588ADFED588A02
:101EF0009FED589A012001F0DFFF606D0028F9D0B6
:101F0000A06D0028F6D060680028F3D02078622801
:101F10007ED101F027FF002869D063202070FEF7F2
:101F2000C1FE6078622834D0672804D0722819D0A6
:101F3000792865D144E0444D983595ED020AB8EE14
:101F4000C01A95ED010AF8EEC00A95ED000AB8EE48
:101F5000C00A00F093F8A8681E30A860206B401CEF
:101F600020634DE0384DA43595ED020AB8EEC01A55
:101F700095ED010AF8EEC00A95ED000AB8EEC00A28
:101F800000F07CF8A8681E30A860606B401C60639D
:101F900036E02D4DB03595ED020AB8EEC01A95ED3C
:101FA000010AF8EEC00A95ED000AB8EEC00A00F08A
:101FB00065F8A8681E30A860A06B401CA0631FE0F5
:101FC000214DBC3595ED020AB8EEC01A95ED010A17
:101FD000F8EEC00A95ED000AB8EEC00A00F04EF81F
:101FE000A8681E30A860E06B401CE06308E0267023
:101FF000B0EE481AF0EE680AB0EE490A00F03EF87A
:10200000606D00283FF476AFA06D0028FAD000E0A4
:1020100002E060680028F5D0207863287FF46AAF7A
:10202000002210210C48FFF7C5F84FF41660FEF7A8
:10203000F9FFB0EE481AF0EE680AB0EE490A00F077
:102040001DF8267056E700000000002059ABCAC1F9
:1020500000000000ABDC0443000802400907090E41
:10206000002806DA00F00F0000F1E02080F8141DCF
:10207000704700F1E02080F80014704770B52DED36
:102080000A8BF0EE40AAF0EE609A2AEEAA0AB0EEB1
:10209000418A09EEA90A10EE100AFEF717FB41EC7F
:1020A000100B01F0F7F951EC100BFEF753FB09EEA2
:1020B000100A18EE100AFEF709FB9FED8CBB53ECDB
:1020C0001B2BFEF74BF941EC1C0B18EE100AFEF728
:1020D000FDFA53EC1B2BFEF741F953EC1C2BFEF7DA
:1020E000E4F969EE098A41EC1C0B18EE900AFEF740
:1020F000EDFA53EC1C2BFEF731F941EC100B01F01B
:10210000C9F951EC100BFEF725FB0AEE100A18EE88
:10211000100AFEF7DBFA53EC1B2BFEF71FF941EC1C
:102120001C0B18EE100AFEF7D1FA53EC1B2BFEF72E
:1021300015F953EC1C2BFEF7B8F941EC1C0B18EE0B
:10214000900AFEF7C3FA53EC1C2BFEF707F99FED3C
:1021500069CB53EC1C2BFEF701F953EC1C2BFEF75B
:102160009EF99FED661B53EC112BFEF710FAFEF75C
:10217000F1FA08EE900A19EE100AFEF7A7FA41EC00
:102180001C0B18EE100AFEF7A1FA53EC1B2BFEF7FE
:10219000E5F853EC1C2BFEF7FAF941EC100B00F0BC
:1021A0009FFF51EC100BFEF7D5FA05461AEE100A08
:1021B000544988427EDCF5EEC0AA534CF1EE10FA89
:1021C0000ED1B0EE690A02F0DFF8FEF74FFA9FED8C
:1021D0004F1B53EC112BFEF768F9C4E91E010BE00D
:1021E00089EEAA0A10EE100AFEF770FA41EC100B05
:1021F00000F076FF84ED1E0B2846FEF767FA88EEA6
:102200008A0A41EC1B0B10EE100AFEF75FFA41EC54
:10221000100B00F0B9FD53EC1B2B51EC100BFEF72B
:102220009DF8394DB0EE480A8035C5E9000102F04D
:10223000ABF8FEF71BFA41EC180B95ED000B01F023
:10224000BBF89FED34BB51EC100B53EC1B2BFEF78E
:102250002CF941EC1A0B19EE100AFEF737FA53EC81
:102260001A2BFEF71CF953EC1B2BFEF790F941ECEF
:10227000100B00F089FD53EC182B51EC100BFEF7FE
:1022800014F9C5E9020194ED1E0B02F061F810EE9D
:10229000100AFEF71BFAC4E91E0195ED000B02F0CF
:1022A00057F810EE100AFEF711FAC5E9000195ED96
:1022B000020B00E017E002F04BF810EE100AFEF7F8
:1022C00005FA9FED160BC5E9020185ED040BFA2016
:1022D0002062642060621E20A0623C20E062002038
:1022E0006065A0656060BDEC0A8B70BD00000000F9
:1022F00000A05E400000000000A1D94000000000E6
:10230000004074400000A2430000002038E92F5430
:10231000FB21F93F00000000004064400000000085
:10232000008056C0012001F0C7FDFBE72DED028BB8
:102330009FED458B464E474C4FF0FA084FF48067AF
:102340004FF4FA795FF0010594ED180B53EC102B64
:1023500094ED1E0B51EC100BFEF7A1F841EC100BA5
:1023600001F08EF853EC182B51EC100BFEF7DAF954
:1023700064D294ED1E0B53EC102B94ED180B51EC22
:10238000100BFEF7B7F908D2A068401C05D19620C3
:10239000FEF748FEC4F82080A56094ED1E0B53ECB8
:1023A000102B94ED180B51EC100BFEF7BBF90AD271
:1023B000A068012807D19620FEF734FE4FF0FF30C9
:1023C000C4F82080A060207A1021401EC2B22248AA
:1023D000FEF7F0FE012239463046FEF7EBFE012003
:1023E00001F06AFD206A002805DD484601F0CEFCB8
:1023F000206A401E2062002239463046FEF7DAFE8F
:10240000012001F059FD206A002805DD484601F051
:10241000BDFC206A401E2062A068FEF727F99FEDF0
:102420000F1B53EC112BFEF740F894ED181B53ECE7
:10243000112BFDF793FFC4E9180185E701206565BD
:1024400001F03AFD80E70000EC51B81E85EBB13F8A
:102450000000024000000020000402409544ECCF40
:102460002234AF3F2DED028B9FED458B464D474FFC
:102470004FF064084FF4FA79A5F180045FF001068B
:1024800094ED1A0B53EC102B95ED000B51EC100B47
:10249000FEF705F841EC100B00F0F2FF53EC182B9F
:1024A00051EC100BFEF73EF965D295ED000B53ECA5
:1024B000102B94ED1A0B51EC100BFEF733F90AD2E6
:1024C000E068012807D16420FEF7ACFD4FF0FF3033
:1024D000C4F82480E06095ED000B53EC102B94EDD4
:1024E0001A0B51EC100BFEF705F908D2E068401CFE
:1024F00005D16420FEF796FDC4F82480E660207BB9
:102500004FF48071401EC2B22148FEF753FE0122F3
:1025100020213846FEF74EFE012001F0CDFC606A16
:10252000002805DD484601F031FC606A401E60620B
:10253000002220213846FEF73DFE012001F0BCFCC0
:10254000606A002805DD484601F020FC606A401EF4
:102550006062E068FEF78AF89FED0E1B53EC112BCA
:10256000FDF7A3FF94ED1A1B53EC112BFDF7F6FEBC
:10257000C4E91A0184E70120A66501F09DFC7FE70C
:10258000EC51B81E85EBB13F8000002000040240F2
:10259000000002403F0A674FB354AC3F2DED028B61
:1025A0009FED458B464D474F4FF01E084FF4FA798B
:1025B000A5F180045FF0010694ED1C0B53EC102B89
:1025C00095ED020B51EC100BFDF769FF41EC100B80
:1025D00000F056FF53EC182B51EC100BFEF7A2F84D
:1025E00064D295ED020B53EC102B94ED1C0B51ECC7
:1025F000100BFEF77FF808D22069401C05D164203B
:10260000FEF710FDC4F82880266195ED020B53EC0F
:10261000102B94ED1C0B51EC100BFEF783F80AD233
:102620002069012807D16420FEF7FCFC4FF0FF3041
:10263000C4F828802061207C2021401CC2B238468A
:10264000FEF7B8FD012240213846FEF7B3FD012018
:1026500001F032FCA06A002805DD484601F096FB37
:10266000A06A401EA062002240213846FEF7A2FD6B
:10267000012001F021FCA06A002805DD484601F098
:1026800085FBA06A401EA0622069FDF7EFFF9FED69
:102690000E1B53EC112BFDF708FF94ED1C1B53ECA4
:1026A000112BFDF75BFEC4E91C0185E70120666084
:1026B00001F002FC80E70000EC51B81E85EBB13F51
:1026C00080000020000002409BF48CB77450AC3FA7
:1026D00001F0FDBB30B5244893B00025016841F0FE
:1026E00080510160006800F0805012901F4801681E
:1026F00041F4404101600068022400F4404012901F
:102700000120039010200490009406940820CDE945
:1027100007506420CDE909040420CDE90B04684684
:10272000FEF73EFF00B1FEE70DA90F2081E8310062
:102730004FF48050CDE9100503210DA8FEF722FECD
:1027400000B1FEE7FEF7D6FE4FF47A71B0FBF1F070
:10275000FFF7C4F80420FFF7B5F800220F21501E40
:10276000FEF7DEFD13B030BD40380240007000407F
:102770001048016841F4700101600F48016841F0A0
:10278000010101600C4A00210832116002680B4B04
:102790001A400260031D0A4A1A60026822F480226D
:1027A000026005480C300160024958068039086013
:1027B0007047000088ED00E000380240FFFFF6FEA1
:1027C000103000240148FFF70EB900001402002069
:1027D0000148FFF708B900009801002030B50268F1
:1027E000114B124C984201D0A04203D122F0700547
:1027F0004A682A43984207D0A04205D00C4CA04218
:1028000002D00C4CA04203D122F44074CA68224387
:1028100002608A68C2620A688262984201D10969CC
:1028200001630121416130BD00000140000C004006
:10283000004001400048014010B5806B0021C18577
:10284000C184FFF790F910BD0168CA6822F4907244
:10285000CA6001684A6922F001024A61202180F8B9
:102860003A10704710B590F83A10222901D0022092
:1028700010BD8168B1F5805F11D001690029016840
:102880001FD0496801F07F03816A4A1C82620B7085
:10289000C18D491E0904090CC18518D026E00269C2
:1028A000816A002A0268526805D0D2B20A80816A21
:1028B000491C8162ECE7C2F308020A80816A891C24
:1028C000F7E74A68816A4B1C83620A70E0E7016897
:1028D000CA6822F49072CA6001684A6922F0010253
:1028E0004A61202180F83A10FFF74AFA002010BD13
:1028F0002DE9F04104460068016921F44052E16885
:10290000114301612168C86849F20C629043236950
:10291000A268E5691A4363692B431A430243CA60FC
:102920002168486920F44072A06910434861E16958
:102930006425B1F5004F9748974A21684FF0320857
:102940003FD0914201D081427CD1FEF7E9FD00EBFE
:10295000C00101EB001061688900B0FBF1F6FEF7E1
:10296000DFFD00EBC00101EB001061688900B0FBE6
:10297000F1F0B0FBF5F06FF01801484306EB800171
:1029800008EB0110B0FBF5F000F0F006FEF7C8FD13
:1029900000EBC00101EB001061688900B0FBF1F0B1
:1029A000B0FBF5F006EB0016FEF7BAFD00EBC00138
:1029B00001EB001061688900B0FBF1F7FEF7B0FD94
:1029C000D2E0914201D081423DD1FEF7A9FD00EB5A
:1029D000C00101EB001061684900B0FBF1F0B0FBF1
:1029E000F5F00601FEF79CFD00EBC00101EB0010C5
:1029F00061684900B0FBF1F7FEF792FD00EBC00102
:102A000001EB001061684900B0FBF1F0B0FBF5F09C
:102A10006FF01801484307EB800108EBC100B0FBE1
:102A2000F5F000F0F80006EB4006FEF779FD00EB4C
:102A3000C00101EB001061684900B0FBF1F7FEF73F
:102A40006FFD3CE055E0FEF75BFD00EBC00101EBE4
:102A5000001061684900B0FBF1F0B0FBF5F0060131
:102A6000FEF74EFD00EBC00101EB0010616849006C
:102A7000B0FBF1F7FEF744FD00EBC00101EB0010E5
:102A800061684900B0FBF1F0B0FBF5F06FF01801A0
:102A9000484307EB800108EBC100B0FBF5F000F004
:102AA000F80006EB4006FEF72BFD00EBC00101EB42
:102AB000001061684900B0FBF1F7FEF721FD00EB63
:102AC000C00101EB001061684900B0FBF1F0B0FB00
:102AD000F5F06FF01801484307EB800108EBC100E7
:102AE000B0FBF5F000F00700216830448860BDE8D5
:102AF000F081FEF705FD00EBC00101EB00106168FD
:102B00008900B0FBF1F6FEF7FBFC00EBC00101EB26
:102B1000001061688900B0FBF1F0B0FBF5F06FF0D8
:102B20001801484306EB800108EB0110B0FBF5F0FB
:102B300000F0F006FEF7E4FC00EBC00101EB001032
:102B400061688900B0FBF1F0B0FBF5F006EB001610
:102B5000FEF7D6FC00EBC00101EB001061688900B4
:102B6000B0FBF1F7FEF7CCFC00EBC00101EB00106D
:102B700061688900B0FBF1F0B0FBF5F06FF018016F
:102B8000484307EB800108EB0110B0FBF5F000F0C3
:102B90000F00A9E7001401400010014090F839101F
:102BA000212901D0022070478168B1F5805F016A58
:102BB0000BD04A1C0262026809785160C18C491E20
:102BC0000904090CC1840ED017E009880268C1F31A
:102BD0000801516001690029016A02D0491C0162A3
:102BE000ECE7891CFBE70168CA6822F08002CA6032
:102BF0000068C16841F04001C160002070470000DA
:102C00002DE9F0473C48FEF7AFFF07223B493A4821
:102C1000FFF792F8DFF8E88038483A4AD8F8001011
:102C2000394D491CC8F8001003781370437853706D
:102C300083789370C2782A7002796A704279AA7098
:102C4000072957D1314F324A3978127891424ED103
:102C50003049807908702846FDF773FB2E492F4CC8
:102C600090FBF1F02060202028706870A870254843
:102C7000FDF767FB0646DFF8A8902068FDF7F6FC35
:102C80009FED281B53EC112BFDF70FFC9FED271B2D
:102C900053EC112BFDF703FCFDF7F9FC0546206012
:102CA0003046FDF7E3FC9FED231B53EC112BFDF7A2
:102CB000FCFB9FED221B53EC112BFDF74FFBFDF7A7
:102CC000E6FCC01DC9F80000592D01DD2D1D256051
:102CD00094ED000A9FED1B1AF8EEC00A00EE100AF0
:102CE000B8EEC00AFFF7CAF917480078387000211B
:102CF000C8F80010BDE8F087D4010020D200002001
:102D0000C8000020CC000020CF00002000000020E0
:102D1000A44900080100002040420F001C000020D0
:102D2000180000208A8EE4F21FD2DF3F0E2DB29DE4
:102D3000EF736340FED478E92631E0BF14AE47E17B
:102D40007A787440000012C3A549000803B40198C2
:102D50004100009850EAC12018BF04204A0D18BF56
:102D600040F0010040F2FF72B2EB515F08BF40F04B
:102D70000200012808BF052002B0704700487047D4
:102D80004C0100200000000010B5B94A2DED020BE7
:102D90002DED0C8B82B00F9921F000409FEDB6CB4A
:102DA00090422CDBA0F140530E9AA3F17F631A43AB
:102DB0000FD0B349884202DC16D10E98A0B19DED28
:102DC0000E0B02B0BDEC0C8B02B0BDE8104000F061
:102DD00087BF0029C1BF9FEDAC0B02B0BDEC0C8BCF
:102DE00002B0C8BF10BD16E0012000F0B5FF02B070
:102DF000BDEC0C8B02B0BDE8104000F07DBFA44AD2
:102E00009FEDA59B9FEDA6AB90425EDAA6499FED94
:102E1000A8CB814208DBB0EE4C0AF0EE6C0A02B09F
:102E2000BDEC0C8B02B010BD9DED0E0B53EC102BC6
:102E300051EC100BFDF739FB41EC180B9E480621B5
:102E4000B0EE480AF0EE680A784400F035FE53EC24
:102E5000182B51EC100BFDF728FB41EC1B0B97488E
:102E6000B0EE480AF0EE680A0421784400F024FE2F
:102E700053EC182B51EC100BFDF717FB53EC192BEF
:102E8000FDF76CFA41EC100B51EC1B0B53EC102BC3
:102E9000FDF77DFB41EC100B53EC102B9DED0E0B61
:102EA00051EC100BFDF701FB53EC1A2BFDF7FAFA6E
:102EB0009DED0E1B53EC112BFDF7F4FA53EC1C2B7C
:102EC000FDF7F0FA41EC100BA9E79FED7D8B9FED2C
:102ED0007EBB9DED0E0B002953EC192B51EC100B12
:102EE00052DAFDF73BFA53EC182BFDF7DEFA41EC12
:102EF000180B77480621B0EE480AF0EE680A7844CD
:102F000000F0DAFD53EC182B51EC100BFDF7CDFA65
:102F100041EC1D0B6F48B0EE480AF0EE680A042140
:102F2000784400F0C9FD53EC182B51EC100BFDF761
:102F3000BCFA53EC192BFDF711FA41EC190B51ECCB
:102F4000180B01F02BFA41EC180B53EC192B51EC38
:102F50001D0BFDF71CFB53EC182BFDF7A6FA53ECE9
:102F60001A2BFDF79CFA41EC100B51EC180B53ECAB
:102F7000102BFDF7F3F953EC1B2BFDF796FA53ECEE
:102F80001C2BFDF78FFA6DE0FDF78CFA53EC182B34
:102F9000FDF78BFA41EC180B01F000FA41EC1A0B2B
:102FA00000208DED00AB00909DED000B51EC1A0B55
:102FB00053EC102BFDF7D2F99DED000B41EC1C0BEF
:102FC00053EC102B51EC100BFDF76FFA53EC182B50
:102FD000FDF768FA53EC1C2BFDF7D9FA41EC1C0BFA
:102FE0003D48B0EE480AF0EE680A0621784400F049
:102FF00063FD53EC182B51EC100BFDF756FA41EC26
:103000001D0B3648B0EE480AF0EE680A04217844F9
:1030100000F052FD53EC182B51EC100BFDF745FA64
:1030200053EC192BFDF79AF941EC100B51EC1D0BE9
:1030300053EC102BFDF7ABFA53EC1A2BFDF735FAD6
:1030400053EC1C2BFDF78AF941EC100B53EC102BC1
:103050009DED000B51EC100BFDF780F953EC1B2B91
:10306000FDF723FA41EC100BD9E600000000000048
:103070000000F03F00000000182D4454FB210940DF
:103080000000F07F000000000000000000000000D1
:103090000000E03F00000000000000000000F03FE2
:1030A000075C143326A6913C0000603C0000000041
:1030B000182D4454FB21F93FDC1B0000EA1B0000E3
:1030C000000000000000E03F0000000000000040A1
:1030D000261B0000341B0000381A0000461A0000AE
:1030E00070B59B482DED020B2DED068B079D25F04D
:1030F0000044A04218DC9748844202DC0AD10698BA
:1031000040B19DED060BBDEC068B02B0BDE87040F2
:1031100000F0E6BD002DCCBF9FED8F0B9FED900B17
:10312000BDEC068B02B070BD8F48A04215DD8F4804
:10313000A042D8BF4FF0FF3458DD9DED060B51EC97
:10314000100BFFF703FE042808BF00F0E5FD9DED1E
:10315000060BBDEC068B02B070BD9DED060B51EC6D
:10316000100B00F01DFECDE9060181489FED828B1A
:10317000A0423CDD8248A0421FDD00249FED82ABCF
:103180009DED060B53EC1A2B51EC100BFDF7E6F8F6
:103190009DED060B41EC190B53EC1A2B51EC100B67
:1031A000FDF783F953EC182BFDF779F953EC192B44
:1031B000FDF7EDF9CDE9060149E09DED060B01248F
:1031C00053EC182B51EC100BFDF7C8F89DED060BD6
:1031D00041EC190B53EC182B51EC100BFDF75FF978
:1031E00053EC192BFDF7D3F9CDE906012FE0684820
:1031F000A0421FDD02249FED689B9DED060B53EC62
:10320000192B51EC100BFDF750F953EC182BFDF76F
:10321000A5F89DED060B41EC180B53EC192B51EC66
:10322000100BFDF73CF953EC182BFDF7B0F9CDE985
:1032300006010CE09DED060B032453EC102B9FEDD3
:10324000580B51EC100BFDF7A2F9CDE906019DEDED
:10325000060B53EC102B51EC100BFDF726F941EC4B
:10326000180B53EC182BFDF720F941EC190B4E48C5
:103270000621B0EE490AF0EE690A784400F01CFC21
:1032800053EC182B51EC100BFDF70FF941EC180B18
:103290004648B0EE490AF0EE690A0521784400F08C
:1032A0000BFC53EC192B51EC100BFDF7FEF841EC25
:1032B000100B51EC180B53EC102B002C0EDAFDF711
:1032C0004DF89DED061B53EC112BFDF7EEF89DED2F
:1032D000061B53EC112BFDF7E5F835E0FDF73EF842
:1032E0009DED061B53EC112BFDF7DFF841EC100BA5
:1032F0002F48784400EBC40090ED001B51EC100BFC
:1033000053EC112BFDF7CBF89DED061B53EC112B65
:10331000FDF7C5F841EC100B2648784400EBC400DB
:1033200090ED001B51EC100B53EC112BFDF7BAF88C
:1033300041EC100B002DA2BFBDEC068B02B070BD9E
:1033400051EC100B81F0004141EC100B01E7000043
:10335000000010440000F07F182D4454FB21F93F79
:10336000182D4454FB21F9BF0000DC3F0000203E33
:103370000000F33F00000000000000000000F03FEC
:103380000000E63F000000000000000000000040D8
:103390000080034000000000000000000000F83F33
:1033A000000000000000F0BF6218000018180000C4
:1033B000A21700005A17000010B52F499FED2C1BD3
:1033C0002DED020B84B0059820F000408842D8BF54
:1033D0009DED040B2DDD2949884209D1049840B99F
:1033E0004FF0010000F0B8FC00F086FC06B010BD04
:1033F00005DB9DED040B00F073FC06B010BD6846C4
:103400009DED040B00F084F810F0030004BF9DED67
:10341000021B9DED000B0CD001280ED09DED021B70
:103420009DED000B022817D0012000F0C1FB06B073
:1034300010BD00F089FA06B010BD9DED021B9DED98
:10344000000B012000F0B4FB51EC100B81F00041A7
:1034500006B041EC100B10BD00F076FA51EC100BE9
:1034600081F0004106B041EC100B10BD00000000DF
:103470000000000000000000FB21E93F0000F07F99
:103480002DED020B019820F0004001909DED000B06
:1034900002B0704700B52DED048BB0EE409AF0EE0F
:1034A000609A83B051EC190BFDF76DFA41EC180BE3
:1034B00018EE100A18EE901A8DED008B002818BF38
:1034C0000120084320F00040C0F17F6000F1E0409F
:1034D000C00F14D019EE101A19EE900A8DED009B52
:1034E000002918BF0121084320F00040C0F17F608F
:1034F00000F1E040C00F04BF012000F02DFCB0EE51
:10350000480A03B0F0EE680ABDEC048B00BD000071
:103510002DE9F14F04462DED020B2DED088B8AB0FD
:103520009FEDE70B80ED020B139EE74826F0004568
:1035300085420ADC9DED120B002084ED000B0AB0E1
:10354000BDEC088B03B0BDE8F08FE0489FEDE0AB29
:103550009FEDE1BBA84247DDE14F9FEDE39B9FED6F
:10356000E48B9DED120B53EC1A2B51EC100B002E3B
:103570001CDDFCF794FF41EC100BBD4208D053EC6E
:103580001B2B51EC100BFCF78AFFC4E900010BE088
:1035900053EC192B51EC100BFCF781FF53EC182B5B
:1035A000FCF77DFFC4E900010120C8E7FCF7D6FE67
:1035B00041EC100BBD4208D053EC1B2B51EC100B0F
:1035C000FCF7CCFEC4E900010BE053EC192B51ECE5
:1035D000100BFCF7C3FE53EC182BFCF7BFFEC4E93D
:1035E00000014FF0FF30AAE7C348A84279DB9DED08
:1035F000120B51EC100B00F0D3FB41EC180B9FEDBC
:10360000C00B53EC102BFCF750FF9FEDBF1B53EC8E
:10361000112BFCF7A3FEFDF73AF80746FDF726F855
:1036200041EC190B53EC1A2BFCF73FFF53EC182B12
:10363000FCF738FF41EC180B53EC1B2B51EC190B2A
:10364000FCF733FFDFF8C8A241EC100B4FEA155826
:103650000125FA4453EC102B51EC180BFCF71FFF1B
:10366000032DC4E900013DD0C1F30A5005EB45111B
:10367000A8EB00001139814234DA0AEB051BB0EEE9
:1036800048AA9BED000BF0EE68AA53EC102B51EC0E
:10369000190BFCF70AFF41EC1B0B51EC1A0B53EC16
:1036A0001B2BFCF7FCFE41EC180B51EC1A0B53ECF6
:1036B000182BFCF7F4FE53EC1B2BFCF7F0FE9BEDF4
:1036C000020B41EC1A0B53EC102B51EC190BFCF7CD
:1036D000ECFE53EC1A2BFCF7E2FE41EC100B6D1CD8
:1036E000B8E70EE0002EA8BF3846BFF628AF94ED2D
:1036F000000B51EC100B81F00041C4E9000178424D
:103700001DE7C6F3130040F4801EC6F30A50A0F272
:10371000F530471100F01F05C5F12000DDF848B075
:1037200008900020069007900520EC467949002D6E
:1037300007EB0002794408BF51F8221009D051F874
:10374000223001EB8201AB404A68089922FA01F16C
:103750001943A1FB0E26A1FB0B131A449A4234BF56
:103760000123002303EB06080CEB8003D3E901A639
:103770000E448E4234BF0121002192448A4411B18B
:10378000924502D903E0924501D2012100E00021D7
:10379000C3E901A641444CF82010011EA0F101002C
:1037A000C4DC029800F10050850F0298DDE9036740
:1037B0008000DDF81480FCF759FF41EC1A0B30460D
:1037C000FDF797F99FED541B53EC112BFCF76DFEA1
:1037D00041EC1B0B3846FDF78CF99FED511B53EC68
:1037E000112BFCF762FE41EC180B4046FDF781F906
:1037F0009FED4D1B53EC112BFCF757FE41EC190BC1
:1038000051EC180B53EC192BFCF7A8FD53EC1B2BB8
:10381000FCF7A4FD53EC1A2BFCF7A0FDCDE9080141
:10382000002008909DED080B53EC1A2B51EC100B67
:10383000FCF735FE53EC1B2BFCF731FE53EC182B39
:10384000FCF72DFE53EC192BFCF72CFE9FED381BDB
:1038500053EC112BFCF729FE9FED370B41EC180BB5
:1038600053EC102B9DED080B51EC100BFCF71DFEDB
:1038700053EC182BFCF772FD9FED310B41EC180B4C
:1038800053EC102B9DED080B51EC100BFCF70DFECB
:1038900053EC182BFCF762FD41EC100B139810F061
:1038A000004F06D06D4251EC100B81F0004141EC0D
:1038B000100B284684ED000B41E6000000000000DC
:1038C0000000000000000000FB21E93F7CD902401D
:1038D00000004054FB21F93F3163621A61B4D03DCE
:1038E000FB21F93F000000000000601A61B4D03DE8
:1038F0007370032E8A19A33BFB213941000000009D
:1039000083C8C96D305FE43F000000000000E03F65
:10391000EA14000038140000000000000000103E0F
:10392000000000000000103C000000000000103A01
:10393000182D4454FB21F93D3326A611460B113CAA
:1039400000000054FB21F93D10B52DED040B2DEDC9
:10395000088B82B0B0EE419AF0EE619A0B9820F09D
:1039600000449FED4BABB4F1795F11DA9DED0A0B8A
:1039700051EC100BFCF78BFE002801BFB0EE4A0A99
:10398000F0EE6A0A02B0BDEC088B04BF04B010BDB3
:103990009DED0A0B53EC102B51EC100BFCF785FD41
:1039A00041EC180B3C480621B0EE480AF0EE680ADC
:1039B000784400F081F853EC182B51EC100BFCF715
:1039C00074FD9DED0A0B41EC1B0B53EC192B51ECD4
:1039D000100BFCF76AFD41EC190B53EC1B2B51EC5F
:1039E000180BFCF762FD53EC192BFCF758FD9FED0B
:1039F0002C0B41EC190B53EC102B51EC180BFCF772
:103A000054FD41EC100B2848844210DA53EC192B7A
:103A100051EC100BFCF743FD53EC1A2BFCF742FD65
:103A200041EC100B02B0BDEC088B04B010BD1F4878
:103A3000A042BCBF9FED1E1B8DED001B06DBA4F555
:103A400000100190002000909DED001B51EC100B28
:103A500053EC112BFCF723FD9DED000B41EC180BF3
:103A600053EC102B51EC1A0BFCF719FD41EC1A0B1F
:103A700053EC192B51EC180BFCF711FD53EC1A2BDE
:103A8000FCF710FD41EC100BCCE70000000000003B
:103A9000000000000000F03F5C110000000000008A
:103AA000000000000000E03F3333D33F0000E93F57
:103AB000000000000000D23F70B504462DED028BDF
:103AC0004D1E00EBC500B0EE408AF0EE608A90ED2E
:103AD000000B35F0060017D053EC182B51EC100BEF
:103AE000FCF7E3FC41EC100B6D1E04EBC50090ED00
:103AF000001B51EC100B53EC112BFCF72FFC41EC8D
:103B0000100B35F00600E7D1022D36D0042D1CD065
:103B1000062D1CBFBDEC028B70BD53EC182B51EC75
:103B2000100BFCF7C2FC94ED0A1B53EC112BFCF7B5
:103B300015FC53EC182BFCF7B8FC94ED081B53EC68
:103B4000112BFCF70BFC41EC100B53EC182B51EC38
:103B5000100BFCF7AAFC94ED061B53EC112BFCF7A1
:103B6000FDFB53EC182BFCF7A0FC94ED040B53EC7D
:103B7000102BFCF7F3FB41EC100B53EC182B51EC22
:103B8000100BFCF792FC94ED021B53EC112BFCF78D
:103B9000E5FB53EC182BFCF788FC94ED001B53EC71
:103BA000112BFCF7DBFBBDEC028B41EC100B70BD65
:103BB00031B504462DED040B2DED0A8BB0EE41BA64
:103BC000F0EE61BA0B989DED0A0B20F00040B0F1C9
:103BD000795F0DDA51EC100BFFF7B8F8042808BF35
:103BE00000F09AF89DED0A0BBDEC0A8B05B030BDD4
:103BF00053EC102B51EC100BFCF757FC41EC180B5D
:103C00009DED0A0B53EC182B51EC100BFCF74DFCFF
:103C100041EC190B2C48B0EE480AF0EE680A052179
:103C20007844FFF749FF9FED2ACBB0EE40AAF0EEB3
:103C300060AA9CB353EC1C2B51EC190BFCF735FC20
:103C400041EC1C0B53EC1A2B51EC190BFCF72DFC1F
:103C50009FED210B41EC190B53EC102B51EC1B0B7E
:103C6000FCF723FC53EC192BFCF719FC53EC182B35
:103C7000FCF71BFC53EC1B2BFCF711FC53EC1C2B2F
:103C8000FCF70DFC9DED0A1B53EC112BFCF70AFC15
:103C9000BDEC0A8B05B041EC100B30BDFFE753ECD7
:103CA0001A2B51EC180BFCF700FC53EC1C2BFCF707
:103CB00055FB53EC192BFCF7F8FB9DED0A1B53EC5D
:103CC000112BFCF74BFBE3E7E40F000000000000C2
:103CD000495555555555C5BF000000000000E03F4F
:103CE00010B553EC102B51EC100BFCF737FB41ECEB
:103CF000100B10BD000000009FED050B10B553EC3C
:103D0000102B51EC100BFCF742FC41EC100B10BDDA
:103D100000000000000000009FED050B10B553EC03
:103D2000102B51EC100BFCF7C0FB41EC100B10BD3D
:103D3000000000000000001002E008C8121F08C1C7
:103D4000002AFAD170477047002001E001C1121F1C
:103D5000002AFBD17047000001490860704700004D
:103D60004C01002010B50748FDF7ECF80548FDF7B9
:103D700099F805496428486101DA012010BD002046
:103D800010BD00005001002000000020002104E0D0
:103D90000222521C1A2AFCDB491C8142F8DB7047C4
:103DA00082B0CDE9000121F0004001909DED000BB3
:103DB00002B051EC100B70479CB0FDF70FFAFEF704
:103DC00089FCFEF709F8354C3348002520604FF494
:103DD0001650C4E901050C20E560C4E90450A56152
:103DE0002046E561FDF748FF00B1FEE72B482C496E
:103DF0003C3801600221C0E90115C160FDF7ACFD4E
:103E000000B1FEE72548199519A93C381A95FDF728
:103E10007BFD00B1FEE7FDF7B5FF2068C16841F00A
:103E20002001C16014221F496846FCF778FA00217E
:103E3000684600F056F81C4C1A49142220641431CC
:103E400005A8FCF76CFA002105A800F04AF815490E
:103E50006064142228310AA8FCF761FA00210AA83C
:103E600000F03FF80F49A06414223C310FA8FCF782
:103E700056FA00210FA800F034F80A49E064142231
:103E8000503114A8FCF74BFA002114A800F029F8CF
:103E9000206500F017F8FEE700440040D401002040
:103EA00000100040A8490008000000200146002042
:103EB000842900D0C81C704710B5012000F05CFBBD
:103EC000002010BD10B500F07DFB002010BD10B526
:103ED00000F094FC012803D0BDE8104000F04CBC79
:103EE00010BD3EB504460D46B0F90800FFF7DEFFF1
:103EF00002A9CDE90001208A2B4682B2D4E9001044
:103F000000F050FC012801D000203EBD02983EBDCB
:103F10002DE9F041184C0F460546E6682068001D63
:103F200000F073FA38B9206890F82C10012088400E
:103F3000216981432161681C07D137B12168BDE83F
:103F4000F0410E48091D00F098BA20683544B5428A
:103F50004560216805D2A06BBDE8F041091D00F065
:103F600074BA606B091D00F070FAA06A854200D235
:103F7000A562BDE8F0810000100100202C3F002068
:103F80002DE9F041054600F085FA2E4CA068401C52
:103F9000A06020682C4F10B1606940B32DE025600F
:103FA000A068012829D1002606EB860007EB8000D7
:103FB00000F03DFA761C072EF6D323488C3000F033
:103FC00036FA2148A03000F032FA1F48B43000F031
:103FD0002EFA1D48C83000F02AFA1B48DC3000F0E9
:103FE00026FA19488C3060631430A06305E020681D
:103FF000E96AC06A884200D82560606A401C606235
:10400000E96A0120226988401043206101EB8100A8
:1040100007EB8000291D00F030FA00F05BFA6069C0
:1040200000280CD02068E96AC06A884207D2074994
:104030004FF080500860BFF34F8FBFF36F8FBDE824
:10404000F081000010010020503E002004ED00E04F
:1040500070B5114E114C17E000F0E8FA3068B8B1B5
:1040600000F03EFC00F016FAF068C568281D00F06C
:10407000CCF9A068401EA0606068401E606000F03F
:1040800029FA284600F00CF860680028E4D170BDD9
:1040900000F026FCF8E70000183F00201001002087
:1040A00010B50446006B00F029FA2046BDE8104028
:1040B00000F024BA10484FF47051420706D0C01DDA
:1040C0000D4920F00700411AC1F570510B4A002339
:1040D0000144C2E900030839103A21F007011160D8
:1040E0004B600B600B1AC0E9001393604FF0004067
:1040F0005360D0607047000050020020FC00002098
:10410000074C4FF08056074DFFF7A2FF20680128AB
:10411000FAD92E60BFF34F8FBFF36F8FF4E7000023
:10412000503E002004ED00E02DE9F0479A46DDE91D
:10413000098481466FF00303206B03EB8202104475
:10414000089D20F00706700707D0502080F31188E3
:10415000BFF34F8FBFF36F8FFEE723180A5C83F81E
:1041600034200A5C12B1401C1028F6D3002784F8D2
:104170004370072D00D30625E562C4E91157201DC1
:1041800000F060F904F1180000F05CF92461C5F159
:1041900007006462A061E76484F8507052464946A3
:1041A000304600F0BFF82060B8F1000F01D0C8F829
:1041B0000040BDE8F087000030B5114900E011462D
:1041C0000A688242FBD34B685C18844203D1406882
:1041D00018444860084643681C18944209D1084CAA
:1041E000103C2468A24209D052681A4442600A680E
:1041F00012680260814200D0086030BD0460F9E7B7
:10420000FC0000200648416B096829B1416BC96870
:10421000C9684968816270474FF0FF31FAE70000D2
:104220001001002008484068401C4FF0500080F307
:10423000118804D0BFF34F8FBFF36F8FFEE7BFF33A
:104240004F8FBFF36F8FFEE7040100202DE9F0418F
:104250000546002700F0EAF9314E306808B9FFF74B
:1042600029FFF06805424BD1C5B3083568070ED069
:1042700005F00700C0F108000544680707D050208A
:1042800080F31188BFF34F8FBFF36F8FFEE72DB31D
:104290007068854234D82248103001460C6801E02D
:1042A00020460C466168A94202D221680029F7D154
:1042B00031688C4224D00768216801606068083743
:1042C000411B10290FD96019420708D0502080F3F4
:1042D0001188BFF34F8FBFF36F8FFEE710E041608F
:1042E0006560FFF769FF61687068401A7060B268C6
:1042F000904200D2B060F06801430020C4E90001A0
:1043000000F0EEFA780707D0502080F31188BFF351
:104310004F8FBFF36F8FFEE73846BDE8F081000096
:10432000EC00002010B5031F4FF080741C601B1FB1
:1043300021F001011960191F044B0B6014390A6048
:10434000091F6FF0020244380A6010BD25420008C0
:104350009FED091B10B553EC112B51EC100BFCF722
:10436000A4F89FED071B53EC112BFCF710F9FCF799
:10437000F1F900EE100A10BD000000000080764048
:1043800038E92F54FB211940B5EEC00AF1EE10FABE
:1043900001DB012070474FF0FF30704700B52DED75
:1043A000048B83B041EC190BFCF7EDFA41EC180BD0
:1043B00018EE100A18EE901A8DED008B002818BF29
:1043C0000120084320F00040C0F17F6000F1E04090
:1043D000C00F14D019EE101A19EE900A8DED009B43
:1043E000002918BF0121084320F00040C0F17F6080
:1043F00000F1E040C00F04BF0120FFF7ADFC51EC1D
:10440000180B03B0BDEC048B00BDD0E9013201698B
:104410009A60D0E901235A604A68824201D18268D9
:104420004A60002202610868401E0860704700F17F
:1044300008014FF0FF32C0E90112C16001610021A3
:104440000160704700210161704730B50B685A1C4C
:1044500002D000F1080202E0026904E0224654683A
:1044600025689D42FAD953684B6099608A60516013
:1044700008610168491C016030BD42684A60936868
:104480008B6093685960916008610168491C016004
:1044900070470000502080F31188BFF34F8FBFF3A7
:1044A0006F8F0A494868401C486001280CD10848B1
:1044B000006810F0FF0F07D0502080F31188BFF381
:1044C0004F8FBFF36F8FFEE770470000040100209D
:1044D00004ED00E00849486828B1401E486001D159
:1044E00080F311887047502080F31188BFF34F8FFD
:1044F000BFF36F8FFEE700000401002070B50028B5
:1045000027D0144DA0F108046168E868014207D182
:10451000502080F31188BFF34F8FBFF36F8FFEE7FA
:1045200022683AB1502080F31188BFF34F8FBFF358
:104530006F8FFEE78143616000F078F8606869681A
:10454000084468602046FFF737FEBDE8704000F081
:10455000C7B970BDEC00002006484FF4C861006880
:10456000B0FBF1F14FF0E020491E416107210161EC
:1045700070470000E800002010B5020014D00F487A
:10458000006B38B1502080F31188BFF34F8FBFF319
:104590006F8FFEE700F04AF800211046FFF7B8FCE5
:1045A00000F09EF9002807D105494FF080500860BF
:1045B000BFF34F8FBFF36F8F10BD000010010020BD
:1045C00004ED00E01CB515480024CDE90040234669
:1045D000802213A1144800F0E5F8012809D0401CFE
:1045E0001AD1502080F31188BFF34F8FBFF36F8F24
:1045F000FEE7502080F31188BFF34F8FBFF36F8F1A
:1046000006484FF0FF312C38816201214161C460BE
:10461000BDE81C4000F040B81CBD00003C0100207B
:1046200049444C4500000000014100080248016B6C
:10463000491C016370470000100100201448016B01
:1046400011B10121C16170470021C1610169B1FA55
:1046500081F1C1F11F0101EB81020E4951F82230B5
:104660006BB101EB820101F108034A6852684A60AC
:104670009A4201D152684A60D16801607047502067
:1046800080F31188BFF34F8FBFF36F8FFEE70000F9
:1046900010010020503E00201CB532480168324A0B
:1046A000914207D1502080F31188BFF34F8FBFF3A1
:1046B0006F8FFEE700682C49491E884207D15020C1
:1046C00080F31188BFF34F8FBFF36F8FFEE7274949
:1046D00008780190FF20087008788DF800009DF898
:1046E00000009DF8002000F0F000904207D050201C
:1046F00080F31188BFF34F8FBFF36F8FFEE79DF8F4
:1047000000001B4A00F0500010700720906005E088
:104710009DF800305B008DF80030401E9DF80030A1
:104720001B06F5D4000200F4E06090600198087068
:104730000C482030016841F470010160016841F0CB
:1047400070410160FFF708FF00205060FBF766FD35
:104750000848016841F040410160FBF74FFD00202F
:104760001CBD000000ED00E071C20F4100E400E05C
:104770000401002034EF00E010B5502080F31188D0
:10478000BFF34F8FBFF36F8F00F046F818B10449A5
:104790004FF080500860002080F3118810BD0000A9
:1047A00004ED00E02DE9FF5F8346DDE90E879946C1
:1047B00016468A469000FFF749FD05001AD054209E
:1047C000FFF744FD040012D025630021CDE902412A
:1047D000CDE900874B46324651465846FFF7A4FCC8
:1047E0002046FFF7CDFB012004B0BDE8F09F28462E
:1047F000FFF784FE4FF0FF30F6E7000005484169FF
:1048000019B1006B18B100207047012070470220D9
:1048100070470000100100202DE9F0412E4C0027C8
:10482000206B40B1A069401CA061E06900B1012784
:104830003846BDE8F081E668761CE66013D1606B0F
:10484000006838B1502080F31188BFF34F8FBFF359
:104850006F8FFEE7606BA16B6163A063206A401CF1
:104860002062FFF7CFFCA06ADFF87080864209D390
:10487000606B006880B1606BC068C568686886421C
:104880000DD2A0622068C06A00EB800158F82100B8
:104890000128CAD90127C8E74FF0FF30F1E7281DEA
:1048A000FFF7B3FDA86A18B105F11800FFF7ADFDD9
:1048B000E86A0121226981401143216100EB8001F6
:1048C00008EB8100291DFFF7D8FDE86A2168C96A55
:1048D0008842CDD30127CBE710010020503E0020B5
:1048E0002DE9F0472C4D00242746286B38B1FFF7FF
:1048F000D1FD286B401E2863286B40B146E0502054
:1049000080F31188BFF34F8FBFF36F8FFEE7A96865
:10491000224E0120D1B3A6F1B40980463068E8B137
:10492000F068C46804F11800FFF76FFD201DFFF761
:104930006CFDE06A2A6908FA00F11143296100EB75
:10494000800109EB8100211DFFF797FDE06A2968CE
:10495000C96A8842E2D3C5F81C80DFE70CB1FFF7D3
:1049600051FCAC6944B14646FFF756FF00B1EE6119
:10497000641EF9D10020A861E86938B1084901270F
:1049800038070860BFF34F8FBFF36F8FFFF7A2FDAB
:104990003846BDE8F087000010010020043F0020E9
:1049A00004ED00E061620000F84C000825230008D7
:1049B000000000000000000080000000B84C00086B
:1049C0002D2300080000000000000000800000000F
:1049D000C84C00086524000800000000000000002A
:1049E00080000000D84C00089D2500080000000051
:1049F0000000000080000000E84C0008E11E0008F4
:104A00000000000000000000800000000000000026
:104A1000000000000102030406070809000000006E
:104A20000102030400000000555555555555C53F7A
:104A30007D6FEB0312D6D4BF5544880E55C1C93FD4
:104A40003B8F68B52882A4BF88B20175E0EF493F6B
:104A500009F7FD0DE13D023F4B2D8A1C273A03C0AB
:104A6000C88A599CE52A004059018D1B6C06E6BF97
:104A700082922EB1C5B8B33F4FBB610567ACDD3F35
:104A8000182D4454FB21E93F9BF681D20B73EF3F75
:104A9000182D4454FB21F93FE2652F227F2B7A3CED
:104AA000075C143326A6813CBDCBF07A8807703CA6
:104AB000075C143326A6913CC4EB98999999C9BF19
:104AC000711623FEC671BCBF6D9A74AFF2B0B3BF4E
:104AD0009AFDDE522DDEADBF2F6C6A2C44B4A2BF0E
:104AE0000D5555555555D53FFF8300922449C23F7A
:104AF0006E204CC5CD45B73F513DD0A0660DB13FAE
:104B0000EB0D76244B7BA93F11DA22E33AAD903FBF
:104B10004C5555555555A53F7751C1166CC156BFDB
:104B20009015CB19A001FA3EAD529C804F7E92BEEB
:104B3000C4B1B4BD9EEE213ED43888BEE9FAA8BD0A
:104B400000004054FB21F93F3163621A61B4D03D4B
:104B50000000601A61B4D03D7370032E8A19A33B24
:104B60000000002E8A19A33BC14920259A837B3976
:104B700000000000000000006E83F9A22915444ED9
:104B8000D15727FCC0DD34F5999562DB4190433C59
:104B9000AB6351FE61C5BBDE3A6E24B7E0D24D4235
:104BA000EA2E49061C92D1091CEB1DFE3EA729B135
:104BB000F53582E88444BB2E26709CE9417E5FB4C3
:104BC00039D69139F43953838B5F849C3B28F9BDE6
:104BD000FF97F81F0F9805DE8B112FEF1F6D0A5AF4
:104BE000CF7E366DB709CB27663F464F2DEA5F9ED5
:104BF000C7BA27757BF1E5EBF739073DEA92528A90
:104C0000B15FFB6B085D8D1FA6F810111111813F7C
:104C1000D561C119A0012ABF7DFEB157E31DC73E72
:104C2000EB9C2B8AE6E55ABE7CD5CF5A3AD9E53DB6
:104C300000404040404040404040414141414140AF
:104C40004040404040404040404040404040404064
:104C500040050202020202020202020202020202F3
:104C600002202020202020202020200202020202F8
:104C70000202909090909090101010101010101050
:104C8000101010101010101010101010020202025C
:104C900002028888888888880808080808080808A0
:104CA000080808080808080808080808020202029C
:104CB00040000000314C000853746570706572311B
:104CC0005F5461736B0000005374657070657232DD
:104CD0005F5461736B0000005374657070657233CC
:104CE0005F5461736B0000004D61696E5F41726DCE
:104CF0005F5461736B00000064656661756C745489
:104D000061736B00244D000800000020500100007A
:104D1000280B0008744D000850010020F0410000ED
:104D2000483D00086361675A01041AFF01C132FA65
:104D30003264321E023B3C2B9A99011D41C0CDCCFE
:104D400001D40C4E404B8056105C8041C01033C0E3
:104D50009632C31A7E909AF00C29181A2E086918F8
:104D6000690CE9B869D48210031D24F41AAA010160
:044D700044000000FB
:04000005080001C925
:00000001FF
