:020000040800F2
:100000001843002099020008A1020008A30200087A
:10001000A5020008A7020008A902000800000000CD
:10002000000000000000000000000000DD010008EA
:10003000AD02000800000000310200089925000808
:10004000B3020008B3020008B3020008B3020008BC
:10005000B3020008B3020008B3020008B3020008AC
:10006000B3020008B3020008B3020008B30200089C
:10007000B3020008B3020008B3020008B30200088C
:10008000B3020008B3020008B30200080000000039
:10009000000000000000000000000000B3020008A3
:1000A000B30200088D260008B3020008B30200085E
:1000B000000000000000000000000000B302000883
:1000C000B3020008B3020008B3020008B30200083C
:1000D000B3020008B3020008C92A000800000000AB
:1000E000B3020008B3020008000000000000000096
:1000F000000000000000000000000000B302000843
:100100000000000000000000B30200080000000032
:100110000000000000000000992600080000000018
:10012000B3020008B3020008B3020008B3020008DB
:10013000B302000800000000000000000000000002
:1001400000000000000000000000000000000000AF
:10015000B3020008B3020008B3020008B3020008AB
:10016000000000000000000000000000000000008F
:10017000000000000000000000000000000000007F
:10018000B3020008B30200080000000000000000F5
:1001900000000000B30200080000000000000000A2
:1001A000000000000000000000000000000000004F
:1001B000000000000000000000000000B302000882
:1001C000B3020008B3020008DFF80CD000F00CFC0A
:1001D00000480047DD3B0008184300202B4B1968FE
:1001E0000868B0E8F04F80F30988BFF36F8F4FF0D5
:1001F000000080F311887047000000000648006886
:10020000006880F3088862B661B6BFF34F8FBFF312
:100210006F8F00DF00BF00BF08ED00E0DFF80C00CB
:10022000016841F470010160704700BF88ED00E093
:10023000EFF30980BFF36F8F144B1A681EF0100F95
:1002400008BF20ED108A20E9F04F106008B44FF08D
:10025000500080F31188BFF34F8FBFF36F8F04F00E
:100260000BF94FF0000080F3118808BC196808688A
:10027000B0E8F04F1EF0100F08BFB0EC108A80F30A
:100280000988BFF36F8F704700BF00BFD800002000
:10029000EFF3058070470000064880470648004796
:1002A000FEE7FEE7FEE7FEE7FEE7FEE7FEE7FEE726
:1002B000FEE7FEE739260008C90100082DE9F05FD6
:1002C0000546002092469B468846064681464024C5
:1002D0001BE0284641464746224600F046FA534670
:1002E0005A46C01A914110D311461846224600F0D2
:1002F0002DFA2D1A67EB01084F46224601200021F6
:1003000000F024FA17EB00094E41201EA4F101046D
:10031000DFDC484631462A464346BDE8F09F40EAC6
:1003200001039B0703D009E008C9121F08C0042A73
:10033000FAD203E011F8013B00F8013B521EF9D25A
:10034000704770B5064602F035FC046805460A227F
:100350000021304600F02BFA2C6070BD2DE9FE4FD5
:10036000804681EA0300C00F0C46009021F0004156
:1003700023F00045B8EB0200A94105D240462146D2
:1003800090461C460B46024623F00040104347D0DF
:10039000270DC7F30A00C3F30A510290401A0190D7
:1003A00040286BDAC3F3130040F4801B0098924698
:1003B00020B10023D2EB030A63EB0B0B01985946E3
:1003C000C0F14002504600F0C1F906460D465046C5
:1003D0005946019A00F0D9F910EB08006141002458
:1003E00087EA115284EAE7731A4340D0009A62B355
:1003F000019A012A4FEA075215DC001B61EB02014A
:100400004FF0004202EA0752CDE90042001C41F5DC
:10041000801132462B4600F048FA03B0BDE8F08F59
:1004200040462146F9E7001B61EB0201001C41F543
:10043000801300185B412018A2F5001747EB030159
:1004400040EAD570B6196D4111E06D084FEA3606E5
:1004500045EAC0754FEA0752001B61EB0201001C20
:1004600041F5801149084FEA3000001951413246E8
:100470002B4603B0BDE8F04F00F008BA0098012207
:1004800040000023D0EB020263EBE07300982146AA
:100490004FEAE074B8EB000061EB0401E9E783F098
:1004A00000435BE781F0004158E72DE9FE4F81EA08
:1004B000030404F0004421F0004100944FF0000BCD
:1004C00023F0004350EA01045ED052EA03045BD0FB
:1004D000C3F30A54C1F30A552C44A4F2F334019433
:1004E000A0FB0254C1F3130141F48011C3F31303C1
:1004F00043F4801301FB024400FB034E840A970A75
:1005000044EA815447EA8357A4FB076802958D0AA1
:1005100005FB07854FEA932C04FB0C542705029D2D
:100520004FEA065847EA1637B5EB08056EEB070C9D
:10053000870E920E47EA811742EA8312A7FB020157
:10054000B6EB0B0164EB00042B0D43EA0C335E1891
:1005500044EB1C50DA465146E7FB0201C5F3130495
:100560004FEA0B3343EA14534FEA0432019C43EA47
:100570000603A4F10C040294009CCDE900B400F041
:1005800094F903B0BDE8F08F00200146F9E72DE9AA
:10059000F04D81EA030404F0004B21F000451446BD
:1005A0004FF0000A23F0004150EA050220D054EA3F
:1005B00001021DD0C5F30A570246C5F31303C1F368
:1005C0001300C1F30A5640F4801543F48013A7EBDF
:1005D0000608101BD64608F2FD3873EB050002D35F
:1005E00008F1010801E092185B41B8F1000F03DA4D
:1005F00000200146BDE8F08D00204FF48011064632
:1006000084460EE0171B73EB050705D3121B63EB43
:10061000050306434CEA010C49084FEA30009218E2
:100620005B4150EA0107EDD152EA030012D082EAA1
:10063000040083EA0501084305D0101BAB4106D234
:100640000122002306E000224FF0004302E06FF099
:10065000010253101AEB06004CEB085110EB0A0094
:1006600041EB0B01BDE8F04D00F010B90EB5C10F24
:1006700080EAE0700844CA07002140F233438DE865
:100680000E000A460B4600F010F903B000BD00F062
:10069000004230F000400AD0C10D01F56071C0F396
:1006A000160042EA0151C20840071143704700207A
:1006B0000146704730B5041E71F1000404DB4FF0B1
:1006C0000044404264EB0101141E73F1000405DB99
:1006D0001C464FF00043524263EB04038B4208BFB9
:1006E000824230BD30B5041E71F1000404DB4FF0CE
:1006F0000044404264EB0101141E73F1000405DB69
:100700001C464FF00043524263EB0403994208BF7A
:10071000904230BD01F0004330B421F0004150EA76
:10072000010206D00A0DA2F56072C1F31301002A7E
:1007300002DC30BC00207047440F44EAC104C10011
:10074000E01830BC00EBC25000F069B8202A04DB8E
:10075000203A00FA02F1002070479140C2F12003D4
:1007600020FA03F3194390407047202A04DB203A13
:1007700021FA02F00021704721FA02F3D040C2F1C1
:1007800020029140084319467047202A06DBCB1708
:10079000203A41FA02F043EAE07306E041FA02F33C
:1007A000D040C2F1200291400843194670472DE91C
:1007B000F04791460F4680460446002614F8015B38
:1007C0002DB100F023F90068405DC007F6D12B2D54
:1007D00002D02D2D18D0641E4A463946204600F01E
:1007E00019F927B13968A14201D1C7F80080710514
:1007F0004FF002040BD54042002803DD02F0DAF985
:100800000460A007BDE8F08746F48066E4E70028AE
:10081000F8DA02F0CFF904606FF00040F2E7002947
:10082000A8BF7047401C490008BF20F00100704776
:1008300010B4B0FA80FC00FA0CF050EA010404BFD6
:1008400010BC704749B1CCF1200421FA04F411FA2C
:100850000CF118BF012121430843A3EB0C01CB1D70
:100860004FEA00614FEA102042BF002010BC7047E1
:1008700000EBC35010440029A4BF10BC7047401CBB
:10088000490008BF20F0010010BC704710B5141ECD
:1008900073F1000408DA401C41F1000192185B4139
:1008A0001A4301D120F0010010BD2DE9F04D924610
:1008B0009B4611B1B1FA81F202E0B0FA80F2203227
:1008C0009046FFF743FF04460F4640EA0A0041EA1C
:1008D0000B0153465A46084313D0114653EA010010
:1008E00019D0C8F140025046FFF73FFF05460E46BB
:1008F000504659464246FFF729FF084305D00120DC
:1009000004E020463946BDE8F08D0020054346EA64
:10091000E0762C4337430A986305E40AA0EB08000D
:100920000022FD0A44EA47540A3002D5002001465D
:10093000E9E7010510196941DDE908450019694138
:10094000BDE8F04DA2E72DE9F04D00231A461B1A31
:100950008A4103DB00200146BDE8F08DC1F30A5255
:10096000C1F3130141F480154FF0000BD10702D100
:1009700000186D41521E0027044640F2FF11384610
:1009800001EB620A3E468046024600204FF4801189
:10099000FFF7EBFEC2197141BB1846EB0100B4EB47
:1009A000030C75EB000C04D3E41A65EB0005174645
:1009B0000E46241908F101006D4180463428E3DD1C
:1009C000F91946EB0600091BA84103D24FF0FF328C
:1009D000134601E0002213461BEB070046EB0A51C9
:1009E000BDE8F04DFFF752BF064C074D06E0E0684A
:1009F00040F0010394E8070098471034AC42F6D366
:100A0000FFF7E6FB5C4B00087C4B00080048704792
:100A1000FC4A00082DE9F05F824600780027154661
:100A20008B460AF10104B946302801D09DB113E08C
:100A300014F8010B0127782803D0582801D045B1BC
:100A40000AE00DB1102D07D10027102514F8010B75
:100A500002E0082500E00A250026B0460EE005FB6E
:100A6000080005FB06F1012701EB10461FFA80F88C
:100A7000B6F5803F00D3B94614F8010B294600F0C3
:100A800044F80028EBDABBF1000F05D00FB1641E6B
:100A900000E05446CBF80040B9F1000F06D002F058
:100AA00089F802210160C81EBDE8F09F48EA0640AF
:100AB000FAE70EB540F2334102910021CDE9001171
:100AC0000A460B46FFF7F1FE03B000BD70B5C1F357
:100AD0000A5201F000450024C1F3130140F2FF3334
:100AE00041F480119A4201DA002070BD40F2334394
:100AF0009A42A2F2334203DC5242FFF736FE00E094
:100B000090402C43F1D0404270BD3A2800D230389A
:100B100020F02002412A01D3A2F13700884201D3FC
:100B20004FF0FF3070470000454910B54A6822F485
:100B300040324A604A6843681A434A6001684A681A
:100B400022F480724A6001684A68036942EA03221B
:100B50004A6001684A6822F040724A6001684A6847
:100B600083681A434A6001688A6822F400628A60D6
:100B700001688A68C3681A438A60816A6FF070628C
:100B8000D14201688A6822F070628A6001688A68CE
:100B90000CD0836A1A438A6001688A6822F0405246
:100BA0008A6001688A68C36A1A4301E022F04052F1
:100BB0008A6001688A6822F002028A6001688A6895
:100BC000836942EA43028A60016A002901684A682F
:100BD0000FD042F400624A6001684A6822F4604221
:100BE0004A6001684A68174C436A04EB43331A436E
:100BF00001E022F400624A600168CA6A22F47002CD
:100C0000CA620168CA6A838B0F4C04EB03531A4310
:100C1000CA6201688A6822F400728A6001688A6880
:100C2000036B42EA43228A6001688A6822F4806288
:100C30008A6001688A68406942EA8020886010BD45
:100C40000023014000E0FFFF0000F0FF70B501222B
:100C500010211D4800F05AFA012210211B4800F013
:100C600055FA1B4E00254FF4806401222146304680
:100C700000F04CFA012003F03DF8002221463046F6
:100C800000F044FA012003F035F86D1C642DECDB14
:100C900000224FF48071304600F038FA002501221E
:100CA0002146304600F032FA012003F023F80022FA
:100CB0002146304600F02AFA012003F01BF86D1C93
:100CC000642DECDB70BD000000080240000402400F
:100CD0000000024078B50024009490F83C20012ADE
:100CE00019D0012280F83C200A6807230568092AE8
:100CF00013D9EE680A3A02EB420293409E43EE603B
:100D00000B788A680A3B03EB43039A400368DD686B
:100D10002A43DA6010E0022078BD2E6902EB42021D
:100D200093409E432E610B788A6803EB43039A40FD
:100D300003681D692A431A614A681F23072A13D2D0
:100D400005686E6B521E02EB820293409E436E63F7
:100D50000B790A885B1E92B203EB83039A40036807
:100D60005D6B2A435A6327E005680D2A12D22E6B69
:100D7000D21F02EB820293409E432E630B790A88B6
:100D8000DB1F92B203EB83039A4003681D6B2A4377
:100D90001A6311E0EE6A0D3A02EB820293409E4321
:100DA000EE620B790A880D3B92B203EB83039A4003
:100DB0000368DD6A2A43DA62164B0568144A9D42CD
:100DC00006D10D68122D03D1556845F48005556094
:100DD00005689D4218D10B68102B01D0112B13D13F
:100DE000536843F400035360096810290CD10A4981
:100DF0000A4A0968B1FBF2F101EB8101490000E008
:100E0000491E00910029FBD180F83C40002078BDAC
:100E10000023014000200140B000002040420F00AC
:100E20000068C06C704770B504004FF0000503D037
:100E3000206C002610B107E0012070BD666484F8C4
:100E40003C60204600F01AF8206CC00610D4206CDC
:100E500020F4885040F0020020642046FFF764FE32
:100E60006664206C20F0020040F00100206400E085
:100E7000012584F83C60284670BD000000B500687C
:100E80000C4987B0884212D10B480021026842F415
:100E900080720260006800F480700590012000906C
:100EA0000320CDE901016946044800F079F807B054
:100EB00000BD000000200140443802400000024014
:100EC00018B50021009190F83C20012A07D001229A
:100ED00080F83C2002689368DB0702D011E0022012
:100EE00018BD936843F001039360204A204B1268B9
:100EF000B2FBF3F202EB420200E0521E0092002A23
:100F0000FBD102689368DB072DD0036C40F20164CB
:100F1000A34343F48073036453685B0505D5036CF6
:100F200023F4005343F480530364036CDB0404D5BF
:100F3000436C23F00603436400E0416480F83C10F6
:100F40000C496FF02203136049680068C90602D09B
:100F50000949884207D1816811F0405F03D1816857
:100F600041F080418160002018BD0000B0000020E9
:100F700040420F00002301400020014090F835104E
:100F8000022903D08021416501207047052180F8A6
:100F900035100068016821F00101016000207047F0
:100FA0002DE9F84FDFF84CB100224FF001084FF067
:100FB000030A4FF00F090BF1040E00BF0B6808FA8B
:100FC00002F42340A3427DD14D68022D01D0122DA1
:100FD0000ED1D50800EB850CDCF820505607F70E33
:100FE00009FA07F6B5430E69BE402E43CCF82060DF
:100FF000066855000F790AFA05FC07F0030726EA90
:101000000C06AF40374307604E68012E05D0022E14
:1010100003D0112E01D0122E0ED18768CE6827EA98
:101020000C07AE403E4386604668A6430C79C4F385
:101030000014944034434460C4688E6824EA0C046D
:10104000AE402643C6604C68E4004DD52A4C256866
:1010500045F480452560246822F0030504F48044AB
:101060000094264C2E19D6F8084895072F0F09FA38
:1010700007F5AC43224DA84201D100250AE0214DDD
:10108000A84201D1012505E01F4DA84201D102254A
:1010900000E00725BD402543C6F80858DBF80040AE
:1010A0005D464E689C43F60300D51C432C60DEF879
:1010B000004075464E689C43B60300D51C432C6027
:1010C0000C4D00E010E008352C684E689C43F60299
:1010D00000D51C432C60074D0C352C684E689C4392
:1010E000B60200D51C432C60521C102AFFF466AFD8
:1010F000BDE8F88F003C0140443802400030014018
:101100000000024000040240000802400AB1816170
:1011100070470904FBE70000014880687047000041
:10112000A400002002488168027811448160704761
:10113000A40000200B4810B5016841F40071016063
:10114000016841F480610160016841F480710160CF
:10115000032000F0B1F8002000F006F800F03EF89F
:10116000002010BD003C024010B5014688B00022AE
:10117000192000F081F8192000F072F813480024BB
:10118000016841F001010160006805A900F001005B
:101190000690684600F03AF900F06EF90C490D4AE5
:1011A000B0FBF1F10C48491E026040F2E732C0E9A1
:1011B0000324C0E9011400F07BFB10B1012008B04A
:1011C00010BD054800F0AEFBF9E7000044380240CE
:1011D00040420F0000000140E80100201F4808B510
:1011E000016841F480410160006800F48040009093
:1011F0001A48001F016841F080510160006800F04A
:1012000080500090032000F057F8002211466FF044
:101210000B0000F031F8002211466FF00A0000F0D8
:101220002BF8002211466FF0090000F025F800228B
:101230001146501F00F020F800221146101F00F048
:101240001BF800220F21901E00F016F800220F213B
:10125000BDE80840501E00F00FB8000044380240BE
:1012600000F01F02012191404009800000F1E020C0
:10127000C0F8001170470000F0B40E4B1B680C461C
:10128000C3F30223C3F10705042D00D90425191D5A
:10129000072901D2002300E0DB1E012606FA05F132
:1012A000491E214099409E40761E16403143F0BCB5
:1012B00000F00ABE0CED00E0064900F007020868E5
:1012C0004FF6FF03184040EA0220034A104308602B
:1012D000704700000CED00E00000FA052DE9F04732
:1012E0000E46050065D0DFF81481D8F80000F7B28B
:1012F00000F00F00B04207D288F80070D8F8000064
:1013000000F00F00B04254D128683D4C810712D53F
:10131000400703D5206840F4E0502060287800079B
:1013200003D5206840F4604020602068A96820F060
:10133000F000084320602878C0072DD03049686845
:101340000839012812D0022813D0032811D00968C7
:10135000890700292DDA216821F00301014321606A
:10136000FFF7DAFE814641F2883A0EE00968890308
:10137000EFE709688901ECE7FFF7CEFEA0EB090172
:10138000514502D90320BDE8F0872068696800F064
:101390000C00B0EB810FEFD1D8F80010404601F0FF
:1013A0000F01B14207D90770006800F00F00B0428A
:1013B00001D00120E7E72878400705D52068E968D3
:1013C00020F4E050084320602878000706D5206804
:1013D000296920F4604040EAC100206000F05CF818
:1013E0002168084AC1F30311515CC84006490860EE
:1013F0000020FFF7B9FE0020C5E70000003C0240D6
:101400000838024058480008B00000200F2202604F
:101410000C4A136803F003034360136803F0F003FE
:101420008360136803F4E053C36012684FF4E05321
:1014300003EAD20202610448006800F00F0008606D
:101440007047000008380240003C02400148006834
:1014500070470000B0000020044805490068096892
:10146000044AC1F38221515CC8407047B00000209B
:1014700008380240684800080448054900680968BF
:10148000044AC1F34231515CC8407047B0000020AB
:101490000838024068480008154810B5006810F088
:1014A0000C02144813D04110042A0FD0082A0ED180
:1014B0000F4C241F2268236802F03F025B0207D50D
:1014C0002068C0F38810A0FB010106E0084610BDAB
:1014D0002168C1F38811A1FB00010023FEF7EEFE95
:1014E0002168C1F30141491C4900B0FBF1F010BD76
:1014F000083802400024F4002DE9F84F0546007832
:10150000DFF800B3C04CC0074AD0DBF800105846E3
:10151000C1F38101012908D00068C0F381000228CD
:101520000AD1201D0068400206D52068800337D507
:101530006868002872D033E06868B0F5803F10D04A
:10154000B0F5A02F206810D020F4803020602068F3
:1015500020F4802020606868A8B1FFF7DDFD064612
:101560000DE0206840F48030F4E740F480202060F3
:10157000F7E700BFFFF7D0FD801B64286FD8206815
:101580008003F7D50CE0FFF7C7FD064605E000BF76
:10159000FFF7C2FD801B6428F0D820688003F7D4D1
:1015A0002878DFF8688280074FF0000940D5DBF823
:1015B0000010584611F00C0F09D00068C0F38100EC
:1015C00002280BD18F48001F0068400206D4206813
:1015D000800715D5E868012820D111E0E868B8B186
:1015E0000120C8F80000FFF797FD064605E000BFA0
:1015F000FFF792FD801B0228C0D820688007F7D52E
:101600002068296920F0F80040EAC10020600FE05E
:10161000C8F80090FFF780FD064606E0EFE000BF47
:10162000FFF77AFD801B022819D820688007F7D4BD
:101630002878000722D5734E754869696C3679B1F0
:1016400001210160FFF768FD074604E0FFF764FD34
:10165000C01B022803D830688007F7D50EE089E068
:10166000C0F80090FFF758FD074604E0FFF754FD6F
:10167000C01B02287ED830688007F7D4287840073E
:1016800068D5DFF880A100270AF1380ADAF80000EF
:10169000C0000BD4DAF8001041F08051CAF80010F5
:1016A000DAF80000012700F080500090594E3068B1
:1016B000C00510D4306840F480703060FFF72CFD16
:1016C000009005E0FFF728FD0099401A022851D844
:1016D0003068C005F6D54B4EA868683601280FD093
:1016E0000528306810D020F001003060306820F00C
:1016F00004003060A868B8B1FFF70EFD00900FE05D
:10170000306840F00100F4E740F004003060F7E793
:10171000FFF702FD0099411A41F28830814266D8F4
:1017200030688007F4D50EE0FFF7F6FC009007E084
:10173000FFF7F2FC0099411A41F28830814256D8F5
:1017400030688007F4D42FB1DAF8001021F080510E
:10175000CAF80010A869D0B3DBF80010C1F381010A
:1017600002294CD00228484607D0C8F86000FFF78D
:10177000D3FC00E03BE005463CE04746C8F860008B
:10178000FFF7CAFC064604E0FFF7C6FC801B0228F0
:101790002DD820688001F7D4F5E907010843E968EE
:1017A0001D4A490802EB0141AA6841EA8211084337
:1017B000297C40EA0160297D40EA01711148001F3F
:1017C000016001203866FFF7A7FC054605E014E03C
:1017D000FFF7A2FC401B022809D820688001F7D53A
:1017E0000BE000BFFFF798FC401B022802D9032042
:1017F000BDE8F88F20688001F4D40020F8E70120CC
:10180000F6E7000008380240003802400000474276
:10181000800E4742007000400000FFFF4FF0E021C3
:101820000428086903D020F004000861704740F0E4
:101830000400FAE710B5401EB0F1807F01D301200B
:1018400010BD4FF0E02460610F21601700F03CFBF9
:101850000020A06107202061002010BD7047704764
:1018600030B590F83820012A20D0012280F83820A5
:10187000022380F8393003685C6824F070045C60EF
:1018800003685C680D682C435C6003689C6824F006
:1018900080049C6003689C6849680C439C6080F8E5
:1018A0003920002180F83810084630BD022030BDB4
:1018B00010B5040003D094F8390010B107E00120FE
:1018C00010BD002084F83800204600F00DF80220FA
:1018D00084F83900211D206800F0E4FE012084F81E
:1018E0003900002010BD000008B500680B4988428F
:1018F00012D10B48016841F010010160006800221C
:1019000000F01000009005213620FFF7B5FCBDE87F
:1019100008403620FFF7A4BC08BD000000100040BE
:10192000403802400168CA6842F00102CA6000689B
:10193000016841F00101016000207047704770B5F7
:101940000446006801694FF00005C943890715D4B2
:10195000C168C943890711D4E91E016101202076BD
:10196000206880698007204602D0FFF7E7FF04E087
:1019700000F098F8204600F096F825762068016976
:10198000C943490717D4C168C943490713D46FF045
:1019900004010161022020762068806910F4407FF4
:1019A000204602D0FFF7CAFF04E000F07BF8204693
:1019B00000F079F8257620680169C943090716D433
:1019C000C168C943090712D46FF0080101610420FE
:1019D00020762068C0698007204602D0FFF7AEFF5E
:1019E00004E000F05FF8204600F05DF825762068FE
:1019F0000169C943C90617D4C168C943C90613D4CC
:101A00006FF010010161082020762068C06910F491
:101A1000407F204602D0FFF791FF04E000F042F83B
:101A2000204600F040F8257620680169C943C907BF
:101A300008D1C168C943C90704D1891E0161204684
:101A400000F032F820680169C943090609D4C16869
:101A5000C943090605D46FF0800101612046FFF7F4
:101A6000FDFE20680169C943490609D4C168C9431C
:101A7000490605D46FF040010161204600F01EF8D0
:101A800020680169C94389060BD4C168C943890626
:101A900007D46FF0200101612046BDE87040FFF7D8
:101AA000DEBE70BD7047704700680349884201D1AF
:101AB000FFF738BB704700000000014070477047D7
:101AC00070B5026804461068D168536910F00F0FB2
:101AD00050D003F0010501F4907635435DD0C20784
:101AE00005D0CA0503D5E26B42F00102E26342076A
:101AF00005D5DA0703D0E26B42F00202E263820707
:101B000005D5DA0703D0E26B42F00402E263020774
:101B100005D5DA0703D0E26B42F00802E263E26B1C
:101B2000002A33D0800604D5880602D5204600F06E
:101B3000FDFD20684069E16BC0F38010090700D407
:101B400028B3204600F0E4FD2068416949061AD513
:101B5000416921F040014161606BA0B11B49016501
:101B6000606BFFF70BFA002810D0606B016DBDE8C9
:101B700070400847830610D58B060ED52046BDE879
:101B8000704000F0D3BD2046FFF799FF70BD20469E
:101B9000FFF795FF0020E06370BD030606D50B0636
:101BA00004D52046BDE8704000F05CBF4006F3D588
:101BB0004806F1D5D168204621F04001D1602021AE
:101BC00084F8391000F089F870BD00000127000882
:101BD00070B5040004D094F83900002510B106E077
:101BE000012070BD84F83850204600F023F82420EE
:101BF00084F839002068C16821F40051C160204692
:101C000000F0DAFD2068016921F49041016120684B
:101C1000416921F02A0141612068C16841F4005105
:101C2000C160E563202084F8390084F83A00002080
:101C300070BD000000B50068124987B088421ED10F
:101C40001148016841F4003101600068694600F400
:101C5000003005900C20009002200190012002909D
:101C600003200390072004900848FFF799F9002209
:101C700005212620FFF700FB2620FFF7F1FA07B029
:101C800000BD000000440040403802400000024017
:101C900090F83A30202B1DD1D1B1CAB190F838302C
:101CA000012B17D081628285C2850021C163222267
:101CB00080F83A2080F8381001684A6942F0010241
:101CC0004A610068C16841F49071C16000207047AA
:101CD0000120704702207047704770477FB5124857
:101CE0001049002401604FF4803141600461846137
:101CF0000902046281600D49C0E90A140125C4602B
:101D0000C56145610463FFF78EF800B1FEE7CDE9D8
:101D10000045694604480294FEF7DCFF002800D025
:101D2000FEE77FBD00200140180100200100000FE8
:101D30002DE9F047314886B00024016841F00401E4
:101D40000160016801F004010591016841F0800122
:101D50000160016801F080010591016841F0010115
:101D60000160016801F001010591016841F0020183
:101D700001600068DFF8888000F002004FF4EC6535
:101D80000590002229464046FFF7C0F9DFF874901D
:101D90004FF4C266002231464846FFF7B7F9DFF834
:101DA00068A04FF48767002239465046FFF7AEF926
:101DB0004FF4005000901548CDE9010469464846AB
:101DC000FFF7EEF800950125CDE90154694640463C
:101DD0000394FFF7E5F80096CDE9015469464846BB
:101DE0000394FFF7DDF80097CDE9015469465046AA
:101DF0000394FFF7D5F806B0BDE8F087303802400D
:101E000000000240000802400004024000002110CF
:101E10002DED028B6125264C9FED268A012001F0D5
:101E200069FFA06B0028F9D0E06B0028F6D0206C89
:101E30000028F3D060680028F0D02078622824D1F0
:101E400001F0ACFE60B163202070FEF7FFFE9FED55
:101E50001A1ADFED1A0A9FED1A0A00F045F808E099
:101E6000B0EE480AB0EE401AF0EE400A00F03CF83E
:101E70002570A06B0028D1D0E06B0028CED0206C5C
:101E80000028CBD060680028C8D020786328C5D14E
:101E9000002210210B48FFF739F9B0EE480AB0EEE6
:101EA000401AF0EE400A00F01FF82570B6E7000077
:101EB0000000002000000000000096430020CB45F9
:101EC00000409C45000802400907090E002806DA78
:101ED00000F00F0000F1E02080F8141D704700F1C1
:101EE000E02080F80014704770B52DED0A8BF0EEFD
:101EF00040AAF0EE609A2AEEAA0AB0EE418A09EEF4
:101F0000A90A10EE100AFEF7C2FB41EC100B01F01B
:101F1000DDF951EC100BFEF7FDFB09EE100A18EE8F
:101F2000100AFEF7B4FB9FED89BB53EC1B2BFEF7A9
:101F300015FA41EC1C0B18EE100AFEF7A8FB53EC47
:101F40001B2BFEF70BFA53EC1C2BFEF7AEFA69EED7
:101F5000098A41EC1C0B18EE900AFEF798FB53EC33
:101F60001C2BFEF7FBF941EC100B01F0AFF951EC23
:101F7000100BFEF7CFFB0AEE100A18EE100AFEF760
:101F800086FB53EC1B2BFEF7E9F941EC1C0B18EE1A
:101F9000100AFEF77CFB53EC1B2BFEF7DFF953EC2A
:101FA0001C2BFEF782FA41EC1C0B18EE900AFEF790
:101FB0006EFB53EC1C2BFEF7D1F99FED66CB53EC77
:101FC0001C2BFEF7CBF953EC1C2BFEF768FA9FEDA8
:101FD000631B53EC112BFEF7DAFAFEF79BFB08EEBE
:101FE000900A19EE100AFEF752FB41EC1C0B18EE9A
:101FF000100AFEF74CFB53EC1B2BFEF7AFF953EC2A
:102000001C2BFEF7C4FA41EC100B00F085FF51ECDD
:10201000100BFEF77FFB05461AEE100A5149884265
:102020007EDCF5EEC0AA504CF1EE10FA0ED1B0EE07
:10203000690A02F0C7F8FEF719FB9FED4C1B53EC41
:10204000112BFEF732FAC4E91A010BE089EEAA0A55
:1020500010EE100AFEF71BFB41EC100B00F05CFFCA
:1020600084ED1A0B2846FEF712FB88EE8A0A41EC33
:102070001B0B10EE100AFEF70AFB41EC100B00F0F0
:102080009FFD53EC1B2B51EC100BFEF767F9B0EEE4
:10209000480AC4E91C0102F095F8FEF7E7FA41ECA2
:1020A000180B94ED1C0B01F0A3F89FED32BB51EC23
:1020B000100B53EC1B2BFEF7F8F941EC1A0B19EE41
:1020C000100AFEF7E4FA53EC1A2BFEF7E8F953EC8A
:1020D0001B2BFEF75CFA41EC100B00F071FD53EC8A
:1020E000182B51EC100BFEF7E0F9C4E91E0194ED3A
:1020F0001A0B02F04BF810EE100AFEF7C8FAC4E90A
:102100001A0194ED1C0B02F041F810EE100AFEF7D4
:10211000BEFAC4E91C0194ED1E0B02F037F800E092
:1021200010E010EE100AFEF7B2FAC4E91E010E48E4
:102130009FED120B803080ED000B0020A063E06368
:1021400020646060BDEC0A8B70BD000000000000E0
:1021500000A057400000000000A1D940000000008E
:10216000004074400000A2430000002038E92F54D2
:10217000FB21F93F00000000004064400000000027
:10218000008056C0012001F0B5FDFBE72DED028B6C
:1021900040F2DC589FED388B394C012594ED120B41
:1021A00053EC102B94ED1A0B51EC100BFEF777F952
:1021B00041EC100B01F080F853EC182B51EC100B94
:1021C000FEF790FA53D294ED1A0B53EC102B94EDCA
:1021D000120B51EC100BFEF76DFA06D2A068401CF2
:1021E00003D1404601F086FDA56094ED1A0B53EC37
:1021F000102B94ED120B51EC100BFEF773FA08D272
:10220000A068012805D1404601F074FD4FF0FF3071
:10221000A060207A1021401EC2B21A48FEF776FF55
:102220000122194F960231463846FEF76FFF012012
:1022300001F060FD002231463846FEF767FF0120BD
:1022400001F058FDE069401CE061A068FEF70EFA5D
:102250009FED0E1B53EC112BFEF727F994ED121B8B
:1022600053EC112BFEF77AF8C4E9120196E701202E
:10227000A56301F03FFD91E7EC51B81E85EBB13F3E
:102280000000002000040240000002409544ECCF12
:102290002234AF3F2DED028B40F2DC579FED378BA0
:1022A000384C012594ED140B53EC102B94ED1C0BC2
:1022B00051EC100BFEF7F3F841EC100B00F0FCFFB3
:1022C00053EC182B51EC100BFEF70CFA50D294ED96
:1022D0001C0B53EC102B94ED140B51EC100BFEF770
:1022E00001FA08D2E068012805D1384601F002FD64
:1022F0004FF0FF30E06094ED1C0B53EC102B94ED8D
:10230000140B51EC100BFEF7D5F906D2E068401C17
:1023100003D1384601F0EEFCE560207B4FF480717C
:10232000401EC2B21848FEF7F1FE184E01222021CD
:102330003046FEF7EBFE012001F0DCFC00222021FC
:102340003046FEF7E3FE012001F0D4FCE068FEF722
:102350008DF99FED0F1B53EC112BFEF7A6F894EDB2
:10236000141B53EC112BFDF7F9FFC4E9140199E795
:102370000120E56301F0BEFC94E70000EC51B81EBB
:1023800085EBB13F00000020000002400004024045
:102390003F0A674FB354AC3F2DED028B40F2DC5740
:1023A0009FED368B374C012594ED160B53EC102B1B
:1023B00094ED1E0B51EC100BFEF771F841EC100B75
:1023C00000F07AFF53EC182B51EC100BFEF78AF952
:1023D0004FD294ED1E0B53EC102B94ED160B51ECD9
:1023E000100BFEF767F906D22069401C03D138466E
:1023F00001F080FC256194ED1E0B53EC102B94ED45
:10240000160B51EC100BFEF76DF908D2206901286C
:1024100005D1384601F06EFC4FF0FF302061207C82
:10242000194E401CC2B220213046FEF76FFE012239
:1024300040213046FEF76AFE012001F05BFC0022DD
:1024400040213046FEF762FE012001F053FC206976
:10245000FEF70CF99FED0D1B53EC112BFEF725F841
:1024600094ED161B53EC112BFDF778FFC4E9160110
:102470009AE70120256401F03DFC95E7EC51B81E78
:1024800085EBB13F00000020000002409BF48CB7B8
:102490007450AC3F2DED028B40F2DC583A4D9FED6D
:1024A000388BA5F18004012694ED180B53EC102B0A
:1024B00095ED000B51EC100BFDF7F1FF41EC100B0B
:1024C00000F0FAFE53EC182B51EC100BFEF70AF952
:1024D00050D295ED000B53EC102B94ED180B51ECF2
:1024E000100BFEF7E7F806D26069401C03D14046A6
:1024F00001F000FC666195ED000B53EC102B94EDA0
:10250000180B51EC100BFEF7EDF808D260690128AA
:1025100005D1404601F0EEFB4FF0FF306061207DB9
:102520001A4F401EC2B24FF480613846FEF7EEFDEE
:10253000012208213846FEF7E9FD012001F0DAFB0F
:10254000002208213846FEF7E1FD012001F0D2FB10
:102550006069FEF78BF89FED0E1B53EC112BFDF716
:10256000A4FF94ED181B53EC112BFDF7F7FEC4E903
:10257000180199E70120666001F0BCFB94E70000B8
:10258000EC51B81E85EBB13F8000002000040240F2
:102590005E6017C48E66AC3F01F0B7BB30B524480F
:1025A00093B00025016841F080510160006800F09F
:1025B000805012901F48016841F44041016000685A
:1025C000022400F440401290012003901020049057
:1025D000009406940820CDE907506420CDE9090451
:1025E0000420CDE90B046846FEF786FF00B1FEE744
:1025F0000DA90F2081E831004FF48050CDE910057E
:1026000003210DA8FEF76AFE00B1FEE7FEF71EFFEC
:102610004FF47A71B0FBF1F0FFF70CF90420FFF7EB
:10262000FDF800220F21501EFEF726FE13B030BD2C
:1026300040380240007000401048016841F47001C9
:1026400001600F48016841F0010101600C4A00215E
:102650000832116002680B4B1A400260031D0A4ADF
:102660001A60026822F48022026005480C30016082
:1026700002495806803908607047000088ED00E084
:1026800000380240FFFFF6FE103000240148FFF73B
:1026900056B90000E80100200148FFF750B90000DA
:1026A0006001002030B50268114B124C984201D0F5
:1026B000A04203D122F070054A682A43984207D00D
:1026C000A04205D00C4CA04202D00C4CA04203D139
:1026D00022F44074CA68224302608A68C2620A68AF
:1026E0008262984201D1096901630121416130BDD3
:1026F00000000140000C0040004001400048014043
:1027000010B5806B0021C185C184FFF7D8F910BDD9
:102710000168CA6822F49072CA6001684A6922F0AE
:1027200001024A61202180F83A10704710B590F8F4
:102730003A10222901D0022010BD8168B1F5805FD6
:1027400011D00169002901681FD0496801F07F0399
:10275000816A4A1C82620B70C18D491E0904090CF2
:10276000C18518D026E00269816A002A0268526891
:1027700005D0D2B20A80816A491C8162ECE7C2F3BB
:1027800008020A80816A891CF7E74A68816A4B1C43
:1027900083620A70E0E70168CA6822F49072CA6036
:1027A00001684A6922F001024A61202180F83A104A
:1027B000FFF792FA002010BD2DE9F04104460068B1
:1027C000016921F44052E168114301612168C86840
:1027D00049F20C6290432369A268E5691A43636970
:1027E0002B431A430243CA602168486920F44072AF
:1027F000A06910434861E1696425B1F5004F97482D
:10280000974A21684FF032083FD0914201D081426F
:102810007CD1FEF731FE00EBC00101EB00106168D6
:102820008900B0FBF1F6FEF727FE00EBC00101EBDB
:10283000001061688900B0FBF1F0B0FBF5F06FF0BB
:102840001801484306EB800108EB0110B0FBF5F0DE
:1028500000F0F006FEF710FE00EBC00101EB0010E7
:1028600061688900B0FBF1F0B0FBF5F006EB0016F3
:10287000FEF702FE00EBC00101EB00106168890069
:10288000B0FBF1F7FEF7F8FDD2E0914201D08142B2
:102890003DD1FEF7F1FD00EBC00101EB00106168D6
:1028A0004900B0FBF1F0B0FBF5F00601FEF7E4FDE6
:1028B00000EBC00101EB001061684900B0FBF1F7CB
:1028C000FEF7DAFD00EBC00101EB00106168490082
:1028D000B0FBF1F0B0FBF5F06FF01801484307EBE7
:1028E000800108EBC100B0FBF5F000F0F80006EB4A
:1028F0004006FEF7C1FD00EBC00101EB001061686E
:102900004900B0FBF1F7FEF7B7FD3CE055E0FEF7FC
:10291000A3FD00EBC00101EB001061684900B0FBB2
:10292000F1F0B0FBF5F00601FEF796FD00EBC001FB
:1029300001EB001061684900B0FBF1F7FEF78CFD78
:1029400000EBC00101EB001061684900B0FBF1F041
:10295000B0FBF5F06FF01801484307EB800108EB7E
:10296000C100B0FBF5F000F0F80006EB4006FEF702
:1029700073FD00EBC00101EB001061684900B0FB82
:10298000F1F7FEF769FD00EBC00101EB0010616893
:102990004900B0FBF1F0B0FBF5F06FF018014843CF
:1029A00007EB800108EBC100B0FBF5F000F0070079
:1029B000216830448860BDE8F081FEF74DFD00EBF2
:1029C000C00101EB001061688900B0FBF1F6FEF771
:1029D00043FD00EBC00101EB001061688900B0FB12
:1029E000F1F0B0FBF5F06FF01801484306EB800101
:1029F00008EB0110B0FBF5F000F0F006FEF72CFD3F
:102A000000EBC00101EB001061688900B0FBF1F040
:102A1000B0FBF5F006EB0016FEF71EFD00EBC00163
:102A200001EB001061688900B0FBF1F7FEF714FDBF
:102A300000EBC00101EB001061688900B0FBF1F010
:102A4000B0FBF5F06FF01801484307EB800108EB8D
:102A50000110B0FBF5F000F00F00A9E700140140F1
:102A60000010014090F83910212901D00220704750
:102A70008168B1F5805F016A0BD04A1C026202686E
:102A800009785160C18C491E0904090CC1840ED01B
:102A900017E009880268C1F3080151600169002943
:102AA000016A02D0491C0162ECE7891CFBE701685E
:102AB000CA6822F08002CA600068C16841F0400123
:102AC000C16000207047000010B52548FEF7F8FFF0
:102AD0000C2224492248FFF7DBF8234C2068401CD5
:102AE00020600D283BD11F48204902780A704278A7
:102AF0004A7082788A70C278CA701D4902790A7059
:102B000042794A7082798A70C279CA701949027A08
:102B10000A70427A4A70827A8A70C07AC870134802
:102B2000FDF70FFC00EE100A1348B8EEC00A80ED66
:102B3000000A0F48FDF705FC00EE100A0F48B8EE3A
:102B4000C00A80ED000A0B48FDF7FBFB00EE100AFF
:102B50000B48B8EEC00A80ED000A0020206010BDCE
:102B60009C010020DC0100208C000020900000204F
:102B700094000020980000209C000020A00000206D
:102B80008800002003B401984100009850EAC12059
:102B900018BF04204A0D18BF40F0010040F2FF7238
:102BA000B2EB515F08BF40F00200012808BF0520CA
:102BB00002B0704700487047140100200000000078
:102BC00010B5B94A2DED020B2DED0C8B82B00F998B
:102BD00021F000409FEDB6CB90422CDBA0F140539A
:102BE0000E9AA3F17F631A430FD0B349884202DCE7
:102BF00016D10E98A0B19DED0E0B02B0BDEC0C8B62
:102C000002B0BDE8104000F087BF0029C1BF9FEDB2
:102C1000AC0B02B0BDEC0C8B02B0C8BF10BD16E00F
:102C2000012000F0B5FF02B0BDEC0C8B02B0BDE896
:102C3000104000F07DBFA44A9FEDA59B9FEDA6AB81
:102C400090425EDAA6499FEDA8CB814208DBB0EE48
:102C50004C0AF0EE6C0A02B0BDEC0C8B02B010BD59
:102C60009DED0E0B53EC102B51EC100BFDF71DFCE2
:102C700041EC180B9E480621B0EE480AF0EE680AB7
:102C8000784400F035FE53EC182B51EC100BFDF797
:102C90000CFC41EC1B0B9748B0EE480AF0EE680ABA
:102CA0000421784400F024FE53EC182B51EC100B57
:102CB000FDF7FBFB53EC192BFDF750FB41EC100B20
:102CC00051EC1B0B53EC102BFDF761FC41EC100B8E
:102CD00053EC102B9DED0E0B51EC100BFDF7E5FBAB
:102CE00053EC1A2BFDF7DEFB9DED0E1B53EC112B65
:102CF000FDF7D8FB53EC1C2BFDF7D4FB41EC100B7C
:102D0000A9E79FED7D8B9FED7EBB9DED0E0B00290E
:102D100053EC192B51EC100B52DAFDF71FFB53EC5F
:102D2000182BFDF7C2FB41EC180B77480621B0EEDB
:102D3000480AF0EE680A784400F0DAFD53EC182BEC
:102D400051EC100BFDF7B1FB41EC1D0B6F48B0EEE1
:102D5000480AF0EE680A0421784400F0C9FD53ECFB
:102D6000182B51EC100BFDF7A0FB53EC192BFDF7C2
:102D7000F5FA41EC190B51EC180B01F02DFA41EC6E
:102D8000180B53EC192B51EC1D0BFDF700FC53EC09
:102D9000182BFDF78AFB53EC1A2BFDF780FB41EC57
:102DA000100B51EC180B53EC102BFDF7D7FA53EC2A
:102DB0001B2BFDF77AFB53EC1C2BFDF773FB6DE02F
:102DC000FDF770FB53EC182BFDF76FFB41EC180B74
:102DD00001F002FA41EC1A0B00208DED00AB0090DF
:102DE0009DED000B51EC1A0B53EC102BFDF7B6FACE
:102DF0009DED000B41EC1C0B53EC102B51EC100B18
:102E0000FDF753FB53EC182BFDF74CFB53EC1C2B3D
:102E1000FDF7BDFB41EC1C0B3D48B0EE480AF0EE5F
:102E2000680A0621784400F063FD53EC182B51EC3E
:102E3000100BFDF73AFB41EC1D0B3648B0EE480A8B
:102E4000F0EE680A0421784400F052FD53EC182B90
:102E500051EC100BFDF729FB53EC192BFDF77EFA13
:102E600041EC100B51EC1D0B53EC102BFDF78FFBBD
:102E700053EC1A2BFDF719FB53EC1C2BFDF76EFAE4
:102E800041EC100B53EC102B9DED000B51EC100B93
:102E9000FDF764FA53EC1B2BFDF707FB41EC100B1D
:102EA000D9E60000000000000000F03F0000000034
:102EB000182D4454FB2109400000F07F0000000061
:102EC00000000000000000000000E03F00000000E3
:102ED000000000000000F03F075C143326A6913C80
:102EE0000000603C00000000182D4454FB21F93F15
:102EF000EC1B0000FA1B0000000000000000E03F97
:102F00000000000000000040361B0000441B0000D1
:102F1000481A0000561A000070B59B482DED020BB0
:102F20002DED068B079D25F00044A04218DC974844
:102F3000844202DC0AD1069840B19DED060BBDEC3F
:102F4000068B02B0BDE8704000F0E6BD002DCCBF9E
:102F50009FED8F0B9FED900BBDEC068B02B070BD0B
:102F60008F48A04215DD8F48A042D8BF4FF0FF34F4
:102F700058DD9DED060B51EC100BFFF703FE042806
:102F800008BF00F0E5FD9DED060BBDEC068B02B021
:102F900070BD9DED060B51EC100B00F013FECDE95A
:102FA000060181489FED828BA0423CDD8248A04211
:102FB0001FDD00249FED82AB9DED060B53EC1A2B19
:102FC00051EC100BFDF7CAF99DED060B41EC190B06
:102FD00053EC1A2B51EC100BFDF767FA53EC182B3E
:102FE000FDF75DFA53EC192BFDF7D1FACDE9060197
:102FF00049E09DED060B012453EC182B51EC100B0E
:10300000FDF7ACF99DED060B41EC190B53EC182BB9
:1030100051EC100BFDF743FA53EC192BFDF7B7FAFF
:10302000CDE906012FE06848A0421FDD02249FED94
:10303000689B9DED060B53EC192B51EC100BFDF723
:1030400034FA53EC182BFDF789F99DED060B41EC92
:10305000180B53EC192B51EC100BFDF720FA53EC25
:10306000182BFDF794FACDE906010CE09DED060B57
:10307000032453EC102B9FED580B51EC100BFDF774
:1030800086FACDE906019DED060B53EC102B51ECB1
:10309000100BFDF70AFA41EC180B53EC182BFDF757
:1030A00004FA41EC190B4E480621B0EE490AF0EE45
:1030B000690A784400F01CFC53EC182B51EC100BFF
:1030C000FDF7F3F941EC180B4648B0EE490AF0EE73
:1030D000690A0521784400F00BFC53EC192B51ECE4
:1030E000100BFDF7E2F941EC100B51EC180B53EC0F
:1030F000102B002C0EDAFDF731F99DED061B53EC79
:10310000112BFDF7D2F99DED061B53EC112BFDF7AA
:10311000C9F935E0FDF722F99DED061B53EC112BA3
:10312000FDF7C3F941EC100B2F48784400EBC400C5
:1031300090ED001B51EC100B53EC112BFDF7AFF988
:103140009DED061B53EC112BFDF7A9F941EC100B7B
:103150002648784400EBC40090ED001B51EC100BA6
:1031600053EC112BFDF79EF941EC100B002DA2BF83
:10317000BDEC068B02B070BD51EC100B81F000412C
:1031800041EC100B01E70000000010440000F07F4C
:10319000182D4454FB21F93F182D4454FB21F9BF4D
:1031A0000000DC3F0000203E0000F33F0000000074
:1031B000000000000000F03F0000E63F00000000BB
:1031C00000000000000000400080034000000000FC
:1031D000000000000000F83F000000000000F0BF09
:1031E0007218000028180000B21700006A170000CB
:1031F00010B52F499FED2C1B2DED020B84B00598C7
:1032000020F000408842D8BF9DED040B2DDD2949F8
:10321000884209D1049840B94FF0010000F0B8FC91
:1032200000F086FC06B010BD05DB9DED040B00F040
:1032300073FC06B010BD68469DED040B00F084F8E9
:1032400010F0030004BF9DED021B9DED000B0CD0A0
:1032500001280ED09DED021B9DED000B022817D01A
:10326000012000F0C1FB06B010BD00F089FA06B0E5
:1032700010BD9DED021B9DED000B012000F0B4FB85
:1032800051EC100B81F0004106B041EC100B10BD69
:1032900000F076FA51EC100B81F0004106B041ECE1
:1032A000100B10BD00000000000000000000000036
:1032B000FB21E93F0000F07F2DED020B019820F08B
:1032C000004001909DED000B02B0704700B52DED60
:1032D000048BB0EE409AF0EE609A83B051EC190B7B
:1032E000FDF731FB41EC180B18EE100A18EE901A9E
:1032F0008DED008B002818BF0120084320F000400E
:10330000C0F17F6000F1E040C00F14D019EE101A38
:1033100019EE900A8DED009B002918BF012108438A
:1033200020F00040C0F17F6000F1E040C00F04BF1A
:10333000012000F02DFCB0EE480A03B0F0EE680A60
:10334000BDEC048B00BD00002DE9F14F04462DEDCE
:10335000020B2DED088B8AB09FEDE70B80ED020B81
:10336000139EE74826F0004585420ADC9DED120BCE
:10337000002084ED000B0AB0BDEC088B03B0BDE863
:10338000F08FE0489FEDE0AB9FEDE1BBA84247DD49
:10339000E14F9FEDE39B9FEDE48B9DED120B53EC12
:1033A0001A2B51EC100B002E1CDDFDF778F841ECC8
:1033B000100BBD4208D053EC1B2B51EC100BFDF74A
:1033C0006EF8C4E900010BE053EC192B51EC100B23
:1033D000FDF765F853EC182BFDF761F8C4E900011F
:1033E0000120C8E7FCF7BAFF41EC100BBD4208D042
:1033F00053EC1B2B51EC100BFCF7B0FFC4E90001A0
:103400000BE053EC192B51EC100BFCF7A7FF53EC1E
:10341000182BFCF7A3FFC4E900014FF0FF30AAE727
:10342000C348A84279DB9DED120B51EC100B00F064
:10343000C9FB41EC180B9FEDC00B53EC102BFDF7B3
:1034400034F89FEDBF1B53EC112BFCF787FFFDF702
:103450003DFB0746FDF70AF941EC190B53EC1A2B1B
:10346000FDF723F853EC182BFDF71CF841EC180B73
:1034700053EC1B2B51EC190BFDF717F8DFF8C8A222
:1034800041EC100B4FEA15580125FA4453EC102B70
:1034900051EC180BFDF703F8032DC4E900013DD0F2
:1034A000C1F30A5005EB4511A8EB00001139814228
:1034B00034DA0AEB051BB0EE48AA9BED000BF0EEE8
:1034C00068AA53EC102B51EC190BFCF7EEFF41EC02
:1034D0001B0B51EC1A0B53EC1B2BFCF7E0FF41ECE0
:1034E000180B51EC1A0B53EC182BFCF7D8FF53ECCC
:1034F0001B2BFCF7D4FF9BED020B41EC1A0B53EC9A
:10350000102B51EC190BFCF7D0FF53EC1A2BFCF7E6
:10351000C6FF41EC100B6D1CB8E70EE0002EA8BFF3
:103520003846BFF628AF94ED000B51EC100B81F03C
:103530000041C4E9000178421DE7C6F3130040F4DE
:10354000801EC6F30A50A0F2F530471100F01F05A7
:10355000C5F12000DDF848B00890002006900790E3
:103560000520EC467949002D07EB0002794408BF9D
:1035700051F8221009D051F8223001EB8201AB4002
:103580004A68089922FA01F11943A1FB0E26A1FB12
:103590000B131A449A4234BF0123002303EB06089D
:1035A0000CEB8003D3E901A60E448E4234BF012107
:1035B000002192448A4411B1924502D903E0924518
:1035C00001D2012100E00021C3E901A641444CF8E9
:1035D0002010011EA0F10100C4DC029800F100508F
:1035E000850F0298DDE903678000DDF81480FDF7A0
:1035F0003DF841EC1A0B3046FDF75BFA9FED541B8A
:1036000053EC112BFCF751FF41EC1B0B3846FDF737
:1036100050FA9FED511B53EC112BFCF746FF41EC88
:10362000180B4046FDF745FA9FED4D1B53EC112B4F
:10363000FCF73BFF41EC190B51EC180B53EC192B29
:10364000FCF78CFE53EC1B2BFCF788FE53EC1A2B7B
:10365000FCF784FECDE90801002008909DED080BE1
:1036600053EC1A2B51EC100BFCF719FF53EC1B2BEE
:10367000FCF715FF53EC182BFCF711FF53EC192B3B
:10368000FCF710FF9FED381B53EC112BFCF70DFFDF
:103690009FED370B41EC180B53EC102B9DED080BF5
:1036A00051EC100BFCF701FF53EC182BFCF756FE06
:1036B0009FED310B41EC180B53EC102B9DED080BDB
:1036C00051EC100BFCF7F1FE53EC182BFCF746FE07
:1036D00041EC100B139810F0004F06D06D4251ECE6
:1036E000100B81F0004141EC100B284684ED000BDB
:1036F00041E60000000000000000000000000000A3
:10370000FB21E93F7CD9024000004054FB21F93FF6
:103710003163621A61B4D03DFB21F93F0000000023
:103720000000601A61B4D03D7370032E8A19A33B68
:10373000FB2139410000000083C8C96D305FE43FC0
:10374000000000000000E03FFA14000048140000F0
:10375000000000000000103E000000000000103CCF
:10376000000000000000103A182D4454FB21F93DE0
:103770003326A611460B113C00000054FB21F93DF5
:1037800010B52DED040B2DED088B82B0B0EE419AF3
:10379000F0EE619A0B9820F000449FED4BABB4F132
:1037A000795F11DA9DED0A0B51EC100BFDF78EF9E4
:1037B000002801BFB0EE4A0AF0EE6A0A02B0BDEC82
:1037C000088B04BF04B010BD9DED0A0B53EC102B09
:1037D00051EC100BFCF769FE41EC180B3C4806213C
:1037E000B0EE480AF0EE680A784400F081F853EC35
:1037F000182B51EC100BFCF758FE9DED0A0B41EC19
:103800001B0B53EC192B51EC100BFCF74EFE41EC4B
:10381000190B53EC1B2B51EC180BFCF746FE53EC29
:10382000192BFCF73CFE9FED2C0B41EC190B53ECD4
:10383000102B51EC180BFCF738FE41EC100B28480C
:10384000844210DA53EC192B51EC100BFCF727FED5
:1038500053EC1A2BFCF726FE41EC100B02B0BDEC2A
:10386000088B04B010BD1F48A042BCBF9FED1E1BBB
:103870008DED001B06DBA4F50010019000200090E8
:103880009DED001B51EC100B53EC112BFCF707FEC8
:103890009DED000B41EC180B53EC102B51EC1A0B67
:1038A000FCF7FDFD41EC1A0B53EC192B51EC180BF6
:1038B000FCF7F5FD53EC1A2BFCF7F4FD41EC100B73
:1038C000CCE7000000000000000000000000F03F16
:1038D0006C11000000000000000000000000E03F4C
:1038E0003333D33F0000E93F000000000000D23F27
:1038F00070B504462DED028B4D1E00EBC500B0EEF9
:10390000408AF0EE608A90ED000B35F0060017D08B
:1039100053EC182B51EC100BFCF7C7FD41EC100BCE
:103920006D1E04EBC50090ED001B51EC100B53EC29
:10393000112BFCF713FD41EC100B35F00600E7D11D
:10394000022D36D0042D1CD0062D1CBFBDEC028BE1
:1039500070BD53EC182B51EC100BFCF7A6FD94ED49
:103960000A1B53EC112BFCF7F9FC53EC182BFCF75A
:103970009CFD94ED081B53EC112BFCF7EFFC41EC84
:10398000100B53EC182B51EC100BFCF78EFD94ED43
:10399000061B53EC112BFCF7E1FC53EC182BFCF746
:1039A00084FD94ED040B53EC102BFCF7D7FC41EC99
:1039B000100B53EC182B51EC100BFCF776FD94ED2B
:1039C000021B53EC112BFCF7C9FC53EC182BFCF732
:1039D0006CFD94ED001B53EC112BFCF7BFFCBDEC10
:1039E000028B41EC100B70BD31B504462DED040B7C
:1039F0002DED0A8BB0EE41BAF0EE61BA0B989DED59
:103A00000A0B20F00040B0F1795F0DDA51EC100B99
:103A1000FFF7B8F8042808BF00F09AF89DED0A0BEC
:103A2000BDEC0A8B05B030BD53EC102B51EC100BE4
:103A3000FCF73BFD41EC180B9DED0A0B53EC182BEA
:103A400051EC100BFCF731FD41EC190B2C48B0EE9A
:103A5000480AF0EE680A05217844FFF749FF9FED18
:103A60002ACBB0EE40AAF0EE60AA9CB353EC1C2B1C
:103A700051EC190BFCF719FD41EC1C0B53EC1A2B04
:103A800051EC190BFCF711FD9FED210B41EC190BCB
:103A900053EC102B51EC1B0BFCF707FD53EC192BCF
:103AA000FCF7FDFC53EC182BFCF7FFFC53EC1B2B35
:103AB000FCF7F5FC53EC1C2BFCF7F1FC9DED0A1B0D
:103AC00053EC112BFCF7EEFCBDEC0A8B05B041EC7E
:103AD000100B30BDFFE753EC1A2B51EC180BFCF721
:103AE000E4FC53EC1C2BFCF739FC53EC192BFCF7D2
:103AF000DCFC9DED0A1B53EC112BFCF72FFCE3E7DC
:103B0000F40F000000000000495555555555C5BF3C
:103B1000000000000000E03F10B553EC102B51EC0A
:103B2000100BFCF71BFC41EC100B10BD000000005B
:103B30009FED050B10B553EC102B51EC100BFCF75F
:103B400026FD41EC100B10BD00000000000000003D
:103B50009FED050B10B553EC102B51EC100BFCF73F
:103B6000A4FC41EC100B10BD000000000000001090
:103B700002E008C8121F08C1002AFAD17047704736
:103B8000002001E001C1121F002AFBD17047000094
:103B900001490860704700001401002010B5074873
:103BA000FDF78EF90548FDF73BF905496428886162
:103BB00001DA012010BD002010BD00001801002016
:103BC0000000002082B0CDE9000121F0004001900A
:103BD0009DED000B02B051EC100B7047A0B0FDF74B
:103BE000A9FAFEF7DBFCFEF7A3F83B4C39480025A9
:103BF00020604FF41650C4E901050C20E560C4E9CB
:103C00000450A5612046E561FDF7E2FF00B1FEE743
:103C1000314832493C3801600221C0E90115C160D8
:103C2000FDF746FE00B1FEE72B481E951EA93C3865
:103C30001F95FDF715FE00B1FEE7FEF74FF820686F
:103C4000C16841F02001C160142225496846FCF793
:103C500066FB0021684600F062F8224C20491422DD
:103C60002062143105A8FCF75AFB002105A800F0DA
:103C700056F81B496062142228310AA8FCF74FFB52
:103C800000210AA800F04BF81549A06214223C312B
:103C90000FA8FCF744FB00210FA800F040F81049E2
:103CA000E0621422503114A8FCF739FB002114A85B
:103CB00000F035F80A4920631422643119A8FCF792
:103CC0002EFB002119A800F02AF8606300F018F814
:103CD000FEE70000004400409C010020001000406E
:103CE000E04700080000002001460020842900D0A1
:103CF000C81C704710B5012000F05CFB002010BD0F
:103D000010B500F07DFB002010BD10B500F094FC54
:103D1000012803D0BDE8104000F04CBC10BD3EB5FA
:103D200004460D46B0F90800FFF7DEFF02A9CDE911
:103D30000001208A2B4682B2D4E9001000F050FC2A
:103D4000012801D000203EBD02983EBD2DE9F04182
:103D5000184C0F460546E6682068001D00F073FA0F
:103D600038B9206890F82C100120884021698143DF
:103D70002161681C07D137B12168BDE8F0410E48C8
:103D8000091D00F098BA20683544B54245602168A5
:103D900005D2A06BBDE8F041091D00F074BA606B5C
:103DA000091D00F070FAA06A854200D2A562BDE844
:103DB000F0810000D8000020003F00202DE9F041F4
:103DC000054600F085FA2E4CA068401CA0602068D3
:103DD0002C4F10B1606940B32DE02560A068012828
:103DE00029D1002606EB860007EB800000F03DFAA3
:103DF000761C072EF6D323488C3000F036FA214883
:103E0000A03000F032FA1F48B43000F02EFA1D48FE
:103E1000C83000F02AFA1B48DC3000F026FA1948B6
:103E20008C3060631430A06305E02068E96AC06AE2
:103E3000884200D82560606A401C6062E96A0120FF
:103E4000226988401043206101EB810007EB80006C
:103E5000291D00F030FA00F05BFA606900280CD0F0
:103E60002068E96AC06A884207D207494FF080504B
:103E70000860BFF34F8FBFF36F8FBDE8F081000084
:103E8000D8000020243E002004ED00E070B5114E63
:103E9000114C17E000F0E8FA3068B8B100F03EFCD1
:103EA00000F016FAF068C568281D00F0CCF9A0688B
:103EB000401EA0606068401E606000F029FA28463D
:103EC00000F00CF860680028E4D170BD00F026FC1A
:103ED000F8E70000EC3E0020D800002010B50446B2
:103EE000006B00F029FA2046BDE8104000F024BA2B
:103EF00010484FF47051420706D0C01D0D4920F004
:103F00000700411AC1F570510B4A00230144C2E970
:103F100000030839103A21F0070111604B600B6073
:103F20000B1AC0E9001393604FF000405360D0605B
:103F30007047000024020020C4000020074C4FF00E
:103F40008056074DFFF7A2FF20680128FAD92E609E
:103F5000BFF34F8FBFF36F8FF4E70000243E0020C4
:103F600004ED00E02DE9F0479A46DDE90984814639
:103F70006FF00303206B03EB82021044089D20F0D6
:103F80000706700707D0502080F31188BFF34F8FCA
:103F9000BFF36F8FFEE723180A5C83F834200A5CB6
:103FA00012B1401C1028F6D3002784F84370072D67
:103FB00000D30625E562C4E91157201D00F060F921
:103FC00004F1180000F05CF92461C5F10700646297
:103FD000A061E76484F8507052464946304600F0CC
:103FE000BFF82060B8F1000F01D0C8F80040BDE86C
:103FF000F087000030B5114900E011460A6882429E
:10400000FBD34B685C18844203D140681844486075
:10401000084643681C18944209D1084C103C246897
:10402000A24209D052681A4442600A6812680260CB
:10403000814200D0086030BD0460F9E7C400002070
:104040000648416B096829B1416BC968C96849686C
:10405000816270474FF0FF31FAE70000D80000207E
:1040600008484068401C4FF0500080F3118804D08D
:10407000BFF34F8FBFF36F8FFEE7BFF34F8FBFF3D9
:104080006F8FFEE7CC0000202DE9F04105460027A8
:1040900000F0EAF9314E306808B9FFF729FFF068FF
:1040A00005424BD1C5B3083568070ED005F00700AF
:1040B000C0F108000544680707D0502080F311883C
:1040C000BFF34F8FBFF36F8FFEE72DB3706885424C
:1040D00034D82248103001460C6801E020460C46D6
:1040E0006168A94202D221680029F7D131688C4267
:1040F00024D007682168016060680837411B1029D7
:104100000FD96019420708D0502080F31188BFF3FF
:104110004F8FBFF36F8FFEE710E041606560FFF7E0
:1041200069FF61687068401A7060B268904200D29E
:10413000B060F06801430020C4E9000100F0EEFA2D
:10414000780707D0502080F31188BFF34F8FBFF35B
:104150006F8FFEE73846BDE8F0810000B400002014
:1041600010B5031F4FF080741C601B1F21F001016C
:104170001960191F044B0B6014390A60091F6FF096
:10418000020244380A6010BD614000089FED091B1F
:1041900010B553EC112B51EC100BFCF786F99FED89
:1041A000071B53EC112BFCF7F2F9FCF7B3FA00EE06
:1041B000100A10BD000000000080764038E92F543E
:1041C000FB211940B5EEC00AF1EE10FA01DB012027
:1041D00070474FF0FF30704700B52DED048B83B072
:1041E00041EC190BFCF7AFFB41EC180B18EE100A71
:1041F00018EE901A8DED008B002818BF012008439F
:1042000020F00040C0F17F6000F1E040C00F14D00A
:1042100019EE101A19EE900A8DED009B002918BFB7
:104220000121084320F00040C0F17F6000F1E04030
:10423000C00F04BF0120FFF7ABFC51EC180B03B01B
:10424000BDEC048B00BDD0E9013201699A60D0E970
:1042500001235A604A68824201D182684A60002282
:1042600002610868401E0860704700F108014FF0C5
:10427000FF32C0E90112C160016100210160704795
:1042800000210161704730B50B685A1C02D000F163
:10429000080202E0026904E02246546825689D4253
:1042A000FAD953684B6099608A605160086101686F
:1042B000491C016030BD42684A6093688B60936816
:1042C0005960916008610168491C016070470000F5
:1042D000502080F31188BFF34F8FBFF36F8F0A49CF
:1042E0004868401C486001280CD10848006810F05C
:1042F000FF0F07D0502080F31188BFF34F8FBFF31B
:104300006F8FFEE770470000CC00002004ED00E056
:104310000849486828B1401E486001D180F31188DF
:104320007047502080F31188BFF34F8FBFF36F8F1A
:10433000FEE70000CC00002070B5002827D0144D07
:10434000A0F108046168E868014207D1502080F3B9
:104350001188BFF34F8FBFF36F8FFEE722683AB12A
:10436000502080F31188BFF34F8FBFF36F8FFEE7AC
:104370008143616000F078F86068696808446860AB
:104380002046FFF737FEBDE8704000F0C7B970BDAA
:10439000B400002006484FF4FA610068B0FBF1F168
:1043A0004FF0E020491E4161072101617047000084
:1043B000B000002010B5020014D00F48006B38B1D7
:1043C000502080F31188BFF34F8FBFF36F8FFEE74C
:1043D00000F04AF800211046FFF7B8FC00F09EF903
:1043E000002807D105494FF080500860BFF34F8F78
:1043F000BFF36F8F10BD0000D800002004ED00E077
:104400001CB515480024CDE900402346802213A1A5
:10441000144800F0E5F8012809D0401C1AD15020BA
:1044200080F31188BFF34F8FBFF36F8FFEE75020EB
:1044300080F31188BFF34F8FBFF36F8F06484FF0A3
:10444000FF312C38816201214161C460BDE81C400C
:1044500000F040B81CBD00000401002049444C4558
:10446000000000003D3F00080248016B491C016349
:1044700070470000D80000201448016B11B10121E1
:10448000C16170470021C1610169B1FA81F1C1F1D7
:104490001F0101EB81020E4951F822306BB101EB93
:1044A000820101F108034A6852684A609A4201D1C8
:1044B00052684A60D16801607047502080F31188CB
:1044C000BFF34F8FBFF36F8FFEE70000D8000020CF
:1044D000243E00201CB532480168324A914207D17F
:1044E000502080F31188BFF34F8FBFF36F8FFEE72B
:1044F00000682C49491E884207D1502080F311885A
:10450000BFF34F8FBFF36F8FFEE727490878019005
:10451000FF20087008788DF800009DF800009DF8D5
:10452000002000F0F000904207D0502080F3118866
:10453000BFF34F8FBFF36F8FFEE79DF800001B4A5C
:1045400000F0500010700720906005E09DF80030EA
:104550005B008DF80030401E9DF800301B06F5D43E
:10456000000200F4E0609060019808700C48203070
:10457000016841F470010160016841F0704101601F
:10458000FFF708FF00205060FBF748FE084801686D
:1045900041F040410160FBF731FE00201CBD0000EE
:1045A00000ED00E071C20F4100E400E0CC0000200B
:1045B00034EF00E010B5502080F31188BFF34F8F27
:1045C000BFF36F8F00F046F818B104494FF08050E8
:1045D0000860002080F3118810BD000004ED00E0A9
:1045E0002DE9FF5F8346DDE90E87994616468A4628
:1045F0009000FFF749FD05001AD05420FFF744FD55
:10460000040012D025630021CDE90241CDE90087E5
:104610004B46324651465846FFF7A4FC2046FFF76A
:10462000CDFB012004B0BDE8F09F2846FFF784FED3
:104630004FF0FF30F6E700000548416919B1006B03
:1046400018B1002070470120704702207047000019
:10465000D80000202DE9F0412E4C0027206B40B1FE
:10466000A069401CA061E06900B101273846BDE89F
:10467000F081E668761CE66013D1606B006838B1A3
:10468000502080F31188BFF34F8FBFF36F8FFEE789
:10469000606BA16B6163A063206A401C2062FFF71E
:1046A000CFFCA06ADFF87080864209D3606B006897
:1046B00080B1606BC068C568686886420DD2A06230
:1046C0002068C06A00EB800158F821000128CAD98F
:1046D0000127C8E74FF0FF30F1E7281DFFF7B3FDD2
:1046E000A86A18B105F11800FFF7ADFDE86A0121CD
:1046F000226981401143216100EB800108EB8100B8
:10470000291DFFF7D8FDE86A2168C96A8842CDD320
:104710000127CBE7D8000020243E00202DE9F047F8
:104720002C4D00242746286B38B1FFF7D1FD286BAC
:10473000401E2863286B40B146E0502080F311886A
:10474000BFF34F8FBFF36F8FFEE7A968224E0120A2
:10475000D1B3A6F1B40980463068E8B1F068C46806
:1047600004F11800FFF76FFD201DFFF76CFDE06AF4
:104770002A6908FA00F11143296100EB800109EB75
:104780008100211DFFF797FDE06A2968C96A884208
:10479000E2D3C5F81C80DFE70CB1FFF751FCAC6930
:1047A00044B14646FFF756FF00B1EE61641EF9D1F1
:1047B0000020A861E86938B1084901273807086076
:1047C000BFF34F8FBFF36F8FFFF7A2FD3846BDE8F1
:1047D000F0870000D8000020D83E002004ED00E063
:1047E000504B000885210008000000000000000078
:1047F00080000000004B00088D2100080000000030
:104800000000000080000000104B00089522000806
:10481000000000000000000080000000204B0008A5
:1048200099230008FDFF0000000000008000000048
:10483000304B000895240008FDFF00000000000038
:1048400080000000404B0008111E0008000000001E
:1048500000000000800000000000000000000000D8
:104860000102030406070809000000000102030416
:10487000555555555555C53F7D6FEB0312D6D4BFE1
:104880005544880E55C1C93F3B8F68B52882A4BFE7
:1048900088B20175E0EF493F09F7FD0DE13D023FA8
:1048A0004B2D8A1C273A03C0C88A599CE52A004030
:1048B00059018D1B6C06E6BF82922EB1C5B8B33F7D
:1048C0004FBB610567ACDD3F182D4454FB21E93F28
:1048D0009BF681D20B73EF3F182D4454FB21F93F17
:1048E000E2652F227F2B7A3C075C143326A6813C9D
:1048F000BDCBF07A8807703C075C143326A6913C48
:10490000C4EB98999999C9BF711623FEC671BCBFB3
:104910006D9A74AFF2B0B3BF9AFDDE522DDEADBF1B
:104920002F6C6A2C44B4A2BF0D5555555555D53F33
:10493000FF8300922449C23F6E204CC5CD45B73F4E
:10494000513DD0A0660DB13FEB0D76244B7BA93FC6
:1049500011DA22E33AAD903F4C5555555555A53FD8
:104960007751C1166CC156BF9015CB19A001FA3E04
:10497000AD529C804F7E92BEC4B1B4BD9EEE213E2E
:10498000D43888BEE9FAA8BD00004054FB21F93FA5
:104990003163621A61B4D03D0000601A61B4D03D49
:1049A0007370032E8A19A33B0000002E8A19A33BC3
:1049B000C14920259A837B390000000000000000D7
:1049C0006E83F9A22915444ED15727FCC0DD34F57A
:1049D000999562DB4190433CAB6351FE61C5BBDE00
:1049E0003A6E24B7E0D24D42EA2E49061C92D10914
:1049F0001CEB1DFE3EA729B1F53582E88444BB2E91
:104A000026709CE9417E5FB439D69139F4395383DD
:104A10008B5F849C3B28F9BDFF97F81F0F9805DE3C
:104A20008B112FEF1F6D0A5ACF7E366DB709CB273A
:104A3000663F464F2DEA5F9EC7BA27757BF1E5EBCF
:104A4000F739073DEA92528AB15FFB6B085D8D1F13
:104A5000A6F810111111813FD561C119A0012ABF1B
:104A60007DFEB157E31DC73EEB9C2B8AE6E55ABE9F
:104A70007CD5CF5A3AD9E53D0040404040404040C7
:104A80004040414141414140404040404040404021
:104A900040404040404040404005020202020202C5
:104AA0000202020202020202022020202020202014
:104AB0002020200202020202020290909090909028
:104AC00010101010101010101010101010101010E6
:104AD000101010100202020202028888888888885A
:104AE0000808080808080808080808080808080846
:104AF000080808080202020240000000794A000883
:104B000053746570706572315F5461736B0000009F
:104B100053746570706572325F5461736B0000008E
:104B200053746570706572335F5461736B0000007D
:104B300053746570706572345F5461736B0000006C
:104B40004D61696E5F41726D5F5461736B0000006F
:104B500064656661756C745461736B007C4B00080E
:104B60000000002018010000703B0008944C000871
:104B70001801002000420000803B00086100000096
:104B80000000000001000000010000000100000022
:104B90000100000000000000000000000000000014
:104BA0000000000000000000000000000000000005
:104BB00000000000000000000000000000000000F5
:104BC0000000000000000000000000009A99999980
:104BD000999941C0CDCCCCCCCC0C4E40000000000B
:104BE000008056C00000000000000000000000002F
:104BF0000080564000000000008041C0000000001E
:104C0000008056C00000000000000000000000000E
:104C10000000000000000000000000000000000094
:104C20000100000010000000000000000024F4005B
:104C30000000000000000000000000000000000074
:104C4000000000000000000000000000AAAAAAAABC
:104C50000000000000000000000000000000000054
:104C60000000000000000000000000000000000044
:104C70000000000000000000000000000000000034
:104C80000000000000000000000000000000000024
:044C90000000000020
:04000005080001C925
:00000001FF
