:020000040800F2
:10000000D842002099020008A1020008A3020008BB
:10001000A5020008A7020008A902000800000000CD
:10002000000000000000000000000000DD010008EA
:10003000AD0200080000000031020008E11F0008C6
:10004000B3020008B3020008B3020008B3020008BC
:10005000B3020008B3020008B3020008B3020008AC
:10006000B3020008B3020008B3020008B30200089C
:10007000B3020008B3020008B3020008B30200088C
:10008000B3020008B3020008B30200080000000039
:10009000000000000000000000000000B3020008A3
:1000A000B3020008D5200008B3020008B30200081C
:1000B000000000000000000000000000B302000883
:1000C000B3020008B3020008B3020008B30200083C
:1000D000B3020008B3020008112500080000000068
:1000E000B3020008B3020008000000000000000096
:1000F000000000000000000000000000B302000843
:100100000000000000000000B30200080000000032
:100110000000000000000000E120000800000000D6
:10012000B3020008B3020008B3020008B3020008DB
:10013000B302000800000000000000000000000002
:1001400000000000000000000000000000000000AF
:10015000B3020008B3020008B3020008B3020008AB
:10016000000000000000000000000000000000008F
:10017000000000000000000000000000000000007F
:10018000B3020008B30200080000000000000000F5
:1001900000000000B30200080000000000000000A2
:1001A000000000000000000000000000000000004F
:1001B000000000000000000000000000B302000882
:1001C000B3020008B3020008DFF80CD000F0F8FA20
:1001D0000048004745300008D84200202B4B1968E2
:1001E0000868B0E8F04F80F30988BFF36F8F4FF0D5
:1001F000000080F311887047000000000648006886
:10020000006880F3088862B661B6BFF34F8FBFF312
:100210006F8F00DF00BF00BF08ED00E0DFF80C00CB
:10022000016841F470010160704700BF88ED00E093
:10023000EFF30980BFF36F8F144B1A681EF0100F95
:1002400008BF20ED108A20E9F04F106008B44FF08D
:10025000500080F31188BFF34F8FBFF36F8F03F00F
:10026000E3FA4FF0000080F3118808BC19680868B1
:10027000B0E8F04F1EF0100F08BFB0EC108A80F30A
:100280000988BFF36F8F704700BF00BFA800002030
:10029000EFF3058070470000064880470648004796
:1002A000FEE7FEE7FEE7FEE7FEE7FEE7FEE7FEE726
:1002B000FEE7FEE781200008C90100082DE9F05F94
:1002C0000546002092469B468846064681464024C5
:1002D0001BE0284641464746224600F0BAF95346FD
:1002E0005A46C01A914110D311461846224600F0D2
:1002F000A1F92D1A67EB01084F4622460120002183
:1003000000F098F917EB00094E41201EA4F10104FA
:10031000DFDC484631462A464346BDE8F09F40EAC6
:1003200001039B0703D009E008C9121F08C0042A73
:10033000FAD203E011F8013B00F8013B521EF9D25A
:1003400070472DE9FE4F804681EA0300C00F0C463E
:10035000009021F0004123F00045B8EB0200A941D4
:1003600005D24046214690461C460B46024623F0E5
:100370000040104347D0270DC7F30A00C3F30A51CA
:100380000290401A019040286BDAC3F3130040F446
:10039000801B0098924620B10023D2EB030A63EB46
:1003A0000B0B01985946C0F14002504600F042F94B
:1003B00006460D4650465946019A00F05AF910EB90
:1003C00008006141002487EA115284EAE7731A4366
:1003D00040D0009A62B3019A012A4FEA075215DC15
:1003E000001B61EB02014FF0004202EA0752CDE927
:1003F0000042001C41F5801132462B4600F091F975
:1004000003B0BDE8F08F40462146F9E7001B61EBE1
:100410000201001C41F5801300185B412018A2F571
:10042000001747EB030140EAD570B6196D4111E0A2
:100430006D084FEA360645EAC0754FEA0752001BC1
:1004400061EB0201001C41F5801149084FEA3000C0
:100450000019514132462B4603B0BDE8F04F00F081
:1004600051B90098012240000023D0EB020263EB57
:10047000E073009821464FEAE074B8EB000061EBAE
:100480000401E9E783F000435BE781F0004158E7AE
:100490002DE9FE4F81EA030404F0004421F00041FD
:1004A00000944FF0000B23F0004350EA01045ED0AB
:1004B00052EA03045BD0C3F30A54C1F30A552C4437
:1004C000A4F2F3340194A0FB0254C1F3130141F4EC
:1004D0008011C3F3130343F4801301FB024400FBB8
:1004E000034E840A970A44EA815447EA8357A4FBDF
:1004F000076802958D0A05FB07854FEA932C04FBDC
:100500000C542705029D4FEA065847EA1637B5EB0B
:1005100008056EEB070C870E920E47EA811742EA38
:100520008312A7FB0201B6EB0B0164EB00042B0D59
:1005300043EA0C335E1844EB1C50DA465146E7FBA5
:100540000201C5F313044FEA0B3343EA14534FEA95
:100550000432019C43EA0603A4F10C040294009CBB
:10056000CDE900B400F0DDF803B0BDE8F08F002065
:100570000146F9E700F0004230F000400AD0C10D1A
:1005800001F56071C0F3160042EA0151C20840074C
:1005900011437047002001467047000030B5041E2B
:1005A00071F1000404DB4FF00044404264EB0101B0
:1005B000141E73F1000405DB1C464FF00043524249
:1005C00063EB04038B4208BF824230BD30B5041E8A
:1005D00071F1000404DB4FF00044404264EB010180
:1005E000141E73F1000405DB1C464FF00043524219
:1005F00063EB0403994208BF904230BD01F0004311
:1006000030B421F0004150EA010206D00A0DA2F5F3
:100610006072C1F31301002A02DC30BC0020704775
:10062000440F44EAC104C100E01830BC00EBC250E2
:1006300000F031B8202A04DB203A00FA02F1002051
:1006400070479140C2F1200320FA03F31943904010
:100650007047202A04DB203A21FA02F0002170477B
:1006600021FA02F3D040C2F120029140084319461A
:100670007047202A06DBCB17203A41FA02F043EA02
:10068000E07306E041FA02F3D040C2F1200291404B
:100690000843194670470029A8BF7047401C49000D
:1006A00008BF20F00100704710B4B0FA80FC00FAD7
:1006B0000CF050EA010404BF10BC704749B1CCF102
:1006C000200421FA04F411FA0CF118BF012121438E
:1006D0000843A3EB0C01CB1D4FEA00614FEA102049
:1006E00042BF002010BC704700EBC35010440029EB
:1006F000A4BF10BC7047401C490008BF20F0010097
:1007000010BC704710B5141E73F1000408DA401CC9
:1007100041F1000192185B411A4301D120F0010020
:1007200010BD2DE9F04D92469B4611B1B1FA81F210
:1007300002E0B0FA80F220329046FFF77BFF0446D9
:100740000F4640EA0A0041EA0B0153465A46084365
:1007500013D0114653EA010019D0C8F140025046A7
:10076000FFF777FF05460E46504659464246FFF7CB
:1007700061FF084305D0012004E020463946BDE86A
:10078000F08D0020054346EAE0762C4337430A9873
:100790006305E40AA0EB08000022FD0A44EA47547E
:1007A0000A3002D500200146E9E701051019694128
:1007B000DDE9084500196941BDE8F04DA2E70000F8
:1007C000064C074D06E0E06840F0010394E807009E
:1007D00098471034AC42F6D3FFF7FAFCA43D00086A
:1007E000C43D00082DE9F04D81EA030404F0004BFC
:1007F00021F0004514464FF0000A23F0004150EA72
:10080000050220D054EA01021DD0C5F30A57024662
:10081000C5F31303C1F31300C1F30A5640F4801566
:1008200043F48013A7EB0608101BD64608F2FD38E8
:1008300073EB050002D308F1010801E092185B4157
:10084000B8F1000F03DA00200146BDE8F08D00206A
:100850004FF48011064684460EE0171B73EB050724
:1008600005D3121B63EB050306434CEA010C490850
:100870004FEA300092185B4150EA0107EDD152EA8D
:10088000030012D082EA040083EA0501084305D080
:10089000101BAB4106D20122002306E000224FF0DC
:1008A000004302E06FF0010253101AEB06004CEB1C
:1008B000085110EB0A0041EB0B01BDE8F04DFFF7CA
:1008C00021BF0EB5C10F80EAE0700844CA070021BD
:1008D00040F233438DE80E000A460B46FFF721FF36
:1008E00003B000BD0EB540F2334102910021CDE9C5
:1008F00000110A460B46FFF714FF03B000BD70B5A8
:10090000C1F30A5201F000450024C1F3130140F283
:10091000FF3341F480119A4201DA002070BD40F2A9
:1009200033439A42A2F2334203DC5242FFF791FE74
:1009300000E090402C43F1D0404270BD454910B5D5
:100940004A6822F440324A604A6843681A434A605F
:1009500001684A6822F480724A6001684A68036943
:1009600042EA03224A6001684A6822F040724A6003
:1009700001684A6883681A434A6001688A6822F4F9
:1009800000628A6001688A68C3681A438A60816A63
:100990006FF07062D14201688A6822F070628A60EA
:1009A00001688A680CD0836A1A438A6001688A6881
:1009B00022F040528A6001688A68C36A1A4301E0E3
:1009C00022F040528A6001688A6822F002028A603E
:1009D00001688A68836942EA43028A60016A0029E1
:1009E00001684A680FD042F400624A6001684A68B0
:1009F00022F460424A6001684A68174C436A04EB7B
:100A000043331A4301E022F400624A600168CA6A73
:100A100022F47002CA620168CA6A838B0F4C04EB2D
:100A200003531A43CA6201688A6822F400728A601A
:100A300001688A68036B42EA43228A6001688A6817
:100A400022F480628A6001688A68406942EA8020F4
:100A5000886010BD0023014000E0FFFF0000F0FFB0
:100A6000002104E00222521C1A2AFCDB491C8142AC
:100A7000F8DB70472DE9F041012210211E4800F0FB
:100A80005DFA0122DFF8748017023946404600F013
:100A900055FA1B4C00264FF4FA75012220212046FE
:100AA00000F04CFA2846FFF7DBFF00222021204609
:100AB00000F044FA2846FFF7D3FF761CC82EECDB83
:100AC00000223946404600F039FA00260122202152
:100AD000204600F033FA2846FFF7C2FF002220210B
:100AE000204600F02BFA2846FFF7BAFF761CC82EE6
:100AF000ECDBBDE8F081000000080240000002408D
:100B00000004024078B50024009490F83C20012AAB
:100B100019D0012280F83C200A6807230568092AB9
:100B200013D9EE680A3A02EB420293409E43EE600C
:100B30000B788A680A3B03EB43039A400368DD683D
:100B40002A43DA6010E0022078BD2E6902EB4202EF
:100B500093409E432E610B788A6803EB43039A40CF
:100B600003681D692A431A614A681F23072A13D2A2
:100B700005686E6B521E02EB820293409E436E63C9
:100B80000B790A885B1E92B203EB83039A400368D9
:100B90005D6B2A435A6327E005680D2A12D22E6B3B
:100BA000D21F02EB820293409E432E630B790A8888
:100BB000DB1F92B203EB83039A4003681D6B2A4349
:100BC0001A6311E0EE6A0D3A02EB820293409E43F3
:100BD000EE620B790A880D3B92B203EB83039A40D5
:100BE0000368DD6A2A43DA62164B0568144A9D429F
:100BF00006D10D68122D03D1556845F48005556066
:100C000005689D4218D10B68102B01D0112B13D110
:100C1000536843F400035360096810290CD10A4952
:100C20000A4A0968B1FBF2F101EB8101490000E0D9
:100C3000491E00910029FBD180F83C40002078BD7E
:100C400000230140002001408000002040420F00AE
:100C50000068C06C704770B504004FF0000503D009
:100C6000206C002610B107E0012070BD666484F896
:100C70003C60204600F01AF8206CC00610D4206CAE
:100C800020F4885040F0020020642046FFF756FE12
:100C90006664206C20F0020040F00100206400E057
:100CA000012584F83C60284670BD000000B500684E
:100CB0000C4987B0884212D10B480021026842F4E7
:100CC00080720260006800F480700590012000903E
:100CD0000320CDE901016946044800F079F807B026
:100CE00000BD0000002001404438024000000240E6
:100CF00018B50021009190F83C20012A07D001226C
:100D000080F83C2002689368DB0702D011E00220E3
:100D100018BD936843F001039360204A204B12688A
:100D2000B2FBF3F202EB420200E0521E0092002AF4
:100D3000FBD102689368DB072DD0036C40F201649D
:100D4000A34343F48073036453685B0505D5036CC8
:100D500023F4005343F480530364036CDB0404D591
:100D6000436C23F00603436400E0416480F83C10C8
:100D70000C496FF02203136049680068C90602D06D
:100D80000949884207D1816811F0405F03D1816829
:100D900041F080418160002018BD000080000020EB
:100DA00040420F00002301400020014090F8351020
:100DB000022903D08021416501207047052180F878
:100DC00035100068016821F00101016000207047C2
:100DD0002DE9F84FDFF84CB100224FF001084FF039
:100DE000030A4FF00F090BF1040E00BF0B6808FA5D
:100DF00002F42340A3427DD14D68022D01D0122D73
:100E00000ED1D50800EB850CDCF820505607F70E04
:100E100009FA07F6B5430E69BE402E43CCF82060B0
:100E2000066855000F790AFA05FC07F0030726EA61
:100E30000C06AF40374307604E68012E05D0022EE6
:100E400003D0112E01D0122E0ED18768CE6827EA6A
:100E50000C07AE403E4386604668A6430C79C4F357
:100E60000014944034434460C4688E6824EA0C043F
:100E7000AE402643C6604C68E4004DD52A4C256838
:100E800045F480452560246822F0030504F480447D
:100E90000094264C2E19D6F8084895072F0F09FA0A
:100EA00007F5AC43224DA84201D100250AE0214DAF
:100EB000A84201D1012505E01F4DA84201D102251C
:100EC00000E00725BD402543C6F80858DBF8004080
:100ED0005D464E689C43F60300D51C432C60DEF84B
:100EE000004075464E689C43B60300D51C432C60F9
:100EF0000C4D00E010E008352C684E689C43F6026B
:100F000000D51C432C60074D0C352C684E689C4363
:100F1000B60200D51C432C60521C102AFFF466AFA9
:100F2000BDE8F88F003C01404438024000300140E9
:100F30000000024000040240000802400AB1816142
:100F400070470904FBE70000014880687047000013
:100F50007400002002488168027811448160704763
:100F6000740000200B4810B5016841F40071016065
:100F7000016841F480610160016841F480710160A1
:100F8000032000F0B1F8002000F006F800F03EF871
:100F9000002010BD003C024010B5014688B0002280
:100FA000192000F081F8192000F072F8134800248D
:100FB000016841F001010160006805A900F001002D
:100FC0000690684600F03AF900F06EF90C490D4AB7
:100FD000B0FBF1F10C48491E026040F2E732C0E973
:100FE0000324C0E9011400F07BFB10B1012008B01C
:100FF00010BD054800F0AEFBF9E7000044380240A0
:1010000040420F0000000140AC0100201F4808B51D
:10101000016841F480410160006800F48040009064
:101020001A48001F016841F080510160006800F01B
:1010300080500090032000F057F8002211466FF016
:101040000B0000F031F8002211466FF00A0000F0AA
:101050002BF8002211466FF0090000F025F800225D
:101060001146501F00F020F800221146101F00F01A
:101070001BF800220F21901E00F016F800220F210D
:10108000BDE80840501E00F00FB800004438024090
:1010900000F01F02012191404009800000F1E02092
:1010A000C0F8001170470000F0B40E4B1B680C46EE
:1010B000C3F30223C3F10705042D00D90425191D2C
:1010C000072901D2002300E0DB1E012606FA05F104
:1010D000491E214099409E40761E16403143F0BC87
:1010E00000F0D2BE0CED00E0064900F007020868EF
:1010F0004FF6FF03184040EA0220034A10430860FD
:10110000704700000CED00E00000FA052DE9F04703
:101110000E46050065D0DFF81481D8F80000F7B25C
:1011200000F00F00B04207D288F80070D8F8000035
:1011300000F00F00B04254D128683D4C810712D511
:10114000400703D5206840F4E0502060287800076D
:1011500003D5206840F4604020602068A96820F032
:10116000F000084320602878C0072DD03049686817
:101170000839012812D0022813D0032811D0096899
:10118000890700292DDA216821F00301014321603C
:10119000FFF7DAFE814641F2883A0EE009688903DA
:1011A000EFE709688901ECE7FFF7CEFEA0EB090144
:1011B000514502D90320BDE8F0872068696800F036
:1011C0000C00B0EB810FEFD1D8F80010404601F0D1
:1011D0000F01B14207D90770006800F00F00B0425C
:1011E00001D00120E7E72878400705D52068E968A5
:1011F00020F4E050084320602878000706D52068D6
:10120000296920F4604040EAC100206000F05CF8E9
:101210002168084AC1F30311515CC84006490860BF
:101220000020FFF7B9FE0020C5E70000003C0240A7
:10123000083802400C3C0008800000200F220260A9
:101240000C4A136803F003034360136803F0F003D0
:101250008360136803F4E053C36012684FF4E053F3
:1012600003EAD20202610448006800F00F0008603F
:101270007047000008380240003C02400148006806
:101280007047000080000020044805490068096894
:10129000044AC1F38221515CC8407047800000209D
:1012A000083802401C3C00080448054900680968E9
:1012B000044AC1F34231515CC840704780000020AD
:1012C000083802401C3C0008154810B5006810F0B2
:1012D0000C02144813D04110042A0FD0082A0ED152
:1012E0000F4C241F2268236802F03F025B0207D5DF
:1012F0002068C0F38810A0FB010106E0084610BD7D
:101300002168C1F38811A1FB00010023FEF7D6FF7D
:101310002168C1F30141491C4900B0FBF1F010BD47
:10132000083802400024F4002DE9F84F0546007803
:10133000DFF800B3C04CC0074AD0DBF800105846B5
:10134000C1F38101012908D00068C0F3810002289F
:101350000AD1201D0068400206D52068800337D5D9
:101360006868002872D033E06868B0F5803F10D01C
:10137000B0F5A02F206810D020F4803020602068C5
:1013800020F4802020606868A8B1FFF7DDFD0646E4
:101390000DE0206840F48030F4E740F480202060C5
:1013A000F7E700BFFFF7D0FD801B64286FD82068E7
:1013B0008003F7D50CE0FFF7C7FD064605E000BF48
:1013C000FFF7C2FD801B6428F0D820688003F7D4A3
:1013D0002878DFF8688280074FF0000940D5DBF8F5
:1013E0000010584611F00C0F09D00068C0F38100BE
:1013F00002280BD18F48001F0068400206D42068E5
:10140000800715D5E868012820D111E0E868B8B157
:101410000120C8F80000FFF797FD064605E000BF71
:10142000FFF792FD801B0228C0D820688007F7D5FF
:101430002068296920F0F80040EAC10020600FE030
:10144000C8F80090FFF780FD064606E0EFE000BF19
:10145000FFF77AFD801B022819D820688007F7D48F
:101460002878000722D5734E754869696C3679B1C2
:1014700001210160FFF768FD074604E0FFF764FD06
:10148000C01B022803D830688007F7D50EE089E03A
:10149000C0F80090FFF758FD074604E0FFF754FD41
:1014A000C01B02287ED830688007F7D42878400710
:1014B00068D5DFF880A100270AF1380ADAF80000C1
:1014C000C0000BD4DAF8001041F08051CAF80010C7
:1014D000DAF80000012700F080500090594E306883
:1014E000C00510D4306840F480703060FFF72CFDE8
:1014F000009005E0FFF728FD0099401A022851D816
:101500003068C005F6D54B4EA868683601280FD064
:101510000528306810D020F001003060306820F0DD
:1015200004003060A868B8B1FFF70EFD00900FE02E
:10153000306840F00100F4E740F004003060F7E765
:10154000FFF702FD0099411A41F28830814266D8C6
:1015500030688007F4D50EE0FFF7F6FC009007E056
:10156000FFF7F2FC0099411A41F28830814256D8C7
:1015700030688007F4D42FB1DAF8001021F08051E0
:10158000CAF80010A869D0B3DBF80010C1F38101DC
:1015900002294CD00228484607D0C8F86000FFF75F
:1015A000D3FC00E03BE005463CE04746C8F860005D
:1015B000FFF7CAFC064604E0FFF7C6FC801B0228C2
:1015C0002DD820688001F7D4F5E907010843E968C0
:1015D0001D4A490802EB0141AA6841EA8211084309
:1015E000297C40EA0160297D40EA01711148001F11
:1015F000016001203866FFF7A7FC054605E014E00E
:10160000FFF7A2FC401B022809D820688001F7D50B
:101610000BE000BFFFF798FC401B022802D9032013
:10162000BDE8F88F20688001F4D40020F8E701209D
:10163000F6E7000008380240003802400000474248
:10164000800E4742007000400000FFFF4FF0E02195
:101650000428086903D020F004000861704740F0B6
:101660000400FAE710B5401EB0F1807F01D30120DD
:1016700010BD4FF0E02460610F21601700F004FC02
:101680000020A06107202061002010BD7047704736
:1016900030B590F83820012A20D0012280F8382077
:1016A000022380F8393003685C6824F070045C60C1
:1016B00003685C680D682C435C6003689C6824F0D8
:1016C00080049C6003689C6849680C439C6080F8B7
:1016D0003920002180F83810084630BD022030BD86
:1016E00010B5040003D094F8390010B107E00120D0
:1016F00010BD002084F83800204600F00DF80220CC
:1017000084F83900211D206800F0F0FC012084F8E5
:101710003900002010BD000008B500680B49884260
:1017200012D10B48016841F01001016000680022ED
:1017300000F01000009005213620FFF7B5FCBDE851
:1017400008403620FFF7A4BC08BD00000010004090
:10175000403802400168CA6842F00102CA6000686D
:10176000016841F00101016000207047704770B5C9
:101770000446006801694FF00005C943890715D484
:10178000C168C943890711D4E91E0161012020768F
:10179000206880698007204602D0FFF7E7FF04E059
:1017A00000F098F8204600F096F825762068016948
:1017B000C943490717D4C168C943490713D46FF017
:1017C00004010161022020762068806910F4407FC6
:1017D000204602D0FFF7CAFF04E000F07BF8204665
:1017E00000F079F8257620680169C943090716D405
:1017F000C168C943090712D46FF0080101610420D0
:1018000020762068C0698007204602D0FFF7AEFF2F
:1018100004E000F05FF8204600F05DF825762068CF
:101820000169C943C90617D4C168C943C90613D49D
:101830006FF010010161082020762068C06910F463
:10184000407F204602D0FFF791FF04E000F042F80D
:10185000204600F040F8257620680169C943C90791
:1018600008D1C168C943C90704D1891E0161204656
:1018700000F032F820680169C943090609D4C1683B
:10188000C943090605D46FF0800101612046FFF7C6
:10189000FDFE20680169C943490609D4C168C943EE
:1018A000490605D46FF040010161204600F01EF8A2
:1018B00020680169C94389060BD4C168C9438906F8
:1018C00007D46FF0200101612046BDE87040FFF7AA
:1018D000DEBE70BD7047704700680349884201D181
:1018E000FFF738BB704700000000014070477047A9
:1018F00070B5026804461068D168536910F00F0F84
:1019000050D003F0010501F4907635435DD0C20755
:1019100005D0CA0503D5E26B42F00102E26342073B
:1019200005D5DA0703D0E26B42F00202E2638207D8
:1019300005D5DA0703D0E26B42F00402E263020746
:1019400005D5DA0703D0E26B42F00802E263E26BEE
:10195000002A33D0800604D5880602D5204600F040
:1019600009FC20684069E16BC0F38010090700D4CE
:1019700028B3204600F0F0FB2068416949061AD5DB
:10198000416921F040014161606BA0B11B490165D3
:10199000606BFFF70BFA002810D0606B016DBDE89B
:1019A00070400847830610D58B060ED52046BDE84B
:1019B000704000F0DFBB2046FFF799FF70BD204666
:1019C000FFF795FF0020E06370BD030606D50B0608
:1019D00004D52046BDE8704000F068BD4006F3D550
:1019E0004806F1D5D168204621F04001D160202180
:1019F00084F8391000F089F870BD00004921000812
:101A000070B5040004D094F83900002510B106E048
:101A1000012070BD84F83850204600F023F82420BF
:101A200084F839002068C16821F40051C160204663
:101A300000F0E6FB2068016921F490410161206813
:101A4000416921F02A0141612068C16841F40051D7
:101A5000C160E563202084F8390084F83A00002052
:101A600070BD000000B50068124987B088421ED1E1
:101A70001148016841F4003101600068694600F4D2
:101A8000003005900C20009002200190012002906F
:101A900003200390072004900848FFF799F90022DB
:101AA00005212620FFF700FB2620FFF7F1FA07B0FB
:101AB00000BD0000004400404038024000000240E9
:101AC00090F83A30202B1DD1D1B1CAB190F83830FE
:101AD000012B17D081628285C2850021C163222239
:101AE00080F83A2080F8381001684A6942F0010213
:101AF0004A610068C16841F49071C160002070477C
:101B00000120704702207047704770477FB5124828
:101B10001049002401604FF4803141600461846108
:101B20000902046281600D49C0E90A140125C460FC
:101B3000C56145610463FFF78EF800B1FEE7CDE9AA
:101B40000045694604480294FEF7DCFF002800D0F7
:101B5000FEE77FBD00200140E80000200100000FEB
:101B60002DE9F047314886B00024016841F00401B6
:101B70000160016801F004010591016841F08001F4
:101B80000160016801F080010591016841F00101E7
:101B90000160016801F001010591016841F0020155
:101BA00001600068DFF8888000F002004FF4EC6507
:101BB0000590002229464046FFF7C0F9DFF87490EF
:101BC0004FF4C266002231464846FFF7B7F9DFF806
:101BD00068A04FF48767002239465046FFF7AEF9F8
:101BE0004FF4005000901548CDE90104694648467D
:101BF000FFF7EEF800950125CDE90154694640460E
:101C00000394FFF7E5F80096CDE90154694648468C
:101C10000394FFF7DDF80097CDE90154694650467B
:101C20000394FFF7D5F806B0BDE8F08730380240DE
:101C300000000240000802400004024000002110A1
:101C40002DED0C8B9FED878B9FED88AB894C9FED25
:101C50008A9A6125206BFEF78DFC41EC100B00F099
:101C6000DFFCB0EE40DAF0EE60DA6068FEF782FC8E
:101C700041EC100B00F0D4FC53EC182B51EC100B82
:101C8000FEF706FC41EC1C0BA06BFEF773FC41EC6D
:101C9000100B00F0C5FC53EC182B51EC100BFEF7A9
:101CA000F7FB41EC1B0B606BFEF764FC41EC100B87
:101CB00000F0B6FC53EC1A2B51EC100BFEF7E8FBCE
:101CC00053EC1B2BFEF73DFB53EC1C2BFEF739FBB3
:101CD00053EC1D2BFEF7DCFBFEF790FCA064206BA1
:101CE000FEF748FC41EC100B00F0FEFCB0EE40DAD1
:101CF000F0EE60DA6068FEF73DFC41EC100B00F09E
:101D00008FFC53EC182B51EC100BFEF7C1FB41EC90
:101D10001C0BA06BFEF72EFC41EC100B00F080FCBE
:101D200053EC182B51EC100BFEF7B2FB41EC1B0BE4
:101D3000606BFEF71FFC41EC100B00F071FC53ECE4
:101D40001A2B51EC100BFEF7A3FB53EC1B2BFEF7E9
:101D5000F8FA53EC1C2BFEF7F4FA53EC1D2BFEF7AC
:101D600097FBFEF74BFCE0646068FEF703FC41EC78
:101D7000100B00F0B9FC53EC182B51EC100BFEF7D4
:101D800087FB41EC1B0BA06BFEF7F4FB41EC100B47
:101D900000F0AAFC53EC182B51EC100BFEF778FB6B
:101DA00041EC1C0B606BFEF7E5FB41EC100B00F007
:101DB0009BFC53EC1A2B51EC100BFEF769FB53EC18
:101DC0001C2BFEF7BEFA53EC1B2BFEF7BAFAFEF7FC
:101DD00015FCE060206D00283FF43CAF606D0028EA
:101DE000FAD0A06D0028F7D020690028F4D0207820
:101DF000622824D101F006F960B163202070FEF75B
:101E000039FE9FED1F0A9FED1D1AF0EE400A00F00B
:101E10004BF808E0B0EE490AB0EE401AF0EE400A86
:101E200000F042F82570206D0028D5D0606D0028A4
:101E3000D2D0A06D0028CFD020690028CCD0207847
:101E400063287FF407AF002210210E48FFF776F8D1
:101E5000B0EE490AB0EE401AF0EE400A00F024F865
:101E60002570F7E60000000000406440000000001C
:101E70000080654000000020000000000000D34307
:101E80000000FA43000802400907090E002806DA9C
:101E900000F00F0000F1E02080F8141D704700F101
:101EA000E02080F800147047064890ED0C0A80EDA1
:101EB0000F0A90ED0D0A80ED100A80ED110A80EDF9
:101EC000020A704700000020012001F047F9FBE7FB
:101ED0002DED068B9FED358BDFF8D8809FED36AB6F
:101EE000374CE06BFEF746FB53EC182BFEF7CAFAB3
:101EF00041EC190B206BFEF73DFB53EC192BFEF761
:101F00004DFB14D3E06BFEF735FBB0EE481AF0EE54
:101F1000681A53EC112BFEF714FA41EC190B206BE5
:101F2000FEF728FB53EC192BFEF750FB3BD294ED48
:101F30000C0AD4ED0F0AB4EEE00AF1EE10FA0CD25E
:101F4000012210214046FEF7F9FF206BFEF712FB3D
:101F500053EC1A2BFEF7F5F90BE000221021404656
:101F6000FEF7ECFF206BFEF705FB53EC1A2BFEF798
:101F700089FAFEF743FB0122124E9502206329469F
:101F80003046FEF7DBFF4FF4FA773846FEF768FD80
:101F9000002229463046FEF7D1FF3846FEF760FDA5
:101FA000002020659DE70120FBE700009A999999A0
:101FB0009999B93F000402409544ECCF2234AF3FD9
:101FC0000000002000000240012001F0C7F8FBE7FC
:101FD000012001F0C3F8FBE7012001F0BFF8FBE7A7
:101FE00001F0C8B830B5244893B00025016841F02D
:101FF00080510160006800F0805012901F48016815
:1020000041F4404101600068022400F44040129015
:102010000120039010200490009406940820CDE93C
:1020200007506420CDE909040420CDE90B0468467B
:10203000FFF77AF900B1FEE70DA90F2081E8310022
:102040004FF48050CDE9100503210DA8FFF75EF88D
:1020500000B1FEE7FFF712F94FF47A71B0FBF1F02F
:10206000FFF700FB0420FFF7F1FA00220F21501EBA
:10207000FFF71AF813B030BD40380240007000403E
:102080001048016841F4700101600F48016841F097
:10209000010101600C4A00210832116002680B4BFB
:1020A0001A400260031D0A4A1A60026822F4802264
:1020B000026005480C30016002495806803908600A
:1020C0007047000088ED00E000380240FFFFF6FE98
:1020D000103000240148FFF74ABB0000AC0100208B
:1020E0000148FFF744BB00003001002030B5026812
:1020F000114B124C984201D0A04203D122F070053E
:102100004A682A43984207D0A04205D00C4CA0420E
:1021100002D00C4CA04203D122F44074CA6822437E
:1021200002608A68C2620A688262984201D10969C3
:1021300001630121416130BD00000140000C0040FD
:10214000004001400048014010B5806B0021C1856E
:10215000C184FFF7CCFB10BD0168CA6822F49072FD
:10216000CA6001684A6922F001024A61202180F8B0
:102170003A10704710B590F83A10222901D0022089
:1021800010BD8168B1F5805F11D001690029016837
:102190001FD0496801F07F03816A4A1C82620B707C
:1021A000C18D491E0904090CC18518D026E00269B9
:1021B000816A002A0268526805D0D2B20A80816A18
:1021C000491C8162ECE7C2F308020A80816A891C1B
:1021D000F7E74A68816A4B1C83620A70E0E701688E
:1021E000CA6822F49072CA6001684A6922F001024A
:1021F0004A61202180F83A10FFF786FC002010BDCC
:102200002DE9F04104460068016921F44052E1687B
:10221000114301612168C86849F20C629043236947
:10222000A268E5691A4363692B431A430243CA60F3
:102230002168486920F44072A06910434861E1694F
:102240006425B1F5004F9748974A21684FF032084E
:102250003FD0914201D081427CD1FFF725F800EBBD
:10226000C00101EB001061688900B0FBF1F6FFF7D7
:102270001BF800EBC00101EB001061688900B0FBA6
:10228000F1F0B0FBF5F06FF01801484306EB800168
:1022900008EB0110B0FBF5F000F0F006FFF704F8D2
:1022A00000EBC00101EB001061688900B0FBF1F0A8
:1022B000B0FBF5F006EB0016FEF7F6FF00EBC001F1
:1022C00001EB001061688900B0FBF1F7FEF7ECFF4D
:1022D000D2E0914201D081423DD1FEF7E5FF00EB13
:1022E000C00101EB001061684900B0FBF1F0B0FBE8
:1022F000F5F00601FEF7D8FF00EBC00101EB00107E
:1023000061684900B0FBF1F7FEF7CEFF00EBC001BA
:1023100001EB001061684900B0FBF1F0B0FBF5F093
:102320006FF01801484307EB800108EBC100B0FBD8
:10233000F5F000F0F80006EB4006FEF7B5FF00EB05
:10234000C00101EB001061684900B0FBF1F7FEF736
:10235000ABFF3CE055E0FEF797FF00EBC00101EB5F
:10236000001061684900B0FBF1F0B0FBF5F0060128
:10237000FEF78AFF00EBC00101EB00106168490025
:10238000B0FBF1F7FEF780FF00EBC00101EB00109E
:1023900061684900B0FBF1F0B0FBF5F06FF0180197
:1023A000484307EB800108EBC100B0FBF5F000F0FB
:1023B000F80006EB4006FEF767FF00EBC00101EBFB
:1023C000001061684900B0FBF1F7FEF75DFF00EB1C
:1023D000C00101EB001061684900B0FBF1F0B0FBF7
:1023E000F5F06FF01801484307EB800108EBC100DE
:1023F000B0FBF5F000F00700216830448860BDE8CC
:10240000F081FEF741FF00EBC00101EB00106168B5
:102410008900B0FBF1F6FEF737FF00EBC00101EBDE
:10242000001061688900B0FBF1F0B0FBF5F06FF0CF
:102430001801484306EB800108EB0110B0FBF5F0F2
:1024400000F0F006FEF720FF00EBC00101EB0010EA
:1024500061688900B0FBF1F0B0FBF5F006EB001607
:10246000FEF712FF00EBC00101EB0010616889006C
:10247000B0FBF1F7FEF708FF00EBC00101EB001025
:1024800061688900B0FBF1F0B0FBF5F06FF0180166
:10249000484307EB800108EB0110B0FBF5F000F0BA
:1024A0000F00A9E7001401400010014090F8391016
:1024B000212901D0022070478168B1F5805F016A4F
:1024C0000BD04A1C0262026809785160C18C491E17
:1024D0000904090CC1840ED017E009880268C1F311
:1024E0000801516001690029016A02D0491C01629A
:1024F000ECE7891CFBE70168CA6822F08002CA6029
:102500000068C16841F04001C160002070470000D0
:102510002DE9F0412A48FFF7EBF90622294928481E
:10252000FFF7CEFA284C2748284923685B1C236014
:1025300002780A7046784E7087788F702449C57883
:10254000062B0D7090F804C081F801C040798870A6
:1025500033D1303A02EBC20101EB02111D4A06EB06
:10256000860307EB810102EB430319441A4B303D0C
:10257000196005EBC50303EB051300EB83000CEBBF
:102580008C0302EB43021044144A154D154B1060A6
:102590002A781B789A420ED000EE100A9FED121A8C
:1025A000F8EEC00A00EE101AB8EEC00AFFF77CFC85
:1025B0000E480078287000202060BDE8F0810000FF
:1025C0006C0100206E0000206400002068000020E4
:1025D0006B000020F0FDFFFF5C0000206000002089
:1025E00000000020913B00080000C8C2903B00089A
:1025F00003B401984100009850EAC12018BF04209C
:102600004A0D18BF40F0010040F2FF72B2EB515F7B
:1026100008BF40F00200012808BF052002B0704743
:1026200010B52F499FED2C1B2DED020B84B00598A2
:1026300020F000408842D8BF9DED040B2DDD2949D4
:10264000884209D1049840B94FF0010000F0D4FC51
:1026500000F0A2FC06B010BD05DB9DED040B00F000
:102660008FFC06B010BD68469DED040B00F0A0F88D
:1026700010F0030004BF9DED021B9DED000B0CD07C
:1026800001280ED09DED021B9DED000B022817D0F6
:10269000012000F0DDFB06B010BD00F0A5FA06B089
:1026A00010BD9DED021B9DED000B012000F0D0FB45
:1026B00051EC100B81F0004106B041EC100B10BD45
:1026C00000F092FA51EC100B81F0004106B041ECA1
:1026D000100B10BD00000000000000000000000012
:1026E000FB21E93F0000F07F10B52F499FED2C1B27
:1026F0002DED020B84B0059820F000408842DCBF2D
:1027000000209DED040B32DD2849884209D1049850
:1027100040B94FF0010000F06FFC00F03DFC06B046
:1027200010BD05DB9DED040B00F02AFC06B010BDCA
:1027300068469DED040B00F03BF810F0030011D04B
:10274000012818D09DED021B9DED000B02281AD028
:1027500000F04AFA51EC100B81F0004106B041EC58
:10276000100B10BD9DED021B9DED000B012000F034
:102770006FFB06B010BD9DED021B9DED000B00F040
:1027800033FA06B010BD012000F062FB51EC100BD3
:1027900081F0004106B041EC100B10BD00000000BC
:1027A0000000000000000000FB21E93F0000F07F76
:1027B0002DE9F14F04462DED020B2DED088B8AB06B
:1027C0009FEDE70B80ED020B139EE74826F00045D6
:1027D00085420ADC9DED120B002084ED000B0AB04F
:1027E000BDEC088B03B0BDE8F08FE0489FEDE0AB97
:1027F0009FEDE1BBA84247DDE14F9FEDE39B9FEDDD
:10280000E48B9DED120B53EC1A2B51EC100B002EA8
:102810001CDDFDF737FE41EC100BBD4208D053EC38
:102820001B2B51EC100BFDF72DFEC4E900010BE052
:1028300053EC192B51EC100BFDF724FE53EC182B25
:10284000FDF720FEC4E900010120C8E7FDF779FD8E
:1028500041EC100BBD4208D053EC1B2B51EC100B7C
:10286000FDF76FFDC4E900010BE053EC192B51ECAF
:10287000100BFDF766FD53EC182BFDF762FDC4E964
:1028800000014FF0FF30AAE7C348A84279DB9DED75
:10289000120B51EC100B00F0C9FB41EC180B9FED33
:1028A000C00B53EC102BFDF7F3FD9FEDBF1B53EC5A
:1028B000112BFDF746FDFEF722F80746FEF701F85B
:1028C00041EC190B53EC1A2BFDF7E2FD53EC182BDE
:1028D000FDF7DBFD41EC180B53EC1B2B51EC190BF6
:1028E000FDF7D6FDDFF8C8A241EC100B4FEA1558F2
:1028F0000125FA4453EC102B51EC180BFDF7C2FDE7
:10290000032DC4E900013DD0C1F30A5005EB451188
:10291000A8EB00001139814234DA0AEB051BB0EE56
:1029200048AA9BED000BF0EE68AA53EC102B51EC7B
:10293000190BFDF7ADFD41EC1B0B51EC1A0B53ECE1
:102940001B2BFDF79FFD41EC180B51EC1A0B53ECC0
:10295000182BFDF797FD53EC1B2BFDF793FD9BED1B
:10296000020B41EC1A0B53EC102B51EC190BFDF739
:102970008FFD53EC1A2BFDF785FD41EC100B6D1C00
:10298000B8E70EE0002EA8BF3846BFF628AF94ED9A
:10299000000B51EC100B81F00041C4E900017842BA
:1029A0001DE7C6F3130040F4801EC6F30A50A0F2E0
:1029B000F530471100F01F05C5F12000DDF848B0E3
:1029C00008900020069007900520EC467949002DDC
:1029D00007EB0002794408BF51F8221009D051F8E2
:1029E000223001EB8201AB404A68089922FA01F1DA
:1029F0001943A1FB0E26A1FB0B131A449A4234BFC4
:102A00000123002303EB06080CEB8003D3E901A6A6
:102A10000E448E4234BF0121002192448A4411B1F8
:102A2000924502D903E0924501D2012100E0002144
:102A3000C3E901A641444CF82010011EA0F1010099
:102A4000C4DC029800F10050850F0298DDE90367AD
:102A50008000DDF81480FDF734FF41EC1A0B30469E
:102A6000FDF740FF9FED541B53EC112BFDF710FDBC
:102A700041EC1B0B3846FDF735FF9FED511B53EC26
:102A8000112BFDF705FD41EC180B4046FDF72AFF21
:102A90009FED4D1B53EC112BFDF7FAFC41EC190B8C
:102AA00051EC180B53EC192BFDF74BFC53EC1B2B83
:102AB000FDF747FC53EC1A2BFDF743FCCDE9080169
:102AC000002008909DED080B53EC1A2B51EC100BD5
:102AD000FDF7D8FC53EC1B2BFDF7D4FC53EC182B63
:102AE000FDF7D0FC53EC192BFDF7CFFC9FED381B05
:102AF00053EC112BFDF7CCFC9FED370B41EC180B81
:102B000053EC102B9DED080B51EC100BFDF7C0FCA6
:102B100053EC182BFDF715FC9FED310B41EC180B16
:102B200053EC102B9DED080B51EC100BFDF7B0FC96
:102B300053EC182BFDF705FC41EC100B139810F02B
:102B4000004F06D06D4251EC100B81F0004141EC7A
:102B5000100B284684ED000B41E600000000000049
:102B60000000000000000000FB21E93F7CD902408A
:102B700000004054FB21F93F3163621A61B4D03D3B
:102B8000FB21F93F000000000000601A61B4D03D55
:102B90007370032E8A19A33BFB213941000000000A
:102BA00083C8C96D305FE43F000000000000E03FD3
:102BB00062130000B0120000000000000000103E90
:102BC000000000000000103C000000000000103A6F
:102BD000182D4454FB21F93D3326A611460B113C18
:102BE00000000054FB21F93D10B52DED040B2DED37
:102BF000088B82B0B0EE419AF0EE619A0B9820F00B
:102C000000449FED4BABB4F1795F11DA9DED0A0BF7
:102C100051EC100BFDF773FE002801BFB0EE4A0A1D
:102C2000F0EE6A0A02B0BDEC088B04BF04B010BD20
:102C30009DED0A0B53EC102B51EC100BFDF728FC0B
:102C400041EC180B3C480621B0EE480AF0EE680A49
:102C5000784400F081F853EC182B51EC100BFDF781
:102C600017FC9DED0A0B41EC1B0B53EC192B51EC9F
:102C7000100BFDF70DFC41EC190B53EC1B2B51EC29
:102C8000180BFDF705FC53EC192BFDF7FBFB9FED33
:102C90002C0B41EC190B53EC102B51EC180BFDF7DE
:102CA000F7FB41EC100B2848844210DA53EC192B47
:102CB00051EC100BFDF7E6FB53EC1A2BFDF7E5FB8F
:102CC00041EC100B02B0BDEC088B04B010BD1F48E6
:102CD000A042BCBF9FED1E1B8DED001B06DBA4F5C3
:102CE00000100190002000909DED001B51EC100B96
:102CF00053EC112BFDF7C6FB9DED000B41EC180BBF
:102D000053EC102B51EC1A0BFDF7BCFB41EC1A0BEA
:102D100053EC192B51EC180BFDF7B4FB53EC1A2BA9
:102D2000FDF7B3FB41EC100BCCE700000000000006
:102D3000000000000000F03FD40F00000000000081
:102D4000000000000000E03F3333D33F0000E93FC4
:102D5000000000000000D23F70B504462DED028B4C
:102D60004D1E00EBC500B0EE408AF0EE608A90ED9B
:102D7000000B35F0060017D053EC182B51EC100B5C
:102D8000FDF786FB41EC100B6D1E04EBC50090EDCA
:102D9000001B51EC100B53EC112BFDF7D2FA41EC58
:102DA000100B35F00600E7D1022D36D0042D1CD0D3
:102DB000062D1CBFBDEC028B70BD53EC182B51ECE3
:102DC000100BFDF765FB94ED0A1B53EC112BFDF77F
:102DD000B8FA53EC182BFDF75BFB94ED081B53EC92
:102DE000112BFDF7AEFA41EC100B53EC182B51EC04
:102DF000100BFDF74DFB94ED061B53EC112BFDF76B
:102E0000A0FA53EC182BFDF743FB94ED040B53ECA5
:102E1000102BFDF796FA41EC100B53EC182B51ECEC
:102E2000100BFDF735FB94ED021B53EC112BFDF756
:102E300088FA53EC182BFDF72BFB94ED001B53EC99
:102E4000112BFDF77EFABDEC028B41EC100B70BD2F
:102E500031B504462DED040B2DED0A8BB0EE41BAD1
:102E6000F0EE61BA0B989DED0A0B20F00040B0F136
:102E7000795F0DDA51EC100BFFF7BAFB042808BF9D
:102E800000F09AF89DED0A0BBDEC0A8B05B030BD41
:102E900053EC102B51EC100BFDF7FAFA41EC180B28
:102EA0009DED0A0B53EC182B51EC100BFDF7F0FACB
:102EB00041EC190B2C48B0EE480AF0EE680A0521E7
:102EC0007844FFF749FF9FED2ACBB0EE40AAF0EE21
:102ED00060AA9CB353EC1C2B51EC190BFDF7D8FAEC
:102EE00041EC1C0B53EC1A2B51EC190BFDF7D0FAEB
:102EF0009FED210B41EC190B53EC102B51EC1B0BEC
:102F0000FDF7C6FA53EC192BFDF7BCFA53EC182B5E
:102F1000FDF7BEFA53EC1B2BFDF7B4FA53EC1C2B58
:102F2000FDF7B0FA9DED0A1B53EC112BFDF7ADFA3E
:102F3000BDEC0A8B05B041EC100B30BDFFE753EC44
:102F40001A2B51EC180BFDF7A3FA53EC1C2BFDF7D1
:102F5000F8F953EC192BFDF79BFA9DED0A1B53EC86
:102F6000112BFDF7EEF9E3E75C0E00000000000016
:102F7000495555555555C5BF000000000000E03FBC
:102F800010B553EC102B51EC100BFDF7DAF941ECB6
:102F9000100B10BD000000009FED050B10B553ECA9
:102FA000102B51EC100BFDF71DFC41EC100B10BD6C
:102FB00000000000000000009FED050B10B553EC71
:102FC000102B51EC100BFDF763FA41EC100B10BD08
:102FD000000000000000001002E008C8121F08C135
:102FE000002AFAD170477047002001E001C1121F8A
:102FF000002AFBD1704700000149086070470000BB
:10300000E400002010B50748FDF772FE0548FDF703
:103010001FFE05496428486101DA012010BD002027
:1030200010BD0000E80000200000002082B0CDE9C3
:10303000000121F0004001909DED000B02B051EC29
:10304000100B7047A0B0FDF78DFFFEF7CBFFFEF72A
:1030500087FD3B4C3948002520604FF41650C4E9E9
:1030600001050C20E560C4E90450A5612046E56136
:10307000FEF7C6FC00B1FEE7314832493C3801603A
:103080000221C0E90115C160FEF72AFB00B1FEE78D
:103090002B481E951EA93C381F95FEF7F9FA00B182
:1030A000FEE7FEF733FD2068C16841F02001C160F2
:1030B000142225496846FDF732F90021684600F0E0
:1030C00063F8224C20491422A061143105A8FDF7B1
:1030D00026F9002105A800F057F81B49E0611422E9
:1030E00028310AA8FDF71BF900210AA800F04CF8C6
:1030F0001549206214223C310FA8FDF710F9002178
:103100000FA800F041F8104960621422503114A851
:10311000FDF705F9002114A800F036F80A49A0626D
:103120001422643119A8FDF7FAF8002119A800F05B
:103130002BF8E06200F019F8FEE7000000440040C0
:103140006C01002000100040943B000800000020AB
:1031500001460020842900D0C81C704710B500B972
:10316000012000F0FFFA002010BD10B500F020FB98
:10317000002010BD10B500F037FC012803D0BDE8D9
:10318000104000F0EFBB10BD3EB504460D46B0F94F
:103190000800FFF7DDFF02A9CDE90001208A2B46D8
:1031A00082B2D4E9001000F0F3FB012801D0002026
:1031B0003EBD02983EBD00002DE9F041184C0F467F
:1031C0000546E6682068001D00F016FA38B9206848
:1031D00090F82C1001208840216981432161681CEE
:1031E00007D137B12168BDE8F0410E48091D00F054
:1031F0003BBA20683544B5424560216805D2A06BD2
:10320000BDE8F041091D00F017BA606B091D00F020
:1032100013FAA06A854200D2A562BDE8F0810000E1
:10322000A8000020C43E00202DE9F041054600F032
:1032300027FA2E4CA068401CA06020682C4F10B1CB
:10324000606940B32DE02560A068012829D10026DF
:1032500006EB860007EB800000F0E0F9761C072EF5
:10326000F6D323488C3000F0D9F92148A03000F083
:10327000D5F91F48B43000F0D1F91D48C83000F02E
:10328000CDF91B48DC3000F0C9F919488C30606377
:103290001430A06305E02068E96AC06A884200D85B
:1032A0002560606A401C6062E96A012022698840EA
:1032B0001043206101EB810007EB8000291D00F025
:1032C000D3F900F0FDF9606900280CD02068E96AA4
:1032D000C06A884207D207494FF080500860BFF3A8
:1032E0004F8FBFF36F8FBDE8F0810000A800002072
:1032F000E83D002004ED00E070B5114E114C17E0E0
:1033000000F08AFA3068B8B100F0E0FB00F0B8F9DC
:10331000F068C568281D00F06FF9A068401EA06025
:103320006068401E606000F0CBF9284600F00CF8A1
:1033300060680028E4D170BD00F0C8FBF8E7000029
:10334000B03E0020A800002010B50446006B00F03D
:10335000CBF92046BDE8104000F0C6B910484FF444
:103360007051420706D0C01D0D4920F00700411AD8
:10337000C1F570510B4A00230144C2E9000308392A
:10338000103A21F0070111604B600B600B1AC0E985
:10339000001393604FF000405360D060704700000E
:1033A000E801002094000020074C4FF08056074DA4
:1033B000FFF7A2FF20680128FAD92E60BFF34F8FD4
:1033C000BFF36F8FF4E70000E83D002004ED00E05C
:1033D0002DE9F0479A46DDE9098481466FF0030341
:1033E000206B03EB82021044089D20F00706700753
:1033F00007D0502080F31188BFF34F8FBFF36F8F3A
:10340000FEE723180A5C83F834200A5C12B1401CE2
:103410001028F6D3002784F84370072D00D3062523
:10342000E562C4E91157201D00F003F904F118000A
:1034300000F0FFF82461C5F107006462A061E76451
:1034400084F8507052464946304600F0BFF820607C
:10345000B8F1000F01D0C8F80040BDE8F0870000C7
:1034600030B5114900E011460A688242FBD34B682F
:103470005C18844203D14068184448600846436899
:103480001C18944209D1084C103C2468A24209D06F
:1034900052681A4442600A6812680260814200D091
:1034A000086030BD0460F9E7940000200648416BD5
:1034B000096829B1416BC968C96849688162704768
:1034C0004FF0FF31FAE70000A800002008484068EC
:1034D000401C4FF0500080F3118804D0BFF34F8F91
:1034E000BFF36F8FFEE7BFF34F8FBFF36F8FFEE722
:1034F0009C0000202DE9F0410546002700F08CF9E2
:10350000314E306808B9FFF729FFF06805424BD10A
:10351000C5B3083568070ED005F00700C0F10800F4
:103520000544680707D0502080F31188BFF34F8F00
:10353000BFF36F8FFEE72DB37068854234D8224801
:10354000103001460C6801E020460C466168A94233
:1035500002D221680029F7D131688C4224D0076853
:103560002168016060680837411B10290FD9601974
:10357000420708D0502080F31188BFF34F8FBFF36C
:103580006F8FFEE710E041606560FFF769FF6168DB
:103590007068401A7060B268904200D2B060F06803
:1035A00001430020C4E9000100F090FA780707D039
:1035B000502080F31188BFF34F8FBFF36F8FFEE76A
:1035C0003846BDE8F08100008400002010B5031FDC
:1035D0004FF080741C601B1F21F001011960191F3E
:1035E000044B0B6014390A60091F6FF00202443863
:1035F0000A6010BDCD340008D0E9013201699A603B
:10360000D0E901235A604A68824201D182684A6047
:10361000002202610868401E0860704700F108013E
:103620004FF0FF32C0E90112C16001610021016069
:10363000704700210161704730B50B685A1C02D0F9
:1036400000F1080202E0026904E02246546825689D
:103650009D42FAD953684B6099608A605160086155
:103660000168491C016030BD42684A6093688B6004
:1036700093685960916008610168491C0160704756
:10368000502080F31188BFF34F8FBFF36F8F0A492B
:103690004868401C486001280CD10848006810F0B8
:1036A000FF0F07D0502080F31188BFF34F8FBFF377
:1036B0006F8FFEE7704700009C00002004ED00E0E3
:1036C0000849486828B1401E486001D180F311883C
:1036D0007047502080F31188BFF34F8FBFF36F8F77
:1036E000FEE700009C00002070B5002827D0144D94
:1036F000A0F108046168E868014207D1502080F316
:103700001188BFF34F8FBFF36F8FFEE722683AB186
:10371000502080F31188BFF34F8FBFF36F8FFEE708
:103720008143616000F078F8606869680844686007
:103730002046FFF795FEBDE8704000F0C7B970BDA8
:103740008400002006484FF47A710068B0FBF1F164
:103750004FF0E020491E41610721016170470000E0
:103760008000002010B5020014D00F48006B38B163
:10377000502080F31188BFF34F8FBFF36F8FFEE7A8
:1037800000F04AF800211046FFF716FD00F09EF900
:10379000002807D105494FF080500860BFF34F8FD4
:1037A000BFF36F8F10BD0000A800002004ED00E003
:1037B0001CB515480024CDE900402346802213A102
:1037C000144800F0E5F8012809D0401C1AD1502017
:1037D00080F31188BFF34F8FBFF36F8FFEE7502048
:1037E00080F31188BFF34F8FBFF36F8F06484FF000
:1037F000FF312C38816201214161C460BDE81C4069
:1038000000F040B81CBD0000D400002049444C45E5
:1038100000000000A93300080248016B491C016345
:1038200070470000A80000201448016B11B101216D
:10383000C16170470021C1610169B1FA81F1C1F133
:103840001F0101EB81020E4951F822306BB101EBEF
:10385000820101F108034A6852684A609A4201D124
:1038600052684A60D16801607047502080F3118827
:10387000BFF34F8FBFF36F8FFEE70000A80000205B
:10388000E83D00201CB532480168324A914207D118
:10389000502080F31188BFF34F8FBFF36F8FFEE787
:1038A00000682C49491E884207D1502080F31188B6
:1038B000BFF34F8FBFF36F8FFEE727490878019062
:1038C000FF20087008788DF800009DF800009DF832
:1038D000002000F0F000904207D0502080F31188C3
:1038E000BFF34F8FBFF36F8FFEE79DF800001B4AB9
:1038F00000F0500010700720906005E09DF8003047
:103900005B008DF80030401E9DF800301B06F5D49A
:10391000000200F4E0609060019808700C482030CC
:10392000016841F470010160016841F0704101607B
:10393000FFF708FF00205060FCF770FC08480168A2
:1039400041F040410160FCF759FC00201CBD000023
:1039500000ED00E071C20F4100E400E09C00002097
:1039600034EF00E010B5502080F31188BFF34F8F83
:10397000BFF36F8F00F046F818B104494FF0805044
:103980000860002080F3118810BD000004ED00E005
:103990002DE9FF5F8346DDE90E87994616468A4684
:1039A0009000FFF7A7FD05001AD05420FFF7A2FDF5
:1039B000040012D025630021CDE90241CDE9008742
:1039C0004B46324651465846FFF702FD2046FFF768
:1039D0002BFC012004B0BDE8F09F2846FFF784FED1
:1039E0004FF0FF30F6E700000548416919B1006B60
:1039F00018B1002070470120704702207047000076
:103A0000A80000202DE9F0412E4C0027206B40B18A
:103A1000A069401CA061E06900B101273846BDE8FB
:103A2000F081E668761CE66013D1606B006838B1FF
:103A3000502080F31188BFF34F8FBFF36F8FFEE7E5
:103A4000606BA16B6163A063206A401C2062FFF77A
:103A50002DFDA06ADFF87080864209D3606B006894
:103A600080B1606BC068C568686886420DD2A0628C
:103A70002068C06A00EB800158F821000128CAD9EB
:103A80000127C8E74FF0FF30F1E7281DFFF7B4FD2D
:103A9000A86A18B105F11800FFF7AEFDE86A012128
:103AA000226981401143216100EB800108EB810014
:103AB000291DFFF7D9FDE86A2168C96A8842CDD37C
:103AC0000127CBE7A8000020E83D00202DE9F047C2
:103AD0002C4D00242746286B38B1FFF7D1FD286B09
:103AE000401E2863286B40B146E0502080F31188C7
:103AF000BFF34F8FBFF36F8FFEE7A968224E0120FF
:103B0000D1B3A6F1B40980463068E8B1F068C46862
:103B100004F11800FFF770FD201DFFF76DFDE06A4E
:103B20002A6908FA00F11143296100EB800109EBD1
:103B30008100211DFFF798FDE06A2968C96A884263
:103B4000E2D3C5F81C80DFE70CB1FFF7AFFCAC692E
:103B500044B14646FFF756FF00B1EE61641EF9D14D
:103B60000020A861E86938B10849012738070860D2
:103B7000BFF34F8FBFF36F8FFFF7A2FD3846BDE84D
:103B8000F0870000A80000209C3E002004ED00E02B
:103B900062630000983D0008C91E00080000000094
:103BA0000000000080000000483D0008D11E000811
:103BB000000000000000000080000000583D0008E8
:103BC000C91F000800000000000000008000000085
:103BD000683D0008D11F0008FDFF00000000000044
:103BE00080000000783D0008D91F0008FDFF00009C
:103BF0000000000080000000883D0008411C000813
:103C00000000000000000000800000000000000034
:103C1000000000000102030406070809000000007C
:103C200001020304000000004C5555555555A53FB1
:103C30007751C1166CC156BF9015CB19A001FA3E41
:103C4000AD529C804F7E92BEC4B1B4BD9EEE213E6B
:103C5000D43888BEE9FAA8BD00004054FB21F93FE2
:103C60003163621A61B4D03D0000601A61B4D03D86
:103C70007370032E8A19A33B0000002E8A19A33B00
:103C8000C14920259A837B39000000000000000014
:103C90006E83F9A22915444ED15727FCC0DD34F5B7
:103CA000999562DB4190433CAB6351FE61C5BBDE3D
:103CB0003A6E24B7E0D24D42EA2E49061C92D10951
:103CC0001CEB1DFE3EA729B1F53582E88444BB2ECE
:103CD00026709CE9417E5FB439D69139F43953831B
:103CE0008B5F849C3B28F9BDFF97F81F0F9805DE7A
:103CF0008B112FEF1F6D0A5ACF7E366DB709CB2778
:103D0000663F464F2DEA5F9EC7BA27757BF1E5EB0C
:103D1000F739073DEA92528AB15FFB6B085D8D1F50
:103D2000A6F810111111813FD561C119A0012ABF58
:103D30007DFEB157E31DC73EEB9C2B8AE6E55ABEDC
:103D40007CD5CF5A3AD9E53D5374657070657231B0
:103D50005F5461736B00000053746570706572325C
:103D60005F5461736B00000053746570706572334B
:103D70005F5461736B00000053746570706572343A
:103D80005F5461736B0000004D61696E5F41726D3D
:103D90005F5461736B00000064656661756C7454F8
:103DA00061736B00C43D000800000020E8000000C3
:103DB000D82F0008AC3E0008E8000020F0410000C9
:103DC000E82F000861000000000000000000000073
:103DD00000000000000000000000000000000000E3
:103DE00000000000000000000000000000000000D3
:103DF00000000000000000000000000000000000C3
:103E000000000000000000000000000000000000B2
:103E100000000000000000000000000000000000A2
:103E20000000000000000000000000000000000092
:103E30000000000000000000010000001000000071
:103E4000000000000024F40000000000000000005A
:103E50000000000000000000000000000000000062
:103E600000000000AAAAAAAA0000000000000000AA
:103E70000000000000000000000000000000000042
:103E80000000000000000000000000000000000032
:103E90000000000000000000000000000000000022
:0C3EA00000000000000000000000000016
:04000005080001C925
:00000001FF
