:020000040800F2
:10000000A8040020DD010008E5010008E701000860
:10001000E9010008EB010008ED0100080000000004
:10002000000000000000000000000000EF010008D8
:10003000F101000800000000F3010008A51000080D
:10004000F7010008F7010008F7010008F7010008B0
:10005000F7010008F7010008F7010008F7010008A0
:10006000F7010008F7010008F7010008F701000890
:10007000F7010008F7010008F7010008F701000880
:10008000F7010008F7010008F70100080000000070
:10009000000000000000000000000000F701000860
:1000A000F7010008F7010008F7010008F701000850
:1000B000000000000000000000000000F701000840
:1000C000F7010008F7010008F7010008F701000830
:1000D000F7010008F7010008D5150008000000002E
:1000E000F7010008F7010008000000000000000010
:1000F000000000000000000000000000F701000800
:100100000000000000000000F701000800000000EF
:100110000000000000000000A51100080000000021
:10012000F7010008F7010008F7010008F7010008CF
:10013000F7010008000000000000000000000000BF
:1001400000000000000000000000000000000000AF
:10015000F7010008F7010008F7010008F70100089F
:10016000000000000000000000000000000000008F
:10017000000000000000000000000000000000007F
:10018000F7010008F701000800000000000000006F
:1001900000000000F701000800000000000000005F
:1001A000000000000000000000000000000000004F
:1001B000000000000000000000000000F70100083F
:1001C000F7010008F7010008DFF80CD000F068F82C
:1001D0000048004799160008A804002006488047F8
:1001E00006480047FEE7FEE7FEE7FEE7FEE7FEE71C
:1001F000FEE7FEE7FEE7FEE751110008C90100082F
:100200002DE9F05F0546002092469B46884606464B
:10021000814640241BE0284641464746224600F0DE
:100220002FF853465A46C01A914110D3114618462A
:10023000224600F016F82D1A67EB01084F462246B9
:100240000120002100F00DF817EB00094E41201E9F
:10025000A4F10104DFDC484631462A464346BDE8A6
:10026000F09F202A04DB203A00FA02F100207047B8
:100270009140C2F1200320FA03F3194390407047E4
:10028000202A04DB203A21FA02F00021704721FAEB
:1002900002F3D040C2F12002914008431946704752
:1002A000064C074D06E0E06840F0010394E80700C3
:1002B00098471034AC42F6D3FFF78AFF8417000842
:1002C000A4170008002104E00222521C1A2AFCDBB9
:1002D000491C8142F8DB704790F83510022903D0A1
:1002E0008021416501207047052180F835100068A4
:1002F000016821F001010160002070472DE9F84FED
:10030000DFF84CB100224FF001084FF0030A4FF024
:100310000F090BF1040E00BF0B6808FA02F423402A
:10032000A3427DD14D68022D01D0122D0ED1D508EA
:1003300000EB850CDCF820505607F70E09FA07F69B
:10034000B5430E69BE402E43CCF8206006685500C8
:100350000F790AFA05FC07F0030726EA0C06AF40FE
:10036000374307604E68012E05D0022E03D0112EB0
:1003700001D0122E0ED18768CE6827EA0C07AE4056
:100380003E4386604668A6430C79C4F3001494404B
:1003900034434460C4688E6824EA0C04AE402643AB
:1003A000C6604C68E4004DD52A4C256845F480456C
:1003B0002560246822F0030504F480440094264C50
:1003C0002E19D6F8084895072F0F09FA07F5AC4300
:1003D000224DA84201D100250AE0214DA84201D1B9
:1003E000012505E01F4DA84201D1022500E00725A7
:1003F000BD402543C6F80858DBF800405D464E680E
:100400009C43F60300D51C432C60DEF80040754683
:100410004E689C43B60300D51C432C600C4D00E095
:1004200010E008352C684E689C43F60200D51C434A
:100430002C60074D0C352C684E689C43B60200D5E5
:100440001C432C60521C102AFFF466AFBDE8F88FE5
:10045000003C0140443802400030014000000240AE
:1004600000040240000802400AB18161704709049B
:10047000FBE700000148806870470000180000207A
:10048000024881680278114481607047180000209A
:100490000B4810B5016841F400710160016841F436
:1004A00080610160016841F480710160032000F007
:1004B00097F8002000F006F800F024F8002010BDA6
:1004C000003C024070B50D4D04464FF47A71287817
:1004D000B1FBF0F00A490968B1FBF0F000F01FFB36
:1004E00048B9102C07D200222146501E00F058F8BF
:1004F00000206C6070BD012070BD0000180000205D
:10050000240000201F4808B5016841F480410160C3
:10051000006800F4804000901A48001F016841F014
:1005200080510160006800F080500090032000F0CE
:1005300057F8002211466FF00B0000F031F800224E
:1005400011466FF00A0000F02BF8002211466FF000
:10055000090000F025F800221146501F00F020F895
:1005600000221146101F00F01BF800221146901EB9
:1005700000F016F80022BDE808401146501E00F0B9
:100580000FB800004438024000F01F0201219140E2
:100590004009800000F1E020C0F800117047000021
:1005A000F0B40E4B1B680C46C3F30223C3F10705DE
:1005B000042D00D90425191D072901D2002300E0CC
:1005C000DB1E012606FA05F1491E214099409E4096
:1005D000761E16403143F0BC00F054BD0CED00E037
:1005E000064900F0070208684FF6FF03184040EA8A
:1005F0000220034A10430860704700000CED00E041
:100600000000FA052DE9F0470E46050065D0DFF839
:100610001481D8F80000F7B200F00F00B04207D202
:1006200088F80070D8F8000000F00F00B04254D1F4
:1006300028683D4C810712D5400703D5206840F457
:10064000E05020602878000703D5206840F460401F
:1006500020602068A96820F0F00008432060287816
:10066000C0072DD0304968680839012812D0022807
:1006700013D0032811D00968890700292DDA2168D1
:1006800021F0030101432160FFF7F4FE814641F2AE
:10069000883A0EE009688903EFE709688901ECE709
:1006A000FFF7E8FEA0EB0901514502D90320BDE8A0
:1006B000F0872068696800F00C00B0EB810FEFD183
:1006C000D8F80010404601F00F01B14207D9077079
:1006D000006800F00F00B04201D00120E7E7287861
:1006E000400705D52068E96820F4E0500843206001
:1006F0002878000706D52068296920F4604040EA80
:10070000C100206000F03CF82168084AC1F30311E1
:10071000515CC840064908600020FFF7D3FE002066
:10072000C5E70000003C0240083802406C17000892
:1007300024000020014800687047000024000020C9
:100740000448054900680968044AC1F38221515CE4
:10075000C840704724000020083802407C17000879
:100760000448054900680968044AC1F34231515CF4
:10077000C840704724000020083802407C17000859
:10078000154810B5006810F00C02144813D0411041
:10079000042A0FD0082A0ED10F4C241F2268236888
:1007A00002F03F025B0207D52068C0F38810A0FB6F
:1007B000010106E0084610BD2168C1F38811A1FBC4
:1007C00000010023FFF71CFD2168C1F30141491C12
:1007D0004900B0FBF1F010BD083802400024F400DD
:1007E0002DE9F84F05460078DFF800B3C04CC0078C
:1007F0004AD0DBF800105846C1F38101012908D026
:100800000068C0F3810002280AD1201D0068400260
:1008100006D52068800337D56868002872D033E099
:100820006868B0F5803F10D0B0F5A02F206810D0D8
:1008300020F480302060206820F4802020606868E8
:10084000A8B1FFF717FE06460DE0206840F480309F
:10085000F4E740F480202060F7E700BFFFF70AFECE
:10086000801B64286FD820688003F7D50CE0FFF761
:1008700001FE064605E000BFFFF7FCFD801B642873
:10088000F0D820688003F7D42878DFF868828007E2
:100890004FF0000940D5DBF80010584611F00C0F5E
:1008A00009D00068C0F3810002280BD18F48001FD7
:1008B0000068400206D42068800715D5E868012842
:1008C00020D111E0E868B8B10120C8F80000FFF7B6
:1008D000D1FD064605E000BFFFF7CCFD801B0228D6
:1008E000C0D820688007F7D52068296920F0F80073
:1008F00040EAC10020600FE0C8F80090FFF7BAFDA1
:10090000064606E0EFE000BFFFF7B4FD801B0228BB
:1009100019D820688007F7D42878000722D5734EAD
:10092000754869696C3679B101210160FFF7A2FD54
:10093000074604E0FFF79EFDC01B022803D830687D
:100940008007F7D50EE089E0C0F80090FFF792FD30
:10095000074604E0FFF78EFDC01B02287ED83068F2
:100960008007F7D42878400768D5DFF880A10027F2
:100970000AF1380ADAF80000C0000BD4DAF80010E7
:1009800041F08051CAF80010DAF80000012700F0A9
:1009900080500090594E3068C00510D4306840F443
:1009A00080703060FFF766FD009005E0FFF762FDA4
:1009B0000099401A022851D83068C005F6D54B4E30
:1009C000A868683601280FD00528306810D020F0BC
:1009D00001003060306820F004003060A868B8B1D1
:1009E000FFF748FD00900FE0306840F00100F4E7A9
:1009F00040F004003060F7E7FFF73CFD0099411A32
:100A000041F28830814266D830688007F4D50EE024
:100A1000FFF730FD009007E0FFF72CFD0099411A29
:100A200041F28830814256D830688007F4D42FB123
:100A3000DAF8001021F08051CAF80010A869D0B38C
:100A4000DBF80010C1F3810102294CD0022848468E
:100A500007D0C8F86000FFF70DFD00E03BE0054659
:100A60003CE04746C8F86000FFF704FD064604E096
:100A7000FFF700FD801B02282DD820688001F7D4E5
:100A8000F5E907010843E9681D4A490802EB0141FD
:100A9000AA6841EA82110843297C40EA0160297D65
:100AA00040EA01711148001F016001203866FFF71C
:100AB000E1FC054605E014E0FFF7DCFC401B0228E2
:100AC00009D820688001F7D50BE000BFFFF7D2FC02
:100AD000401B022802D90320BDE8F88F206880015E
:100AE000F4D40020F8E70120F6E7000008380240BF
:100AF0000038024000004742800E4742007000402C
:100B00000000FFFF4FF0E0210428086903D020F027
:100B100004000861704740F00400FAE7704710B520
:100B2000401EB0F1807F01D3012010BD4FF0E024C2
:100B300060610F21601700F0A5FA0020A061072076
:100B40002061002010BD10B5FFF7E8FF10BD704711
:100B5000704730B590F83820012A20D0012280F863
:100B60003820022380F8393003685C6824F0700470
:100B70005C6003685C680D682C435C6003689C687B
:100B800024F080049C6003689C6849680C439C6066
:100B900080F83920002180F83810084630BD022046
:100BA00030BD10B5040003D094F8390010B107E04F
:100BB000012010BD002084F83800204600F00CF819
:100BC000022084F83900211D206800F0F1FA01208C
:100BD00084F83900002010BD08B500680B49884230
:100BE00012D10B48016841F0100101600068002239
:100BF00000F01000009011463620FFF7D1FCBDE850
:100C000008403620FFF7C0BC08BD000000100040BF
:100C100040380240704770B50446006801694FF0E3
:100C20000005C943890715D4C168C943890711D490
:100C3000E91E016101202076206880698007204636
:100C400002D0FFF7E7FF04E000F098F8204600F03C
:100C500096F8257620680169C943490717D4C16809
:100C6000C943490713D46FF00401016102202076C3
:100C70002068806910F4407F204602D0FFF7CAFF49
:100C800004E000F07BF8204600F079F82576206833
:100C90000169C943090716D4C168C943090712D4B9
:100CA0006FF008010161042020762068C069800788
:100CB000204602D0FFF7AEFF04E000F05FF82046C8
:100CC00000F05DF8257620680169C943C90617D48C
:100CD000C168C943C90613D46FF01001016108202F
:100CE00020762068C06910F4407F204602D0FFF7CC
:100CF00091FF04E000F042F8204600F040F825762D
:100D000020680169C943C90708D1C168C943C90737
:100D100004D1891E0161204600F032F82068016983
:100D2000C943090609D4C168C943090605D46FF04F
:100D3000800101612046FFF70AFF20680169C9436D
:100D4000490609D4C168C943490605D46FF040017A
:100D50000161204600F015F820680169C943890641
:100D60000BD4C168C943890607D46FF02001016123
:100D70002046BDE87040FFF7EBBE70BD704770477E
:100D8000704770477047000070B5026804461068ED
:100D9000D168536910F00F0F50D003F0010501F432
:100DA000907635435DD0C20705D0CA0503D5E26B06
:100DB00042F00102E263420705D5DA0703D0E26B95
:100DC00042F00202E263820705D5DA0703D0E26B44
:100DD00042F00402E263020705D5DA0703D0E26BB2
:100DE00042F00802E263E26B002A33D0800604D5A9
:100DF000880602D5204600F01FFA20684069E16BA2
:100E0000C0F38010090700D428B3204600F006FA8A
:100E10002068416949061AD5416921F040014161C4
:100E2000606BA0B11B490165606BFFF755FA0028A4
:100E300010D0606B016DBDE870400847830610D587
:100E40008B060ED52046BDE8704000F0F5B920466F
:100E5000FFF798FF70BD2046FFF794FF0020E06386
:100E600070BD030606D50B0604D52046BDE87040CC
:100E700000F07EBB4006F3D54806F1D5D168204688
:100E800021F04001D160202184F8391000F089F868
:100E900070BD00000D12000870B5040004D094F875
:100EA0003900002510B106E0012070BD84F83850EB
:100EB000204600F023F8242084F839002068C16817
:100EC00021F40051C160204600F0FCF9206801695E
:100ED00021F4904101612068416921F02A014161BA
:100EE0002068C16841F40051C160E563202084F8A6
:100EF000390084F83A00002070BD000000B5006899
:100F0000124987B088421ED11148016841F400316E
:100F100001600068694600F4003005900C200090E4
:100F200002200190012002900320039007200490EA
:100F30000848FFF7E3F9002211462620FFF730FBAF
:100F40002620FFF721FB07B000BD00000044004051
:100F5000403802400000024090F83A30202B1DD16A
:100F6000D1B1CAB190F83830012B17D08162828597
:100F7000C2850021C163222280F83A2080F838100F
:100F800001684A6942F001024A610068C16841F49F
:100F90009071C160002070470120704702207047A7
:100FA000704770472DE9F047314886B0002401684A
:100FB00041F004010160016801F00401059101683C
:100FC00041F080010160016801F080010591016834
:100FD00041F001010160016801F001010591016822
:100FE00041F0020101600068DFF8888000F0020033
:100FF0004FF4EC650590002229464046FFF734FA8D
:10100000DFF874904FF48766002231464846FFF7B8
:101010002BFADFF868A04FF4C0670022394650462B
:10102000FFF722FA4FF4005000901548CDE9010473
:1010300069465046FFF762F900950125CDE9015454
:10104000694640460394FFF759F90096CDE90154EB
:10105000694648460394FFF751F90097CDE90154DA
:10106000694650460394FFF749F906B0BDE8F0879A
:1010700030380240000002400004024000080240F4
:10108000000021100907090E002806DA00F00F0001
:1010900000F1E02080F8141D704700F1E02080F896
:1010A0000014704710B5FFF7EBF9BDE81040FFF7EB
:1010B0004ABD000030B5244893B00025016841F0D6
:1010C00080510160006800F0805012901F48016854
:1010D00041F4404101600068022400F44040129055
:1010E0000120039010200490009406940820CDE97C
:1010F00007506420CDE909040420CDE90B046846BB
:10110000FFF76EFB00B1FEE70DA90F2081E831006B
:101110004FF48050CDE9100503210DA8FFF772FAB6
:1011200000B1FEE7FFF706FB4FF47A71B0FBF1F078
:10113000FFF7F5FC0420FFF7E5FC00221146501EE6
:10114000FFF72EFA13B030BD403802400070004067
:101150001048016841F4700101600F48016841F0D6
:10116000010101600C4A00210832116002680B4B3A
:101170001A400260031D0A4A1A60026822F48022A3
:10118000026005480C300160024958068039086049
:101190007047000088ED00E000380240FFFFF6FED7
:1011A000103000240148FFF736BD00002800002061
:1011B00030B50268114B124C984201D0A04203D1C5
:1011C00022F070054A682A43984207D0A04205D011
:1011D0000C4CA04202D00C4CA04203D122F440742B
:1011E000CA68224302608A68C2620A6882629842C0
:1011F00001D1096901630121416130BD0000014055
:10120000000C0040004001400048014010B5806BD8
:101210000021C185C184FFF7B5FD10BD0168CA6812
:1012200022F49072CA6001684A6922F001024A61A0
:10123000202180F83A10704710B590F83A10222912
:1012400001D0022010BD8168B1F5805F11D0016925
:10125000002901681FD0496801F07F03816A4A1C98
:1012600082620B70C18D491E0904090CC18518D01A
:1012700026E00269816A002A0268526805D0D2B26B
:101280000A80816A491C8162ECE7C2F308020A8085
:10129000816A891CF7E74A68816A4B1C83620A707D
:1012A000E0E70168CA6822F49072CA6001684A697E
:1012B00022F001024A61202180F83A10FFF770FE07
:1012C000002010BD2DE9F04104460068016921F4B9
:1012D0004052E168114301612168C86849F20C621B
:1012E00090432369A268E5691A4363692B431A4353
:1012F0000243CA602168486920F44072A069104323
:101300004861E1696425B1F5004F9748974A216823
:101310004FF032083FD0914201D081427CD1FFF79B
:101320001FFA00EBC00101EB001061688900B0FBFF
:10133000F1F6FFF715FA00EBC00101EB0010616850
:101340008900B0FBF1F0B0FBF5F06FF018014843F5
:1013500006EB800108EB0110B0FBF5F000F0F006A1
:10136000FFF7FEF900EBC00101EB00106168890096
:10137000B0FBF1F0B0FBF5F006EB0016FFF7F0F96B
:1013800000EBC00101EB001061688900B0FBF1F7D0
:10139000FFF7E6F9D2E0914201D081423DD1FFF75B
:1013A000DFF900EBC00101EB001061684900B0FB00
:1013B000F1F0B0FBF5F00601FFF7D2F900EBC00148
:1013C00001EB001061684900B0FBF1F7FFF7C8F9C5
:1013D00000EBC00101EB001061684900B0FBF1F0C7
:1013E000B0FBF5F06FF01801484307EB800108EB04
:1013F000C100B0FBF5F000F0F80006EB4006FFF787
:10140000AFF900EBC00101EB001061684900B0FBCF
:10141000F1F7FFF7A5F93CE055E0FFF791F900EB94
:10142000C00101EB001061684900B0FBF1F0B0FBB6
:10143000F5F00601FFF784F900EBC00101EB0010A5
:1014400061684900B0FBF1F7FFF77AF900EBC001E2
:1014500001EB001061684900B0FBF1F0B0FBF5F062
:101460006FF01801484307EB800108EBC100B0FBA7
:10147000F5F000F0F80006EB4006FFF761F900EB2D
:10148000C00101EB001061684900B0FBF1F7FFF704
:1014900057F900EBC00101EB001061684900B0FB97
:1014A000F1F0B0FBF5F06FF01801484307EB800155
:1014B00008EBC100B0FBF5F000F0070021683044F4
:1014C0008860BDE8F081FFF73BF900EBC00101EB5C
:1014D000001061688900B0FBF1F6FFF731F900EB0D
:1014E000C00101EB001061688900B0FBF1F0B0FBB6
:1014F000F5F06FF01801484306EB800108EB01108E
:10150000B0FBF5F000F0F006FFF71AF900EBC001B0
:1015100001EB001061688900B0FBF1F0B0FBF5F061
:1015200006EB0016FFF70CF900EBC00101EB001011
:1015300061688900B0FBF1F7FFF702F900EBC00129
:1015400001EB001061688900B0FBF1F0B0FBF5F031
:101550006FF01801484307EB800108EB0110B0FB66
:10156000F5F000F00F00A9E7001401400010014061
:1015700090F83910212901D0022070478168B1F517
:10158000805F016A0BD04A1C0262026809785160D0
:10159000C18C491E0904090CC1840ED017E00988CA
:1015A0000268C1F30801516001690029016A02D093
:1015B000491C0162ECE7891CFBE70168CA6822F05C
:1015C0008002CA600068C16841F04001C16000202B
:1015D000704700002DE9F0411F48FFF7D5FB0622B8
:1015E0001E491D48FFF7B8FC1D4D1C481D492B68BE
:1015F0005B1C2B6002780A7046784E7087788F707B
:101600001949C478062B0C7090F804C081F801C009
:10161000407988701ED1303A02EBC20101EB021111
:1016200007EB8102114906EB860301EB43031A44E1
:101630000F4B303C1A6004EBC40202EB041200EBC7
:1016400082000CEB8C0201EB42010844094908605E
:1016500000202860BDE8F081640000201200002016
:10166000080000200C0000200F000020F0FDFFFF0C
:10167000000000200400002002E008C8121F08C17A
:10168000002AFAD170477047002001E001C1121F03
:10169000002AFBD1704700001CB5FEF7F9FEFFF7EA
:1016A00009FDFFF77FFC1D4C1B48002520604FF40F
:1016B0001650C4E901050C20E560C4E90450A56199
:1016C0002046E561FFF7E8FB00B1FEE71348144947
:1016D0003C3801600221C0E90115C160FFF761FAE1
:1016E00000B1FEE70D48009569463C380195FFF7CB
:1016F00030FA00B1FEE72068C16841F02001C16006
:1017000040F2DC540121204600F00CF80021204674
:1017100000F008F8FEE700000044004064000020EC
:10172000001000402DE9F0410F4D0646CAB22021BD
:101730002846FEF799FE002440F28A2710E0012295
:1017400040212846FEF790FE3846FEF7BBFD0022FA
:1017500040212846FEF788FE3846FEF7B3FD641C9C
:10176000B442ECDBBDE8F081000002400000000064
:101770000000000001020304060708090000000041
:1017800001020304A4170008000000202800000044
:1017900078160008CC1700082800002080040000FC
:1017A0008816000800000000000000000000000093
:1017B0000000000000000000000000000100000028
:0C17C00010000000000000000024F400F5
:04000005080001C925
:00000001FF
