:020000040800F2
:100000001043002099020008A1020008A302000882
:10001000A5020008A7020008A902000800000000CD
:10002000000000000000000000000000DD010008EA
:10003000AD0200080000000031020008452600085B
:10004000B3020008B3020008B3020008B3020008BC
:10005000B3020008B3020008B3020008B3020008AC
:10006000B3020008B3020008B3020008B30200089C
:10007000B3020008B3020008B3020008B30200088C
:10008000B3020008B3020008B30200080000000039
:10009000000000000000000000000000B3020008A3
:1000A000B302000839270008B3020008B3020008B1
:1000B000000000000000000000000000B302000883
:1000C000B3020008B3020008B3020008B30200083C
:1000D000B3020008B3020008752B000800000000FE
:1000E000B3020008B3020008000000000000000096
:1000F000000000000000000000000000B302000843
:100100000000000000000000B30200080000000032
:10011000000000000000000045270008000000006B
:10012000B3020008B3020008B3020008B3020008DB
:10013000B302000800000000000000000000000002
:1001400000000000000000000000000000000000AF
:10015000B3020008B3020008B3020008B3020008AB
:10016000000000000000000000000000000000008F
:10017000000000000000000000000000000000007F
:10018000B3020008B30200080000000000000000F5
:1001900000000000B30200080000000000000000A2
:1001A000000000000000000000000000000000004F
:1001B000000000000000000000000000B302000882
:1001C000B3020008B3020008DFF80CD000F0C8FB4F
:1001D00000480047753D0008104300202B4B19686C
:1001E0000868B0E8F04F80F30988BFF36F8F4FF0D5
:1001F000000080F311887047000000000648006886
:10020000006880F3088862B661B6BFF34F8FBFF312
:100210006F8F00DF00BF00BF08ED00E0DFF80C00CB
:10022000016841F470010160704700BF88ED00E093
:10023000EFF30980BFF36F8F144B1A681EF0100F95
:1002400008BF20ED108A20E9F04F106008B44FF08D
:10025000500080F31188BFF34F8FBFF36F8F04F00E
:1002600055F94FF0000080F3118808BC1968086840
:10027000B0E8F04F1EF0100F08BFB0EC108A80F30A
:100280000988BFF36F8F704700BF00BFDC000020FC
:10029000EFF3058070470000064880470648004796
:1002A000FEE7FEE7FEE7FEE7FEE7FEE7FEE7FEE726
:1002B000FEE7FEE7E5260008C90100082DE9F05F2A
:1002C0000546002092469B468846064681464024C5
:1002D0001BE0284641464746224600F03AFA53467C
:1002E0005A46C01A914110D311461846224600F0D2
:1002F00021FA2D1A67EB01084F4622460120002102
:1003000000F018FA17EB00094E41201EA4F1010479
:10031000DFDC484631462A464346BDE8F09F40EAC6
:1003200001039B0703D009E008C9121F08C0042A73
:10033000FAD203E011F8013B00F8013B521EF9D25A
:1003400070472DE9FE4F804681EA0300C00F0C463E
:10035000009021F0004123F00045B8EB0200A941D4
:1003600005D24046214690461C460B46024623F0E5
:100370000040104347D0270DC7F30A00C3F30A51CA
:100380000290401A019040286BDAC3F3130040F446
:10039000801B0098924620B10023D2EB030A63EB46
:1003A0000B0B01985946C0F14002504600F0C2F9CB
:1003B00006460D4650465946019A00F0DAF910EB10
:1003C00008006141002487EA115284EAE7731A4366
:1003D00040D0009A62B3019A012A4FEA075215DC15
:1003E000001B61EB02014FF0004202EA0752CDE927
:1003F0000042001C41F5801132462B4600F011FAF4
:1004000003B0BDE8F08F40462146F9E7001B61EBE1
:100410000201001C41F5801300185B412018A2F571
:10042000001747EB030140EAD570B6196D4111E0A2
:100430006D084FEA360645EAC0754FEA0752001BC1
:1004400061EB0201001C41F5801149084FEA3000C0
:100450000019514132462B4603B0BDE8F04F00F081
:10046000D1B90098012240000023D0EB020263EBD7
:10047000E073009821464FEAE074B8EB000061EBAE
:100480000401E9E783F000435BE781F0004158E7AE
:100490002DE9FE4F81EA030404F0004421F00041FD
:1004A00000944FF0000B23F0004350EA01045ED0AB
:1004B00052EA03045BD0C3F30A54C1F30A552C4437
:1004C000A4F2F3340194A0FB0254C1F3130141F4EC
:1004D0008011C3F3130343F4801301FB024400FBB8
:1004E000034E840A970A44EA815447EA8357A4FBDF
:1004F000076802958D0A05FB07854FEA932C04FBDC
:100500000C542705029D4FEA065847EA1637B5EB0B
:1005100008056EEB070C870E920E47EA811742EA38
:100520008312A7FB0201B6EB0B0164EB00042B0D59
:1005300043EA0C335E1844EB1C50DA465146E7FBA5
:100540000201C5F313044FEA0B3343EA14534FEA95
:100550000432019C43EA0603A4F10C040294009CBB
:10056000CDE900B400F05DF903B0BDE8F08F0020E4
:100570000146F9E72DE9F04D81EA030404F0004B50
:1005800021F0004514464FF0000A23F0004150EAE4
:10059000050220D054EA01021DD0C5F30A570246D5
:1005A000C5F31303C1F31300C1F30A5640F48015D9
:1005B00043F48013A7EB0608101BD64608F2FD385B
:1005C00073EB050002D308F1010801E092185B41CA
:1005D000B8F1000F03DA00200146BDE8F08D0020DD
:1005E0004FF48011064684460EE0171B73EB050797
:1005F00005D3121B63EB050306434CEA010C4908C3
:100600004FEA300092185B4150EA0107EDD152EAFF
:10061000030012D082EA040083EA0501084305D0F2
:10062000101BAB4106D20122002306E000224FF04E
:10063000004302E06FF0010253101AEB06004CEB8E
:10064000085110EB0A0041EB0B01BDE8F04D00F042
:10065000D9B80EB5C10F80EAE0700844CA0700217E
:1006600040F233438DE80E000A460B4600F0D9F8FD
:1006700003B000BD00F0004230F000400AD0C10DD0
:1006800001F56071C0F3160042EA0151C20840074B
:1006900011437047002001467047000030B5041E2A
:1006A00071F1000404DB4FF00044404264EB0101AF
:1006B000141E73F1000405DB1C464FF00043524248
:1006C00063EB04038B4208BF824230BD30B5041E89
:1006D00071F1000404DB4FF00044404264EB01017F
:1006E000141E73F1000405DB1C464FF00043524218
:1006F00063EB0403994208BF904230BD01F0004310
:1007000030B421F0004150EA010206D00A0DA2F5F2
:100710006072C1F31301002A02DC30BC0020704774
:10072000440F44EAC104C100E01830BC00EBC250E1
:1007300000F031B8202A04DB203A00FA02F1002050
:1007400070479140C2F1200320FA03F3194390400F
:100750007047202A04DB203A21FA02F0002170477A
:1007600021FA02F3D040C2F1200291400843194619
:100770007047202A06DBCB17203A41FA02F043EA01
:10078000E07306E041FA02F3D040C2F1200291404A
:100790000843194670470029A8BF7047401C49000C
:1007A00008BF20F00100704710B4B0FA80FC00FAD6
:1007B0000CF050EA010404BF10BC704749B1CCF101
:1007C000200421FA04F411FA0CF118BF012121438D
:1007D0000843A3EB0C01CB1D4FEA00614FEA102048
:1007E00042BF002010BC704700EBC35010440029EA
:1007F000A4BF10BC7047401C490008BF20F0010096
:1008000010BC704710B5141E73F1000408DA401CC8
:1008100041F1000192185B411A4301D120F001001F
:1008200010BD2DE9F04D92469B4611B1B1FA81F20F
:1008300002E0B0FA80F220329046FFF77BFF0446D8
:100840000F4640EA0A0041EA0B0153465A46084364
:1008500013D0114653EA010019D0C8F140025046A6
:10086000FFF777FF05460E46504659464246FFF7CA
:1008700061FF084305D0012004E020463946BDE869
:10088000F08D0020054346EAE0762C4337430A9872
:100890006305E40AA0EB08000022FD0A44EA47547D
:1008A0000A3002D500200146E9E701051019694127
:1008B000DDE9084500196941BDE8F04DA2E72DE9E1
:1008C000F04D00231A461B1A8A4103DB0020014623
:1008D000BDE8F08DC1F30A52C1F3130141F4801554
:1008E0004FF0000BD10702D100186D41521E0027B6
:1008F000044640F2FF11384601EB620A3E4680464C
:10090000024600204FF48011FFF723FFC219714106
:10091000BB1846EB0100B4EB030C75EB000C04D3E1
:10092000E41A65EB000517460E46241908F101008C
:100930006D4180463428E3DDF91946EB0600091BBA
:10094000A84103D24FF0FF32134601E000221346C4
:100950001BEB070046EB0A51BDE8F04DFFF752BF15
:10096000064C074D06E0E06840F0010394E80700FC
:1009700098471034AC42F6D3FFF72AFC8C4A0008A3
:10098000AC4A00080EB540F2334102910021CDE996
:1009900000110A460B46FFF744FF03B000BD70B5D7
:1009A000C1F30A5201F000450024C1F3130140F2E3
:1009B000FF3341F480119A4201DA002070BD40F209
:1009C00033439A42A2F2334203DC5242FFF7C1FEA4
:1009D00000E090402C43F1D0404270BD454910B535
:1009E0004A6822F440324A604A6843681A434A60BF
:1009F00001684A6822F480724A6001684A680369A3
:100A000042EA03224A6001684A6822F040724A6062
:100A100001684A6883681A434A6001688A6822F458
:100A200000628A6001688A68C3681A438A60816AC2
:100A30006FF07062D14201688A6822F070628A6049
:100A400001688A680CD0836A1A438A6001688A68E0
:100A500022F040528A6001688A68C36A1A4301E042
:100A600022F040528A6001688A6822F002028A609D
:100A700001688A68836942EA43028A60016A002940
:100A800001684A680FD042F400624A6001684A680F
:100A900022F460424A6001684A68174C436A04EBDA
:100AA00043331A4301E022F400624A600168CA6AD3
:100AB00022F47002CA620168CA6A838B0F4C04EB8D
:100AC00003531A43CA6201688A6822F400728A607A
:100AD00001688A68036B42EA43228A6001688A6877
:100AE00022F480628A6001688A68406942EA802054
:100AF000886010BD0023014000E0FFFF0000F0FF10
:100B000070B5012210211D4800F05AFA012210216F
:100B10001B4800F055FA1B4E00254FF4806401225B
:100B20002146304600F04CFA012003F0BBF90022C8
:100B30002146304600F044FA012003F0B3F96D1C61
:100B4000642DECDB00224FF48071304600F038FA5F
:100B5000002501222146304600F032FA012003F040
:100B6000A1F900222146304600F02AFA012003F0C4
:100B700099F96D1C642DECDB70BD0000000802408B
:100B8000000402400000024078B50024009490F870
:100B90003C20012A19D0012280F83C200A68072352
:100BA0000568092A13D9EE680A3A02EB420293401B
:100BB0009E43EE600B788A680A3B03EB43039A403E
:100BC0000368DD682A43DA6010E0022078BD2E69F0
:100BD00002EB420293409E432E610B788A6803EB3E
:100BE00043039A4003681D692A431A614A681F2318
:100BF000072A13D205686E6B521E02EB82029340E5
:100C00009E436E630B790A885B1E92B203EB8303EB
:100C10009A4003685D6B2A435A6327E005680D2AF2
:100C200012D22E6BD21F02EB820293409E432E63A0
:100C30000B790A88DB1F92B203EB83039A400368A7
:100C40001D6B2A431A6311E0EE6A0D3A02EB820231
:100C500093409E43EE620B790A880D3B92B203EB00
:100C600083039A400368DD6A2A43DA62164B0568FB
:100C7000144A9D4206D10D68122D03D1556845F4E2
:100C80008005556005689D4218D10B68102B01D076
:100C9000112B13D1536843F40003536009681029E2
:100CA0000CD10A490A4A0968B1FBF2F101EB810152
:100CB000490000E0491E00910029FBD180F83C402A
:100CC000002078BD0023014000200140B400002036
:100CD00040420F000068C06C704770B504004FF0D0
:100CE000000503D0206C002610B107E0012070BD84
:100CF000666484F83C60204600F01AF8206CC00658
:100D000010D4206C20F4885040F00200206420466B
:100D1000FFF764FE6664206C20F0020040F00100E2
:100D2000206400E0012584F83C60284670BD000086
:100D300000B500680C4987B0884212D10B480021E9
:100D4000026842F480720260006800F480700590CE
:100D5000012000900320CDE901016946044800F01C
:100D600079F807B000BD000000200140443802407F
:100D70000000024018B50021009190F83C20012AA3
:100D800007D0012280F83C2002689368DB0702D07C
:100D900011E0022018BD936843F001039360204ADC
:100DA000204B1268B2FBF3F202EB420200E0521E4B
:100DB0000092002AFBD102689368DB072DD0036CF8
:100DC00040F20164A34343F48073036453685B05FA
:100DD00005D5036C23F4005343F480530364036C80
:100DE000DB0404D5436C23F00603436400E0416454
:100DF00080F83C100C496FF02203136049680068CA
:100E0000C90602D00949884207D1816811F0405FC4
:100E100003D1816841F080418160002018BD00004D
:100E2000B400002040420F00002301400020014098
:100E300090F83510022903D08021416501207047C8
:100E4000052180F835100068016821F0010101607A
:100E5000002070472DE9F84FDFF84CB100224FF029
:100E600001084FF0030A4FF00F090BF1040E00BF09
:100E70000B6808FA02F42340A3427DD14D68022D8D
:100E800001D0122D0ED1D50800EB850CDCF82050D6
:100E90005607F70E09FA07F6B5430E69BE402E4312
:100EA000CCF82060066855000F790AFA05FC07F0B7
:100EB000030726EA0C06AF40374307604E68012E51
:100EC00005D0022E03D0112E01D0122E0ED187682C
:100ED000CE6827EA0C07AE403E4386604668A643CC
:100EE0000C79C4F30014944034434460C4688E68A1
:100EF00024EA0C04AE402643C6604C68E4004DD59D
:100F00002A4C256845F480452560246822F00305B5
:100F100004F480440094264C2E19D6F8084895070E
:100F20002F0F09FA07F5AC43224DA84201D1002545
:100F30000AE0214DA84201D1012505E01F4DA8423C
:100F400001D1022500E00725BD402543C6F8085819
:100F5000DBF800405D464E689C43F60300D51C4319
:100F60002C60DEF8004075464E689C43B60300D501
:100F70001C432C600C4D00E010E008352C684E68D6
:100F80009C43F60200D51C432C60074D0C352C68A1
:100F90004E689C43B60200D51C432C60521C102A9C
:100FA000FFF466AFBDE8F88F003C014044380240D2
:100FB00000300140000002400004024000080240EE
:100FC0000AB1816170470904FBE7000001488068AD
:100FD00070470000A8000020024881680278114490
:100FE00081607047A80000200B4810B5016841F4EB
:100FF00000710160016841F480610160016841F4A1
:1010000080710160032000F0B1F8002000F006F8C4
:1010100000F03EF8002010BD003C024010B5014633
:1010200088B00022192000F081F8192000F072F831
:1010300013480024016841F001010160006805A91E
:1010400000F001000690684600F03AF900F06EF9F1
:101050000C490D4AB0FBF1F10C48491E026040F208
:10106000E732C0E90324C0E9011400F07BFB10B1B2
:10107000012008B010BD054800F0AEFBF9E7000004
:101080004438024040420F0000000140E0010020CF
:101090001F4808B5016841F480410160006800F410
:1010A000804000901A48001F016841F080510160A3
:1010B000006800F080500090032000F057F80022F4
:1010C00011466FF00B0000F031F8002211466FF06E
:1010D0000A0000F02BF8002211466FF0090000F022
:1010E00025F800221146501F00F020F8002211467A
:1010F000101F00F01BF800220F21901E00F016F8C0
:1011000000220F21BDE80840501E00F00FB800007B
:101110004438024000F01F02012191404009800044
:1011200000F1E020C0F8001170470000F0B40E4B51
:101130001B680C46C3F30223C3F10705042D00D935
:101140000425191D072901D2002300E0DB1E01261A
:1011500006FA05F1491E214099409E40761E164030
:101160003143F0BC00F08ABE0CED00E0064900F00F
:10117000070208684FF6FF03184040EA0220034ABE
:1011800010430860704700000CED00E00000FA0515
:101190002DE9F0470E46050065D0DFF81481D8F838
:1011A0000000F7B200F00F00B04207D288F80070DC
:1011B000D8F8000000F00F00B04254D128683D4C30
:1011C000810712D5400703D5206840F4E050206025
:1011D0002878000703D5206840F46040206020682C
:1011E000A96820F0F000084320602878C0072DD0BF
:1011F000304968680839012812D0022813D0032822
:1012000011D00968890700292DDA216821F003012E
:1012100001432160FFF7DAFE814641F2883A0EE091
:1012200009688903EFE709688901ECE7FFF7CEFE5B
:10123000A0EB0901514502D90320BDE8F0872068E1
:10124000696800F00C00B0EB810FEFD1D8F8001006
:10125000404601F00F01B14207D90770006800F065
:101260000F00B04201D00120E7E72878400705D5FC
:101270002068E96820F4E0500843206028780007DF
:1012800006D52068296920F4604040EAC10020604A
:1012900000F05CF82168084AC1F30311515CC840B2
:1012A000064908600020FFF7B9FE0020C5E70000EE
:1012B000003C02400838024010480008B4000020FA
:1012C0000F2202600C4A136803F0030343601368A3
:1012D00003F0F0038360136803F4E053C360126803
:1012E0004FF4E05303EAD20202610448006800F0C0
:1012F0000F0008607047000008380240003C0240C0
:101300000148006870470000B40000200448054907
:1013100000680968044AC1F38221515CC8407047E3
:10132000B40000200838024020480008044805495D
:1013300000680968044AC1F34231515CC8407047F3
:10134000B40000200838024020480008154810B5B5
:10135000006810F00C02144813D04110042A0FD07A
:10136000082A0ED10F4C241F2268236802F03F0286
:101370005B0207D52068C0F38810A0FB010106E0DE
:10138000084610BD2168C1F38811A1FB00010023AC
:10139000FEF794FF2168C1F30141491C4900B0FBED
:1013A000F1F010BD083802400024F4002DE9F84F98
:1013B00005460078DFF800B3C04CC0074AD0DBF820
:1013C00000105846C1F38101012908D00068C0F31C
:1013D000810002280AD1201D0068400206D520683D
:1013E000800337D56868002872D033E06868B0F5AC
:1013F000803F10D0B0F5A02F206810D020F48030AE
:101400002060206820F4802020606868A8B1FFF781
:10141000DDFD06460DE0206840F48030F4E740F43E
:1014200080202060F7E700BFFFF7D0FD801B642815
:101430006FD820688003F7D50CE0FFF7C7FD06469C
:1014400005E000BFFFF7C2FD801B6428F0D82068CC
:101450008003F7D42878DFF8688280074FF000090E
:1014600040D5DBF80010584611F00C0F09D0006889
:10147000C0F3810002280BD18F48001F0068400292
:1014800006D42068800715D5E868012820D111E02E
:10149000E868B8B10120C8F80000FFF797FD0646DC
:1014A00005E000BFFFF792FD801B0228C0D820682E
:1014B0008007F7D52068296920F0F80040EAC100CC
:1014C00020600FE0C8F80090FFF780FD064606E0B8
:1014D000EFE000BFFFF77AFD801B022819D82068D3
:1014E0008007F7D42878000722D5734E75486969BC
:1014F0006C3679B101210160FFF768FD074604E011
:10150000FFF764FDC01B022803D830688007F7D5B9
:101510000EE089E0C0F80090FFF758FD074604E0B0
:10152000FFF754FDC01B02287ED830688007F7D42F
:101530002878400768D5DFF880A100270AF1380A2B
:10154000DAF80000C0000BD4DAF8001041F0805146
:10155000CAF80010DAF80000012700F0805000906F
:10156000594E3068C00510D4306840F48070306047
:10157000FFF72CFD009005E0FFF728FD0099401AC9
:10158000022851D83068C005F6D54B4EA868683699
:1015900001280FD00528306810D020F001003060FD
:1015A000306820F004003060A868B8B1FFF70EFD85
:1015B00000900FE0306840F00100F4E740F00400D4
:1015C0003060F7E7FFF702FD0099411A41F28830D9
:1015D000814266D830688007F4D50EE0FFF7F6FC4C
:1015E000009007E0FFF7F2FC0099411A41F28830C1
:1015F000814256D830688007F4D42FB1DAF8001051
:1016000021F08051CAF80010A869D0B3DBF80010AF
:10161000C1F3810102294CD00228484607D0C8F8FE
:101620006000FFF7D3FC00E03BE005463CE04746A6
:10163000C8F86000FFF7CAFC064604E0FFF7C6FCE6
:10164000801B02282DD820688001F7D4F5E9070116
:101650000843E9681D4A490802EB0141AA6841EACA
:1016600082110843297C40EA0160297D40EA01712A
:101670001148001F016001203866FFF7A7FC0546EE
:1016800005E014E0FFF7A2FC401B022809D82068FF
:101690008001F7D50BE000BFFFF798FC401B022844
:1016A00002D90320BDE8F88F20688001F4D400201F
:1016B000F8E70120F6E70000083802400038024051
:1016C00000004742800E4742007000400000FFFFCC
:1016D0004FF0E0210428086903D020F004000861DD
:1016E000704740F00400FAE710B5401EB0F1807F6B
:1016F00001D3012010BD4FF0E02460610F2160177D
:1017000000F0BCFB0020A06107202061002010BD7C
:101710007047704730B590F83820012A20D0012258
:1017200080F83820022380F8393003685C6824F0A0
:1017300070045C6003685C680D682C435C6003683F
:101740009C6824F080049C6003689C6849680C4392
:101750009C6080F83920002180F83810084630BDA0
:10176000022030BD10B5040003D094F8390010B148
:1017700007E0012010BD002084F83800204600F06A
:101780000DF8022084F83900211D206800F0E0FFE8
:10179000012084F83900002010BD000008B5006861
:1017A0000B49884212D10B48016841F010010160D9
:1017B0000068002200F01000009005213620FFF79D
:1017C000B5FCBDE808403620FFF7A4BC08BD00000A
:1017D00000100040403802400168CA6842F001022F
:1017E000CA600068016841F0010101600020704793
:1017F000704770B50446006801694FF00005C943A1
:10180000890715D4C168C943890711D4E91E01614C
:1018100001202076206880698007204602D0FFF7EB
:10182000E7FF04E000F098F8204600F096F82576EF
:1018300020680169C943490717D4C168C9434907EA
:1018400013D46FF0040101610220207620688069C2
:1018500010F4407F204602D0FFF7CAFF04E000F0FA
:101860007BF8204600F079F8257620680169C943A5
:10187000090716D4C168C943090712D46FF00801DB
:101880000161042020762068C0698007204602D0CC
:10189000FFF7AEFF04E000F05FF8204600F05DF8CF
:1018A000257620680169C943C90617D4C168C943B0
:1018B000C90613D46FF0100101610820207620685A
:1018C000C06910F4407F204602D0FFF791FF04E08A
:1018D00000F042F8204600F040F8257620680169C3
:1018E000C943C90708D1C168C943C90704D1891EC2
:1018F0000161204600F032F820680169C9430906F9
:1019000009D4C168C943090605D46FF0800101619B
:101910002046FFF7FDFE20680169C943490609D446
:10192000C168C943490605D46FF0400101612046F2
:1019300000F01EF820680169C94389060BD4C1680C
:10194000C943890607D46FF0200101612046BDE834
:101950007040FFF7DEBE70BD7047704700680349F6
:10196000884201D1FFF738BB7047000000000140FA
:101970007047704770B5026804461068D1685369B3
:1019800010F00F0F50D003F0010501F490763543AD
:101990005DD0C20705D0CA0503D5E26B42F0010253
:1019A000E263420705D5DA0703D0E26B42F0020298
:1019B000E263820705D5DA0703D0E26B42F0040246
:1019C000E263020705D5DA0703D0E26B42F00802B2
:1019D000E263E26B002A33D0800604D5880602D584
:1019E000204600F0F9FE20684069E16BC0F38010EA
:1019F000090700D428B3204600F0E0FE20684169C2
:101A000049061AD5416921F040014161606BA0B1DE
:101A10001B490165606BFFF70BFA002810D0606B63
:101A2000016DBDE870400847830610D58B060ED5C2
:101A30002046BDE8704000F0CFBE2046FFF799FF7A
:101A400070BD2046FFF795FF0020E06370BD0306E0
:101A500006D50B0604D52046BDE8704001F058B805
:101A60004006F3D54806F1D5D168204621F0400163
:101A7000D160202184F8391000F089F870BD000091
:101A8000AD27000870B5040004D094F83900002593
:101A900010B106E0012070BD84F83850204600F0F7
:101AA00023F8242084F839002068C16821F400510B
:101AB000C160204600F0D6FE2068016921F4904103
:101AC00001612068416921F02A0141612068C168F3
:101AD00041F40051C160E563202084F8390084F8A6
:101AE0003A00002070BD000000B50068124987B0C0
:101AF00088421ED11148016841F40031016000683C
:101B0000694600F4003005900C20009002200190FE
:101B10000120029003200390072004900848FFF75B
:101B200099F9002205212620FFF700FB2620FFF768
:101B3000F1FA07B000BD0000004400404038024008
:101B40000000024090F83A30202B1DD1D1B1CAB12B
:101B500090F83830012B17D081628285C285002130
:101B6000C163222280F83A2080F8381001684A695F
:101B700042F001024A610068C16841F49071C1609D
:101B8000002070470120704702207047704770475F
:101B90007FB512481049002401604FF48031416044
:101BA000046184610902046281600D49C0E90A147C
:101BB0000125C460C56145610463FFF78EF800B17B
:101BC000FEE7CDE90045694604480294FEF7DCFFD4
:101BD000002800D0FEE77FBD002001401C0100204E
:101BE0000100000F2DE9F047314886B0002401685C
:101BF00041F004010160016801F0040105910168F0
:101C000041F080010160016801F0800105910168E7
:101C100041F001010160016801F0010105910168D5
:101C200041F0020101600068DFF8888000F00200E6
:101C30004FF4EC650590002229464046FFF7C0F9B5
:101C4000DFF874904FF4C266002231464846FFF731
:101C5000B7F9DFF868A04FF487670022394650468D
:101C6000FFF7AEF94FF4005000901548CDE901049C
:101C700069464846FFF7EEF800950125CDE9015485
:101C8000694640460394FFF7E5F80096CDE9015414
:101C9000694648460394FFF7DDF80097CDE9015403
:101CA000694650460394FFF7D5F806B0BDE8F087C3
:101CB00030380240000002400008024000040240A8
:101CC000000021102DED0A8B9FED628B9FED63CB01
:101CD000644C9FED659A6125012002F0E3F894EDD4
:101CE000180B01F0E9FAB0EE40AAF0EE60AA94ED0C
:101CF0001C0B01F0E1FA53EC182B51EC100BFEF722
:101D0000C7FB41EC1B0B94ED1A0B01F0D5FA53EC19
:101D1000182B51EC100BFEF7BBFB53EC1B2BFEF703
:101D200010FB53EC1A2BFEF7B3FBFEF7E7FCE06366
:101D300094ED180B01F030FBB0EE40AAF0EE60AA73
:101D400094ED1C0B01F0B8FA53EC182B51EC100B6E
:101D5000FEF79EFB41EC1B0B94ED1A0B01F0ACFA65
:101D600053EC182B51EC100BFEF792FB53EC1B2B92
:101D7000FEF7E7FA53EC1A2BFEF78AFBFEF7BEFCE0
:101D8000206494ED1C0B01F007FB53EC182B51EC75
:101D9000100BFEF77DFB41EC1A0B94ED1A0B01F0D2
:101DA000FBFA53EC182B51EC100BFEF771FB53ECC4
:101DB0001A2BFEF7C6FA53EC1C2BFEF763FBFEF75B
:101DC0009DFC6060606C002886D0A06C002883D0E9
:101DD000E06C002880D0A0680028F5D02078622828
:101DE00024D101F0A7FF60B163202070FEF788FEC8
:101DF0009FED1E1ADFED1E0A9FED1E0A00F04EF841
:101E000008E0B0EE490AB0EE401AF0EE400A00F0E9
:101E100045F82570606C0028D6D0A06C0028D3D07F
:101E2000E06C0028D0D0A0680028CDD020786328AE
:101E30007FF452AF002210210F48FFF7C1F8B0EE37
:101E4000490AB0EE401AF0EE400A00F027F825707B
:101E500042E7000000000000004064400000000075
:101E600000005940000000200000000000009643E0
:101E70000020CB4500409C45000802400907090EA0
:101E8000002806DA00F00F0000F1E02080F8141DB1
:101E9000704700F1E02080F80014704770B52DED18
:101EA0000A8BB0EE40CAF0EE60AA2CEE0C0AB0EE3F
:101EB000418A0AEEAA0A10EE100AFEF7DBFB41EC9B
:101EC000100B01F0CDFA51EC100BFEF717FC0AEEE7
:101ED000100A18EE100AFEF7CDFB9FEDC29B53ECE3
:101EE000192BFEF72EFA41EC1B0B18EE100AFEF729
:101EF000C1FB53EC192BFEF724FA53EC1B2BFEF716
:101F0000C7FA6AEE0A8A41EC1B0B18EE900AFEF73C
:101F1000B1FB53EC1B2BFEF714FA41EC100B01F054
:101F20009FFA51EC100BFEF7E9FB0CEE900A18EE4D
:101F3000100AFEF79FFB53EC192BFEF702FA41EC57
:101F40001B0B18EE100AFEF795FB53EC192BFEF74E
:101F5000F8F953EC1B2BFEF79BFA41EC1B0B18EE28
:101F6000900AFEF787FB53EC1B2BFEF7EAF99FED77
:101F70009FBB53EC1B2BFEF7E4F953EC1B2BFEF736
:101F800081FA9FED9C1B53EC112BFEF7F3FAFEF741
:101F9000B5FB08EE900A1AEE100AFEF76BFB41EC57
:101FA0001B0B18EE100AFEF765FB53EC192BFEF71E
:101FB000C8F953EC1B2BFEF7DDFA41EC100B01F0D6
:101FC0000FF851EC100BFEF799FB05461CEE900A3A
:101FD0008A4988427EDCB5EEC0CA894CF1EE10FA1F
:101FE0000ED1B0EE6A0A02F07BF9FEF732FB9FEDEC
:101FF000851B53EC112BFEF74BFAC4E91E010BE0D5
:102000008AEE8C0A10EE100AFEF734FB41EC100B3E
:1020100000F0E6FF84ED1E0B2846FEF72BFB88EE52
:10202000AC0A41EC1B0B10EE100AFEF723FB41EC4F
:10203000100B00F029FE53EC1B2B51EC100BFEF79C
:1020400080F96F4DB0EE480A8035C5E9000102F015
:1020500047F9FEF7FEFA41EC1C0B95ED000B01F081
:102060002BF99FED6A8B51EC100B53EC182BFEF7FC
:102070000FFA41EC1B0B1AEE100AFEF7FBFA53ECB9
:102080001B2BFEF7FFF953EC182BFEF773FA41EC0C
:10209000100B00F0F9FD53EC1C2B51EC100BFEF76C
:1020A000F7F9C5E9020194ED1E0B01F005F9B0EE58
:1020B00040BAF0EE60BA95ED020B01F0FDF853EC7A
:1020C000182B51EC100BFEF7E3F941EC1A0B95EDD0
:1020D000000B00E083E001F0EFF853EC182B51EC1B
:1020E000100BFEF7D5F953EC1A2BFEF72AF953EC37
:1020F0001B2BFEF7CDF9FEF701FBE06394ED1E0B01
:1021000001F04AF9B0EE40AAF0EE60AA95ED020B9C
:1021100001F0D2F853EC182B51EC100BFEF7B8F984
:1021200041EC1B0B95ED000B01F0C6F853EC182B9E
:1021300051EC100BFEF7ACF953EC1B2BFEF701F939
:1021400053EC1A2BFEF7A4F9FEF7D8FA206495EDAC
:10215000020B01F021F953EC182B51EC100BFEF798
:1021600097F941EC1A0B95ED000B01F015F953ECC2
:10217000182B51EC100BFEF78BF953EC1A2BFEF7D2
:10218000E0F853EC192BFEF77DF9FEF7B7FA606023
:1021900094ED1E0B02F088F810EE100AFEF76AFAB2
:1021A000C4E91E0195ED000B02F07EF810EE100A56
:1021B000FEF760FAC5E9000195ED020B02F074F834
:1021C00010EE100AFEF756FAC5E902019FED110B59
:1021D000002084ED160B6064A064E064A060BDEC98
:1021E0000A8B70BD00000000000059400000000094
:1021F00000A1D94000000000004074400000A2434C
:102200000000002038E92F54FB21F93F00000000B6
:102210000040644000000000008056C0012001F032
:1022200041FEFBE72DED028B40F2DC599FED398B2F
:10223000DFF8E8803A4C012594ED180B53EC102B95
:1022400094ED1E0B51EC100BFEF71CF941EC100B3A
:1022500001F096F853EC182B51EC100BFEF736FA00
:1022600056D294ED1E0B53EC102B94ED180B51EC41
:10227000100BFEF713FA0BD2E068401C08D10122C4
:1022800010214046FEF79CFE484601F00BFEE5603B
:1022900094ED1E0B53EC102B94ED180B51EC100B1E
:1022A000FEF714FA0DD2E06801280AD100221021AD
:1022B0004046FEF785FE484601F0F4FD4FF0FF3042
:1022C000E0600122174F960231463846FEF778FE4D
:1022D000012001F0E7FD002231463846FEF770FE8E
:1022E000012001F0DFFD206A401C2062E068FEF75B
:1022F000B0F99FED0D1B53EC112BFEF7C9F894EDCF
:10230000181B53EC112BFEF71CF8C4E9180193E7D6
:10231000656491E79A9999999999B93F00040240A7
:1023200000000020000002409544ECCF2234AF3F73
:102330002DED028B4FF480783B4D9FED398BDFF80C
:10234000EC9040F2DC5AA5F18004012694ED1A0BC2
:1023500053EC102B95ED000B51EC100BFEF792F89F
:1023600041EC100B01F00CF853EC182B51EC100B56
:10237000FEF7ACF952D295ED000B53EC102B94ED17
:102380001A0B51EC100BFEF789F90BD22069401C97
:1023900008D1012241464846FEF712FE504601F0A0
:1023A00081FD266195ED000B53EC102B94ED1A0B7B
:1023B00051EC100BFEF78AF90DD2206901280AD1E1
:1023C000002241464846FEF7FBFD504601F06AFDFB
:1023D0004FF0FF302061164F012220213846FEF7D2
:1023E000EFFD012001F05EFD002220213846FEF7BE
:1023F000E7FD012001F056FD2069FEF72AF99FED67
:102400000D1B53EC112BFEF743F894ED1A1B53EC04
:10241000112BFDF796FFC4E91A0197E7A66495E72B
:102420009A9999999999B93F80000020000002403B
:10243000000402403F0A674FB354AC3F2DED028BBE
:1024400040F2DC583A4D9FED388B3A4FA5F18004AD
:102450005FF0010694ED1C0B53EC102B95ED020B75
:1024600051EC100BFEF70EF841EC100B00F088FF5A
:1024700053EC182B51EC100BFEF728F951D295EDC7
:10248000020B53EC102B94ED1C0B51EC100BFEF7D0
:1024900005F90BD26069401C08D101222021384681
:1024A000FEF78EFD404601F0FDFC666195ED020BE6
:1024B00053EC102B94ED1C0B51EC100BFEF706F9AE
:1024C0000DD2606901280AD1002220213846FEF78A
:1024D00077FD404601F0E6FC4FF0FF3060610122DD
:1024E00040213846FEF76CFD012001F0DBFC0022A4
:1024F00040213846FEF764FD012001F0D3FC6069FD
:10250000FEF7A7F89FED0C1B53EC112BFDF7C0FF56
:1025100094ED1C1B53EC112BFDF713FFC4E91C01B8
:1025200098E7E66496E700009A9999999999B93FD6
:102530008000002000000240204A1910D8D7AB3F8D
:102540002DED028B4FF480679FED388B394E3A4C5E
:1025500040F2DC585FF0010594ED140B53EC102BA6
:1025600094ED160B51EC100BFDF78CFF41EC100BAA
:1025700000F006FF53EC182B51EC100BFEF7A6F8F9
:1025800051D294ED160B53EC102B94ED140B51EC2F
:10259000100BFEF783F80BD2A069401C08D1012272
:1025A00039463046FEF70CFD404601F07BFCA56144
:1025B00094ED160B53EC102B94ED140B51EC100B07
:1025C000FEF784F80DD2A06901280AD1002239460D
:1025D0003046FEF7F5FC404601F064FC4FF0FF305A
:1025E000A061012208213046FEF7EAFC012001F03B
:1025F00059FC002208213046FEF7E2FC012001F0E0
:1026000051FCA069FEF725F89FED0C1B53EC112B34
:10261000FDF73EFF94ED141B53EC112BFDF791FEDB
:10262000C4E9140198E7A56096E700009A99999982
:102630009999B93F00040240000000205E6017C471
:102640008E66AC3F01F034BC30B5244893B0002511
:10265000016841F080510160006800F080501290E4
:102660001F48016841F4404101600068022400F401
:102670004040129001200390102004900094069492
:102680000820CDE907506420CDE909040420CDE9F4
:102690000B046846FEF78AFE00B1FEE70DA90F2085
:1026A00081E831004FF48050CDE9100503210DA8D9
:1026B000FEF76EFD00B1FEE7FEF722FE4FF47A71E1
:1026C000B0FBF1F0FFF710F80420FFF701F800224B
:1026D0000F21501EFEF72AFD13B030BD40380240D6
:1026E000007000401048016841F4700101600F481B
:1026F000016841F0010101600C4A002108321160BB
:1027000002680B4B1A400260031D0A4A1A600268F5
:1027100022F48022026005480C300160024958060C
:10272000803908607047000088ED00E00038024002
:10273000FFFFF6FE103000240148FFF75AB80000F2
:10274000E00100200148FFF754B8000064010020B8
:1027500030B50268114B124C984201D0A04203D10F
:1027600022F070054A682A43984207D0A04205D05B
:102770000C4CA04202D00C4CA04203D122F4407475
:10278000CA68224302608A68C2620A68826298420A
:1027900001D1096901630121416130BD000001409F
:1027A000000C0040004001400048014010B5806B23
:1027B0000021C185C184FFF7DCF810BD0168CA683B
:1027C00022F49072CA6001684A6922F001024A61EB
:1027D000202180F83A10704710B590F83A1022295D
:1027E00001D0022010BD8168B1F5805F11D0016970
:1027F000002901681FD0496801F07F03816A4A1CE3
:1028000082620B70C18D491E0904090CC18518D064
:1028100026E00269816A002A0268526805D0D2B2B5
:102820000A80816A491C8162ECE7C2F308020A80CF
:10283000816A891CF7E74A68816A4B1C83620A70C7
:10284000E0E70168CA6822F49072CA6001684A69C8
:1028500022F001024A61202180F83A10FFF796F930
:10286000002010BD2DE9F04104460068016921F403
:102870004052E168114301612168C86849F20C6265
:1028800090432369A268E5691A4363692B431A439D
:102890000243CA602168486920F44072A06910436D
:1028A0004861E1696425B1F5004F9748974A21686E
:1028B0004FF032083FD0914201D081427CD1FEF7E7
:1028C00035FD00EBC00101EB001061688900B0FB31
:1028D000F1F6FEF72BFD00EBC00101EB0010616883
:1028E0008900B0FBF1F0B0FBF5F06FF01801484340
:1028F00006EB800108EB0110B0FBF5F000F0F006EC
:10290000FEF714FD00EBC00101EB001061688900C7
:10291000B0FBF1F0B0FBF5F006EB0016FEF706FD9C
:1029200000EBC00101EB001061688900B0FBF1F71A
:10293000FEF7FCFCD2E0914201D081423DD1FEF78E
:10294000F5FC00EBC00101EB001061684900B0FB31
:10295000F1F0B0FBF5F00601FEF7E8FC00EBC0017A
:1029600001EB001061684900B0FBF1F7FEF7DEFCF7
:1029700000EBC00101EB001061684900B0FBF1F011
:10298000B0FBF5F06FF01801484307EB800108EB4E
:10299000C100B0FBF5F000F0F80006EB4006FEF7D2
:1029A000C5FC00EBC00101EB001061684900B0FB01
:1029B000F1F7FEF7BBFC3CE055E0FEF7A7FC00EBAF
:1029C000C00101EB001061684900B0FBF1F0B0FB01
:1029D000F5F00601FEF79AFC00EBC00101EB0010D8
:1029E00061684900B0FBF1F7FEF790FC00EBC00115
:1029F00001EB001061684900B0FBF1F0B0FBF5F0AD
:102A00006FF01801484307EB800108EBC100B0FBF1
:102A1000F5F000F0F80006EB4006FEF777FC00EB5F
:102A2000C00101EB001061684900B0FBF1F7FEF74F
:102A30006DFC00EBC00101EB001061684900B0FBC8
:102A4000F1F0B0FBF5F06FF01801484307EB80019F
:102A500008EBC100B0FBF5F000F00700216830443E
:102A60008860BDE8F081FEF751FC00EBC00101EB8E
:102A7000001061688900B0FBF1F6FEF747FC00EB3F
:102A8000C00101EB001061688900B0FBF1F0B0FB00
:102A9000F5F06FF01801484306EB800108EB0110D8
:102AA000B0FBF5F000F0F006FEF730FC00EBC001E3
:102AB00001EB001061688900B0FBF1F0B0FBF5F0AC
:102AC00006EB0016FEF722FC00EBC00101EB001044
:102AD00061688900B0FBF1F7FEF718FC00EBC0015C
:102AE00001EB001061688900B0FBF1F0B0FBF5F07C
:102AF0006FF01801484307EB800108EB0110B0FBB1
:102B0000F5F000F00F00A9E70014014000100140AB
:102B100090F83910212901D0022070478168B1F561
:102B2000805F016A0BD04A1C02620268097851601A
:102B3000C18C491E0904090CC1840ED017E0098814
:102B40000268C1F30801516001690029016A02D0DD
:102B5000491C0162ECE7891CFBE70168CA6822F0A6
:102B60008002CA600068C16841F04001C160002075
:102B7000704700002DE9F0412A48FEF7FBFE0622CF
:102B800029492848FEF7DEFF284C274828492368B2
:102B90005B1C236002780A7046784E7087788F70CD
:102BA0002449C578062B0D7090F804C081F801C047
:102BB0004079887033D1303A02EBC20101EB021147
:102BC0001D4A06EB860307EB810102EB4303194420
:102BD0001A4B303D196005EBC50303EB051300EB01
:102BE00083000CEB8C0302EB43021044144A154D96
:102BF000154B10602A781B789A420ED000EE100A0E
:102C00009FED121AF8EEC00A00EE101AB8EEC00AD4
:102C1000FFF744F90E480078287000202060BDE8D6
:102C2000F0810000A0010020A200002098000020F8
:102C30009C0000209F000020F0FDFFFF900000207E
:102C40009400002000000020954700080000FAC30F
:102C50009447000803B401984100009850EAC1204D
:102C600018BF04204A0D18BF40F0010040F2FF7267
:102C7000B2EB515F08BF40F00200012808BF0520F9
:102C800002B070470000000010B5B94A2DED020BEC
:102C90002DED0C8B82B00F9921F000409FEDB6CB4B
:102CA00090422CDBA0F140530E9AA3F17F631A43AC
:102CB0000FD0B349884202DC16D10E98A0B19DED29
:102CC0000E0B02B0BDEC0C8B02B0BDE8104000F062
:102CD000EFBF0029C1BF9FEDAC0B02B0BDEC0C8B68
:102CE00002B0C8BF10BD16E0012001F01DF802B00F
:102CF000BDEC0C8B02B0BDE8104000F0E5BFA44A6B
:102D00009FEDA59B9FEDA6AB90425EDAA6499FED95
:102D1000A8CB814208DBB0EE4C0AF0EE6C0A02B0A0
:102D2000BDEC0C8B02B010BD9DED0E0B53EC102BC7
:102D300051EC100BFDF7ACFB41EC180B9E48062143
:102D4000B0EE480AF0EE680A784400F09DFE53ECBD
:102D5000182B51EC100BFDF79BFB41EC1B0B97481C
:102D6000B0EE480AF0EE680A0421784400F08CFEC8
:102D700053EC182B51EC100BFDF78AFB53EC192B7D
:102D8000FDF7DFFA41EC100B51EC1B0B53EC102B51
:102D9000FDF7F0FB41EC100B53EC102B9DED0E0BEF
:102DA00051EC100BFDF774FB53EC1A2BFDF76DFB88
:102DB0009DED0E1B53EC112BFDF767FB53EC1C2B09
:102DC000FDF763FB41EC100BA9E79FED7D8B9FEDB9
:102DD0007EBB9DED0E0B002953EC192B51EC100B13
:102DE00052DAFDF7AEFA53EC182BFDF751FB41EC2C
:102DF000180B77480621B0EE480AF0EE680A7844CE
:102E000000F042FE53EC182B51EC100BFDF740FB89
:102E100041EC1D0B6F48B0EE480AF0EE680A042141
:102E2000784400F031FE53EC182B51EC100BFDF7F9
:102E30002FFB53EC192BFDF784FA41EC190B51ECE5
:102E4000180B01F057FA41EC180B53EC192B51EC0D
:102E50001D0BFDF78FFB53EC182BFDF719FB53EC03
:102E60001A2BFDF70FFB41EC100B51EC180B53EC38
:102E7000102BFDF766FA53EC1B2BFDF709FB53EC07
:102E80001C2BFDF702FB6DE0FDF7FFFA53EC182B4E
:102E9000FDF7FEFA41EC180B01F02CFA41EC1A0B8D
:102EA00000208DED00AB00909DED000B51EC1A0B56
:102EB00053EC102BFDF745FA9DED000B41EC1C0B7C
:102EC00053EC102B51EC100BFDF7E2FA53EC182BDE
:102ED000FDF7DBFA53EC1C2BFDF74CFB41EC1C0B14
:102EE0003D48B0EE480AF0EE680A0621784400F04A
:102EF000CBFD53EC182B51EC100BFDF7C9FA41EC4C
:102F00001D0B3648B0EE480AF0EE680A04217844FA
:102F100000F0BAFD53EC182B51EC100BFDF7B8FA8A
:102F200053EC192BFDF70DFA41EC100B51EC1D0B76
:102F300053EC102BFDF71EFB53EC1A2BFDF7A8FAF0
:102F400053EC1C2BFDF7FDF941EC100B53EC102B4F
:102F50009DED000B51EC100BFDF7F3F953EC1B2B1F
:102F6000FDF796FA41EC100BD9E6000000000000D6
:102F70000000F03F00000000182D4454FB210940E0
:102F80000000F07F000000000000000000000000D2
:102F90000000E03F00000000000000000000F03FE3
:102FA000075C143326A6913C0000603C0000000042
:102FB000182D4454FB21F93FDC1A0000EA1A0000E6
:102FC000000000000000E03F0000000000000040A2
:102FD000261A0000341A00003819000046190000B3
:102FE00070B59B482DED020B2DED068B079D25F04E
:102FF0000044A04218DC9748844202DC0AD10698BB
:1030000040B19DED060BBDEC068B02B0BDE87040F3
:1030100000F04EBE002DCCBF9FED8F0B9FED900BAF
:10302000BDEC068B02B070BD8F48A04215DD8F4805
:10303000A042D8BF4FF0FF3458DD9DED060B51EC98
:10304000100BFFF707FE042808BF00F04DFE9DEDB2
:10305000060BBDEC068B02B070BD9DED060B51EC6E
:10306000100B00F07BFECDE9060181489FED828BBD
:10307000A0423CDD8248A0421FDD00249FED82ABD0
:103080009DED060B53EC1A2B51EC100BFDF759F983
:103090009DED060B41EC190B53EC1A2B51EC100B68
:1030A000FDF7F6F953EC182BFDF7ECF953EC192B5F
:1030B000FDF760FACDE9060149E09DED060B01241C
:1030C00053EC182B51EC100BFDF73BF99DED060B63
:1030D00041EC190B53EC182B51EC100BFDF7D2F906
:1030E00053EC192BFDF746FACDE906012FE06848AD
:1030F000A0421FDD02249FED689B9DED060B53EC63
:10310000192B51EC100BFDF7C3F953EC182BFDF7FD
:1031100018F99DED060B41EC180B53EC192B51ECF3
:10312000100BFDF7AFF953EC182BFDF723FACDE99F
:1031300006010CE09DED060B032453EC102B9FEDD4
:10314000580B51EC100BFDF715FACDE906019DED7A
:10315000060B53EC102B51EC100BFDF799F941ECD9
:10316000180B53EC182BFDF793F941EC190B4E4853
:103170000621B0EE490AF0EE690A784400F084FCBA
:1031800053EC182B51EC100BFDF782F941EC180BA6
:103190004648B0EE490AF0EE690A0521784400F08D
:1031A00073FC53EC192B51EC100BFDF771F941EC4A
:1031B000100B51EC180B53EC102B002C0EDAFDF712
:1031C000C0F89DED061B53EC112BFDF761F99DED49
:1031D000061B53EC112BFDF758F935E0FDF7B1F85C
:1031E0009DED061B53EC112BFDF752F941EC100B32
:1031F0002F48784400EBC40090ED001B51EC100BFD
:1032000053EC112BFDF73EF99DED061B53EC112BF2
:10321000FDF738F941EC100B2648784400EBC40068
:1032200090ED001B51EC100B53EC112BFDF72DF919
:1032300041EC100B002DA2BFBDEC068B02B070BD9F
:1032400051EC100B81F0004141EC100B01E7000044
:10325000000010440000F07F182D4454FB21F93F7A
:10326000182D4454FB21F9BF0000DC3F0000203E34
:103270000000F33F00000000000000000000F03FED
:103280000000E63F000000000000000000000040D9
:103290000080034000000000000000000000F83F34
:1032A000000000000000F0BF6217000018170000C7
:1032B000A21600005A16000010B52F499FED2C1BD6
:1032C0002DED020B84B0059820F000408842D8BF55
:1032D0009DED040B2DDD2949884209D1049840B9A0
:1032E0004FF0010000F020FD00F0EEFC06B010BD34
:1032F00005DB9DED040B00F0DBFC06B010BD68465D
:103300009DED040B00F0ECF810F0030004BF9DED00
:10331000021B9DED000B0CD001280ED09DED021B71
:103320009DED000B022817D0012000F029FC06B00B
:1033300010BD00F0F1FA06B010BD9DED021B9DED31
:10334000000B012000F01CFC51EC100B81F000413F
:1033500006B041EC100B10BD00F0DEFA51EC100B82
:1033600081F0004106B041EC100B10BD00000000E0
:103370000000000000000000FB21E93F0000F07F9A
:103380002DED020B019820F0004001909DED000B07
:1033900002B070470000000010B52F499FED2C1BB4
:1033A0002DED020B84B0059820F000408842DCBF70
:1033B00000209DED040B32DD2849884209D1049894
:1033C00040B94FF0010000F0AFFC00F07DFC06B00A
:1033D00010BD05DB9DED040B00F06AFC06B010BDCE
:1033E00068469DED040B00F07BF810F0030011D04F
:1033F000012818D09DED021B9DED000B02281AD06C
:1034000000F08AFA51EC100B81F0004106B041EC5B
:10341000100B10BD9DED021B9DED000B012000F077
:10342000AFFB06B010BD9DED021B9DED000B00F043
:1034300073FA06B010BD012000F0A2FB51EC100B96
:1034400081F0004106B041EC100B10BD00000000FF
:103450000000000000000000FB21E93F0000F07FB9
:1034600000B52DED048BB0EE409AF0EE609A83B07B
:1034700051EC190BFDF723FA41EC180B18EE100A6A
:1034800018EE901A8DED008B002818BF012008431C
:1034900020F00040C0F17F6000F1E040C00F14D088
:1034A00019EE101A19EE900A8DED009B002918BF35
:1034B0000121084320F00040C0F17F6000F1E040AE
:1034C000C00F04BF012000F02FFCB0EE480A03B08B
:1034D000F0EE680ABDEC048B00BD000000000000A7
:1034E0002DE9F14F04462DED020B2DED088B8AB02E
:1034F0009FEDE70B80ED020B139EE74826F0004599
:1035000085420ADC9DED120B002084ED000B0AB011
:10351000BDEC088B03B0BDE8F08FE0489FEDE0AB59
:103520009FEDE1BBA84247DDE14F9FEDE39B9FED9F
:10353000E48B9DED120B53EC1A2B51EC100B002E6B
:103540001CDDFCF79FFF41EC100BBD4208D053EC93
:103550001B2B51EC100BFCF795FFC4E900010BE0AD
:1035600053EC192B51EC100BFCF78CFF53EC182B80
:10357000FCF788FFC4E900010120C8E7FCF7E1FE81
:1035800041EC100BBD4208D053EC1B2B51EC100B3F
:10359000FCF7D7FEC4E900010BE053EC192B51EC0A
:1035A000100BFCF7CEFE53EC182BFCF7CAFEC4E957
:1035B00000014FF0FF30AAE7C348A84279DB9DED38
:1035C000120B51EC100B00F0C9FB41EC180B9FEDF6
:1035D000C00B53EC102BFCF75BFF9FEDBF1B53ECB4
:1035E000112BFCF7AEFEFDF7DAF90746FDF731F8CF
:1035F00041EC190B53EC1A2BFCF74AFF53EC182B38
:10360000FCF743FF41EC180B53EC1B2B51EC190B4F
:10361000FCF73EFFDFF8C8A241EC100B4FEA15584B
:103620000125FA4453EC102B51EC180BFCF72AFF40
:10363000032DC4E900013DD0C1F30A5005EB45114B
:10364000A8EB00001139814234DA0AEB051BB0EE19
:1036500048AA9BED000BF0EE68AA53EC102B51EC3E
:10366000190BFCF715FF41EC1B0B51EC1A0B53EC3B
:103670001B2BFCF707FF41EC180B51EC1A0B53EC1A
:10368000182BFCF7FFFE53EC1B2BFCF7FBFE9BED0E
:10369000020B41EC1A0B53EC102B51EC190BFCF7FD
:1036A000F7FE53EC1A2BFCF7EDFE41EC100B6D1CF2
:1036B000B8E70EE0002EA8BF3846BFF628AF94ED5D
:1036C000000B51EC100B81F00041C4E9000178427D
:1036D0001DE7C6F3130040F4801EC6F30A50A0F2A3
:1036E000F530471100F01F05C5F12000DDF848B0A6
:1036F00008900020069007900520EC467949002D9F
:1037000007EB0002794408BF51F8221009D051F8A4
:10371000223001EB8201AB404A68089922FA01F19C
:103720001943A1FB0E26A1FB0B131A449A4234BF86
:103730000123002303EB06080CEB8003D3E901A669
:103740000E448E4234BF0121002192448A4411B1BB
:10375000924502D903E0924501D2012100E0002107
:10376000C3E901A641444CF82010011EA0F101005C
:10377000C4DC029800F10050850F0298DDE9036770
:103780008000DDF81480FCF764FF41EC1A0B304632
:10379000FDF7F8F89FED541B53EC112BFCF778FE66
:1037A00041EC1B0B3846FDF7EDF89FED511B53EC38
:1037B000112BFCF76DFE41EC180B4046FDF7E2F8CB
:1037C0009FED4D1B53EC112BFCF762FE41EC190BE6
:1037D00051EC180B53EC192BFCF7B3FD53EC1B2BDE
:1037E000FCF7AFFD53EC1A2BFCF7ABFDCDE908015C
:1037F000002008909DED080B53EC1A2B51EC100B98
:10380000FCF740FE53EC1B2BFCF73CFE53EC182B53
:10381000FCF738FE53EC192BFCF737FE9FED381BF5
:1038200053EC112BFCF734FE9FED370B41EC180BDA
:1038300053EC102B9DED080B51EC100BFCF728FE00
:1038400053EC182BFCF77DFD9FED310B41EC180B71
:1038500053EC102B9DED080B51EC100BFCF718FEF0
:1038600053EC182BFCF76DFD41EC100B139810F086
:10387000004F06D06D4251EC100B81F0004141EC3D
:10388000100B284684ED000B41E60000000000000C
:103890000000000000000000FB21E93F7CD902404D
:1038A00000004054FB21F93F3163621A61B4D03DFE
:1038B000FB21F93F000000000000601A61B4D03D18
:1038C0007370032E8A19A33BFB21394100000000CD
:1038D00083C8C96D305FE43F000000000000E03F96
:1038E0001A13000068120000000000000000103EE3
:1038F000000000000000103C000000000000103A32
:10390000182D4454FB21F93D3326A611460B113CDA
:1039100000000054FB21F93D10B52DED040B2DEDF9
:10392000088B82B0B0EE419AF0EE619A0B9820F0CD
:1039300000449FED4BABB4F1795F11DA9DED0A0BBA
:1039400051EC100BFDF72BF8002801BFB0EE4A0A2E
:10395000F0EE6A0A02B0BDEC088B04BF04B010BDE3
:103960009DED0A0B53EC102B51EC100BFCF790FD66
:1039700041EC180B3C480621B0EE480AF0EE680A0C
:10398000784400F081F853EC182B51EC100BFCF745
:103990007FFD9DED0A0B41EC1B0B53EC192B51ECF9
:1039A000100BFCF775FD41EC190B53EC1B2B51EC84
:1039B000180BFCF76DFD53EC192BFCF763FD9FED25
:1039C0002C0B41EC190B53EC102B51EC180BFCF7A2
:1039D0005FFD41EC100B2848844210DA53EC192BA0
:1039E00051EC100BFCF74EFD53EC1A2BFCF74DFD80
:1039F00041EC100B02B0BDEC088B04B010BD1F48A9
:103A0000A042BCBF9FED1E1B8DED001B06DBA4F585
:103A100000100190002000909DED001B51EC100B58
:103A200053EC112BFCF72EFD9DED000B41EC180B18
:103A300053EC102B51EC1A0BFCF724FD41EC1A0B44
:103A400053EC192B51EC180BFCF71CFD53EC1A2B03
:103A5000FCF71BFD41EC100BCCE700000000000060
:103A6000000000000000F03F8C0F0000000000008C
:103A7000000000000000E03F3333D33F0000E93F87
:103A8000000000000000D23F70B504462DED028B0F
:103A90004D1E00EBC500B0EE408AF0EE608A90ED5E
:103AA000000B35F0060017D053EC182B51EC100B1F
:103AB000FCF7EEFC41EC100B6D1E04EBC50090ED25
:103AC000001B51EC100B53EC112BFCF73AFC41ECB2
:103AD000100B35F00600E7D1022D36D0042D1CD096
:103AE000062D1CBFBDEC028B70BD53EC182B51ECA6
:103AF000100BFCF7CDFC94ED0A1B53EC112BFCF7DB
:103B000020FC53EC182BFCF7C3FC94ED081B53EC82
:103B1000112BFCF716FC41EC100B53EC182B51EC5D
:103B2000100BFCF7B5FC94ED061B53EC112BFCF7C6
:103B300008FC53EC182BFCF7ABFC94ED040B53EC96
:103B4000102BFCF7FEFB41EC100B53EC182B51EC47
:103B5000100BFCF79DFC94ED021B53EC112BFCF7B2
:103B6000F0FB53EC182BFCF793FC94ED001B53EC8B
:103B7000112BFCF7E6FBBDEC028B41EC100B70BD8A
:103B800031B504462DED040B2DED0A8BB0EE41BA94
:103B9000F0EE61BA0B989DED0A0B20F00040B0F1F9
:103BA000795F0DDA51EC100BFFF754F8042808BFC9
:103BB00000F09AF89DED0A0BBDEC0A8B05B030BD04
:103BC00053EC102B51EC100BFCF762FC41EC180B82
:103BD0009DED0A0B53EC182B51EC100BFCF758FC25
:103BE00041EC190B2C48B0EE480AF0EE680A0521AA
:103BF0007844FFF749FF9FED2ACBB0EE40AAF0EEE4
:103C000060AA9CB353EC1C2B51EC190BFCF740FC45
:103C100041EC1C0B53EC1A2B51EC190BFCF738FC44
:103C20009FED210B41EC190B53EC102B51EC1B0BAE
:103C3000FCF72EFC53EC192BFCF724FC53EC182B4F
:103C4000FCF726FC53EC1B2BFCF71CFC53EC1C2B49
:103C5000FCF718FC9DED0A1B53EC112BFCF715FC2F
:103C6000BDEC0A8B05B041EC100B30BDFFE753EC07
:103C70001A2B51EC180BFCF70BFC53EC1C2BFCF72C
:103C800060FB53EC192BFCF703FC9DED0A1B53EC76
:103C9000112BFCF756FBE3E7140E000000000000B8
:103CA000495555555555C5BF000000000000E03F7F
:103CB00010B553EC102B51EC100BFCF742FB41EC10
:103CC000100B10BD000000009FED050B10B553EC6C
:103CD000102B51EC100BFCF74DFC41EC100B10BD00
:103CE00000000000000000009FED050B10B553EC34
:103CF000102B51EC100BFCF7CBFB41EC100B10BD63
:103D0000000000000000001002E008C8121F08C1F7
:103D1000002AFAD170477047002001E001C1121F4C
:103D2000002AFBD17047000001490860704700007D
:103D30001801002010B50748FDF71CF80548FCF7EE
:103D4000C9FF05496428C86101DA012010BD0020BF
:103D500010BD00001C0100200000002082B0CDE951
:103D6000000121F0004001909DED000B02B051ECEC
:103D7000100B7047A0B0FDF737F9FEF765FCFDF7B3
:103D800031FF3E4C3C48002520604FF41650C4E9FA
:103D900001050C20E560C4E90450A5612046E561F9
:103DA000FDF770FE00B1FEE7344835493C3801604C
:103DB0000221C0E90115C160FDF7D4FC00B1FEE7A6
:103DC0002E481E951EA93C381F95FDF7A3FC00B197
:103DD000FEE7FDF7DDFE2068C16841F02001C1600B
:103DE000142228496846FCF79AFA0021684600F038
:103DF00069F8254C234914226062143105A8FCF7A8
:103E00008EFA002105A800F05DF81E49A062142278
:103E100028310AA8FCF783FA00210AA800F052F81A
:103E20001849E06214223C310FA8FCF778FA00210F
:103E30000FA800F047F8134920631422503114A84A
:103E4000FCF76DFA002114A800F03CF80D496063FE
:103E50001422643119A8FCF762FA002119A800F0B5
:103E600031F89FED0A1ADFED0A0A9FED0A0AA063F6
:103E7000FEF714F8FEE7000000440040A001002017
:103E80000010004098470008000000200000B4C265
:103E9000000000000000A24301460020842900D059
:103EA000C81C704710B5012000F002FB002010BDB7
:103EB00010B500F09BFB012803D0BDE8104000F0D6
:103EC00053BB10BD3EB504460D46B0F90800FFF7E0
:103ED000E3FF02A9CDE90001208A2B4682B2D4E992
:103EE000001000F057FB012801D000203EBD0298D1
:103EF0003EBD00002DE9F041184C0F460546E6682E
:103F00002068001D00F02DFA38B9206890F82C10B8
:103F100001208840216981432161681C07D137B1A4
:103F20002168BDE8F0410E48091D00F052BA206832
:103F30003544B5424560216805D2A06BBDE8F0412B
:103F4000091D00F02EBA606B091D00F02AFAA06A64
:103F5000854200D2A562BDE8F0810000DC000020AF
:103F6000F83E00202DE9F041054600F03FFA2E4CC6
:103F7000A068401CA06020682C4F10B1606940B35D
:103F80002DE02560A068012829D1002606EB8600D7
:103F900007EB800000F0F7F9761C072EF6D32348D4
:103FA0008C3000F0F0F92148A03000F0ECF91F4807
:103FB000B43000F0E8F91D48C83000F0E4F91B48BF
:103FC000DC3000F0E0F919488C3060631430A063F5
:103FD00005E02068E96AC06A884200D82560606A06
:103FE000401C6062E96A0120226988401043206118
:103FF00001EB810007EB8000291D00F0EAF900F0D9
:1040000015FA606900280CD02068E96AC06A884205
:1040100007D207494FF080500860BFF34F8FBFF3BE
:104020006F8FBDE8F0810000DC0000201C3E002006
:1040300004ED00E010484FF47051420706D0C01D57
:104040000D4920F00700411AC1F570510B4A0023B9
:104050000144C2E900030839103A21F00701116058
:104060004B600B600B1AC0E9001393604FF00040E7
:104070005360D060704700001C020020C800002080
:104080002DE9F0479A46DDE9098481466FF0030384
:10409000206B03EB82021044089D20F00706700796
:1040A00007D0502080F31188BFF34F8FBFF36F8F7D
:1040B000FEE723180A5C83F834200A5C12B1401C26
:1040C0001028F6D3002784F84370072D00D3062567
:1040D000E562C4E91157201D00F060F904F11800F1
:1040E00000F05CF92461C5F107006462A061E76437
:1040F00084F8507052464946304600F0BFF82060C0
:10410000B8F1000F01D0C8F80040BDE8F08700000A
:1041100030B5114900E011460A688242FBD34B6872
:104120005C18844203D140681844486008464368DC
:104130001C18944209D1084C103C2468A24209D0B2
:1041400052681A4442600A6812680260814200D0D4
:10415000086030BD0460F9E7C80000200648416BE4
:10416000096829B1416BC968C968496881627047AB
:104170004FF0FF31FAE70000DC00002008484068FB
:10418000401C4FF0500080F3118804D0BFF34F8FD4
:10419000BFF36F8FFEE7BFF34F8FBFF36F8FFEE765
:1041A000D00000202DE9F0410546002700F0A6F9D7
:1041B000314E306808B9FFF73DFFF06805424BD13A
:1041C000C5B3083568070ED005F00700C0F1080038
:1041D0000544680707D0502080F31188BFF34F8F44
:1041E000BFF36F8FFEE72DB37068854234D8224845
:1041F000103001460C6801E020460C466168A94277
:1042000002D221680029F7D131688C4224D0076896
:104210002168016060680837411B10290FD96019B7
:10422000420708D0502080F31188BFF34F8FBFF3AF
:104230006F8FFEE710E041606560FFF769FF61681E
:104240007068401A7060B268904200D2B060F06846
:1042500001430020C4E9000100F03AFA780707D0D2
:10426000502080F31188BFF34F8FBFF36F8FFEE7AD
:104270003846BDE8F0810000B800002010B5031FEB
:104280004FF080741C601B1F21F001011960191F81
:10429000044B0B6014390A60091F6FF002024438A6
:1042A0000A6010BD7D4100089FED091B10B553EC5D
:1042B000112B51EC100BFCF7EBF89FED071B53ECA7
:1042C000112BFCF757F9FCF719FA00EE100A10BD94
:1042D000000000000080764038E92F54FB2119408F
:1042E000B5EEC00AF1EE10FA01DB012070474FF085
:1042F000FF30704700B52DED048B83B041EC190BF6
:10430000FCF7DDFA41EC180B18EE100A18EE901AC3
:104310008DED008B002818BF0120084320F00040DD
:10432000C0F17F6000F1E040C00F14D019EE101A08
:1043300019EE900A8DED009B002918BF012108435A
:1043400020F00040C0F17F6000F1E040C00F04BFEA
:104350000120FFF7E9FC51EC180B03B0BDEC048B16
:1043600000BDD0E9013201699A60D0E901235A60A9
:104370004A68824201D182684A600022026108686C
:10438000401E0860704700F108014FF0FF32C0E99D
:104390000112C160016100210160704700210161CB
:1043A000704730B50B685A1C02D000F1080202E0D9
:1043B000026904E02246546825689D42FAD9536890
:1043C0004B6099608A60516008610168491C016016
:1043D00030BD42684A6093688B6093685960916011
:1043E00008610168491C016070470000502080F39B
:1043F0001188BFF34F8FBFF36F8F0A494868401C85
:10440000486001280CD10848006810F0FF0F07D061
:10441000502080F31188BFF34F8FBFF36F8FFEE7FB
:1044200070470000D000002004ED00E00849486813
:1044300028B1401E486001D180F311887047502098
:1044400080F31188BFF34F8FBFF36F8FFEE700003B
:10445000D000002070B5002827D0144DA0F108042A
:104460006168E868014207D1502080F31188BFF3EA
:104470004F8FBFF36F8FFEE722683AB1502080F371
:104480001188BFF34F8FBFF36F8FFEE781436160E9
:1044900000F034F860686968084468602046FFF7F7
:1044A00037FEBDE8704000F013B970BDB8000020C1
:1044B00010B5020014D00F48006B38B1502080F3C3
:1044C0001188BFF34F8FBFF36F8FFEE700F016F830
:1044D00000211046FFF70EFD00F0FAF8002807D182
:1044E00005494FF080500860BFF34F8FBFF36F8FC7
:1044F00010BD0000DC00002004ED00E00248016B6C
:10450000491C016370470000DC0000201448016B67
:1045100011B10121C16170470021C1610169B1FA86
:1045200081F1C1F11F0101EB81020E4951F82230E6
:104530006BB101EB820101F108034A6852684A60DD
:104540009A4201D152684A60D16801607047502098
:1045500080F31188BFF34F8FBFF36F8FFEE700002A
:10456000DC0000201C3E002010B5502080F3118894
:10457000BFF34F8FBFF36F8F00F046F818B10449B7
:104580004FF080500860002080F3118810BD0000BB
:1045900004ED00E02DE9FF5F8346DDE90E879946D3
:1045A00016468A469000FFF7FDFD05001AD05420FC
:1045B000FFF7F8FD040012D025630021CDE9024188
:1045C000CDE900874B46324651465846FFF758FD25
:1045D0002046FFF7C7FC012004B0BDE8F09F284645
:1045E000FFF738FF4FF0FF30F6E70000054841695C
:1045F00019B1006B18B100207047012070470220EC
:1046000070470000DC0000202DE9F0412E4C00270F
:10461000206B40B1A069401CA061E06900B1012796
:104620003846BDE8F081E668761CE66013D1606B21
:10463000006838B1502080F31188BFF34F8FBFF36B
:104640006F8FFEE7606BA16B6163A063206A401C03
:104650002062FFF783FDA06ADFF87080864209D3ED
:10466000606B006880B1606BC068C568686886422E
:104670000DD2A0622068C06A00EB800158F82100CA
:104680000128CAD90127C8E74FF0FF30F1E7281DFC
:10469000FFF767FEA86A18B105F11800FFF761FE81
:1046A000E86A0121226981401143216100EB800108
:1046B00008EB8100291DFFF78CFEE86A2168C96AB2
:1046C0008842CDD30127CBE7DC0000201C3E002030
:1046D0002DE9F0472C4D00242746286B38B1FFF711
:1046E00085FE286B401E2863286B40B146E05020B1
:1046F00080F31188BFF34F8FBFF36F8FFEE7A96878
:10470000224E0120D1B3A6F1B40980463068E8B149
:10471000F068C46804F11800FFF723FE201DFFF7BE
:1047200020FEE06A2A6908FA00F11143296100EBD2
:10473000800109EB8100211DFFF74BFEE06A29682B
:10474000C96A8842E2D3C5F81C80DFE70CB1FFF7E5
:1047500005FDAC6944B14646FFF756FF00B1EE6176
:10476000641EF9D10020A861E86938B10849012721
:1047700038070860BFF34F8FBFF36F8FFFF756FE08
:104780003846BDE8F0870000DC000020D03E002065
:1047900004ED00E062630000804A00081D2200086A
:1047A000000000000000000080000000304A000807
:1047B000252200080000000000000000800000002A
:1047C000404A0008312300080000000000000000FB
:1047D00080000000504A00083D240008FDFF000052
:1047E0000000000080000000604A00084125000829
:1047F000FDFF00000000000080000000704A00087B
:10480000C51C00080000000000000000800000003F
:104810000000000000000000010203040607080970
:104820000000000001020304555555555555C53F7C
:104830007D6FEB0312D6D4BF5544880E55C1C93FD6
:104840003B8F68B52882A4BF88B20175E0EF493F6D
:1048500009F7FD0DE13D023F4B2D8A1C273A03C0AD
:10486000C88A599CE52A004059018D1B6C06E6BF99
:1048700082922EB1C5B8B33F4FBB610567ACDD3F37
:10488000182D4454FB21E93F9BF681D20B73EF3F77
:10489000182D4454FB21F93FE2652F227F2B7A3CEF
:1048A000075C143326A6813CBDCBF07A8807703CA8
:1048B000075C143326A6913CC4EB98999999C9BF1B
:1048C000711623FEC671BCBF6D9A74AFF2B0B3BF50
:1048D0009AFDDE522DDEADBF2F6C6A2C44B4A2BF10
:1048E0000D5555555555D53FFF8300922449C23F7C
:1048F0006E204CC5CD45B73F513DD0A0660DB13FB0
:10490000EB0D76244B7BA93F11DA22E33AAD903FC1
:104910004C5555555555A53F7751C1166CC156BFDD
:104920009015CB19A001FA3EAD529C804F7E92BEED
:10493000C4B1B4BD9EEE213ED43888BEE9FAA8BD0C
:1049400000004054FB21F93F3163621A61B4D03D4D
:104950000000601A61B4D03D7370032E8A19A33B26
:104960000000002E8A19A33BC14920259A837B3978
:1049700000000000000000006E83F9A22915444EDB
:10498000D15727FCC0DD34F5999562DB4190433C5B
:10499000AB6351FE61C5BBDE3A6E24B7E0D24D4237
:1049A000EA2E49061C92D1091CEB1DFE3EA729B137
:1049B000F53582E88444BB2E26709CE9417E5FB4C5
:1049C00039D69139F43953838B5F849C3B28F9BDE8
:1049D000FF97F81F0F9805DE8B112FEF1F6D0A5AF6
:1049E000CF7E366DB709CB27663F464F2DEA5F9ED7
:1049F000C7BA27757BF1E5EBF739073DEA92528A92
:104A0000B15FFB6B085D8D1FA6F810111111813F7E
:104A1000D561C119A0012ABF7DFEB157E31DC73E74
:104A2000EB9C2B8AE6E55ABE7CD5CF5A3AD9E53DB8
:104A300053746570706572315F5461736B00000070
:104A400053746570706572325F5461736B0000005F
:104A500053746570706572335F5461736B0000004E
:104A600053746570706572345F5461736B0000003D
:104A70004D61696E5F41726D5F5461736B00000040
:104A800064656661756C745461736B00AC4A0008B0
:104A9000000000201C010000083D0008C84B000871
:104AA0001C010020F4410000183D000861000000D6
:104AB00000000000000000000100000001000000F4
:104AC00001000000010000000000000000000000E4
:104AD00000000000000000000000000000000000D6
:104AE00000000000000000000000000000000000C6
:104AF00000000000000000000000000000000000B6
:104B000000000000000000000000000000000000A5
:104B10000000000000000000000000000000000095
:104B20000000000000000000000000000000000085
:104B30000000000000000000000000000000000075
:104B40000000000000000000000000000000000065
:104B50000000000001000000100000000000000044
:104B60000024F4000000000000000000000000002D
:104B70000000000000000000000000000000000035
:104B8000AAAAAAAA0000000000000000000000007D
:104B90000000000000000000000000000000000015
:104BA0000000000000000000000000000000000005
:104BB00000000000000000000000000000000000F5
:084BC0000000000000000000ED
:04000005080001C925
:00000001FF
