:020000040800F2
:100000001043002099020008A1020008A302000882
:10001000A5020008A7020008A902000800000000CD
:10002000000000000000000000000000DD010008EA
:10003000AD0200080000000031020008D9240008C9
:10004000B3020008B3020008B3020008B3020008BC
:10005000B3020008B3020008B3020008B3020008AC
:10006000B3020008B3020008B3020008B30200089C
:10007000B3020008B3020008B3020008B30200088C
:10008000B3020008B3020008B30200080000000039
:10009000000000000000000000000000B3020008A3
:1000A000B3020008CD250008B3020008B30200081F
:1000B000000000000000000000000000B302000883
:1000C000B3020008B3020008B3020008B30200083C
:1000D000B3020008B3020008092A0008000000006B
:1000E000B3020008B3020008000000000000000096
:1000F000000000000000000000000000B302000843
:100100000000000000000000B30200080000000032
:100110000000000000000000D925000800000000D9
:10012000B3020008B3020008B3020008B3020008DB
:10013000B302000800000000000000000000000002
:1001400000000000000000000000000000000000AF
:10015000B3020008B3020008B3020008B3020008AB
:10016000000000000000000000000000000000008F
:10017000000000000000000000000000000000007F
:10018000B3020008B30200080000000000000000F5
:1001900000000000B30200080000000000000000A2
:1001A000000000000000000000000000000000004F
:1001B000000000000000000000000000B302000882
:1001C000B3020008B3020008DFF80CD000F0C8FB4F
:1001D00000480047053C0008104300202B4B1968DD
:1001E0000868B0E8F04F80F30988BFF36F8F4FF0D5
:1001F000000080F311887047000000000648006886
:10020000006880F3088862B661B6BFF34F8FBFF312
:100210006F8F00DF00BF00BF08ED00E0DFF80C00CB
:10022000016841F470010160704700BF88ED00E093
:10023000EFF30980BFF36F8F144B1A681EF0100F95
:1002400008BF20ED108A20E9F04F106008B44FF08D
:10025000500080F31188BFF34F8FBFF36F8F04F00E
:1002600021F94FF0000080F3118808BC1968086874
:10027000B0E8F04F1EF0100F08BFB0EC108A80F30A
:100280000988BFF36F8F704700BF00BFDC000020FC
:10029000EFF3058070470000064880470648004796
:1002A000FEE7FEE7FEE7FEE7FEE7FEE7FEE7FEE726
:1002B000FEE7FEE779250008C90100082DE9F05F97
:1002C0000546002092469B468846064681464024C5
:1002D0001BE0284641464746224600F03AFA53467C
:1002E0005A46C01A914110D311461846224600F0D2
:1002F00021FA2D1A67EB01084F4622460120002102
:1003000000F018FA17EB00094E41201EA4F1010479
:10031000DFDC484631462A464346BDE8F09F40EAC6
:1003200001039B0703D009E008C9121F08C0042A73
:10033000FAD203E011F8013B00F8013B521EF9D25A
:1003400070472DE9FE4F804681EA0300C00F0C463E
:10035000009021F0004123F00045B8EB0200A941D4
:1003600005D24046214690461C460B46024623F0E5
:100370000040104347D0270DC7F30A00C3F30A51CA
:100380000290401A019040286BDAC3F3130040F446
:10039000801B0098924620B10023D2EB030A63EB46
:1003A0000B0B01985946C0F14002504600F0C2F9CB
:1003B00006460D4650465946019A00F0DAF910EB10
:1003C00008006141002487EA115284EAE7731A4366
:1003D00040D0009A62B3019A012A4FEA075215DC15
:1003E000001B61EB02014FF0004202EA0752CDE927
:1003F0000042001C41F5801132462B4600F011FAF4
:1004000003B0BDE8F08F40462146F9E7001B61EBE1
:100410000201001C41F5801300185B412018A2F571
:10042000001747EB030140EAD570B6196D4111E0A2
:100430006D084FEA360645EAC0754FEA0752001BC1
:1004400061EB0201001C41F5801149084FEA3000C0
:100450000019514132462B4603B0BDE8F04F00F081
:10046000D1B90098012240000023D0EB020263EBD7
:10047000E073009821464FEAE074B8EB000061EBAE
:100480000401E9E783F000435BE781F0004158E7AE
:100490002DE9FE4F81EA030404F0004421F00041FD
:1004A00000944FF0000B23F0004350EA01045ED0AB
:1004B00052EA03045BD0C3F30A54C1F30A552C4437
:1004C000A4F2F3340194A0FB0254C1F3130141F4EC
:1004D0008011C3F3130343F4801301FB024400FBB8
:1004E000034E840A970A44EA815447EA8357A4FBDF
:1004F000076802958D0A05FB07854FEA932C04FBDC
:100500000C542705029D4FEA065847EA1637B5EB0B
:1005100008056EEB070C870E920E47EA811742EA38
:100520008312A7FB0201B6EB0B0164EB00042B0D59
:1005300043EA0C335E1844EB1C50DA465146E7FBA5
:100540000201C5F313044FEA0B3343EA14534FEA95
:100550000432019C43EA0603A4F10C040294009CBB
:10056000CDE900B400F05DF903B0BDE8F08F0020E4
:100570000146F9E72DE9F04D81EA030404F0004B50
:1005800021F0004514464FF0000A23F0004150EAE4
:10059000050220D054EA01021DD0C5F30A570246D5
:1005A000C5F31303C1F31300C1F30A5640F48015D9
:1005B00043F48013A7EB0608101BD64608F2FD385B
:1005C00073EB050002D308F1010801E092185B41CA
:1005D000B8F1000F03DA00200146BDE8F08D0020DD
:1005E0004FF48011064684460EE0171B73EB050797
:1005F00005D3121B63EB050306434CEA010C4908C3
:100600004FEA300092185B4150EA0107EDD152EAFF
:10061000030012D082EA040083EA0501084305D0F2
:10062000101BAB4106D20122002306E000224FF04E
:10063000004302E06FF0010253101AEB06004CEB8E
:10064000085110EB0A0041EB0B01BDE8F04D00F042
:10065000D9B80EB5C10F80EAE0700844CA0700217E
:1006600040F233438DE80E000A460B4600F0D9F8FD
:1006700003B000BD00F0004230F000400AD0C10DD0
:1006800001F56071C0F3160042EA0151C20840074B
:1006900011437047002001467047000030B5041E2A
:1006A00071F1000404DB4FF00044404264EB0101AF
:1006B000141E73F1000405DB1C464FF00043524248
:1006C00063EB04038B4208BF824230BD30B5041E89
:1006D00071F1000404DB4FF00044404264EB01017F
:1006E000141E73F1000405DB1C464FF00043524218
:1006F00063EB0403994208BF904230BD01F0004310
:1007000030B421F0004150EA010206D00A0DA2F5F2
:100710006072C1F31301002A02DC30BC0020704774
:10072000440F44EAC104C100E01830BC00EBC250E1
:1007300000F031B8202A04DB203A00FA02F1002050
:1007400070479140C2F1200320FA03F3194390400F
:100750007047202A04DB203A21FA02F0002170477A
:1007600021FA02F3D040C2F1200291400843194619
:100770007047202A06DBCB17203A41FA02F043EA01
:10078000E07306E041FA02F3D040C2F1200291404A
:100790000843194670470029A8BF7047401C49000C
:1007A00008BF20F00100704710B4B0FA80FC00FAD6
:1007B0000CF050EA010404BF10BC704749B1CCF101
:1007C000200421FA04F411FA0CF118BF012121438D
:1007D0000843A3EB0C01CB1D4FEA00614FEA102048
:1007E00042BF002010BC704700EBC35010440029EA
:1007F000A4BF10BC7047401C490008BF20F0010096
:1008000010BC704710B5141E73F1000408DA401CC8
:1008100041F1000192185B411A4301D120F001001F
:1008200010BD2DE9F04D92469B4611B1B1FA81F20F
:1008300002E0B0FA80F220329046FFF77BFF0446D8
:100840000F4640EA0A0041EA0B0153465A46084364
:1008500013D0114653EA010019D0C8F140025046A6
:10086000FFF777FF05460E46504659464246FFF7CA
:1008700061FF084305D0012004E020463946BDE869
:10088000F08D0020054346EAE0762C4337430A9872
:100890006305E40AA0EB08000022FD0A44EA47547D
:1008A0000A3002D500200146E9E701051019694127
:1008B000DDE9084500196941BDE8F04DA2E72DE9E1
:1008C000F04D00231A461B1A8A4103DB0020014623
:1008D000BDE8F08DC1F30A52C1F3130141F4801554
:1008E0004FF0000BD10702D100186D41521E0027B6
:1008F000044640F2FF11384601EB620A3E4680464C
:10090000024600204FF48011FFF723FFC219714106
:10091000BB1846EB0100B4EB030C75EB000C04D3E1
:10092000E41A65EB000517460E46241908F101008C
:100930006D4180463428E3DDF91946EB0600091BBA
:10094000A84103D24FF0FF32134601E000221346C4
:100950001BEB070046EB0A51BDE8F04DFFF752BF15
:10096000064C074D06E0E06840F0010394E80700FC
:1009700098471034AC42F6D3FFF72AFC044B00082A
:10098000244B00080EB540F2334102910021CDE91D
:1009900000110A460B46FFF744FF03B000BD70B5D7
:1009A000C1F30A5201F000450024C1F3130140F2E3
:1009B000FF3341F480119A4201DA002070BD40F209
:1009C00033439A42A2F2334203DC5242FFF7C1FEA4
:1009D00000E090402C43F1D0404270BD454910B535
:1009E0004A6822F440324A604A6843681A434A60BF
:1009F00001684A6822F480724A6001684A680369A3
:100A000042EA03224A6001684A6822F040724A6062
:100A100001684A6883681A434A6001688A6822F458
:100A200000628A6001688A68C3681A438A60816AC2
:100A30006FF07062D14201688A6822F070628A6049
:100A400001688A680CD0836A1A438A6001688A68E0
:100A500022F040528A6001688A68C36A1A4301E042
:100A600022F040528A6001688A6822F002028A609D
:100A700001688A68836942EA43028A60016A002940
:100A800001684A680FD042F400624A6001684A680F
:100A900022F460424A6001684A68174C436A04EBDA
:100AA00043331A4301E022F400624A600168CA6AD3
:100AB00022F47002CA620168CA6A838B0F4C04EB8D
:100AC00003531A43CA6201688A6822F400728A607A
:100AD00001688A68036B42EA43228A6001688A6877
:100AE00022F480628A6001688A68406942EA802054
:100AF000886010BD0023014000E0FFFF0000F0FF10
:100B000070B5012210211D4800F05AFA012210216F
:100B10001B4800F055FA1B4E00254FF4806401225B
:100B20002146304600F04CFA012003F0F9F800228B
:100B30002146304600F044FA012003F0F1F86D1C24
:100B4000642DECDB00224FF48071304600F038FA5F
:100B5000002501222146304600F032FA012003F040
:100B6000DFF800222146304600F02AFA012003F087
:100B7000D7F86D1C642DECDB70BD0000000802404E
:100B8000000402400000024078B50024009490F870
:100B90003C20012A19D0012280F83C200A68072352
:100BA0000568092A13D9EE680A3A02EB420293401B
:100BB0009E43EE600B788A680A3B03EB43039A403E
:100BC0000368DD682A43DA6010E0022078BD2E69F0
:100BD00002EB420293409E432E610B788A6803EB3E
:100BE00043039A4003681D692A431A614A681F2318
:100BF000072A13D205686E6B521E02EB82029340E5
:100C00009E436E630B790A885B1E92B203EB8303EB
:100C10009A4003685D6B2A435A6327E005680D2AF2
:100C200012D22E6BD21F02EB820293409E432E63A0
:100C30000B790A88DB1F92B203EB83039A400368A7
:100C40001D6B2A431A6311E0EE6A0D3A02EB820231
:100C500093409E43EE620B790A880D3B92B203EB00
:100C600083039A400368DD6A2A43DA62164B0568FB
:100C7000144A9D4206D10D68122D03D1556845F4E2
:100C80008005556005689D4218D10B68102B01D076
:100C9000112B13D1536843F40003536009681029E2
:100CA0000CD10A490A4A0968B1FBF2F101EB810152
:100CB000490000E0491E00910029FBD180F83C402A
:100CC000002078BD0023014000200140B400002036
:100CD00040420F000068C06C704770B504004FF0D0
:100CE000000503D0206C002610B107E0012070BD84
:100CF000666484F83C60204600F01AF8206CC00658
:100D000010D4206C20F4885040F00200206420466B
:100D1000FFF764FE6664206C20F0020040F00100E2
:100D2000206400E0012584F83C60284670BD000086
:100D300000B500680C4987B0884212D10B480021E9
:100D4000026842F480720260006800F480700590CE
:100D5000012000900320CDE901016946044800F01C
:100D600079F807B000BD000000200140443802407F
:100D70000000024018B50021009190F83C20012AA3
:100D800007D0012280F83C2002689368DB0702D07C
:100D900011E0022018BD936843F001039360204ADC
:100DA000204B1268B2FBF3F202EB420200E0521E4B
:100DB0000092002AFBD102689368DB072DD0036CF8
:100DC00040F20164A34343F48073036453685B05FA
:100DD00005D5036C23F4005343F480530364036C80
:100DE000DB0404D5436C23F00603436400E0416454
:100DF00080F83C100C496FF02203136049680068CA
:100E0000C90602D00949884207D1816811F0405FC4
:100E100003D1816841F080418160002018BD00004D
:100E2000B400002040420F00002301400020014098
:100E300090F83510022903D08021416501207047C8
:100E4000052180F835100068016821F0010101607A
:100E5000002070472DE9F84FDFF84CB100224FF029
:100E600001084FF0030A4FF00F090BF1040E00BF09
:100E70000B6808FA02F42340A3427DD14D68022D8D
:100E800001D0122D0ED1D50800EB850CDCF82050D6
:100E90005607F70E09FA07F6B5430E69BE402E4312
:100EA000CCF82060066855000F790AFA05FC07F0B7
:100EB000030726EA0C06AF40374307604E68012E51
:100EC00005D0022E03D0112E01D0122E0ED187682C
:100ED000CE6827EA0C07AE403E4386604668A643CC
:100EE0000C79C4F30014944034434460C4688E68A1
:100EF00024EA0C04AE402643C6604C68E4004DD59D
:100F00002A4C256845F480452560246822F00305B5
:100F100004F480440094264C2E19D6F8084895070E
:100F20002F0F09FA07F5AC43224DA84201D1002545
:100F30000AE0214DA84201D1012505E01F4DA8423C
:100F400001D1022500E00725BD402543C6F8085819
:100F5000DBF800405D464E689C43F60300D51C4319
:100F60002C60DEF8004075464E689C43B60300D501
:100F70001C432C600C4D00E010E008352C684E68D6
:100F80009C43F60200D51C432C60074D0C352C68A1
:100F90004E689C43B60200D51C432C60521C102A9C
:100FA000FFF466AFBDE8F88F003C014044380240D2
:100FB00000300140000002400004024000080240EE
:100FC0000AB1816170470904FBE7000001488068AD
:100FD00070470000A8000020024881680278114490
:100FE00081607047A80000200B4810B5016841F4EB
:100FF00000710160016841F480610160016841F4A1
:1010000080710160032000F0B1F8002000F006F8C4
:1010100000F03EF8002010BD003C024010B5014633
:1010200088B00022192000F081F8192000F072F831
:1010300013480024016841F001010160006805A91E
:1010400000F001000690684600F03AF900F06EF9F1
:101050000C490D4AB0FBF1F10C48491E026040F208
:10106000E732C0E90324C0E9011400F07BFB10B1B2
:10107000012008B010BD054800F0AEFBF9E7000004
:101080004438024040420F0000000140E0010020CF
:101090001F4808B5016841F480410160006800F410
:1010A000804000901A48001F016841F080510160A3
:1010B000006800F080500090032000F057F80022F4
:1010C00011466FF00B0000F031F8002211466FF06E
:1010D0000A0000F02BF8002211466FF0090000F022
:1010E00025F800221146501F00F020F8002211467A
:1010F000101F00F01BF800220F21901E00F016F8C0
:1011000000220F21BDE80840501E00F00FB800007B
:101110004438024000F01F02012191404009800044
:1011200000F1E020C0F8001170470000F0B40E4B51
:101130001B680C46C3F30223C3F10705042D00D935
:101140000425191D072901D2002300E0DB1E01261A
:1011500006FA05F1491E214099409E40761E164030
:101160003143F0BC00F08ABE0CED00E0064900F00F
:10117000070208684FF6FF03184040EA0220034ABE
:1011800010430860704700000CED00E00000FA0515
:101190002DE9F0470E46050065D0DFF81481D8F838
:1011A0000000F7B200F00F00B04207D288F80070DC
:1011B000D8F8000000F00F00B04254D128683D4C30
:1011C000810712D5400703D5206840F4E050206025
:1011D0002878000703D5206840F46040206020682C
:1011E000A96820F0F000084320602878C0072DD0BF
:1011F000304968680839012812D0022813D0032822
:1012000011D00968890700292DDA216821F003012E
:1012100001432160FFF7DAFE814641F2883A0EE091
:1012200009688903EFE709688901ECE7FFF7CEFE5B
:10123000A0EB0901514502D90320BDE8F0872068E1
:10124000696800F00C00B0EB810FEFD1D8F8001006
:10125000404601F00F01B14207D90770006800F065
:101260000F00B04201D00120E7E72878400705D5FC
:101270002068E96820F4E0500843206028780007DF
:1012800006D52068296920F4604040EAC10020604A
:1012900000F05CF82168084AC1F30311515CC840B2
:1012A000064908600020FFF7B9FE0020C5E70000EE
:1012B000003C02400838024088480008B400002082
:1012C0000F2202600C4A136803F0030343601368A3
:1012D00003F0F0038360136803F4E053C360126803
:1012E0004FF4E05303EAD20202610448006800F0C0
:1012F0000F0008607047000008380240003C0240C0
:101300000148006870470000B40000200448054907
:1013100000680968044AC1F38221515CC8407047E3
:10132000B4000020083802409848000804480549E5
:1013300000680968044AC1F34231515CC8407047F3
:10134000B40000200838024098480008154810B53D
:10135000006810F00C02144813D04110042A0FD07A
:10136000082A0ED10F4C241F2268236802F03F0286
:101370005B0207D52068C0F38810A0FB010106E0DE
:10138000084610BD2168C1F38811A1FB00010023AC
:10139000FEF794FF2168C1F30141491C4900B0FBED
:1013A000F1F010BD083802400024F4002DE9F84F98
:1013B00005460078DFF800B3C04CC0074AD0DBF820
:1013C00000105846C1F38101012908D00068C0F31C
:1013D000810002280AD1201D0068400206D520683D
:1013E000800337D56868002872D033E06868B0F5AC
:1013F000803F10D0B0F5A02F206810D020F48030AE
:101400002060206820F4802020606868A8B1FFF781
:10141000DDFD06460DE0206840F48030F4E740F43E
:1014200080202060F7E700BFFFF7D0FD801B642815
:101430006FD820688003F7D50CE0FFF7C7FD06469C
:1014400005E000BFFFF7C2FD801B6428F0D82068CC
:101450008003F7D42878DFF8688280074FF000090E
:1014600040D5DBF80010584611F00C0F09D0006889
:10147000C0F3810002280BD18F48001F0068400292
:1014800006D42068800715D5E868012820D111E02E
:10149000E868B8B10120C8F80000FFF797FD0646DC
:1014A00005E000BFFFF792FD801B0228C0D820682E
:1014B0008007F7D52068296920F0F80040EAC100CC
:1014C00020600FE0C8F80090FFF780FD064606E0B8
:1014D000EFE000BFFFF77AFD801B022819D82068D3
:1014E0008007F7D42878000722D5734E75486969BC
:1014F0006C3679B101210160FFF768FD074604E011
:10150000FFF764FDC01B022803D830688007F7D5B9
:101510000EE089E0C0F80090FFF758FD074604E0B0
:10152000FFF754FDC01B02287ED830688007F7D42F
:101530002878400768D5DFF880A100270AF1380A2B
:10154000DAF80000C0000BD4DAF8001041F0805146
:10155000CAF80010DAF80000012700F0805000906F
:10156000594E3068C00510D4306840F48070306047
:10157000FFF72CFD009005E0FFF728FD0099401AC9
:10158000022851D83068C005F6D54B4EA868683699
:1015900001280FD00528306810D020F001003060FD
:1015A000306820F004003060A868B8B1FFF70EFD85
:1015B00000900FE0306840F00100F4E740F00400D4
:1015C0003060F7E7FFF702FD0099411A41F28830D9
:1015D000814266D830688007F4D50EE0FFF7F6FC4C
:1015E000009007E0FFF7F2FC0099411A41F28830C1
:1015F000814256D830688007F4D42FB1DAF8001051
:1016000021F08051CAF80010A869D0B3DBF80010AF
:10161000C1F3810102294CD00228484607D0C8F8FE
:101620006000FFF7D3FC00E03BE005463CE04746A6
:10163000C8F86000FFF7CAFC064604E0FFF7C6FCE6
:10164000801B02282DD820688001F7D4F5E9070116
:101650000843E9681D4A490802EB0141AA6841EACA
:1016600082110843297C40EA0160297D40EA01712A
:101670001148001F016001203866FFF7A7FC0546EE
:1016800005E014E0FFF7A2FC401B022809D82068FF
:101690008001F7D50BE000BFFFF798FC401B022844
:1016A00002D90320BDE8F88F20688001F4D400201F
:1016B000F8E70120F6E70000083802400038024051
:1016C00000004742800E4742007000400000FFFFCC
:1016D0004FF0E0210428086903D020F004000861DD
:1016E000704740F00400FAE710B5401EB0F1807F6B
:1016F00001D3012010BD4FF0E02460610F2160177D
:1017000000F0BCFB0020A06107202061002010BD7C
:101710007047704730B590F83820012A20D0012258
:1017200080F83820022380F8393003685C6824F0A0
:1017300070045C6003685C680D682C435C6003683F
:101740009C6824F080049C6003689C6849680C4392
:101750009C6080F83920002180F83810084630BDA0
:10176000022030BD10B5040003D094F8390010B148
:1017700007E0012010BD002084F83800204600F06A
:101780000DF8022084F83900211D206800F02AFF9E
:10179000012084F83900002010BD000008B5006861
:1017A0000B49884212D10B48016841F010010160D9
:1017B0000068002200F01000009005213620FFF79D
:1017C000B5FCBDE808403620FFF7A4BC08BD00000A
:1017D00000100040403802400168CA6842F001022F
:1017E000CA600068016841F0010101600020704793
:1017F000704770B50446006801694FF00005C943A1
:10180000890715D4C168C943890711D4E91E01614C
:1018100001202076206880698007204602D0FFF7EB
:10182000E7FF04E000F098F8204600F096F82576EF
:1018300020680169C943490717D4C168C9434907EA
:1018400013D46FF0040101610220207620688069C2
:1018500010F4407F204602D0FFF7CAFF04E000F0FA
:101860007BF8204600F079F8257620680169C943A5
:10187000090716D4C168C943090712D46FF00801DB
:101880000161042020762068C0698007204602D0CC
:10189000FFF7AEFF04E000F05FF8204600F05DF8CF
:1018A000257620680169C943C90617D4C168C943B0
:1018B000C90613D46FF0100101610820207620685A
:1018C000C06910F4407F204602D0FFF791FF04E08A
:1018D00000F042F8204600F040F8257620680169C3
:1018E000C943C90708D1C168C943C90704D1891EC2
:1018F0000161204600F032F820680169C9430906F9
:1019000009D4C168C943090605D46FF0800101619B
:101910002046FFF7FDFE20680169C943490609D446
:10192000C168C943490605D46FF0400101612046F2
:1019300000F01EF820680169C94389060BD4C1680C
:10194000C943890607D46FF0200101612046BDE834
:101950007040FFF7DEBE70BD7047704700680349F6
:10196000884201D1FFF738BB7047000000000140FA
:101970007047704770B5026804461068D1685369B3
:1019800010F00F0F50D003F0010501F490763543AD
:101990005DD0C20705D0CA0503D5E26B42F0010253
:1019A000E263420705D5DA0703D0E26B42F0020298
:1019B000E263820705D5DA0703D0E26B42F0040246
:1019C000E263020705D5DA0703D0E26B42F00802B2
:1019D000E263E26B002A33D0800604D5880602D584
:1019E000204600F043FE20684069E16BC0F38010A0
:1019F000090700D428B3204600F02AFE2068416978
:101A000049061AD5416921F040014161606BA0B1DE
:101A10001B490165606BFFF70BFA002810D0606B63
:101A2000016DBDE870400847830610D58B060ED5C2
:101A30002046BDE8704000F019BE2046FFF799FF30
:101A400070BD2046FFF795FF0020E06370BD0306E0
:101A500006D50B0604D52046BDE8704000F0A2BFB5
:101A60004006F3D54806F1D5D168204621F0400163
:101A7000D160202184F8391000F089F870BD000091
:101A80004126000870B5040004D094F83900002500
:101A900010B106E0012070BD84F83850204600F0F7
:101AA00023F8242084F839002068C16821F400510B
:101AB000C160204600F020FE2068016921F49041B9
:101AC00001612068416921F02A0141612068C168F3
:101AD00041F40051C160E563202084F8390084F8A6
:101AE0003A00002070BD000000B50068124987B0C0
:101AF00088421ED11148016841F40031016000683C
:101B0000694600F4003005900C20009002200190FE
:101B10000120029003200390072004900848FFF75B
:101B200099F9002205212620FFF700FB2620FFF768
:101B3000F1FA07B000BD0000004400404038024008
:101B40000000024090F83A30202B1DD1D1B1CAB12B
:101B500090F83830012B17D081628285C285002130
:101B6000C163222280F83A2080F8381001684A695F
:101B700042F001024A610068C16841F49071C1609D
:101B8000002070470120704702207047704770475F
:101B90007FB512481049002401604FF48031416044
:101BA000046184610902046281600D49C0E90A147C
:101BB0000125C460C56145610463FFF78EF800B17B
:101BC000FEE7CDE90045694604480294FEF7DCFFD4
:101BD000002800D0FEE77FBD002001401C0100204E
:101BE0000100000F2DE9F047314886B0002401685C
:101BF00041F004010160016801F0040105910168F0
:101C000041F080010160016801F0800105910168E7
:101C100041F001010160016801F0010105910168D5
:101C200041F0020101600068DFF8888000F00200E6
:101C30004FF4EC650590002229464046FFF7C0F9B5
:101C4000DFF874904FF4C266002231464846FFF731
:101C5000B7F9DFF868A04FF487670022394650468D
:101C6000FFF7AEF94FF4005000901548CDE901049C
:101C700069464846FFF7EEF800950125CDE9015485
:101C8000694640460394FFF7E5F80096CDE9015414
:101C9000694648460394FFF7DDF80097CDE9015403
:101CA000694650460394FFF7D5F806B0BDE8F087C3
:101CB00030380240000002400008024000040240A8
:101CC000000021102DED0A8B9FED628B9FED63CB01
:101CD000644C9FED659A6125012002F021F894ED96
:101CE000180B01F031FAB0EE40AAF0EE60AA94EDC4
:101CF0001C0B01F029FA53EC182B51EC100BFEF7DA
:101D0000C7FB41EC1B0B94ED1A0B01F01DFA53ECD1
:101D1000182B51EC100BFEF7BBFB53EC1B2BFEF703
:101D200010FB53EC1A2BFEF7B3FBFEF7E7FCA063A6
:101D300094ED180B01F078FAB0EE40AAF0EE60AA2C
:101D400094ED1C0B01F000FA53EC182B51EC100B26
:101D5000FEF79EFB41EC1B0B94ED1A0B01F0F4F91E
:101D600053EC182B51EC100BFEF792FB53EC1B2B92
:101D7000FEF7E7FA53EC1A2BFEF78AFBFEF7BEFCE0
:101D8000E06394ED1C0B01F04FFA53EC182B51EC6F
:101D9000100BFEF77DFB41EC1A0B94ED1A0B01F0D2
:101DA00043FA53EC182B51EC100BFEF771FB53EC7C
:101DB0001A2BFEF7C6FA53EC1C2BFEF763FBFEF75B
:101DC0009DFC6060206C002886D0606C002883D069
:101DD000A06C002880D0A0680028F5D02078622868
:101DE00024D101F0EFFE60B163202070FEF788FE81
:101DF0009FED1E1ADFED1E0A9FED1E0A00F04EF841
:101E000008E0B0EE490AB0EE401AF0EE400A00F0E9
:101E100045F82570206C0028D6D0606C0028D3D0FF
:101E2000A06C0028D0D0A0680028CDD020786328EE
:101E30007FF452AF002210210F48FFF7C1F8B0EE37
:101E4000490AB0EE401AF0EE400A00F027F825707B
:101E500042E7000000000000004064400000000075
:101E600000005440000000200000000000009643E5
:101E70000020CB4500409C45000802400907090EA0
:101E8000002806DA00F00F0000F1E02080F8141DB1
:101E9000704700F1E02080F80014704770B52DED18
:101EA000088BB0EE408AF0EE608A28EE080AB0EEA9
:101EB000419A08EEA80A10EE100AFEF7DBFB41EC8F
:101EC000100B01F015FA51EC100BFEF717FC0AEE9F
:101ED000900A9FED6B0A79EE009A29EEA90A10EE9E
:101EE000100AFEF7C7FB2AEEAA9A41EC1B0B19EE6B
:101EF000100AFEF7BFFB81F0004153EC1B2BFEF7ED
:101F0000C1FA9FED601B53EC112BFEF733FBFEF77C
:101F1000F5FB0AEE100AB5EEC08A5C4CF1EE10FA41
:101F20000ED1B0EE680A02F063F9FEF792FB9FED66
:101F3000581B53EC112BFEF7ABFAC4E91E010BE062
:101F400088EE880A10EE100AFEF794FB41EC100BA5
:101F500000F08EFF84ED1E0B3AEE8A0A10EE100A96
:101F6000FEF788FB09EEA99A41EC1B0B0AEE4A9A90
:101F700019EE100AFEF77EFB41EC100B01F0B8F9E8
:101F8000B0EE40AAF0EE60AA19EE900AFEF772FBDE
:101F900053EC1A2BFEF776FA53EC1B2BFEF7EAFAFA
:101FA00041EC100B00F064FF9FED3B1B51EC100B5C
:101FB00053EC112BFEF76CFA344D41EC100B9FEDF6
:101FC000389BB5EEC08A8035F1EE10FA85ED000B36
:101FD00008D101F0B9F8B0EE40AAF0EE60AA18EE10
:101FE000900A13E001F0B0F8B0EE40AAF0EE60AA5B
:101FF00094ED1E0B01F0A8F853EC192B51EC100BCB
:10200000FEF746FA41EC190B18EE100AFEF732FB08
:1020100053EC192BFEF7AEFA53EC1A2BFEF732FAFB
:1020200041EC100B00F078FD85ED020B94ED1E0BDA
:1020300002F0C2F810EE100AFEF71CFBC4E91E0104
:1020400095ED000B02F0B8F810EE100AFEF712FB47
:10205000C5E9000195ED020B02F0AEF810EE100A92
:10206000FEF708FBC5E902019FED0F0B002084ED90
:10207000160B20646064A064A060BDEC088B70BD8A
:102080000000A04200000000004074C000000020DA
:1020900038E92F54FB21F93F000000000000004008
:1020A000000000000040644000000000008056C0B6
:1020B000012001F035FEFBE72DED028B40F2DC59EB
:1020C0009FED398BDFF8E8803A4C012594ED180B31
:1020D00053EC102B94ED1E0B51EC100BFEF7D2F9C4
:1020E00041EC100B01F094F853EC182B51EC100B51
:1020F000FEF7ECFA56D294ED1E0B53EC102B94ED38
:10210000180B51EC100BFEF7C9FA0BD2E068401C1B
:1021100008D1012210214046FEF752FF484601F047
:10212000FFFDE56094ED1E0B53EC102B94ED180BA6
:1021300051EC100BFEF7CAFA0DD2E06801280AD163
:10214000002210214046FEF73BFF484601F0E8FD23
:102150004FF0FF30E0600122174F960231463846BB
:10216000FEF72EFF012001F0DBFD0022314638464C
:10217000FEF726FF012001F0D3FD206A401C2062FB
:10218000E068FEF766FA9FED0D1B53EC112BFEF78E
:102190007FF994ED181B53EC112BFEF7D2F8C4E92C
:1021A000180193E7256491E79A9999999999B93F0C
:1021B0000004024000000020000002409544ECCFE3
:1021C0002234AF3F2DED028B4FF480783B4D9FEDD5
:1021D000398BDFF8EC9040F2DC5AA5F1800401263F
:1021E00094ED1A0B53EC102B95ED000B51EC100BEA
:1021F000FEF748F941EC100B01F00AF853EC182BEC
:1022000051EC100BFEF762FA52D295ED000B53EC35
:10221000102B94ED1A0B51EC100BFEF73FFA0BD27A
:102220002069401C08D1012241464846FEF7C8FEFD
:10223000504601F075FD266195ED000B53EC102B17
:1022400094ED1A0B51EC100BFEF740FA0DD22069F9
:1022500001280AD1002241464846FEF7B1FE504609
:1022600001F05EFD4FF0FF302061164F012220216A
:102270003846FEF7A5FE012001F052FD0022202184
:102280003846FEF79DFE012001F04AFD2069FEF769
:10229000E0F99FED0D1B53EC112BFEF7F9F894EDCF
:1022A0001A1B53EC112BFEF74CF8C4E91A0197E7FF
:1022B000666495E79A9999999999B93F80000020A9
:1022C00000000240000402403F0A674FB354AC3F95
:1022D0002DED028B40F2DC583A4D9FED388B3A4F92
:1022E000A5F180045FF0010694ED1C0B53EC102B5C
:1022F00095ED020B51EC100BFEF7C4F841EC100BFE
:1023000000F086FF53EC182B51EC100BFEF7DEF9B2
:1023100051D295ED020B53EC102B94ED1C0B51ECAC
:10232000100BFEF7BBF90BD26069401C08D10122EB
:1023300020213846FEF744FE404601F0F1FC66617C
:1023400095ED020B53EC102B94ED1C0B51EC100B84
:10235000FEF7BCF90DD2606901280AD100222021C4
:102360003846FEF72DFE404601F0DAFC4FF0FF3014
:102370006061012240213846FEF722FE012001F073
:10238000CFFC002240213846FEF71AFE012001F062
:10239000C7FC6069FEF75DF99FED0C1B53EC112B38
:1023A000FEF776F894ED1C1B53EC112BFDF7C9FFDB
:1023B000C4E91C0198E7A66496E700009A999999E8
:1023C0009999B93F8000002000000240204A19106E
:1023D000D8D7AB3F2DED028B4FF480679FED388B44
:1023E000394E3A4C40F2DC585FF0010594ED140B85
:1023F00053EC102B94ED160B51EC100BFEF742F83A
:1024000041EC100B00F004FF53EC182B51EC100BB7
:10241000FEF75CF951D294ED160B53EC102B94EDB2
:10242000140B51EC100BFEF739F90BD2A069401CCC
:1024300008D1012239463046FEF7C2FD404601F080
:102440006FFCA56194ED160B53EC102B94ED140B5F
:1024500051EC100BFEF73AF90DD2A06901280AD110
:10246000002239463046FEF7ABFD404601F058FCED
:102470004FF0FF30A061012208213046FEF7A0FD99
:10248000012001F04DFC002208213046FEF798FDA6
:10249000012001F045FCA069FEF7DBF89FED0C1B65
:1024A00053EC112BFDF7F4FF94ED141B53EC112B9F
:1024B000FDF747FFC4E9140198E7A56096E700001F
:1024C0009A9999999999B93F000402400000002017
:1024D0005E6017C48E66AC3F01F02DBC30B5244859
:1024E00093B00025016841F080510160006800F060
:1024F000805012901F48016841F44041016000681B
:10250000022400F440401290012003901020049017
:10251000009406940820CDE907506420CDE9090411
:102520000420CDE90B046846FEF740FF00B1FEE74A
:102530000DA90F2081E831004FF48050CDE910053E
:1025400003210DA8FEF724FE00B1FEE7FEF7D8FE3A
:102550004FF47A71B0FBF1F0FFF7C6F80420FFF7F3
:10256000B7F800220F21501EFEF7E0FD13B030BD7A
:1025700040380240007000401048016841F470018A
:1025800001600F48016841F0010101600C4A00211F
:102590000832116002680B4B1A400260031D0A4AA0
:1025A0001A60026822F48022026005480C30016043
:1025B00002495806803908607047000088ED00E045
:1025C00000380240FFFFF6FE103000240148FFF7FC
:1025D00010B90000E00100200148FFF70AB900002F
:1025E0006401002030B50268114B124C984201D0B2
:1025F000A04203D122F070054A682A43984207D0CE
:10260000A04205D00C4CA04202D00C4CA04203D1F9
:1026100022F44074CA68224302608A68C2620A686F
:102620008262984201D1096901630121416130BD93
:1026300000000140000C0040004001400048014003
:1026400010B5806B0021C185C184FFF792F910BDE0
:102650000168CA6822F49072CA6001684A6922F06F
:1026600001024A61202180F83A10704710B590F8B5
:102670003A10222901D0022010BD8168B1F5805F97
:1026800011D00169002901681FD0496801F07F035A
:10269000816A4A1C82620B70C18D491E0904090CB3
:1026A000C18518D026E00269816A002A0268526852
:1026B00005D0D2B20A80816A491C8162ECE7C2F37C
:1026C00008020A80816A891CF7E74A68816A4B1C04
:1026D00083620A70E0E70168CA6822F49072CA60F7
:1026E00001684A6922F001024A61202180F83A100B
:1026F000FFF74CFA002010BD2DE9F04104460068B8
:10270000016921F44052E168114301612168C86800
:1027100049F20C6290432369A268E5691A43636930
:102720002B431A430243CA602168486920F440726F
:10273000A06910434861E1696425B1F5004F9748ED
:10274000974A21684FF032083FD0914201D0814230
:102750007CD1FEF7EBFD00EBC00101EB00106168DE
:102760008900B0FBF1F6FEF7E1FD00EBC00101EBE3
:10277000001061688900B0FBF1F0B0FBF5F06FF07C
:102780001801484306EB800108EB0110B0FBF5F09F
:1027900000F0F006FEF7CAFD00EBC00101EB0010EF
:1027A00061688900B0FBF1F0B0FBF5F006EB0016B4
:1027B000FEF7BCFD00EBC00101EB00106168890071
:1027C000B0FBF1F7FEF7B2FDD2E0914201D08142B9
:1027D0003DD1FEF7ABFD00EBC00101EB00106168DD
:1027E0004900B0FBF1F0B0FBF5F00601FEF79EFDED
:1027F00000EBC00101EB001061684900B0FBF1F78C
:10280000FEF794FD00EBC00101EB00106168490088
:10281000B0FBF1F0B0FBF5F06FF01801484307EBA7
:10282000800108EBC100B0FBF5F000F0F80006EB0A
:102830004006FEF77BFD00EBC00101EB0010616874
:102840004900B0FBF1F7FEF771FD3CE055E0FEF703
:102850005DFD00EBC00101EB001061684900B0FBB9
:10286000F1F0B0FBF5F00601FEF750FD00EBC00102
:1028700001EB001061684900B0FBF1F7FEF746FD7F
:1028800000EBC00101EB001061684900B0FBF1F002
:10289000B0FBF5F06FF01801484307EB800108EB3F
:1028A000C100B0FBF5F000F0F80006EB4006FEF7C3
:1028B0002DFD00EBC00101EB001061684900B0FB89
:1028C000F1F7FEF723FD00EBC00101EB001061689A
:1028D0004900B0FBF1F0B0FBF5F06FF01801484390
:1028E00007EB800108EBC100B0FBF5F000F007003A
:1028F000216830448860BDE8F081FEF707FD00EBF9
:10290000C00101EB001061688900B0FBF1F6FEF731
:10291000FDFC00EBC00101EB001061688900B0FB19
:10292000F1F0B0FBF5F06FF01801484306EB8001C1
:1029300008EB0110B0FBF5F000F0F006FEF7E6FC46
:1029400000EBC00101EB001061688900B0FBF1F001
:10295000B0FBF5F006EB0016FEF7D8FC00EBC0016B
:1029600001EB001061688900B0FBF1F7FEF7CEFCC7
:1029700000EBC00101EB001061688900B0FBF1F0D1
:10298000B0FBF5F06FF01801484307EB800108EB4E
:102990000110B0FBF5F000F00F00A9E700140140B2
:1029A0000010014090F83910212901D00220704711
:1029B0008168B1F5805F016A0BD04A1C026202682F
:1029C00009785160C18C491E0904090CC1840ED0DC
:1029D00017E009880268C1F3080151600169002904
:1029E000016A02D0491C0162ECE7891CFBE701681F
:1029F000CA6822F08002CA600068C16841F04001E4
:102A0000C1600020704700002DE9F0412A48FEF720
:102A1000B1FF062229492848FFF794F8284C274897
:102A2000284923685B1C236002780A7046784E7040
:102A300087788F702449C578062B0D7090F804C0F4
:102A400081F801C04079887033D1303A02EBC2017D
:102A500001EB02111D4A06EB860307EB810102EB35
:102A6000430319441A4B303D196005EBC50303EBD2
:102A7000051300EB83000CEB8C0302EB43021044C4
:102A8000144A154D154B10602A781B789A420ED0C7
:102A900000EE100A9FED121AF8EEC00A00EE101AAE
:102AA000B8EEC00AFFF7FAF90E4800782870002047
:102AB0002060BDE8F0810000A0010020A2000020FD
:102AC000980000209C0000209F000020F0FDFFFFE8
:102AD0009000002094000020000000200D48000815
:102AE0000000FAC30C48000803B4019841000098A4
:102AF00050EAC12018BF04204A0D18BF40F0010061
:102B000040F2FF72B2EB515F08BF40F002000128B3
:102B100008BF052002B0704710B5B94A2DED020B71
:102B20002DED0C8B82B00F9921F000409FEDB6CBBC
:102B300090422CDBA0F140530E9AA3F17F631A431D
:102B40000FD0B349884202DC16D10E98A0B19DED9A
:102B50000E0B02B0BDEC0C8B02B0BDE8104000F0D3
:102B6000EFBF0029C1BF9FEDAC0B02B0BDEC0C8BD9
:102B700002B0C8BF10BD16E0012001F01DF802B080
:102B8000BDEC0C8B02B0BDE8104000F0E5BFA44ADC
:102B90009FEDA59B9FEDA6AB90425EDAA6499FED07
:102BA000A8CB814208DBB0EE4C0AF0EE6C0A02B012
:102BB000BDEC0C8B02B010BD9DED0E0B53EC102B39
:102BC00051EC100BFDF764FC41EC180B9E480621FC
:102BD000B0EE480AF0EE680A784400F09DFE53EC2F
:102BE000182B51EC100BFDF753FC41EC1B0B9748D5
:102BF000B0EE480AF0EE680A0421784400F08CFE3A
:102C000053EC182B51EC100BFDF742FC53EC192B35
:102C1000FDF797FB41EC100B51EC1B0B53EC102B09
:102C2000FDF7A8FC41EC100B53EC102B9DED0E0BA7
:102C300051EC100BFDF72CFC53EC1A2BFDF725FC87
:102C40009DED0E1B53EC112BFDF71FFC53EC1C2BC1
:102C5000FDF71BFC41EC100BA9E79FED7D8B9FED71
:102C60007EBB9DED0E0B002953EC192B51EC100B84
:102C700052DAFDF766FB53EC182BFDF709FC41EC2B
:102C8000180B77480621B0EE480AF0EE680A78443F
:102C900000F042FE53EC182B51EC100BFDF7F8FB43
:102CA00041EC1D0B6F48B0EE480AF0EE680A0421B3
:102CB000784400F031FE53EC182B51EC100BFDF76B
:102CC000E7FB53EC192BFDF73CFB41EC190B51ECE6
:102CD000180B01F097FA41EC180B53EC192B51EC3F
:102CE0001D0BFDF747FC53EC182BFDF7D1FB53EC04
:102CF0001A2BFDF7C7FB41EC100B51EC180B53ECF2
:102D0000102BFDF71EFB53EC1B2BFDF7C1FB53EC07
:102D10001C2BFDF7BAFB6DE0FDF7B7FB53EC182B4E
:102D2000FDF7B6FB41EC180B01F06CFA41EC1A0B05
:102D300000208DED00AB00909DED000B51EC1A0BC7
:102D400053EC102BFDF7FDFA9DED000B41EC1C0B35
:102D500053EC102B51EC100BFDF79AFB53EC182B96
:102D6000FDF793FB53EC1C2BFDF704FC41EC1C0B13
:102D70003D48B0EE480AF0EE680A0621784400F0BB
:102D8000CBFD53EC182B51EC100BFDF781FB41EC04
:102D90001D0B3648B0EE480AF0EE680A042178446C
:102DA00000F0BAFD53EC182B51EC100BFDF770FB43
:102DB00053EC192BFDF7C5FA41EC100B51EC1D0B30
:102DC00053EC102BFDF7D6FB53EC1A2BFDF760FBF1
:102DD00053EC1C2BFDF7B5FA41EC100B53EC102B08
:102DE0009DED000B51EC100BFDF7ABFA53EC1B2BD8
:102DF000FDF74EFB41EC100BD9E60000000000008F
:102E00000000F03F00000000182D4454FB21094051
:102E10000000F07F00000000000000000000000043
:102E20000000E03F00000000000000000000F03F54
:102E3000075C143326A6913C0000603C00000000B3
:102E4000182D4454FB21F93FC41C0000D21C000083
:102E5000000000000000E03F000000000000004013
:102E60000E1C00001C1C0000201B00002E1B00007C
:102E700070B59B482DED020B2DED068B079D25F0BF
:102E80000044A04218DC9748844202DC0AD106982C
:102E900040B19DED060BBDEC068B02B0BDE8704065
:102EA00000F04EBE002DCCBF9FED8F0B9FED900B21
:102EB000BDEC068B02B070BD8F48A04215DD8F4877
:102EC000A042D8BF4FF0FF3458DD9DED060B51EC0A
:102ED000100BFFF709FE042808BF00F04DFE9DED22
:102EE000060BBDEC068B02B070BD9DED060B51ECE0
:102EF000100B00F07BFECDE9060181489FED828B2F
:102F0000A0423CDD8248A0421FDD00249FED82AB41
:102F10009DED060B53EC1A2B51EC100BFDF711FA3B
:102F20009DED060B41EC190B53EC1A2B51EC100BD9
:102F3000FDF7AEFA53EC182BFDF7A4FA53EC192B5E
:102F4000FDF718FBCDE9060149E09DED060B0124D4
:102F500053EC182B51EC100BFDF7F3F99DED060B1C
:102F600041EC190B53EC182B51EC100BFDF78AFABE
:102F700053EC192BFDF7FEFACDE906012FE0684866
:102F8000A0421FDD02249FED689B9DED060B53ECD4
:102F9000192B51EC100BFDF77BFA53EC182BFDF7B6
:102FA000D0F99DED060B41EC180B53EC192B51ECAD
:102FB000100BFDF767FA53EC182BFDF7DBFACDE9A0
:102FC00006010CE09DED060B032453EC102B9FED46
:102FD000580B51EC100BFDF7CDFACDE906019DED34
:102FE000060B53EC102B51EC100BFDF751FA41EC92
:102FF000180B53EC182BFDF74BFA41EC190B4E480C
:103000000621B0EE490AF0EE690A784400F084FC2B
:1030100053EC182B51EC100BFDF73AFA41EC180B5E
:103020004648B0EE490AF0EE690A0521784400F0FE
:1030300073FC53EC192B51EC100BFDF729FA41EC02
:10304000100B51EC180B53EC102B002C0EDAFDF783
:1030500078F99DED061B53EC112BFDF719FA9DED48
:10306000061B53EC112BFDF710FA35E0FDF769F95B
:103070009DED061B53EC112BFDF70AFA41EC100BEA
:103080002F48784400EBC40090ED001B51EC100B6E
:1030900053EC112BFDF7F6F99DED061B53EC112BAC
:1030A000FDF7F0F941EC100B2648784400EBC40022
:1030B00090ED001B51EC100B53EC112BFDF7E5F9D3
:1030C00041EC100B002DA2BFBDEC068B02B070BD11
:1030D00051EC100B81F0004141EC100B01E70000B6
:1030E000000010440000F07F182D4454FB21F93FEC
:1030F000182D4454FB21F9BF0000DC3F0000203EA6
:103100000000F33F00000000000000000000F03F5E
:103110000000E63F0000000000000000000000404A
:103120000080034000000000000000000000F83FA5
:10313000000000000000F0BF4A1900000019000064
:103140008A1800004218000010B52F499FED2C1B73
:103150002DED020B84B0059820F000408842D8BFC6
:103160009DED040B2DDD2949884209D1049840B911
:103170004FF0010000F020FD00F0EEFC06B010BDA5
:1031800005DB9DED040B00F0DBFC06B010BD6846CE
:103190009DED040B00F0ECF810F0030004BF9DED72
:1031A000021B9DED000B0CD001280ED09DED021BE3
:1031B0009DED000B022817D0012000F029FC06B07D
:1031C00010BD00F0F1FA06B010BD9DED021B9DEDA3
:1031D000000B012000F01CFC51EC100B81F00041B1
:1031E00006B041EC100B10BD00F0DEFA51EC100BF4
:1031F00081F0004106B041EC100B10BD0000000052
:103200000000000000000000FB21E93F0000F07F0B
:103210002DED020B019820F0004001909DED000B78
:1032200002B070470000000010B52F499FED2C1B25
:103230002DED020B84B0059820F000408842DCBFE1
:1032400000209DED040B32DD2849884209D1049805
:1032500040B94FF0010000F0AFFC00F07DFC06B07B
:1032600010BD05DB9DED040B00F06AFC06B010BD3F
:1032700068469DED040B00F07BF810F0030011D0C0
:10328000012818D09DED021B9DED000B02281AD0DD
:1032900000F08AFA51EC100B81F0004106B041ECCD
:1032A000100B10BD9DED021B9DED000B012000F0E9
:1032B000AFFB06B010BD9DED021B9DED000B00F0B5
:1032C00073FA06B010BD012000F0A2FB51EC100B08
:1032D00081F0004106B041EC100B10BD0000000071
:1032E0000000000000000000FB21E93F0000F07F2B
:1032F00000B52DED048BB0EE409AF0EE609A83B0ED
:1033000051EC190BFDF7DBFA41EC180B18EE100A23
:1033100018EE901A8DED008B002818BF012008438D
:1033200020F00040C0F17F6000F1E040C00F14D0F9
:1033300019EE101A19EE900A8DED009B002918BFA6
:103340000121084320F00040C0F17F6000F1E0401F
:10335000C00F04BF012000F02FFCB0EE480A03B0FC
:10336000F0EE680ABDEC048B00BD00000000000018
:103370002DE9F14F04462DED020B2DED088B8AB09F
:103380009FEDE70B80ED020B139EE74826F000450A
:1033900085420ADC9DED120B002084ED000B0AB083
:1033A000BDEC088B03B0BDE8F08FE0489FEDE0ABCB
:1033B0009FEDE1BBA84247DDE14F9FEDE39B9FED11
:1033C000E48B9DED120B53EC1A2B51EC100B002EDD
:1033D0001CDDFDF757F841EC100BBD4208D053EC53
:1033E0001B2B51EC100BFDF74DF8C4E900010BE06D
:1033F00053EC192B51EC100BFDF744F853EC182B40
:10340000FDF740F8C4E900010120C8E7FCF799FF87
:1034100041EC100BBD4208D053EC1B2B51EC100BB0
:10342000FCF78FFFC4E900010BE053EC192B51ECC2
:10343000100BFCF786FF53EC182BFCF782FFC4E956
:1034400000014FF0FF30AAE7C348A84279DB9DEDA9
:10345000120B51EC100B00F0C9FB41EC180B9FED67
:10346000C00B53EC102BFDF713F89FEDBF1B53EC73
:10347000112BFCF766FFFDF792FA0746FDF7E9F816
:1034800041EC190B53EC1A2BFDF702F853EC182BF7
:10349000FCF7FBFF41EC180B53EC1B2B51EC190B09
:1034A000FCF7F6FFDFF8C8A241EC100B4FEA155805
:1034B0000125FA4453EC102B51EC180BFCF7E2FFFA
:1034C000032DC4E900013DD0C1F30A5005EB4511BD
:1034D000A8EB00001139814234DA0AEB051BB0EE8B
:1034E00048AA9BED000BF0EE68AA53EC102B51ECB0
:1034F000190BFCF7CDFF41EC1B0B51EC1A0B53ECF5
:103500001B2BFCF7BFFF41EC180B51EC1A0B53ECD3
:10351000182BFCF7B7FF53EC1B2BFCF7B3FF9BED0D
:10352000020B41EC1A0B53EC102B51EC190BFCF76E
:10353000AFFF53EC1A2BFCF7A5FF41EC100B6D1CF1
:10354000B8E70EE0002EA8BF3846BFF628AF94EDCE
:10355000000B51EC100B81F00041C4E900017842EE
:103560001DE7C6F3130040F4801EC6F30A50A0F214
:10357000F530471100F01F05C5F12000DDF848B017
:1035800008900020069007900520EC467949002D10
:1035900007EB0002794408BF51F8221009D051F816
:1035A000223001EB8201AB404A68089922FA01F10E
:1035B0001943A1FB0E26A1FB0B131A449A4234BFF8
:1035C0000123002303EB06080CEB8003D3E901A6DB
:1035D0000E448E4234BF0121002192448A4411B12D
:1035E000924502D903E0924501D2012100E0002179
:1035F000C3E901A641444CF82010011EA0F10100CE
:10360000C4DC029800F10050850F0298DDE90367E1
:103610008000DDF81480FDF71CF841EC1A0B3046F1
:10362000FDF7B0F99FED541B53EC112BFCF730FF65
:1036300041EC1B0B3846FDF7A5F99FED511B53ECF0
:10364000112BFCF725FF41EC180B4046FDF79AF9CA
:103650009FED4D1B53EC112BFCF71AFF41EC190B9E
:1036600051EC180B53EC192BFCF76BFE53EC1B2B96
:10367000FCF767FE53EC1A2BFCF763FECDE908015B
:10368000002008909DED080B53EC1A2B51EC100B09
:10369000FCF7F8FE53EC1B2BFCF7F4FE53EC182B55
:1036A000FCF7F0FE53EC192BFCF7EFFE9FED381BF7
:1036B00053EC112BFCF7ECFE9FED370B41EC180B94
:1036C00053EC102B9DED080B51EC100BFCF7E0FEBA
:1036D00053EC182BFCF735FE9FED310B41EC180B2A
:1036E00053EC102B9DED080B51EC100BFCF7D0FEAA
:1036F00053EC182BFCF725FE41EC100B139810F03F
:10370000004F06D06D4251EC100B81F0004141ECAE
:10371000100B284684ED000B41E60000000000007D
:103720000000000000000000FB21E93F7CD90240BE
:1037300000004054FB21F93F3163621A61B4D03D6F
:10374000FB21F93F000000000000601A61B4D03D89
:103750007370032E8A19A33BFB213941000000003E
:1037600083C8C96D305FE43F000000000000E03F07
:103770000215000050140000000000000000103E80
:10378000000000000000103C000000000000103AA3
:10379000182D4454FB21F93D3326A611460B113C4C
:1037A00000000054FB21F93D10B52DED040B2DED6B
:1037B000088B82B0B0EE419AF0EE619A0B9820F03F
:1037C00000449FED4BABB4F1795F11DA9DED0A0B2C
:1037D00051EC100BFDF7E3F8002801BFB0EE4A0AE8
:1037E000F0EE6A0A02B0BDEC088B04BF04B010BD55
:1037F0009DED0A0B53EC102B51EC100BFCF748FE1F
:1038000041EC180B3C480621B0EE480AF0EE680A7D
:10381000784400F081F853EC182B51EC100BFCF7B6
:1038200037FE9DED0A0B41EC1B0B53EC192B51ECB1
:10383000100BFCF72DFE41EC190B53EC1B2B51EC3C
:10384000180BFCF725FE53EC192BFCF71BFE9FED24
:103850002C0B41EC190B53EC102B51EC180BFCF713
:1038600017FE41EC100B2848844210DA53EC192B58
:1038700051EC100BFCF706FE53EC1A2BFCF705FE7F
:1038800041EC100B02B0BDEC088B04B010BD1F481A
:10389000A042BCBF9FED1E1B8DED001B06DBA4F5F7
:1038A00000100190002000909DED001B51EC100BCA
:1038B00053EC112BFCF7E6FD9DED000B41EC180BD2
:1038C00053EC102B51EC1A0BFCF7DCFD41EC1A0BFE
:1038D00053EC192B51EC180BFCF7D4FD53EC1A2BBD
:1038E000FCF7D3FD41EC100BCCE70000000000001A
:1038F000000000000000F03F741100000000000014
:10390000000000000000E03F3333D33F0000E93FF8
:10391000000000000000D23F70B504462DED028B80
:103920004D1E00EBC500B0EE408AF0EE608A90EDCF
:10393000000B35F0060017D053EC182B51EC100B90
:10394000FCF7A6FD41EC100B6D1E04EBC50090EDDD
:10395000001B51EC100B53EC112BFCF7F2FC41EC6B
:10396000100B35F00600E7D1022D36D0042D1CD007
:10397000062D1CBFBDEC028B70BD53EC182B51EC17
:10398000100BFCF785FD94ED0A1B53EC112BFCF793
:10399000D8FC53EC182BFCF77BFD94ED081B53EC83
:1039A000112BFCF7CEFC41EC100B53EC182B51EC17
:1039B000100BFCF76DFD94ED061B53EC112BFCF77F
:1039C000C0FC53EC182BFCF763FD94ED040B53EC97
:1039D000102BFCF7B6FC41EC100B53EC182B51EC00
:1039E000100BFCF755FD94ED021B53EC112BFCF76B
:1039F000A8FC53EC182BFCF74BFD94ED001B53EC8B
:103A0000112BFCF79EFCBDEC028B41EC100B70BD42
:103A100031B504462DED040B2DED0A8BB0EE41BA05
:103A2000F0EE61BA0B989DED0A0B20F00040B0F16A
:103A3000795F0DDA51EC100BFFF756F8042808BF38
:103A400000F09AF89DED0A0BBDEC0A8B05B030BD75
:103A500053EC102B51EC100BFCF71AFD41EC180B3A
:103A60009DED0A0B53EC182B51EC100BFCF710FDDD
:103A700041EC190B2C48B0EE480AF0EE680A05211B
:103A80007844FFF749FF9FED2ACBB0EE40AAF0EE55
:103A900060AA9CB353EC1C2B51EC190BFCF7F8FCFF
:103AA00041EC1C0B53EC1A2B51EC190BFCF7F0FCFE
:103AB0009FED210B41EC190B53EC102B51EC1B0B20
:103AC000FCF7E6FC53EC192BFCF7DCFC53EC182B51
:103AD000FCF7DEFC53EC1B2BFCF7D4FC53EC1C2B4B
:103AE000FCF7D0FC9DED0A1B53EC112BFCF7CDFC31
:103AF000BDEC0A8B05B041EC100B30BDFFE753EC79
:103B00001A2B51EC180BFCF7C3FC53EC1C2BFCF7E5
:103B100018FC53EC192BFCF7BBFC9DED0A1B53EC76
:103B2000112BFCF70EFCE3E7FC0F00000000000087
:103B3000495555555555C5BF000000000000E03FF0
:103B400010B553EC102B51EC100BFCF7FAFB41ECC9
:103B5000100B10BD000000009FED050B10B553ECDD
:103B6000102B51EC100BFCF705FD41EC100B10BDB8
:103B700000000000000000009FED050B10B553ECA5
:103B8000102B51EC100BFCF783FC41EC100B10BD1B
:103B9000000000000000001002E008C8121F08C169
:103BA000002AFAD170477047002001E001C1121FBE
:103BB000002AFBD1704700000149086070470000EF
:103BC0001801002010B50748FDF7D4F80548FDF7A7
:103BD00081F805496428C86101DA012010BD002080
:103BE00010BD00001C0100200000002082B0CDE9C3
:103BF000000121F0004001909DED000B02B051EC5E
:103C0000100B7047A0B0FDF7EFF9FEF767FCFDF76A
:103C1000E9FF3A4C3848002520604FF41650C4E9BB
:103C200001050C20E560C4E90450A5612046E5616A
:103C3000FDF728FF00B1FEE7304831493C3801600C
:103C40000221C0E90115C160FDF78CFD00B1FEE75E
:103C50002A48199519A93C381A95FDF75BFD00B162
:103C6000FEE7FDF795FF2068C16841F02001C160C3
:103C7000142224496846FCF752FB0021684600F0F4
:103C800064F8214C1F4914226062143105A8FCF726
:103C900046FB002105A800F058F81A49A06214223A
:103CA00028310AA8FCF73BFB00210AA800F04DF8D8
:103CB0001449E06214223C310FA8FCF730FB0021CC
:103CC0000FA800F042F80F4920631422503114A8C5
:103CD000FCF725FB002114A800F037F809496063C0
:103CE000142264311BA8FCF71AFB9FED080B84ED2E
:103CF0001E0B00F01BF8FEE700440040A00100206E
:103D000000100040104800080000002000000000E3
:103D10000080664001460020842900D0C81C7047FE
:103D200010B5012000F05CFB002010BD10B500F0C4
:103D30007DFB002010BD10B500F094FC012803D0DD
:103D4000BDE8104000F04CBC10BD3EB504460D4629
:103D5000B0F90800FFF7DEFF02A9CDE90001208AD3
:103D60002B4682B2D4E9001000F050FC012801D0AB
:103D700000203EBD02983EBD2DE9F041184C0F4693
:103D80000546E6682068001D00F073FA38B920681F
:103D900090F82C1001208840216981432161681C22
:103DA00007D137B12168BDE8F0410E48091D00F088
:103DB00098BA20683544B5424560216805D2A06BA9
:103DC000BDE8F041091D00F074BA606B091D00F0F8
:103DD00070FAA06A854200D2A562BDE8F0810000B9
:103DE000DC000020F83E00202DE9F041054600F0FF
:103DF00085FA2E4CA068401CA06020682C4F10B1A2
:103E0000606940B32DE02560A068012829D1002613
:103E100006EB860007EB800000F03DFA761C072ECB
:103E2000F6D323488C3000F036FA2148A03000F059
:103E300032FA1F48B43000F02EFA1D48C83000F0A6
:103E40002AFA1B48DC3000F026FA19488C306063EF
:103E50001430A06305E02068E96AC06A884200D88F
:103E60002560606A401C6062E96A0120226988401E
:103E70001043206101EB810007EB8000291D00F059
:103E800030FA00F05BFA606900280CD02068E96A1B
:103E9000C06A884207D207494FF080500860BFF3DC
:103EA0004F8FBFF36F8FBDE8F0810000DC00002072
:103EB0001C3E002004ED00E070B5114E114C17E0DF
:103EC00000F0E8FA3068B8B100F03EFC00F016FAF5
:103ED000F068C568281D00F0CCF9A068401EA060FD
:103EE0006068401E606000F029FA284600F00CF877
:103EF00060680028E4D170BD00F026FCF8E70000FF
:103F0000E43E0020DC00002010B50446006B00F009
:103F100029FA2046BDE8104000F024BA10484FF4BA
:103F20007051420706D0C01D0D4920F00700411A0C
:103F3000C1F570510B4A00230144C2E9000308395E
:103F4000103A21F0070111604B600B600B1AC0E9B9
:103F5000001393604FF000405360D0607047000042
:103F60001C020020C8000020074C4FF08056074D6F
:103F7000FFF7A2FF20680128FAD92E60BFF34F8F08
:103F8000BFF36F8FF4E700001C3E002004ED00E05B
:103F90002DE9F0479A46DDE9098481466FF0030375
:103FA000206B03EB82021044089D20F00706700787
:103FB00007D0502080F31188BFF34F8FBFF36F8F6E
:103FC000FEE723180A5C83F834200A5C12B1401C17
:103FD0001028F6D3002784F84370072D00D3062558
:103FE000E562C4E91157201D00F060F904F11800E2
:103FF00000F05CF92461C5F107006462A061E76428
:1040000084F8507052464946304600F0BFF82060B0
:10401000B8F1000F01D0C8F80040BDE8F0870000FB
:1040200030B5114900E011460A688242FBD34B6863
:104030005C18844203D140681844486008464368CD
:104040001C18944209D1084C103C2468A24209D0A3
:1040500052681A4442600A6812680260814200D0C5
:10406000086030BD0460F9E7C80000200648416BD5
:10407000096829B1416BC968C9684968816270479C
:104080004FF0FF31FAE70000DC00002008484068EC
:10409000401C4FF0500080F3118804D0BFF34F8FC5
:1040A000BFF36F8FFEE7BFF34F8FBFF36F8FFEE756
:1040B000D00000202DE9F0410546002700F0EAF984
:1040C000314E306808B9FFF729FFF06805424BD13F
:1040D000C5B3083568070ED005F00700C0F1080029
:1040E0000544680707D0502080F31188BFF34F8F35
:1040F000BFF36F8FFEE72DB37068854234D8224836
:10410000103001460C6801E020460C466168A94267
:1041100002D221680029F7D131688C4224D0076887
:104120002168016060680837411B10290FD96019A8
:10413000420708D0502080F31188BFF34F8FBFF3A0
:104140006F8FFEE710E041606560FFF769FF61680F
:104150007068401A7060B268904200D2B060F06837
:1041600001430020C4E9000100F0EEFA780707D00F
:10417000502080F31188BFF34F8FBFF36F8FFEE79E
:104180003846BDE8F0810000B800002010B5031FDC
:104190004FF080741C601B1F21F001011960191F72
:1041A000044B0B6014390A60091F6FF00202443897
:1041B0000A6010BD8D4000089FED091B10B553EC3F
:1041C000112B51EC100BFCF763F99FED071B53EC1F
:1041D000112BFCF7CFF9FCF791FA00EE100A10BD95
:1041E000000000000080764038E92F54FB21194080
:1041F000B5EEC00AF1EE10FA01DB012070474FF076
:10420000FF30704700B52DED048B83B041EC190BE6
:10421000FCF755FB41EC180B18EE100A18EE901A3B
:104220008DED008B002818BF0120084320F00040CE
:10423000C0F17F6000F1E040C00F14D019EE101AF9
:1042400019EE900A8DED009B002918BF012108434B
:1042500020F00040C0F17F6000F1E040C00F04BFDB
:104260000120FFF7A9FC51EC180B03B0BDEC048B47
:1042700000BDD0E9013201699A60D0E901235A609A
:104280004A68824201D182684A600022026108685D
:10429000401E0860704700F108014FF0FF32C0E98E
:1042A0000112C160016100210160704700210161BC
:1042B000704730B50B685A1C02D000F1080202E0CA
:1042C000026904E02246546825689D42FAD9536881
:1042D0004B6099608A60516008610168491C016007
:1042E00030BD42684A6093688B6093685960916002
:1042F00008610168491C016070470000502080F38C
:104300001188BFF34F8FBFF36F8F0A494868401C75
:10431000486001280CD10848006810F0FF0F07D052
:10432000502080F31188BFF34F8FBFF36F8FFEE7EC
:1043300070470000D000002004ED00E00849486804
:1043400028B1401E486001D180F311887047502089
:1043500080F31188BFF34F8FBFF36F8FFEE700002C
:10436000D000002070B5002827D0144DA0F108041B
:104370006168E868014207D1502080F31188BFF3DB
:104380004F8FBFF36F8FFEE722683AB1502080F362
:104390001188BFF34F8FBFF36F8FFEE781436160DA
:1043A00000F078F860686968084468602046FFF7A4
:1043B00037FEBDE8704000F0C7B970BDB8000020FE
:1043C00006484FF4FA610068B0FBF1F14FF0E020CD
:1043D000491E41610721016170470000B4000020BF
:1043E00010B5020014D00F48006B38B1502080F394
:1043F0001188BFF34F8FBFF36F8FFEE700F04AF8CD
:1044000000211046FFF7B8FC00F09EF9002807D104
:1044100005494FF080500860BFF34F8FBFF36F8F97
:1044200010BD0000DC00002004ED00E01CB51548C4
:104430000024CDE900402346802213A1144800F057
:10444000E5F8012809D0401C1AD1502080F31188CA
:10445000BFF34F8FBFF36F8FFEE7502080F31188BB
:10446000BFF34F8FBFF36F8F06484FF0FF312C38EB
:10447000816201214161C460BDE81C4000F040B888
:104480001CBD00000801002049444C45000000000C
:10449000693F00080248016B491C01637047000036
:1044A000DC0000201448016B11B10121C16170478B
:1044B0000021C1610169B1FA81F1C1F11F0101EB74
:1044C00081020E4951F822306BB101EB820101F1FA
:1044D00008034A6852684A609A4201D152684A60A9
:1044E000D16801607047502080F31188BFF34F8F6F
:1044F000BFF36F8FFEE70000DC0000201C3E0020B1
:104500001CB532480168324A914207D1502080F3ED
:104510001188BFF34F8FBFF36F8FFEE700682C4900
:10452000491E884207D1502080F31188BFF34F8F76
:10453000BFF36F8FFEE7274908780190FF200870CE
:1045400008788DF800009DF800009DF8002000F02C
:10455000F000904207D0502080F31188BFF34F8FB6
:10456000BFF36F8FFEE79DF800001B4A00F050007C
:1045700010700720906005E09DF800305B008DF81A
:104580000030401E9DF800301B06F5D4000200F4F8
:10459000E0609060019808700C482030016841F498
:1045A00070010160016841F070410160FFF708FF90
:1045B00000205060FBF732FE0848016841F040419E
:1045C0000160FBF71BFE00201CBD000000ED00E0B9
:1045D00071C20F4100E400E0D000002034EF00E0A1
:1045E00010B5502080F31188BFF34F8FBFF36F8F4A
:1045F00000F046F818B104494FF0805008600020E0
:1046000080F3118810BD000004ED00E02DE9FF5F8C
:104610008346DDE90E87994616468A469000FFF7E5
:1046200049FD05001AD05420FFF744FD040012D0C4
:1046300025630021CDE90241CDE900874B46324692
:1046400051465846FFF7A4FC2046FFF7CDFB01205A
:1046500004B0BDE8F09F2846FFF784FE4FF0FF301E
:10466000F6E700000548416919B1006B18B1002058
:10467000704701207047022070470000DC000020D6
:104680002DE9F0412E4C0027206B40B1A069401C61
:10469000A061E06900B101273846BDE8F081E66815
:1046A000761CE66013D1606B006838B1502080F34F
:1046B0001188BFF34F8FBFF36F8FFEE7606BA16B65
:1046C0006163A063206A401C2062FFF7CFFCA06AF0
:1046D000DFF87080864209D3606B006880B1606B40
:1046E000C068C568686886420DD2A0622068C06A4A
:1046F00000EB800158F821000128CAD90127C8E73A
:104700004FF0FF30F1E7281DFFF7B3FDA86A18B19D
:1047100005F11800FFF7ADFDE86A0121226981402B
:104720001143216100EB800108EB8100291DFFF797
:10473000D8FDE86A2168C96A8842CDD30127CBE752
:10474000DC0000201C3E00202DE9F0472C4D002409
:104750002746286B38B1FFF7D1FD286B401E286330
:10476000286B40B146E0502080F31188BFF34F8F93
:10477000BFF36F8FFEE7A968224E0120D1B3A6F1E7
:10478000B40980463068E8B1F068C46804F11800E4
:10479000FFF76FFD201DFFF76CFDE06A2A6908FA3C
:1047A00000F11143296100EB800109EB8100211D1B
:1047B000FFF797FDE06A2968C96A8842E2D3C5F825
:1047C0001C80DFE70CB1FFF751FCAC6944B14646F1
:1047D000FFF756FF00B1EE61641EF9D10020A86119
:1047E000E86938B10849012738070860BFF34F8FDF
:1047F000BFF36F8FFFF7A2FD3846BDE8F0870000DA
:10480000DC000020D03E002004ED00E062630000E8
:10481000F84A0008B1200008000000000000000075
:1048200080000000A84A0008B9200008000000002D
:104830000000000080000000B84A0008C521000800
:10484000000000000000000080000000C84A0008CE
:10485000D1220008FDFF00000000000080000000E1
:10486000D84A0008D5230008FDFF00000000000022
:1048700080000000E84A0008C51C00080000000095
:1048800000000000800000000000000000000000A8
:1048900001020304060708090000000001020304E6
:1048A000555555555555C53F7D6FEB0312D6D4BFB1
:1048B0005544880E55C1C93F3B8F68B52882A4BFB7
:1048C00088B20175E0EF493F09F7FD0DE13D023F78
:1048D0004B2D8A1C273A03C0C88A599CE52A004000
:1048E00059018D1B6C06E6BF82922EB1C5B8B33F4D
:1048F0004FBB610567ACDD3F182D4454FB21E93FF8
:104900009BF681D20B73EF3F182D4454FB21F93FE6
:10491000E2652F227F2B7A3C075C143326A6813C6C
:10492000BDCBF07A8807703C075C143326A6913C17
:10493000C4EB98999999C9BF711623FEC671BCBF83
:104940006D9A74AFF2B0B3BF9AFDDE522DDEADBFEB
:104950002F6C6A2C44B4A2BF0D5555555555D53F03
:10496000FF8300922449C23F6E204CC5CD45B73F1E
:10497000513DD0A0660DB13FEB0D76244B7BA93F96
:1049800011DA22E33AAD903F4C5555555555A53FA8
:104990007751C1166CC156BF9015CB19A001FA3ED4
:1049A000AD529C804F7E92BEC4B1B4BD9EEE213EFE
:1049B000D43888BEE9FAA8BD00004054FB21F93F75
:1049C0003163621A61B4D03D0000601A61B4D03D19
:1049D0007370032E8A19A33B0000002E8A19A33B93
:1049E000C14920259A837B390000000000000000A7
:1049F0006E83F9A22915444ED15727FCC0DD34F54A
:104A0000999562DB4190433CAB6351FE61C5BBDECF
:104A10003A6E24B7E0D24D42EA2E49061C92D109E3
:104A20001CEB1DFE3EA729B1F53582E88444BB2E60
:104A300026709CE9417E5FB439D69139F4395383AD
:104A40008B5F849C3B28F9BDFF97F81F0F9805DE0C
:104A50008B112FEF1F6D0A5ACF7E366DB709CB270A
:104A6000663F464F2DEA5F9EC7BA27757BF1E5EB9F
:104A7000F739073DEA92528AB15FFB6B085D8D1FE3
:104A8000A6F810111111813FD561C119A0012ABFEB
:104A90007DFEB157E31DC73EEB9C2B8AE6E55ABE6F
:104AA0007CD5CF5A3AD9E53D537465707065723143
:104AB0005F5461736B0000005374657070657232EF
:104AC0005F5461736B0000005374657070657233DE
:104AD0005F5461736B0000005374657070657234CD
:104AE0005F5461736B0000004D61696E5F41726DD0
:104AF0005F5461736B00000064656661756C74548B
:104B000061736B00244B0008000000201C010000B2
:104B1000983B0008404C00081C010020F4410000B4
:104B2000A83B000861000000000000000000000039
:104B30000100000001000000010000000100000071
:104B40000000000000000000000000000000000065
:104B50000000000000000000000000000000000055
:104B60000000000000000000000000000000000045
:104B70000000000000000000000000000000000035
:104B80000000000000000000000000000000000025
:104B90000000000000000000000000000000000015
:104BA0000000000000000000000000000000000005
:104BB00000000000000000000000000000000000F5
:104BC00000000000000000000000000001000000E4
:104BD00010000000000000000024F40000000000AD
:104BE00000000000000000000000000000000000C5
:104BF0000000000000000000AAAAAAAA000000000D
:104C000000000000000000000000000000000000A4
:104C10000000000000000000000000000000000094
:104C20000000000000000000000000000000000084
:104C30000000000000000000000000000000000074
:04000005080001C925
:00000001FF
