:020000040800F2
:10000000C842002099020008A1020008A3020008CB
:10001000A5020008A7020008A902000800000000CD
:10002000000000000000000000000000DD010008EA
:10003000AD0200080000000031020008152500088C
:10004000B3020008B3020008B3020008B3020008BC
:10005000B3020008B3020008B3020008B3020008AC
:10006000B3020008B3020008B3020008B30200089C
:10007000B3020008B3020008B3020008B30200088C
:10008000B3020008B3020008B30200080000000039
:10009000000000000000000000000000B3020008A3
:1000A000B302000809260008B3020008B3020008E2
:1000B000000000000000000000000000B302000883
:1000C000B3020008B3020008B3020008B30200083C
:1000D000B3020008B3020008452A0008000000002F
:1000E000B3020008B3020008000000000000000096
:1000F000000000000000000000000000B302000843
:100100000000000000000000B30200080000000032
:10011000000000000000000015260008000000009C
:10012000B3020008B3020008B3020008B3020008DB
:10013000B302000800000000000000000000000002
:1001400000000000000000000000000000000000AF
:10015000B3020008B3020008B3020008B3020008AB
:10016000000000000000000000000000000000008F
:10017000000000000000000000000000000000007F
:10018000B3020008B30200080000000000000000F5
:1001900000000000B30200080000000000000000A2
:1001A000000000000000000000000000000000004F
:1001B000000000000000000000000000B302000882
:1001C000B3020008B3020008DFF80CD000F02AFCEC
:1001D0000048004745480008C84200202B4B1968DA
:1001E0000868B0E8F04F80F30988BFF36F8F4FF0D5
:1001F000000080F311887047000000000648006886
:10020000006880F3088862B661B6BFF34F8FBFF312
:100210006F8F00DF00BF00BF08ED00E0DFF80C00CB
:10022000016841F470010160704700BF88ED00E093
:10023000EFF30980BFF36F8F144B1A681EF0100F95
:1002400008BF20ED108A20E9F04F106008B44FF08D
:10025000500080F31188BFF34F8FBFF36F8F04F00E
:1002600031FF4FF0000080F3118808BC196808685E
:10027000B0E8F04F1EF0100F08BFB0EC108A80F30A
:100280000988BFF36F8F704700BF00BF9800002040
:10029000EFF3058070470000064880470648004796
:1002A000FEE7FEE7FEE7FEE7FEE7FEE7FEE7FEE726
:1002B000FEE7FEE7B5250008C90100082DE9F05F5B
:1002C0000546002092469B468846064681464024C5
:1002D0001BE0284641464746224600F035FA534681
:1002E0005A46C01A914110D311461846224600F0D2
:1002F0001CFA2D1A67EB01084F4622460120002107
:1003000000F013FA17EB00094E41201EA4F101047E
:10031000DFDC484631462A464346BDE8F09F40EAC6
:1003200001039B0703D009E008C9121F08C0042A73
:10033000FAD203E011F8013B00F8013B521EF9D25A
:10034000704770B5064602F02FFC046805460A2285
:100350000021304600F01AFA2C6070BD2DE9FE4FE6
:10036000804681EA0300C00F0C46009021F0004156
:1003700023F00045B8EB0200A94105D240462146D2
:1003800090461C460B46024623F00040104347D0DF
:10039000270DC7F30A00C3F30A510290401A0190D7
:1003A00040286BDAC3F3130040F4801B0098924698
:1003B00020B10023D2EB030A63EB0B0B01985946E3
:1003C000C0F14002504600F0B0F906460D465046D6
:1003D0005946019A00F0C8F910EB08006141002469
:1003E00087EA115284EAE7731A4340D0009A62B355
:1003F000019A012A4FEA075215DC001B61EB02014A
:100400004FF0004202EA0752CDE90042001C41F5DC
:10041000801132462B4600F037FA03B0BDE8F08F6A
:1004200040462146F9E7001B61EB0201001C41F543
:10043000801300185B412018A2F5001747EB030159
:1004400040EAD570B6196D4111E06D084FEA3606E5
:1004500045EAC0754FEA0752001B61EB0201001C20
:1004600041F5801149084FEA3000001951413246E8
:100470002B4603B0BDE8F04F00F0F7B90098012219
:1004800040000023D0EB020263EBE07300982146AA
:100490004FEAE074B8EB000061EB0401E9E783F098
:1004A00000435BE781F0004158E72DE9FE4F81EA08
:1004B000030404F0004421F0004100944FF0000BCD
:1004C00023F0004350EA01045ED052EA03045BD0FB
:1004D000C3F30A54C1F30A552C44A4F2F334019433
:1004E000A0FB0254C1F3130141F48011C3F31303C1
:1004F00043F4801301FB024400FB034E840A970A75
:1005000044EA815447EA8357A4FB076802958D0AA1
:1005100005FB07854FEA932C04FB0C542705029D2D
:100520004FEA065847EA1637B5EB08056EEB070C9D
:10053000870E920E47EA811742EA8312A7FB020157
:10054000B6EB0B0164EB00042B0D43EA0C335E1891
:1005500044EB1C50DA465146E7FB0201C5F3130495
:100560004FEA0B3343EA14534FEA0432019C43EA47
:100570000603A4F10C040294009CCDE900B400F041
:1005800083F903B0BDE8F08F00200146F9E72DE9BB
:10059000F04D81EA030404F0004B21F000451446BD
:1005A0004FF0000A23F0004150EA050220D054EA3F
:1005B00001021DD0C5F30A570246C5F31303C1F368
:1005C0001300C1F30A5640F4801543F48013A7EBDF
:1005D0000608101BD64608F2FD3873EB050002D35F
:1005E00008F1010801E092185B41B8F1000F03DA4D
:1005F00000200146BDE8F08D00204FF48011064632
:1006000084460EE0171B73EB050705D3121B63EB43
:10061000050306434CEA010C49084FEA30009218E2
:100620005B4150EA0107EDD152EA030012D082EAA1
:10063000040083EA0501084305D0101BAB4106D234
:100640000122002306E000224FF0004302E06FF099
:10065000010253101AEB06004CEB085110EB0A0094
:1006600041EB0B01BDE8F04D00F0FFB80EB5C10F36
:1006700080EAE0700844CA07002140F233438DE865
:100680000E000A460B4600F0FFF803B000BD70B53F
:10069000C1F30A5201F000450024C1F3130140F2F6
:1006A000FF3341F480119A4201DA002070BD40F21C
:1006B00033439A42A2F2334203DC524200F044F840
:1006C00000E090402C43F1D0404270BD00F0004269
:1006D00030F000400AD0C10D01F56071C0F3160082
:1006E00042EA0151C2084007114370470020014609
:1006F000704701F0004330B421F0004150EA01029C
:1007000006D00A0DA2F56072C1F31301002A02DCC3
:1007100030BC00207047440F44EAC104C100E01817
:1007200030BC00EBC25000F069B8202A04DB203A4C
:1007300000FA02F1002070479140C2F1200320FA34
:1007400003F3194390407047202A04DB203A21FA32
:1007500002F00021704721FA02F3D040C2F12002DA
:100760009140084319467047202A06DBCB17203AF0
:1007700041FA02F043EAE07306E041FA02F3D040A6
:10078000C2F1200291400843194670472DE9F04715
:1007900091460F4680460446002614F8015B2DB1B1
:1007A00000F052F90068405DC007F6D12B2D02D051
:1007B0002D2D18D0641E4A463946204600F048F9CF
:1007C00027B13968A14201D1C7F8008071054FF007
:1007D00002040BD54042002803DD02F0E5F9046075
:1007E000A007BDE8F08746F48066E4E70028F8DA61
:1007F00002F0DAF904606FF00040F2E70029A8BFC8
:100800007047401C490008BF20F00100704710B439
:10081000B0FA80FC00FA0CF050EA010404BF10BCEE
:10082000704749B1CCF1200421FA04F411FA0CF11B
:1008300018BF012121430843A3EB0C01CB1D4FEA54
:1008400000614FEA102042BF002010BC704700EB4F
:10085000C35010440029A4BF10BC7047401C49007D
:1008600008BF20F0010010BC704710B5141E73F1D2
:10087000000408DA401C41F1000192185B411A4360
:1008800001D120F0010010BD2DE9F04D92469B46AC
:1008900011B1B1FA81F202E0B0FA80F22032904652
:1008A000FFF743FF04460F4640EA0A0041EA0B0106
:1008B00053465A46084313D0114653EA010019D053
:1008C000C8F140025046FFF73FFF05460E4650462E
:1008D00059464246FFF729FF084305D0012004E0AE
:1008E00020463946BDE8F08D0020054346EAE07613
:1008F0002C4337430A986305E40AA0EB0800002262
:10090000FD0A44EA47540A3002D500200146E9E7CF
:10091000010510196941DDE9084500196941BDE883
:10092000F04DA2E770B521F0004303430CD0C1F3B2
:100930000A550024D5EB040564EB0403D617AD1A61
:10094000B34102DB0020014670BD201841EB02518B
:1009500070BD2DE9F04D00231A461B1A8A4103DBB6
:1009600000200146BDE8F08DC1F30A52C1F3130126
:1009700041F480154FF0000BD10702D100186D41F2
:10098000521E0027044640F2FF11384601EB620A6E
:100990003E468046024600204FF48011FFF7D4FE09
:1009A000C2197141BB1846EB0100B4EB030C75EBA7
:1009B000000C04D3E41A65EB000517460E46241913
:1009C00008F101006D4180463428E3DDF91946EB5A
:1009D0000600091BA84103D24FF0FF32134601E085
:1009E000002213461BEB070046EB0A51BDE8F04D11
:1009F000FFF73BBF30B5041E71F1000404DB4FF07C
:100A00000044404264EB0101141E73F1000405DB55
:100A10001C464FF00043524263EB0403994208BF67
:100A2000904230BD064C074D06E0E06840F00103FF
:100A300094E8070098471034AC42F6D3FFF7C8FBA0
:100A4000F85700081858000800487047B4570008C5
:100A50002DE9F05F82460078002715468B460AF1A3
:100A60000104B946302801D09DB113E014F8010B00
:100A70000127782803D0582801D045B10AE00DB1EC
:100A8000102D07D10027102514F8010B02E00825CE
:100A900000E00A250026B0460EE005FB080005FB35
:100AA00006F1012701EB10461FFA80F8B6F5803FEA
:100AB00000D3B94614F8010B294600F025F80028A8
:100AC000EBDABBF1000F05D00FB1641E00E0544615
:100AD000CBF80040B9F1000F06D002F065F8022112
:100AE0000160C81EBDE8F09F48EA0640FAE70EB56F
:100AF00040F2334102910021CDE900110A460B4634
:100B0000FFF7C2FE03B000BD3A2800D2303820F013
:100B10002002412A01D3A2F13700884201D34FF0CD
:100B2000FF307047454910B54A6822F440324A60A8
:100B30004A6843681A434A6001684A6822F480722E
:100B40004A6001684A68036942EA03224A60016810
:100B50004A6822F040724A6001684A6883681A4312
:100B60004A6001688A6822F400628A6001688A68C3
:100B7000C3681A438A60816A6FF07062D14201686B
:100B80008A6822F070628A6001688A680CD0836A81
:100B90001A438A6001688A6822F040528A600168BC
:100BA0008A68C36A1A4301E022F040528A600168F1
:100BB0008A6822F002028A6001688A68836942EAD0
:100BC00043028A60016A002901684A680FD042F432
:100BD00000624A6001684A6822F460424A60016823
:100BE0004A68174C436A04EB43331A4301E022F48A
:100BF00000624A600168CA6A22F47002CA6201682F
:100C0000CA6A838B0F4C04EB03531A43CA62016810
:100C10008A6822F400728A6001688A68036B42EA7B
:100C200043228A6001688A6822F480628A600168CF
:100C30008A68406942EA8020886010BD0023014034
:100C400000E0FFFF0000F0FF70B5002425460948D2
:100C500000F008F9074800F0B5F86D1C0444642D55
:100C6000F5DB642094FBF0F0642801DA012070BD0C
:100C7000002070BDD800002078B50024009490F8C2
:100C80003C20012A19D0012280F83C200A68072361
:100C90000568092A13D9EE680A3A02EB420293402A
:100CA0009E43EE600B788A680A3B03EB43039A404D
:100CB0000368DD682A43DA6010E0022078BD2E69FF
:100CC00002EB420293409E432E610B788A6803EB4D
:100CD00043039A4003681D692A431A614A681F2327
:100CE000072A13D205686E6B521E02EB82029340F4
:100CF0009E436E630B790A885B1E92B203EB8303FB
:100D00009A4003685D6B2A435A6327E005680D2A01
:100D100012D22E6BD21F02EB820293409E432E63AF
:100D20000B790A88DB1F92B203EB83039A400368B6
:100D30001D6B2A431A6311E0EE6A0D3A02EB820240
:100D400093409E43EE620B790A880D3B92B203EB0F
:100D500083039A400368DD6A2A43DA62164B05680A
:100D6000144A9D4206D10D68122D03D1556845F4F1
:100D70008005556005689D4218D10B68102B01D085
:100D8000112B13D1536843F40003536009681029F1
:100D90000CD10A490A4A0968B1FBF2F101EB810161
:100DA000490000E0491E00910029FBD180F83C4039
:100DB000002078BD00230140002001407000002089
:100DC00040420F000068C06C704770B504004FF0DF
:100DD000000503D0206C002610B107E0012070BD93
:100DE000666484F83C60204600F01AF8206CC00667
:100DF00010D4206C20F4885040F00200206420467B
:100E0000FFF790FE6664206C20F0020040F00100C5
:100E1000206400E0012584F83C60284670BD000095
:100E200000B500680C4987B0884212D10B480021F8
:100E3000026842F480720260006800F480700590DD
:100E4000012000900320CDE901016946044800F02B
:100E500079F807B000BD000000200140443802408E
:100E60000000024018B50021009190F83C20012AB2
:100E700007D0012280F83C2002689368DB0702D08B
:100E800011E0022018BD936843F001039360204AEB
:100E9000204B1268B2FBF3F202EB420200E0521E5A
:100EA0000092002AFBD102689368DB072DD0036C07
:100EB00040F20164A34343F48073036453685B0509
:100EC00005D5036C23F4005343F480530364036C8F
:100ED000DB0404D5436C23F00603436400E0416463
:100EE00080F83C100C496FF02203136049680068D9
:100EF000C90602D00949884207D1816811F0405FD4
:100F000003D1816841F080418160002018BD00005C
:100F10007000002040420F000023014000200140EB
:100F200090F83510022903D08021416501207047D7
:100F3000052180F835100068016821F00101016089
:100F4000002070472DE9F84FDFF84CB100224FF038
:100F500001084FF0030A4FF00F090BF1040E00BF18
:100F60000B6808FA02F42340A3427DD14D68022D9C
:100F700001D0122D0ED1D50800EB850CDCF82050E5
:100F80005607F70E09FA07F6B5430E69BE402E4321
:100F9000CCF82060066855000F790AFA05FC07F0C6
:100FA000030726EA0C06AF40374307604E68012E60
:100FB00005D0022E03D0112E01D0122E0ED187683B
:100FC000CE6827EA0C07AE403E4386604668A643DB
:100FD0000C79C4F30014944034434460C4688E68B0
:100FE00024EA0C04AE402643C6604C68E4004DD5AC
:100FF0002A4C256845F480452560246822F00305C5
:1010000004F480440094264C2E19D6F8084895071D
:101010002F0F09FA07F5AC43224DA84201D1002554
:101020000AE0214DA84201D1012505E01F4DA8424B
:1010300001D1022500E00725BD402543C6F8085828
:10104000DBF800405D464E689C43F60300D51C4328
:101050002C60DEF8004075464E689C43B60300D510
:101060001C432C600C4D00E010E008352C684E68E5
:101070009C43F60200D51C432C60074D0C352C68B0
:101080004E689C43B60200D51C432C60521C102AAB
:10109000FFF466AFBDE8F88F003C014044380240E1
:1010A00000300140000002400004024000080240FD
:1010B0000AB1816170470904FBE7000001488068BC
:1010C00070470000640000200248816802781144E3
:1010D00081607047640000200B4810B5016841F43E
:1010E00000710160016841F480610160016841F4B0
:1010F00080710160032000F0B1F8002000F006F8D4
:1011000000F03EF8002010BD003C024010B5014642
:1011100088B00022192000F081F8192000F072F840
:1011200013480024016841F001010160006805A92D
:1011300000F001000690684600F03AF900F06EF900
:101140000C490D4AB0FBF1F10C48491E026040F217
:10115000E732C0E90324C0E9011400F07BFB10B1C1
:10116000012008B010BD054800F0AEFBF9E7000013
:101170004438024040420F00000001409C01002022
:101180001F4808B5016841F480410160006800F41F
:10119000804000901A48001F016841F080510160B2
:1011A000006800F080500090032000F057F8002203
:1011B00011466FF00B0000F031F8002211466FF07D
:1011C0000A0000F02BF8002211466FF0090000F031
:1011D00025F800221146501F00F020F80022114689
:1011E000101F00F01BF800220F21901E00F016F8CF
:1011F00000220F21BDE80840501E00F00FB800008B
:101200004438024000F01F02012191404009800053
:1012100000F1E020C0F8001170470000F0B40E4B60
:101220001B680C46C3F30223C3F10705042D00D944
:101230000425191D072901D2002300E0DB1E012629
:1012400006FA05F1491E214099409E40761E16403F
:101250003143F0BC00F06ABE0CED00E0064900F03E
:10126000070208684FF6FF03184040EA0220034ACD
:1012700010430860704700000CED00E00000FA0524
:101280002DE9F0470E46050065D0DFF81481D8F847
:101290000000F7B200F00F00B04207D288F80070EB
:1012A000D8F8000000F00F00B04254D128683D4C3F
:1012B000810712D5400703D5206840F4E050206034
:1012C0002878000703D5206840F46040206020683B
:1012D000A96820F0F000084320602878C0072DD0CE
:1012E000304968680839012812D0022813D0032831
:1012F00011D00968890700292DDA216821F003013E
:1013000001432160FFF7DAFE814641F2883A0EE0A0
:1013100009688903EFE709688901ECE7FFF7CEFE6A
:10132000A0EB0901514502D90320BDE8F0872068F0
:10133000696800F00C00B0EB810FEFD1D8F8001015
:10134000404601F00F01B14207D90770006800F074
:101350000F00B04201D00120E7E72878400705D50B
:101360002068E96820F4E0500843206028780007EE
:1013700006D52068296920F4604040EAC100206059
:1013800000F05CF82168084AC1F30311515CC840C1
:10139000064908600020FFF7B9FE0020C5E70000FD
:1013A000003C0240083802408054000870000020D1
:1013B0000F2202600C4A136803F0030343601368B2
:1013C00003F0F0038360136803F4E053C360126812
:1013D0004FF4E05303EAD20202610448006800F0CF
:1013E0000F0008607047000008380240003C0240CF
:1013F000014800687047000070000020044805495B
:1014000000680968044AC1F38221515CC8407047F2
:101410007000002008380240905400080448054934
:1014200000680968044AC1F34231515CC840704702
:10143000700000200838024090540008154810B58C
:10144000006810F00C02144813D04110042A0FD089
:10145000082A0ED10F4C241F2268236802F03F0295
:101460005B0207D52068C0F38810A0FB010106E0ED
:10147000084610BD2168C1F38811A1FB00010023BB
:10148000FEF71CFF2168C1F30141491C4900B0FB74
:10149000F1F010BD083802400024F4002DE9F84FA7
:1014A00005460078DFF800B3C04CC0074AD0DBF82F
:1014B00000105846C1F38101012908D00068C0F32B
:1014C000810002280AD1201D0068400206D520684C
:1014D000800337D56868002872D033E06868B0F5BB
:1014E000803F10D0B0F5A02F206810D020F48030BD
:1014F0002060206820F4802020606868A8B1FFF791
:10150000DDFD06460DE0206840F48030F4E740F44D
:1015100080202060F7E700BFFFF7D0FD801B642824
:101520006FD820688003F7D50CE0FFF7C7FD0646AB
:1015300005E000BFFFF7C2FD801B6428F0D82068DB
:101540008003F7D42878DFF8688280074FF000091D
:1015500040D5DBF80010584611F00C0F09D0006898
:10156000C0F3810002280BD18F48001F00684002A1
:1015700006D42068800715D5E868012820D111E03D
:10158000E868B8B10120C8F80000FFF797FD0646EB
:1015900005E000BFFFF792FD801B0228C0D820683D
:1015A0008007F7D52068296920F0F80040EAC100DB
:1015B00020600FE0C8F80090FFF780FD064606E0C7
:1015C000EFE000BFFFF77AFD801B022819D82068E2
:1015D0008007F7D42878000722D5734E75486969CB
:1015E0006C3679B101210160FFF768FD074604E020
:1015F000FFF764FDC01B022803D830688007F7D5C9
:101600000EE089E0C0F80090FFF758FD074604E0BF
:10161000FFF754FDC01B02287ED830688007F7D43E
:101620002878400768D5DFF880A100270AF1380A3A
:10163000DAF80000C0000BD4DAF8001041F0805155
:10164000CAF80010DAF80000012700F0805000907E
:10165000594E3068C00510D4306840F48070306056
:10166000FFF72CFD009005E0FFF728FD0099401AD8
:10167000022851D83068C005F6D54B4EA8686836A8
:1016800001280FD00528306810D020F0010030600C
:10169000306820F004003060A868B8B1FFF70EFD94
:1016A00000900FE0306840F00100F4E740F00400E3
:1016B0003060F7E7FFF702FD0099411A41F28830E8
:1016C000814266D830688007F4D50EE0FFF7F6FC5B
:1016D000009007E0FFF7F2FC0099411A41F28830D0
:1016E000814256D830688007F4D42FB1DAF8001060
:1016F00021F08051CAF80010A869D0B3DBF80010BF
:10170000C1F3810102294CD00228484607D0C8F80D
:101710006000FFF7D3FC00E03BE005463CE04746B5
:10172000C8F86000FFF7CAFC064604E0FFF7C6FCF5
:10173000801B02282DD820688001F7D4F5E9070125
:101740000843E9681D4A490802EB0141AA6841EAD9
:1017500082110843297C40EA0160297D40EA017139
:101760001148001F016001203866FFF7A7FC0546FD
:1017700005E014E0FFF7A2FC401B022809D820680E
:101780008001F7D50BE000BFFFF798FC401B022853
:1017900002D90320BDE8F88F20688001F4D400202E
:1017A000F8E70120F6E70000083802400038024060
:1017B00000004742800E4742007000400000FFFFDB
:1017C0004FF0E0210428086903D020F004000861EC
:1017D000704740F00400FAE710B5401EB0F1807F7A
:1017E00001D3012010BD4FF0E02460610F2160178C
:1017F00000F09CFB0020A06107202061002010BDAC
:101800007047704730B590F83820012A20D0012267
:1018100080F83820022380F8393003685C6824F0AF
:1018200070045C6003685C680D682C435C6003684E
:101830009C6824F080049C6003689C6849680C43A1
:101840009C6080F83920002180F83810084630BDAF
:10185000022030BD10B5040003D094F8390010B157
:1018600007E0012010BD002084F83800204600F079
:101870000DF8022084F83900211D206800F0D0FE08
:10188000012084F83900002010BD000008B5006870
:101890000B49884212D10B48016841F010010160E8
:1018A0000068002200F01000009005213620FFF7AC
:1018B000B5FCBDE808403620FFF7A4BC08BD000019
:1018C00000100040403802400168CA6842F001023E
:1018D000CA600068016841F00101016000207047A2
:1018E000704770B50446006801694FF00005C943B0
:1018F000890715D4C168C943890711D4E91E01615C
:1019000001202076206880698007204602D0FFF7FA
:10191000E7FF04E000F098F8204600F096F82576FE
:1019200020680169C943490717D4C168C9434907F9
:1019300013D46FF0040101610220207620688069D1
:1019400010F4407F204602D0FFF7CAFF04E000F009
:101950007BF8204600F079F8257620680169C943B4
:10196000090716D4C168C943090712D46FF00801EA
:101970000161042020762068C0698007204602D0DB
:10198000FFF7AEFF04E000F05FF8204600F05DF8DE
:10199000257620680169C943C90617D4C168C943BF
:1019A000C90613D46FF01001016108202076206869
:1019B000C06910F4407F204602D0FFF791FF04E099
:1019C00000F042F8204600F040F8257620680169D2
:1019D000C943C90708D1C168C943C90704D1891ED1
:1019E0000161204600F032F820680169C943090608
:1019F00009D4C168C943090605D46FF080010161AB
:101A00002046FFF7FDFE20680169C943490609D455
:101A1000C168C943490605D46FF040010161204601
:101A200000F01EF820680169C94389060BD4C1681B
:101A3000C943890607D46FF0200101612046BDE843
:101A40007040FFF7DEBE70BD704770470068034905
:101A5000884201D1FFF738BB704700000000014009
:101A60007047704770B5026804461068D1685369C2
:101A700010F00F0F50D003F0010501F490763543BC
:101A80005DD0C20705D0CA0503D5E26B42F0010262
:101A9000E263420705D5DA0703D0E26B42F00202A7
:101AA000E263820705D5DA0703D0E26B42F0040255
:101AB000E263020705D5DA0703D0E26B42F00802C1
:101AC000E263E26B002A33D0800604D5880602D593
:101AD000204600F0E9FD20684069E16BC0F380100A
:101AE000090700D428B3204600F0D0FD20684169E2
:101AF00049061AD5416921F040014161606BA0B1EE
:101B00001B490165606BFFF70BFA002810D0606B72
:101B1000016DBDE870400847830610D58B060ED5D1
:101B20002046BDE8704000F0BFBD2046FFF799FF9A
:101B300070BD2046FFF795FF0020E06370BD0306EF
:101B400006D50B0604D52046BDE8704000F048BF1E
:101B50004006F3D54806F1D5D168204621F0400172
:101B6000D160202184F8391000F089F870BD0000A0
:101B70007D26000870B5040004D094F839000025D3
:101B800010B106E0012070BD84F83850204600F006
:101B900023F8242084F839002068C16821F400511A
:101BA000C160204600F0C6FD2068016921F4904123
:101BB00001612068416921F02A0141612068C16802
:101BC00041F40051C160E563202084F8390084F8B5
:101BD0003A00002070BD000000B50068124987B0CF
:101BE00088421ED11148016841F40031016000684B
:101BF000694600F4003005900C200090022001900E
:101C00000120029003200390072004900848FFF76A
:101C100099F9002205212620FFF700FB2620FFF777
:101C2000F1FA07B000BD0000004400404038024017
:101C30000000024090F83A30202B1DD1D1B1CAB13A
:101C400090F83830012B17D081628285C28500213F
:101C5000C163222280F83A2080F8381001684A696E
:101C600042F001024A610068C16841F49071C160AC
:101C7000002070470120704702207047704770476E
:101C80007FB512481049002401604FF48031416053
:101C9000046184610902046281600D49C0E90A148B
:101CA0000125C460C56145610463FFF78EF800B18A
:101CB000FEE7CDE90045694604480294FEF7DCFFE3
:101CC000002800D0FEE77FBD00200140D8000020A2
:101CD0000100000F2DE9F0433B4887B00024016864
:101CE00041F004010160016801F0040105910168FF
:101CF00041F080010160016801F0800105910168F7
:101D000041F001010160016801F0010105910168E4
:101D100041F00201016000682C4F00F002000590C4
:101D200000224FF4EC613846FFF7C2F9DFF8A080DB
:101D30004FF4C266002231464046FFF7B9F9DFF89A
:101D4000949000224FF487614846FFF7B1F94FF4B1
:101D5000005000902048CDE9010469464046FFF755
:101D6000F1F84FF4487000900125CDE9015469461F
:101D700038460394FFF7E6F84FF48860CDE9000594
:101D8000CDE9025469463846FFF7DCF80096CDE904
:101D90000154694640460394FFF7D4F84FF482603B
:101DA0000090CDE90154694648460394FFF7CAF80C
:101DB0002820CDE90005CDE9025469464846FFF7E1
:101DC000C1F807B0BDE8F08330380240000002409F
:101DD0000008024000040240000021102DED048B99
:101DE0007A254B4E4B4C9FED4C8ADFED4C8A9FED94
:101DF0004C9A00BF00F080FB00286CD0207874283B
:101E000069D1FEF721FFC8B3732020700122102191
:101E10003046FFF74DF99FED431AB4F90E0000EE7E
:101E2000100AB4F90C00F8EEC00A00EE100AB8EE81
:101E3000C00A00F08BF800BF00F05EFB0028FBD06A
:101E4000B4F90E009FED381A00EE100AB4F90C0038
:101E5000F8EEC00A00EE100AB8EEC00A00F076F8FC
:101E600000F04AFB0028FBD0A078622824D0672825
:101E700005D0722806D079282DD120E022E0254F08
:101E80003C3701E0234F4237B7F9040000EE100A57
:101E9000B7F90200B8EEC01A00EE100AB7F9000058
:101EA000F8EEC00A00EE100AB8EEC00A00F04EF8D4
:101EB000B8881930B8800EE0164F4837E4E7154F60
:101EC0004E37E1E72570B0EE481AF0EE680AB0EE42
:101ED000490A00F03BF800F00FFBA0B1207873280E
:101EE00011D1002210213046FFF7E2F8FEF7ACFED8
:101EF0000028FBD1B0EE481AF0EE680AB0EE490AAD
:101F000000F024F82570012002F012FD72E70000B5
:101F1000000802400000002059ABCAC100000000C8
:101F2000ABDC0443000032C30000E8C20907090E1D
:101F3000002806DA00F00F0000F1E02080F8141D00
:101F4000704700F1E02080F80014704770B52DED67
:101F5000108BF0EE60FAB0EE418AF0EE409A1FEE80
:101F6000900AFEF7B3FB41EC100B9FEDABCBB0EE4C
:101F70004C1AF0EE6C1A01F097F9B0EE401AF0EE40
:101F8000601AB0EE41AAF0EE61AA19EE900AFEF7CF
:101F90009DFB41EC100BB0EE4C1AF0EE6C1A01F008
:101FA00083F953EC1A2B51EC100BFEF7D7F941ECE7
:101FB000100B01F0A1FF51EC100BFEF79AFB08EE9D
:101FC000900A18EE100AFEF781FB9FED95BB53ECCB
:101FD0001B2BFEF7C3F941EC100BB0EE4C1AF0EEE0
:101FE0006C1A01F061F928EEA8FAB0EE40AAF0EE02
:101FF00060AA1FEE100AFEF769FB53EC1A2BFEF7DE
:10200000ADF941EC100B01F077FF51EC100BFEF72E
:1020100070FB09EE100AB0EE4C1AF0EE6C1A9FED50
:1020200082ABB0EE4A0AF0EE6A0A01F03DF9B0EE7A
:1020300040EAF0EE60EAB0EE4C1AF0EE6C1AB0EE48
:102040004A0AF0EE6A0A01F02FF9B0EE40DAF0EE3B
:1020500060DA18EE100AFEF739FB53EC1B2BFEF783
:102060007DF941EC100BB0EE4C1AF0EE6C1A01F059
:102070001BF9B0EE40CAF0EE60CA1FEE100AFEF780
:1020800025FB53EC1C2BFEF769F953EC1D2BFEF7D7
:1020900065F953EC1E2BFEF702FA9FED651B53EC1E
:1020A000112BFEF774FAFEF724FB0DEE100A18EE62
:1020B000900AFEF70BFB41EC1C0B18EE100AFEF722
:1020C00005FB53EC1B2BFEF749F953EC1C2BFEF7D9
:1020D0005EFA41EC100B00F017FF51EC100BFEF70D
:1020E00008FB054619EE100A534988427EDCF5EEDE
:1020F000C09A524CF1EE10FA0ED1B0EE6F0A02F017
:102100007FFEFEF7B3FA9FED4E1B53EC112BFEF74B
:10211000CCF941EC100B09E08FEEA90A10EE100A81
:10212000FEF7D4FA41EC100B00F0EEFE51EC100B70
:10213000FEF7DFFAE0612846FEF7C8FA8DEE090ADD
:1021400041EC1B0B10EE100AFEF7C0FA41EC100B2D
:1021500000F02EFD53EC1B2B51EC100BFEF7FEF89C
:10216000FEF7C7FAB0EE480A206202F049FEFEF719
:102170007DFA41EC190B206AFEF7A8FA41EC100B2E
:1021800001F02EF853EC1A2B51EC100BFEF78DF9E1
:1021900041EC1B0B18EE900AFEF798FA53EC1B2B40
:1021A000FEF77DF953EC1A2BFEF7F1F941EC100B19
:1021B00000F0FEFC53EC192B51EC100BFEF775F9F7
:1021C000FEF797FA6062E069FEF780FA41EC100BC7
:1021D00002F0FAFD84ED070A206AFEF777FA41EC77
:1021E000100B02F0F1FD84ED080A00E010E0606AD7
:1021F000FEF76CFA41EC100B02F0E6FD84ED090AE3
:102200009FED110A002084ED0A0AE07020716070D1
:10221000BDEC108B70BD000000000000000000400D
:102220000000000000A05E4000000000004064408C
:1022300000000000004074400000A24300000020A5
:1022400038E92F54FB21F93F0000B4C2334E344C1F
:102250005FF001052DED028BD4ED070A94ED040A21
:1022600030EEC01AB0EEC11A11EE100AB0424FDBC8
:10227000B4EEE00AF1EE10FA07D2B4F90600401C01
:1022800003D1642002F054FBE58094ED040AD4ED00
:10229000070AB4EEE00AF1EE10FA08DDE088012842
:1022A00005D1642002F044FB4FF0FF30E080A079BC
:1022B0001021401EC2B21B48FEF7FAFE0122DFF8D1
:1022C0006880970239464046FEF7F2FE012002F090
:1022D0002FFB002239464046FEF7EAFE012002F0BD
:1022E00027FBB4F90600FEF7C1F99FED101B53EC74
:1022F000112BFEF7DAF841EC180B2069FEF7E6F92E
:1023000053EC182BFEF72AF8FEF7F3F92061A3E748
:10231000E570012002F00CFB9EE700006D4B913D43
:102320000000002000040240000002409544ECCF71
:102330002234AF3F324E334C5FF001052DED028B5E
:10234000D4ED080A94ED050A30EEC01AB0EEC11AB9
:1023500011EE100AB0424EDBB4EEE00AF1EE10FAD4
:1023600008DD2089012805D1642002F0E1FA4FF050
:10237000FF30208194ED050AD4ED080AB4EEE00A9E
:10238000F1EE10FA07D2B4F90800401C03D1642022
:1023900002F0CEFA2581207A4FF48071401EC2B23D
:1023A0001948FEF785FE194F012220213846FEF715
:1023B0007FFE012002F0BCFA002220213846FEF701
:1023C00077FE012002F0B4FAB4F90800FEF74EF9E6
:1023D0009FED0F1B53EC112BFEF767F841EC180B28
:1023E0006069FEF773F953EC182BFDF7B7FFFEF7A2
:1023F00080F96061A4E72571012002F099FA9FE756
:10240000AFCD853D000000200000024000040240E6
:102410003F0A674FB354AC3F324E334C5FF0010577
:102420002DED028BD4ED090A94ED060A30EEC01AA8
:10243000B0EEC11A11EE100AB0424DDBB4EEE00A64
:10244000F1EE10FA07D2B4F90A00401C03D164205F
:1024500002F06EFA658194ED060AD4ED090AB4EE35
:10246000E00AF1EE10FA08DD6089012805D1642048
:1024700002F05EFA4FF0FF306081A07A1B4F401CE3
:10248000C2B220213846FEF713FE01224021384611
:10249000FEF70EFE012002F04BFA002240213846E2
:1024A000FEF706FE012002F043FAB4F90A00FEF737
:1024B000DDF89FED0F1B53EC112BFDF7F6FF41EC00
:1024C000180BA069FEF702F953EC182BFDF746FF35
:1024D000FEF70FF9A061A5E76570012002F028FA68
:1024E000A0E70000B5BC853D0000002000000240D0
:1024F000770652D17450AC3F0548C17829B10179B3
:1025000019B1407808B101207047002070470000E1
:102510000000002002F017BA30B5244893B000251F
:10252000016841F080510160006800F08050129015
:102530001F48016841F4404101600068022400F432
:1025400040401290012003901020049000940694C3
:102550000820CDE907506420CDE909040420CDE925
:102560000B046846FEF79AFF00B1FEE70DA90F20A5
:1025700081E831004FF48050CDE9100503210DA80A
:10258000FEF77EFE00B1FEE7FEF732FF4FF47A71F0
:10259000B0FBF1F0FFF720F90420FFF711F900225A
:1025A0000F21501EFEF73AFE13B030BD40380240F6
:1025B000007000401048016841F4700101600F484C
:1025C000016841F0010101600C4A002108321160EC
:1025D00002680B4B1A400260031D0A4A1A60026827
:1025E00022F48022026005480C300160024958063E
:1025F000803908607047000088ED00E00038024034
:10260000FFFFF6FE103000240148FFF76AB9000012
:102610009C0100200148FFF764B900002001002060
:1026200030B50268114B124C984201D0A04203D140
:1026300022F070054A682A43984207D0A04205D08C
:102640000C4CA04202D00C4CA04203D122F44074A6
:10265000CA68224302608A68C2620A68826298423B
:1026600001D1096901630121416130BD00000140D0
:10267000000C0040004001400048014010B5806B54
:102680000021C185C184FFF7ECF910BD0168CA685B
:1026900022F49072CA6001684A6922F001024A611C
:1026A000202180F83A10704710B590F83A1022298E
:1026B00001D0022010BD8168B1F5805F11D00169A1
:1026C000002901681FD0496801F07F03816A4A1C14
:1026D00082620B70C18D491E0904090CC18518D096
:1026E00026E00269816A002A0268526805D0D2B2E7
:1026F0000A80816A491C8162ECE7C2F308020A8001
:10270000816A891CF7E74A68816A4B1C83620A70F8
:10271000E0E70168CA6822F49072CA6001684A69F9
:1027200022F001024A61202180F83A10FFF7A6FA50
:10273000002010BD2DE9F04104460068016921F434
:102740004052E168114301612168C86849F20C6296
:1027500090432369A268E5691A4363692B431A43CE
:102760000243CA602168486920F44072A06910439E
:102770004861E1696425B1F5004F9748974A21689F
:102780004FF032083FD0914201D081427CD1FEF718
:1027900045FE00EBC00101EB001061688900B0FB51
:1027A000F1F6FEF73BFE00EBC00101EB00106168A3
:1027B0008900B0FBF1F0B0FBF5F06FF01801484371
:1027C00006EB800108EB0110B0FBF5F000F0F0061D
:1027D000FEF724FE00EBC00101EB001061688900E8
:1027E000B0FBF1F0B0FBF5F006EB0016FEF716FEBD
:1027F00000EBC00101EB001061688900B0FBF1F74C
:10280000FEF70CFED2E0914201D081423DD1FEF7AD
:1028100005FE00EBC00101EB001061684900B0FB50
:10282000F1F0B0FBF5F00601FEF7F8FD00EBC0019A
:1028300001EB001061684900B0FBF1F7FEF7EEFD17
:1028400000EBC00101EB001061684900B0FBF1F042
:10285000B0FBF5F06FF01801484307EB800108EB7F
:10286000C100B0FBF5F000F0F80006EB4006FEF703
:10287000D5FD00EBC00101EB001061684900B0FB21
:10288000F1F7FEF7CBFD3CE055E0FEF7B7FD00EBBE
:10289000C00101EB001061684900B0FBF1F0B0FB32
:1028A000F5F00601FEF7AAFD00EBC00101EB0010F8
:1028B00061684900B0FBF1F7FEF7A0FD00EBC00135
:1028C00001EB001061684900B0FBF1F0B0FBF5F0DE
:1028D0006FF01801484307EB800108EBC100B0FB23
:1028E000F5F000F0F80006EB4006FEF787FD00EB80
:1028F000C00101EB001061684900B0FBF1F7FEF781
:102900007DFD00EBC00101EB001061684900B0FBE8
:10291000F1F0B0FBF5F06FF01801484307EB8001D0
:1029200008EBC100B0FBF5F000F00700216830446F
:102930008860BDE8F081FEF761FD00EBC00101EBAE
:10294000001061688900B0FBF1F6FEF757FD00EB5F
:10295000C00101EB001061688900B0FBF1F0B0FB31
:10296000F5F06FF01801484306EB800108EB011009
:10297000B0FBF5F000F0F006FEF740FD00EBC00103
:1029800001EB001061688900B0FBF1F0B0FBF5F0DD
:1029900006EB0016FEF732FD00EBC00101EB001064
:1029A00061688900B0FBF1F7FEF728FD00EBC0017C
:1029B00001EB001061688900B0FBF1F0B0FBF5F0AD
:1029C0006FF01801484307EB800108EB0110B0FBE2
:1029D000F5F000F00F00A9E70014014000100140DD
:1029E00090F83910212901D0022070478168B1F593
:1029F000805F016A0BD04A1C02620268097851604C
:102A0000C18C491E0904090CC1840ED017E0098845
:102A10000268C1F30801516001690029016A02D00E
:102A2000491C0162ECE7891CFBE70168CA6822F0D7
:102A30008002CA600068C16841F04001C1600020A6
:102A4000704700002DE9F0473748FFF70BF80722E1
:102A500036493548FFF7EEF8354C2078401CC0B2B7
:102A6000207007285DD131483249354F02780A700D
:102A700042784A7082788A702F49C2780A70027947
:102A80004A7042798A702D49807908702D493878CA
:102A90000978884243D12848FDF753FC2A4D288005
:102AA0002448FDF74EFC06B2DFF8A090B5F900000F
:102AB000FDF7DCFD9FED261B53EC112BFDF7F5FC1C
:102AC0009FED251B53EC112BFDF7E9FCFDF7DFFD16
:102AD0000FFA80F8A5F800803046FDF7C7FD9FED9E
:102AE000201B53EC112BFDF7E0FC9FED1F1B53EC5B
:102AF000112BFDF733FCFDF7CAFD00EE108A00B282
:102B0000A9F80000F8EEC00A00EE100A9FED181AAE
:102B1000B8EEC00AFFF71AFA16480078387000209D
:102B20002070BDE8F08700005C0100205400002008
:102B3000610000205B0000205E00002002000020F9
:102B4000000000202C5400080E0000200C00002083
:102B50008A8EE4F21FD2DF3F0E2DB29DEF736340E9
:102B6000FED478E92631E0BF14AE47E17A787440AC
:102B7000000012C32D54000803B4019841000098CE
:102B800050EAC12018BF04204A0D18BF40F00100D0
:102B900040F2FF72B2EB515F08BF40F00200012823
:102BA00008BF052002B0704700487047D4000020DD
:102BB00010B5B94A2DED020B2DED0C8B82B00F999B
:102BC00021F000409FEDB6CB90422CDBA0F14053AA
:102BD0000E9AA3F17F631A430FD0B349884202DCF7
:102BE00016D10E98A0B19DED0E0B02B0BDEC0C8B72
:102BF00002B0BDE8104001F0BFBD0029C1BF9FED8C
:102C0000AC0B02B0BDEC0C8B02B0C8BF10BD16E01F
:102C1000012001F005FE02B0BDEC0C8B02B0BDE856
:102C2000104001F0BDBDA44A9FEDA59B9FEDA6AB52
:102C300090425EDAA6499FEDA8CB814208DBB0EE58
:102C40004C0AF0EE6C0A02B0BDEC0C8B02B010BD69
:102C50009DED0E0B53EC102B51EC100BFDF725FCEA
:102C600041EC180B9E480621B0EE480AF0EE680AC7
:102C7000784401F055FC53EC182B51EC100BFDF788
:102C800014FC41EC1B0B9748B0EE480AF0EE680AC2
:102C90000421784401F044FC53EC182B51EC100B48
:102CA000FDF703FC53EC192BFDF758FB41EC100B1F
:102CB00051EC1B0B53EC102BFDF769FC41EC100B96
:102CC00053EC102B9DED0E0B51EC100BFDF7EDFBB3
:102CD00053EC1A2BFDF7E6FB9DED0E1B53EC112B6D
:102CE000FDF7E0FB53EC1C2BFDF7DCFB41EC100B7C
:102CF000A9E79FED7D8B9FED7EBB9DED0E0B00291F
:102D000053EC192B51EC100B52DAFDF727FB53EC67
:102D1000182BFDF7CAFB41EC180B77480621B0EEE3
:102D2000480AF0EE680A784401F0FAFB53EC182BDD
:102D300051EC100BFDF7B9FB41EC1D0B6F48B0EEE9
:102D4000480AF0EE680A0421784401F0E9FB53ECEC
:102D5000182B51EC100BFDF7A8FB53EC192BFDF7CA
:102D6000FDFA41EC190B51EC180B02F05BF841EC49
:102D7000180B53EC192B51EC1D0BFDF708FC53EC11
:102D8000182BFDF792FB53EC1A2BFDF788FB41EC57
:102D9000100B51EC180B53EC102BFDF7DFFA53EC32
:102DA0001B2BFDF782FB53EC1C2BFDF77BFB6DE02F
:102DB000FDF778FB53EC182BFDF777FB41EC180B74
:102DC00002F030F841EC1A0B00208DED00AB0090C2
:102DD0009DED000B51EC1A0B53EC102BFDF7BEFAD6
:102DE0009DED000B41EC1C0B53EC102B51EC100B28
:102DF000FDF75BFB53EC182BFDF754FB53EC1C2B3E
:102E0000FDF7C5FB41EC1C0B3D48B0EE480AF0EE67
:102E1000680A0621784401F083FB53EC182B51EC2F
:102E2000100BFDF742FB41EC1D0B3648B0EE480A93
:102E3000F0EE680A0421784401F072FB53EC182B81
:102E400051EC100BFDF731FB53EC192BFDF786FA13
:102E500041EC100B51EC1D0B53EC102BFDF797FBC5
:102E600053EC1A2BFDF721FB53EC1C2BFDF776FAE4
:102E700041EC100B53EC102B9DED000B51EC100BA3
:102E8000FDF76CFA53EC1B2BFDF70FFB41EC100B1D
:102E9000D9E60000000000000000F03F0000000044
:102EA000182D4454FB2109400000F07F0000000071
:102EB00000000000000000000000E03F00000000F3
:102EC000000000000000F03F075C143326A6913C90
:102ED0000000603C00000000182D4454FB21F93F25
:102EE0002428000032280000000000000000E03F1D
:102EF00000000000000000406E2700007C2700005A
:102F0000802600008E26000070B59B482DED020B38
:102F10002DED068B079D25F00044A04218DC974854
:102F2000844202DC0AD1069840B19DED060BBDEC4F
:102F3000068B02B0BDE8704001F01EBC002DCCBF76
:102F40009FED8F0B9FED900BBDEC068B02B070BD1B
:102F50008F48A04215DD8F48A042D8BF4FF0FF3404
:102F600058DD9DED060B51EC100BFFF705FE042814
:102F700008BF01F035FC9DED060BBDEC068B02B0E1
:102F800070BD9DED060B51EC100B01F04FFCCDE92F
:102F9000060181489FED828BA0423CDD8248A04221
:102FA0001FDD00249FED82AB9DED060B53EC1A2B29
:102FB00051EC100BFDF7D2F99DED060B41EC190B0E
:102FC00053EC1A2B51EC100BFDF76FFA53EC182B46
:102FD000FDF765FA53EC192BFDF7D9FACDE9060197
:102FE00049E09DED060B012453EC182B51EC100B1E
:102FF000FDF7B4F99DED060B41EC190B53EC182BC2
:1030000051EC100BFDF74BFA53EC192BFDF7BFFAFF
:10301000CDE906012FE06848A0421FDD02249FEDA4
:10302000689B9DED060B53EC192B51EC100BFDF733
:103030003CFA53EC182BFDF791F99DED060B41EC92
:10304000180B53EC192B51EC100BFDF728FA53EC2D
:10305000182BFDF79CFACDE906010CE09DED060B5F
:10306000032453EC102B9FED580B51EC100BFDF784
:103070008EFACDE906019DED060B53EC102B51ECB9
:10308000100BFDF712FA41EC180B53EC182BFDF75F
:103090000CFA41EC190B4E480621B0EE490AF0EE4D
:1030A000690A784401F03CFA53EC182B51EC100BF0
:1030B000FDF7FBF941EC180B4648B0EE490AF0EE7B
:1030C000690A0521784401F02BFA53EC192B51ECD5
:1030D000100BFDF7EAF941EC100B51EC180B53EC17
:1030E000102B002C0EDAFDF739F99DED061B53EC81
:1030F000112BFDF7DAF99DED061B53EC112BFDF7B3
:10310000D1F935E0FDF72AF99DED061B53EC112BA3
:10311000FDF7CBF941EC100B2F48784400EBC400CD
:1031200090ED001B51EC100B53EC112BFDF7B7F990
:103130009DED061B53EC112BFDF7B1F941EC100B83
:103140002648784400EBC40090ED001B51EC100BB6
:1031500053EC112BFDF7A6F941EC100B002DA2BF8B
:10316000BDEC068B02B070BD51EC100B81F000413C
:1031700041EC100B01E70000000010440000F07F5C
:10318000182D4454FB21F93F182D4454FB21F9BF5D
:103190000000DC3F0000203E0000F33F0000000084
:1031A000000000000000F03F0000E63F00000000CB
:1031B000000000000000004000800340000000000C
:1031C000000000000000F83F000000000000F0BF19
:1031D000AA24000060240000EA230000A2230000CB
:1031E00010B52F499FED2C1B2DED020B84B00598D7
:1031F00020F000408842D8BF9DED040B2DDD294909
:10320000884209D1049840B94FF0010001F008FB51
:1032100001F0C6FA06B010BD05DB9DED040B01F010
:10322000ABFA06B010BD68469DED040B00F0A4FE9D
:1032300010F0030004BF9DED021B9DED000B0CD0B0
:1032400001280ED09DED021B9DED000B022817D02A
:10325000012001F0E1F906B010BD01F0A9F806B0B7
:1032600010BD9DED021B9DED000B012001F0D4F976
:1032700051EC100B81F0004106B041EC100B10BD79
:1032800001F096F851EC100B81F0004106B041ECD2
:10329000100B10BD00000000000000000000000046
:1032A000FB21E93F0000F07F2DE9F04D2DED040BEF
:1032B0002DED0E8B96B0DDE92550279CDDF890A012
:1032C00025F0004624F00048BAF1000F14BF012198
:1032D000002101EB4502FC4953184A1093422AD3BE
:1032E000002814BF0123002303EB44030B44F749D8
:1032F0008B4220D358EA00019FEDF59B76D0DFF892
:10330000D8B35D4503D1BAF1000F05D188E0BAF119
:10331000000F08BF002100D0012101EB450111F58C
:10332000001F08D8002814BF0121002101EB44012F
:1033300011F5001F0BD99DED261B9DED240B16B03A
:10334000BDEC0E8B04B0BDE8F04D01F01FBA0027B4
:10335000002DBCBFE149884521DAE1498845A8BF75
:1033600002271CDAC3451ADCDE4901EB2851142977
:1033700008DDC1F1340220FA02F101FA02F28242C0
:103380000DD108E058B9C1F1140228FA02F101FA8E
:1033900002F2424503D101F00101C1F1020756EAF0
:1033A0000A0124D1002C22DA002D18BF022F01D0EF
:1033B000012F0AD0022001F033FA16B0BDEC0E8BBB
:1033C00004B0BDE8F04D01F0BFB9022001F028FAC9
:1033D00001F0BAF951EC100B81F0004141EC100BF7
:1033E00016B0BDEC0E8B04B0BDE8F08D18E09FED7B
:1033F000BEAB9FEDBF8B002871D1B848804522D16C
:1034000005F1804010F5801008BFBAF1000F07D019
:10341000B3450ADC002CA8BF9DED260BE0DA0DE0D9
:10342000B0EE490AF0EE690ADAE7002C06DA9DED03
:10343000260B51EC100B81F000416FE0AE48784450
:1034400090ED000BCCE7D8454DD1002C48DA2EB1D9
:1034500086423AD1BAF1000F42D126E0BAF1000F0C
:1034600013D0022001F0DCF901F0AAF98DED020B76
:103470009DED240B8DED000B10EE900A039961F386
:103480001E0003909DED020BAAE78DED02AB9DEDB2
:10349000240B1AEE901A10EE900A8DED000B61F3DA
:1034A0001E0003909DED020B9AE78DED028B9DEDC2
:1034B000240B18EE901A10EE900A8DED000B61F3BC
:1034C0001E0003909DED020B8AE709DA9DED240BA7
:1034D00051EC190B53EC102BFDF759F81EE020E0CE
:1034E0009DED240B7CE786421BDAB4F1804F0DD0B2
:1034F000A4F10050B0F1FF5013D1002D11DB9DED70
:10350000240B51EC100B01F08DFC07E09DED240B1A
:1035100053EC102B51EC100B00F0C2BC41EC100B23
:103520005EE79DED240B51EC100B01F07FF9BAF131
:10353000000FCDE90E0142D19FED710B46B3A6F10C
:10354000E040B0F17F600CD05E4538D1002D00DA4C
:10355000A7B3022F0CBF01204FF0FF30FDF786F814
:10356000DCE7002D01DD002C0DDA002D01DD002C43
:103570001FDB002D16DA002C14DB012F08BF9FED96
:10358000620B3FF42DAFB0EE4A0AF0EE6A0A27E76D
:10359000022F18BF002D0CD0012F0AD1002DFFF6ED
:1035A0001FAF06E0002DB8BF002C08DA012F3FF452
:1035B00017AFB0EE480AF0EE680A11E71BE00120F1
:1035C00000EBE57050EA070115D0791EB0EE498A8C
:1035D000F0EE698A084308BF9FED4D8B4E480025E9
:1035E000804570DD4D494E48884514DDB0420DDB05
:1035F000002C19DB2FE0012001F012F916B0BDEC10
:103600000E8B04B0BDE8F04D01F0CAB8B34502DC42
:10361000002C09DC1FE0864202DA002C1BDA03E0F2
:103620005E452BDD002C16DD022001F0F9F801F0DB
:10363000C7F88DED020B53EC1A2B51EC180BFCF76D
:1036400034FFCDE900010399019861F31E00039056
:103650009DED020BC4E6022001F0E2F801F0C0F893
:1036600010EE901A18EE900A8DED020B8DED008B86
:1036700061F31E0003909DED020BB1E69DED0E0B74
:1036800053EC192B51EC100BFCF709FF9FED260BA7
:10369000CDE9080153EC102B9DED080B51EC100BFC
:1036A000FCF703FF9FED221B53EC112BFCF7FAFEF6
:1036B0009DED081B53EC112BFCF7F7FE9FED1E1B35
:1036C00053EC112B3CE08CE0FFFF1F00FFFF0F00CD
:1036D000000000000000F03F0000F03F0000F07F1D
:1036E0000000404301FCFFFF000000000000F07FED
:1036F0000000000000000000F621000000000000B3
:103700000000000000000080000000000000F0FF4A
:10371000000000000000F0BF0000E0410000F043A6
:10372000FFFFEF3F00000000000000000000D03F5E
:10373000555555555555D53F000000000000E03F58
:10374000FCF7B0FE9DED080B41EC1A0B53EC102B6F
:1037500051EC100BFCF7A9FE53EC1A2BFCF7A5FE5D
:1037600041EC1A0B9FEDFE0B53EC102B9DED080B5B
:1037700051EC100BFCF799FE41EC1B0B9FEDFA0B83
:1037800051EC1A0B53EC102BFCF78FFE41EC1A0B8B
:103790009FEDF70B53EC102B9DED080B51EC100B2C
:1037A000FCF783FE53EC1A2BFCF779FE41EC1A0B65
:1037B00051EC1B0B53EC1A2BFCF7D0FD0690CDE916
:1037C00006519DED060B53EC1B2B51EC100BFCF737
:1037D00066FE53EC1A2BFCF765FE41EC100B00F073
:1037E000A1B90020B6F5801F0EDA9FEDE30B53EC74
:1037F000102B9DED0E0B51EC100BFCF756FECDE996
:103800000E016FF034000E4600EB2650A0F2FF3799
:10381000C6F31300DA4940F07F6646F0405688420E
:10382000D8BF002408DDD7498142C8BF012403DC8A
:103830000024A6F580167F1CD348784400EBC40012
:103840000F9690ED00CB9DED0E0B53EC1C2B51EC25
:10385000100BFCF724FE9DED0E0B41EC1B0B53EC03
:103860001C2B51EC100BFCF779FD41EC100B51ECCB
:10387000190B53EC102BFCF78AFE41EC1D0B51EC9D
:103880001B0B53EC1D2BFCF710FE41EC1A0BBF4831
:103890008DED10AB7844109590ED000B4FF000507B
:1038A00040EA660000EB84408DED080B00F5002037
:1038B00009909DED080B53EC1C2B51EC100BFCF701
:1038C000EEFD9DED0E1B53EC112BFCF7EBFD41ECD7
:1038D000100B53EC102B9DED100B51EC100BFCF763
:1038E000E4FD9DED080B41EC1C0B53EC102B9DED02
:1038F000100B51EC100BFCF7D8FD53EC1B2BFCF715
:10390000D1FD53EC1C2BFCF7CAFD53EC1D2BFCF72F
:10391000CCFD41EC1C0B53EC1A2B51EC1A0BFCF7B1
:10392000C4FD41EC1B0B9A480621B0EE4B0AF0EEA9
:103930006B0A784400F0F4FDB0EE401AF0EE601A25
:10394000B0EE41DAF0EE61DA53EC1B2B51EC1B0BBD
:10395000FCF7ABFD53EC1D2BFCF7A7FD9DED100B09
:1039600041EC1B0B53EC1A2B51EC100BFCF7F6FC43
:1039700053EC1C2BFCF799FD53EC1B2BFCF7EEFCD6
:103980009DED100B41EC1B0B53EC102B51EC100B6D
:10399000FCF78BFD41EC1D0B9FED7FEB53EC1E2BD9
:1039A000FCF7DCFC53EC1B2BFCF7D8FC0890CDE9B2
:1039B00008519DED080B53EC1E2B51EC100BFCF73E
:1039C0006EFD53EC1D2BFCF76AFD53EC1B2BFCF733
:1039D00069FD9DED080B41EC1D0B53EC102B9DED8B
:1039E000100B51EC100BFCF760FD41EC1B0B53EC82
:1039F0001A2B51EC1D0BFCF758FD9DED080B41EC0B
:103A00001A0B53EC102B51EC1C0BFCF74EFD53EC36
:103A10001A2BFCF7A3FC41EC1A0B51EC1B0B53ECDB
:103A20001A2BFCF79BFC0C90CDE90C519DED0C0B77
:103A300053EC1B2B51EC100BFCF731FD53EC1A2B04
:103A4000FCF730FD41EC1B0B9FED550B53EC102B9D
:103A50009DED0C0B51EC100BFCF727FD41EC1A0B04
:103A60009FED510B51EC1B0B53EC102BFCF71DFD84
:103A700041EC1B0B9FED4E0B53EC102B9DED0C0BF3
:103A800051EC100BFCF711FD53EC1B2BFCF766FC03
:103A900041EC100B4848784400EBC40090ED001B4B
:103AA00051EC100B53EC112BFCF758FC41EC1B0BA9
:103AB0003846FCF7DBFDCDE9080153EC1B2B51EC3C
:103AC0001A0BFCF74BFC41EC100B3C48784400EB24
:103AD000C40090ED00CB51EC100B53EC1C2BFCF709
:103AE0003DFC9DED081B53EC112BFCF737FC0690B9
:103AF000CDE906519DED080B53EC102B9DED060B07
:103B000051EC100BFCF7CBFC53EC1C2BFCF7C7FC67
:103B100053EC1A2BFCF7C3FC53EC1B2BFCF7C2FC39
:103B200041EC100B9DED261B53EC102B8DED001B73
:103B300000959DED260B51EC100BFCF7B6FC9DEDAE
:103B4000000B41EC1A0B53EC102B9DED260B51ECA6
:103B5000100BFCF7A4FC9DED061B53EC112B2FE082
:103B6000000000604715F73FFE822B654715F73FC1
:103B700044DF5DF80BAE543E0000000000004043FF
:103B80008E9803007AB60B00421D0000A01D0000B5
:103B90007A1C000000000000000000000000084047
:103BA000000000E009C7EE3FFD033ADC09C7EE3F25
:103BB000F5015B14E02F3EBE061B0000C01A00009A
:103BC000FCF773FC53EC1A2BFCF7C8FB9DED060BBE
:103BD00041EC1A0B53EC102B9DED000B51EC100B2C
:103BE000FCF763FCCDE90C019DED0C0B51EC1A0BBD
:103BF00053EC102BFCF7B2FBCDE902010C46AA49AD
:103C00008C422FDB611A084318D19DED0C0B53EC4D
:103C1000102B9DED020B51EC100BFCF740FC41EC1E
:103C20001B0B9FEDA30B51EC1A0B53EC102BFCF765
:103C300095FB53EC1B2BFCF7DDFE2DD2022000F090
:103C4000EFFD00F0BDFD10EE901A18EE900A8DED1C
:103C5000020B8DED008B61F31E0003909DED020BB6
:103C6000FFF7BEBB944A24F00041914214D393491C
:103C7000214408437FF4EFAC9DED0C0B53EC102B6B
:103C80009DED020B51EC100BFCF709FC53EC1A2BC9
:103C9000FCF7B0FE7FF6DFAC24F000408849894A8B
:103CA000002601EB205182422BDA481C4FF4801190
:103CB00021FA00F02044844AC0F30A517A44A1F268
:103CC000FF3192ED000B814A8DED080BCA4020EACE
:103CD0000202C0F3130040F48010C1F1140120FA75
:103CE00001F60992002CB8BF76429DED080B53EC0B
:103CF000102B9DED0C0B51EC100BFCF7D0FBCDE91C
:103D00000C019DED0C0B51EC1A0B53EC102BFCF736
:103D100025FB9FED6F0B0890CDE9085153EC102B5C
:103D20009DED080B51EC100BFCF7BFFB41EC1B0B9E
:103D30009FED690B53EC102B9DED080B51EC100B14
:103D4000FCF7B3FB9DED0C0B41EC1C0B53EC102B63
:103D50009DED080B51EC100BFCF7A1FB53EC1A2B5B
:103D6000FCF7A0FB9FED5E1B53EC112BFCF79DFBBA
:103D700053EC1C2BFCF7F2FA41EC1A0B51EC1B0B29
:103D800053EC1A2BFCF7EAFACDE902019DED020B88
:103D900053EC1B2B51EC100BFCF781FB53EC1A2B53
:103DA000FCF780FB9DED020B41EC1A0B53EC102B42
:103DB00051EC100BFCF779FBCDE908014A489DED69
:103DC000080B0521784400F0ABFB9DED081B51EC7E
:103DD000100B53EC112BFCF768FB9DED021B53EC11
:103DE000112BFCF75FFBCDE906019DED020B53ECB7
:103DF0001A2B51EC100BFCF758FB53EC1A2BFCF769
:103E0000ADFA9FED3B0B41EC1A0B53EC102B9DEDE3
:103E1000060B51EC100BFCF742FB9DED060B41EC41
:103E20001B0B53EC102B9DED020B51EC100BFCF710
:103E30003CFB53EC1B2BFCF7AAFB53EC1A2BFCF7B7
:103E40002EFB9DED021B53EC112BFCF728FB53ECD2
:103E5000192BFCF727FBCDE9020101EB06500115F8
:103E60000029C8BF039015DC9DED020B324651ECD2
:103E7000100BFCF757FDFEF77FFE042808BF00F08B
:103E8000AFFC32469DED020B51EC100BFCF74AFDE6
:103E9000CDE902019DED020B51EC180B53EC102BF8
:103EA000FCF703FBFFF73ABB000090400000000066
:103EB000FE822B654715973C00CC904000346F3F45
:103EC00001FCFFFF0000E03F78190000FFFF0F003A
:103ED00000000000432EE63F396CA80C615C20BE58
:103EE000EF39FAFE422EE63F1818000000000000ED
:103EF000000000000000004000B52DED048BB0EE86
:103F0000409AF0EE609A83B051EC190BFCF721FD5A
:103F100041EC180B18EE100A18EE901A8DED008B7C
:103F2000002818BF0120084320F00040C0F17F6046
:103F300000F1E040C00F14D019EE101A19EE900AEB
:103F40008DED009B002918BF0121084320F000409F
:103F5000C0F17F6000F1E040C00F04BF012000F01D
:103F60005FFCB0EE480A03B0F0EE680ABDEC048BCB
:103F700000BD0000000000002DE9F14F04462DEDCA
:103F8000020B2DED088B8AB09FEDE70B80ED020B45
:103F9000139EE74826F0004585420ADC9DED120B92
:103FA000002084ED000B0AB0BDEC088B03B0BDE827
:103FB000F08FE0489FEDE0AB9FEDE1BBA84247DD0D
:103FC000E14F9FEDE39B9FEDE48B9DED120B53ECD6
:103FD0001A2B51EC100B002E1CDDFCF760FA41ECA3
:103FE000100BBD4208D053EC1B2B51EC100BFCF70F
:103FF00056FAC4E900010BE053EC192B51EC100BFD
:10400000FCF74DFA53EC182BFCF749FAC4E9000110
:104010000120C8E7FCF7A2F941EC100BBD4208D023
:1040200053EC1B2B51EC100BFCF798F9C4E9000181
:104030000BE053EC192B51EC100BFCF78FF953EC00
:10404000182BFCF78BF9C4E900014FF0FF30AAE709
:10405000C348A84279DB9DED120B51EC100B00F028
:10406000E5FB41EC180B9FEDC00B53EC102BFCF75C
:104070001CFA9FEDBF1B53EC112BFCF76FF9FCF7FB
:1040800006FB0746FCF7F2FA41EC190B53EC1A2B2E
:10409000FCF70BFA53EC182BFCF704FA41EC180B65
:1040A00053EC1B2B51EC190BFCF7FFF9DFF8C8A2FE
:1040B00041EC100B4FEA15580125FA4453EC102B34
:1040C00051EC180BFCF7EBF9032DC4E900013DD0CE
:1040D000C1F30A5005EB4511A8EB000011398142EC
:1040E00034DA0AEB051BB0EE48AA9BED000BF0EEAC
:1040F00068AA53EC102B51EC190BFCF7D6F941ECE4
:104100001B0B51EC1A0B53EC1B2BFCF7C8F941ECC1
:10411000180B51EC1A0B53EC182BFCF7C0F953ECAD
:104120001B2BFCF7BCF99BED020B41EC1A0B53EC7B
:10413000102B51EC190BFCF7B8F953EC1A2BFCF7C8
:10414000AEF941EC100B6D1CB8E70EE0002EA8BFD5
:104150003846BFF628AF94ED000B51EC100B81F000
:104160000041C4E9000178421DE7C6F3130040F4A2
:10417000801EC6F30A50A0F2F530471100F01F056B
:10418000C5F12000DDF848B00890002006900790A7
:104190000520EC467949002D07EB0002794408BF61
:1041A00051F8221009D051F8223001EB8201AB40C6
:1041B0004A68089922FA01F11943A1FB0E26A1FBD6
:1041C0000B131A449A4234BF0123002303EB060861
:1041D0000CEB8003D3E901A60E448E4234BF0121CB
:1041E000002192448A4411B1924502D903E09245DC
:1041F00001D2012100E00021C3E901A641444CF8AD
:104200002010011EA0F10100C4DC029800F1005052
:10421000850F0298DDE903678000DDF81480FCF764
:1042200025FA41EC1A0B3046FCF761FC9FED541B5C
:1042300053EC112BFCF739F941EC1B0B3846FCF71A
:1042400056FC9FED511B53EC112BFCF72EF941EC62
:10425000180B4046FCF74BFC9FED4D1B53EC112B0C
:10426000FCF723F941EC190B51EC180B53EC192B0B
:10427000FCF774F853EC1B2BFCF770F853EC1A2B7B
:10428000FCF76CF8CDE90801002008909DED080BC3
:1042900053EC1A2B51EC100BFCF701F953EC1B2BD0
:1042A000FCF7FDF853EC182BFCF7F9F853EC192B3D
:1042B000FCF7F8F89FED381B53EC112BFCF7F5F8E1
:1042C0009FED370B41EC180B53EC102B9DED080BB9
:1042D00051EC100BFCF7E9F853EC182BFCF73EF807
:1042E0009FED310B41EC180B53EC102B9DED080B9F
:1042F00051EC100BFCF7D9F853EC182BFCF72EF807
:1043000041EC100B139810F0004F06D06D4251ECA9
:10431000100B81F0004141EC100B284684ED000B9E
:1043200041E6000000000000000000000000000066
:10433000FB21E93F7CD9024000004054FB21F93FBA
:104340003163621A61B4D03DFB21F93F00000000E7
:104350000000601A61B4D03D7370032E8A19A33B2C
:10436000FB2139410000000083C8C96D305FE43F84
:10437000000000000000E03F82150000D0140000A3
:10438000000000000000103E000000000000103C93
:10439000000000000000103A182D4454FB21F93DA4
:1043A0003326A611460B113C00000054FB21F93DB9
:1043B00010B52DED040B2DED088B82B0B0EE419AB7
:1043C000F0EE619A0B9820F000449FED4BABB4F1F6
:1043D000795F11DA9DED0A0B51EC100BFCF757F9E0
:1043E000002801BFB0EE4A0AF0EE6A0A02B0BDEC46
:1043F000088B04BF04B010BD9DED0A0B53EC102BCD
:1044000051EC100BFCF751F841EC180B3C4806211D
:10441000B0EE480AF0EE680A784400F081F853ECF8
:10442000182B51EC100BFCF740F89DED0A0B41ECFA
:104430001B0B53EC192B51EC100BFCF736F841EC2D
:10444000190B53EC1B2B51EC180BFCF72EF853EC0B
:10445000192BFCF724F89FED2C0B41EC190B53ECB6
:10446000102B51EC180BFCF720F841EC100B2848EE
:10447000844210DA53EC192B51EC100BFCF70FF8B7
:1044800053EC1A2BFCF70EF841EC100B02B0BDEC0C
:10449000088B04B010BD1F48A042BCBF9FED1E1B7F
:1044A0008DED001B06DBA4F50010019000200090AC
:1044B0009DED001B51EC100B53EC112BFBF7EFFFA4
:1044C0009DED000B41EC180B53EC102B51EC1A0B2B
:1044D000FBF7E5FF41EC1A0B53EC192B51EC180BD1
:1044E000FBF7DDFF53EC1A2BFBF7DCFF41EC100B65
:1044F000CCE7000000000000000000000000F03FDA
:10450000EC11000000000000000000000000E03F8F
:104510003333D33F0000E93F000000000000D23FEA
:1045200070B504462DED028B4D1E00EBC500B0EEBC
:10453000408AF0EE608A90ED000B35F0060017D04F
:1045400053EC182B51EC100BFBF7AFFF41EC100BA9
:104550006D1E04EBC50090ED001B51EC100B53ECED
:10456000112BFBF7FBFE41EC100B35F00600E7D1F9
:10457000022D36D0042D1CD0062D1CBFBDEC028BA5
:1045800070BD53EC182B51EC100BFBF78EFF94ED24
:104590000A1B53EC112BFBF7E1FE53EC182BFBF736
:1045A00084FF94ED081B53EC112BFBF7D7FE41EC75
:1045B000100B53EC182B51EC100BFBF776FF94ED1E
:1045C000061B53EC112BFBF7C9FE53EC182BFBF722
:1045D0006CFF94ED040B53EC102BFBF7BFFE41EC8A
:1045E000100B53EC182B51EC100BFBF75EFF94ED06
:1045F000021B53EC112BFBF7B1FE53EC182BFBF70E
:1046000054FF94ED001B53EC112BFBF7A7FEBDEC00
:10461000028B41EC100B70BD31B504462DED040B3F
:104620002DED0A8BB0EE41BAF0EE61BA0B989DED1C
:104630000A0B20F00040B0F1795F0DDA51EC100B5D
:10464000FEF79AFA042808BF00F0CAF89DED0A0B9D
:10465000BDEC0A8B05B030BD53EC102B51EC100BA8
:10466000FBF723FF41EC180B9DED0A0B53EC182BC5
:1046700051EC100BFBF719FF41EC190B2C48B0EE75
:10468000480AF0EE680A05217844FFF749FF9FEDDC
:104690002ACBB0EE40AAF0EE60AA9CB353EC1C2BE0
:1046A00051EC190BFBF701FF41EC1C0B53EC1A2BDF
:1046B00051EC190BFBF7F9FE9FED210B41EC190BA7
:1046C00053EC102B51EC1B0BFBF7EFFE53EC192BAB
:1046D000FBF7E5FE53EC182BFBF7E7FE53EC1B2B27
:1046E000FBF7DDFE53EC1C2BFBF7D9FE9DED0A1BFF
:1046F00053EC112BFBF7D6FEBDEC0A8B05B041EC59
:10470000100B30BDFFE753EC1A2B51EC180BFBF7E5
:10471000CCFE53EC1C2BFBF721FE53EC192BFBF7C3
:10472000C4FE9DED0A1B53EC112BFBF717FEE3E7CC
:104730007C10000000000000495555555555C5BF77
:10474000000000000000E03F9FED070B10B553ECA8
:10475000102B9FED070B51EC100BFBF718FF41ECF2
:10476000100B10BD00000000000000000000000061
:10477000000000000000F03F10B553EC102B51EC8E
:10478000100BFBF7EBFD41EC100B10BD10B553EC1B
:10479000112B51EC100BFBF7E1FD41EC100B10BDA0
:1047A0009FED050B10B553EC102B51EC100BFBF7E4
:1047B000EEFE41EC100B10BD0000000000000000F8
:1047C0009FED050B10B553EC102B51EC100BFBF7C4
:1047D0006CFE41EC100B10BD0000000000000070EA
:1047E0009FED050B10B553EC102B51EC100BFBF7A4
:1047F0005CFE41EC100B10BD00000000000000103A
:1048000002E008C8121F08C1002AFAD17047704799
:10481000002001E001C1121F002AFBD170470000F7
:104820000149086070470000D400002082B0CDE943
:10483000000121F0004001909DED000B02B051EC11
:10484000100B704796B0FCF747FCFDF765FEFDF7CF
:1048500041FA304C2E48002520604FF41650C4E930
:1048600001050C20E560C4E90450A5612046E5611E
:10487000FDF780F900B1FEE7264827493C38016082
:104880000221C0E90115C160FCF7E4FF00B1FEE7B9
:104890002048149514A93C381595FCF7B3FF00B1D6
:1048A000FEE7FDF7EDF92068C16841F02001C16025
:1048B00014221A496846FBF732FD0021684600F0D1
:1048C0004CF8174C15491422E062143105A8FBF787
:1048D00026FD002105A800F040F8104920631422AD
:1048E00028310AA8FBF71BFD00210AA800F035F8C3
:1048F0000A49606314223C310FA8FBF710FD002128
:104900000FA800F02AF8A06300F018F8FEE70000F6
:10491000004400405C0100200010004030540008BA
:104920000000002001460020842900D0C81C7047E8
:1049300010B5012000F064FB002010BD10B500F0A0
:1049400085FB002010BD10B500F09CFC012803D0B1
:10495000BDE8104000F054BC10BD3EB504460D4605
:10496000B0F90800FFF7DEFF02A9CDE90001208AB7
:104970002B4682B2D4E9001000F058FC012801D087
:1049800000203EBD02983EBD2DE9F041184C0F4677
:104990000546E6682068001D00F07BFA38B92068FB
:1049A00090F82C1001208840216981432161681C06
:1049B00007D137B12168BDE8F0410E48091D00F06C
:1049C000A0BA20683544B5424560216805D2A06B85
:1049D000BDE8F041091D00F07CBA606B091D00F0D4
:1049E00078FAA06A854200D2A562BDE8F081000095
:1049F00098000020B43E00202DE9F041054600F06B
:104A00008DFA2E4CA068401CA06020682C4F10B17D
:104A1000606940B32DE02560A068012829D10026F7
:104A200006EB860007EB800000F045FA761C072EA7
:104A3000F6D323488C3000F03EFA2148A03000F035
:104A40003AFA1F48B43000F036FA1D48C83000F07A
:104A500032FA1B48DC3000F02EFA19488C306063C3
:104A60001430A06305E02068E96AC06A884200D873
:104A70002560606A401C6062E96A01202269884002
:104A80001043206101EB810007EB8000291D00F03D
:104A900038FA00F063FA606900280CD02068E96AEF
:104AA000C06A884207D207494FF080500860BFF3C0
:104AB0004F8FBFF36F8FBDE8F0810000980000209A
:104AC000D83D002004ED00E070B5114E114C17E008
:104AD00000F0F0FA3068B8B100F046FC00F01EFAC1
:104AE000F068C568281D00F0D4F9A068401EA060D9
:104AF0006068401E606000F031FA284600F00CF853
:104B000060680028E4D170BD00F02EFCF8E70000DA
:104B1000A03E00209800002010B50446006B00F075
:104B200031FA2046BDE8104000F02CBA10484FF48E
:104B30007051420706D0C01D0D4920F00700411AF0
:104B4000C1F570510B4A00230144C2E90003083942
:104B5000103A21F0070111604B600B600B1AC0E99D
:104B6000001393604FF000405360D0607047000026
:104B7000D801002084000020074C4FF08056074DDC
:104B8000FFF7A2FF20680128FAD92E60BFF34F8FEC
:104B9000BFF36F8FF4E70000D83D002004ED00E084
:104BA0002DE9F0479A46DDE9098481466FF0030359
:104BB000206B03EB82021044089D20F0070670076B
:104BC00007D0502080F31188BFF34F8FBFF36F8F52
:104BD000FEE723180A5C83F834200A5C12B1401CFB
:104BE0001028F6D3002784F84370072D00D306253C
:104BF000E562C4E91157201D00F068F904F11800BE
:104C000000F064F92461C5F107006462A061E76403
:104C100084F8507052464946304600F0BFF8206094
:104C2000B8F1000F01D0C8F80040BDE8F0870000DF
:104C300030B5114900E011460A688242FBD34B6847
:104C40005C18844203D140681844486008464368B1
:104C50001C18944209D1084C103C2468A24209D087
:104C600052681A4442600A6812680260814200D0A9
:104C7000086030BD0460F9E7840000200648416BFD
:104C8000096829B1416BC968C96849688162704780
:104C90004FF0FF31FAE70000980000200848406814
:104CA000401C4FF0500080F3118804D0BFF34F8FA9
:104CB000BFF36F8FFEE7BFF34F8FBFF36F8FFEE73A
:104CC0008C0000202DE9F0410546002700F0F2F9A4
:104CD000314E306808B9FFF729FFF06805424BD123
:104CE000C5B3083568070ED005F00700C0F108000D
:104CF0000544680707D0502080F31188BFF34F8F19
:104D0000BFF36F8FFEE72DB37068854234D8224819
:104D1000103001460C6801E020460C466168A9424B
:104D200002D221680029F7D131688C4224D007686B
:104D30002168016060680837411B10290FD960198C
:104D4000420708D0502080F31188BFF34F8FBFF384
:104D50006F8FFEE710E041606560FFF769FF6168F3
:104D60007068401A7060B268904200D2B060F0681B
:104D700001430020C4E9000100F0F6FA780707D0EB
:104D8000502080F31188BFF34F8FBFF36F8FFEE782
:104D90003846BDE8F08100007400002010B5031F04
:104DA0004FF080741C601B1F21F001011960191F56
:104DB000044B0B6014390A60091F6FF0020244387B
:104DC0000A6010BD9D4C00089FED091B10B553EC07
:104DD000112B51EC100BFBF768FB9FED071B53ECFD
:104DE000112BFBF7D4FBFBF784FC00EE100A10BD7F
:104DF000000000000080764038E92F54FB21194064
:104E0000B5EEC00AF1EE10FA01DD012000E000204D
:104E1000B5EEC00AF1EE10FA01D2012100E0002146
:104E2000401A704700B52DED048B83B041EC190B8F
:104E3000FBF78FFD41EC180B18EE100A18EE901AD4
:104E40008DED008B002818BF0120084320F00040A2
:104E5000C0F17F6000F1E040C00F14D019EE101ACD
:104E600019EE900A8DED009B002918BF012108431F
:104E700020F00040C0F17F6000F1E040C00F04BFAF
:104E80000120FFF7CDFC51EC180B03B0BDEC048BF7
:104E900000BDD0E9013201699A60D0E901235A606E
:104EA0004A68824201D182684A6000220261086831
:104EB000401E0860704700F108014FF0FF32C0E962
:104EC0000112C16001610021016070470021016190
:104ED000704730B50B685A1C02D000F1080202E09E
:104EE000026904E02246546825689D42FAD9536855
:104EF0004B6099608A60516008610168491C0160DB
:104F000030BD42684A6093688B60936859609160D5
:104F100008610168491C016070470000502080F35F
:104F20001188BFF34F8FBFF36F8F0A494868401C49
:104F3000486001280CD10848006810F0FF0F07D026
:104F4000502080F31188BFF34F8FBFF36F8FFEE7C0
:104F5000704700008C00002004ED00E0084948681C
:104F600028B1401E486001D180F31188704750205D
:104F700080F31188BFF34F8FBFF36F8FFEE7000000
:104F80008C00002070B5002827D0144DA0F1080433
:104F90006168E868014207D1502080F31188BFF3AF
:104FA0004F8FBFF36F8FFEE722683AB1502080F336
:104FB0001188BFF34F8FBFF36F8FFEE781436160AE
:104FC00000F078F860686968084468602046FFF778
:104FD0002FFEBDE8704000F0C7B970BD740000201E
:104FE00006484FF4C8610068B0FBF1F14FF0E020D3
:104FF000491E4161072101617047000070000020D7
:1050000010B5020014D00F48006B38B1502080F367
:105010001188BFF34F8FBFF36F8FFEE700F04AF8A0
:1050200000211046FFF7B0FC00F09EF9002807D1E0
:1050300005494FF080500860BFF34F8FBFF36F8F6B
:1050400010BD00009800002004ED00E01CB51548DC
:105050000024CDE900402346802213A1144800F02B
:10506000E5F8012809D0401C1AD1502080F311889E
:10507000BFF34F8FBFF36F8FFEE7502080F311888F
:10508000BFF34F8FBFF36F8F06484FF0FF312C38BF
:10509000816201214161C460BDE81C4000F040B85C
:1050A0001CBD0000C400002049444C450000000025
:1050B000794B00080248016B491C016370470000EE
:1050C000980000201448016B11B10121C1617047A3
:1050D0000021C1610169B1FA81F1C1F11F0101EB48
:1050E00081020E4951F822306BB101EB820101F1CE
:1050F00008034A6852684A609A4201D152684A607D
:10510000D16801607047502080F31188BFF34F8F42
:10511000BFF36F8FFEE7000098000020D83D00200D
:105120001CB532480168324A914207D1502080F3C1
:105130001188BFF34F8FBFF36F8FFEE700682C49D4
:10514000491E884207D1502080F31188BFF34F8F4A
:10515000BFF36F8FFEE7274908780190FF200870A2
:1051600008788DF800009DF800009DF8002000F000
:10517000F000904207D0502080F31188BFF34F8F8A
:10518000BFF36F8FFEE79DF800001B4A00F0500050
:1051900010700720906005E09DF800305B008DF8EE
:1051A0000030401E9DF800301B06F5D4000200F4CC
:1051B000E0609060019808700C482030016841F46C
:1051C00070010160016841F070410160FFF708FF64
:1051D00000205060FBF722F80848016841F0404188
:1051E0000160FBF70BF800201CBD000000ED00E0A3
:1051F00071C20F4100E400E08C00002034EF00E0B9
:1052000010B5502080F31188BFF34F8FBFF36F8F1D
:1052100000F046F818B104494FF0805008600020B3
:1052200080F3118810BD000004ED00E02DE9FF5F60
:105230008346DDE90E87994616468A469000FFF7B9
:1052400041FD05001AD05420FFF73CFD040012D0A8
:1052500025630021CDE90241CDE900874B46324666
:1052600051465846FFF79CFC2046FFF7C5FB01203E
:1052700004B0BDE8F09F2846FFF784FE4FF0FF30F2
:10528000F6E700000548416919B1006B18B100202C
:1052900070470120704702207047000098000020EE
:1052A0002DE9F0412E4C0027206B40B1A069401C35
:1052B000A061E06900B101273846BDE8F081E668E9
:1052C000761CE66013D1606B006838B1502080F323
:1052D0001188BFF34F8FBFF36F8FFEE7606BA16B39
:1052E0006163A063206A401C2062FFF7C7FCA06ACC
:1052F000DFF87080864209D3606B006880B1606B14
:10530000C068C568686886420DD2A0622068C06A1D
:1053100000EB800158F821000128CAD90127C8E70D
:105320004FF0FF30F1E7281DFFF7B3FDA86A18B171
:1053300005F11800FFF7ADFDE86A012122698140FF
:105340001143216100EB800108EB8100291DFFF76B
:10535000D8FDE86A2168C96A8842CDD30127CBE726
:1053600098000020D83D00202DE9F0472C4D002466
:105370002746286B38B1FFF7D1FD286B401E286304
:10538000286B40B146E0502080F31188BFF34F8F67
:10539000BFF36F8FFEE7A968224E0120D1B3A6F1BB
:1053A000B40980463068E8B1F068C46804F11800B8
:1053B000FFF76FFD201DFFF76CFDE06A2A6908FA10
:1053C00000F11143296100EB800109EB8100211DEF
:1053D000FFF797FDE06A2968C96A8842E2D3C5F8F9
:1053E0001C80DFE70CB1FFF749FCAC6944B14646CD
:1053F000FFF756FF00B1EE61641EF9D10020A861ED
:10540000E86938B10849012738070860BFF34F8FB2
:10541000BFF36F8FFFF7A2FD3846BDE8F0870000AD
:10542000980000208C3E002004ED00E07A7400001B
:10543000B85700084D2200080000000000000000DE
:1054400080000000C8570008352300080000000055
:105450000000000080000000D85700081924000850
:10546000000000000000000080000000E857000875
:10547000DD1D0008000000000000000080000000AA
:1054800000000000000000000102030406070809F4
:105490000000000001020304555555555555C53F00
:1054A0007D6FEB0312D6D4BF5544880E55C1C93F5A
:1054B0003B8F68B52882A4BF88B20175E0EF493FF1
:1054C00009F7FD0DE13D023F4B2D8A1C273A03C031
:1054D000C88A599CE52A004059018D1B6C06E6BF1D
:1054E00082922EB1C5B8B33F4FBB610567ACDD3FBB
:1054F000182D4454FB21E93F9BF681D20B73EF3FFB
:10550000182D4454FB21F93FE2652F227F2B7A3C72
:10551000075C143326A6813CBDCBF07A8807703C2B
:10552000075C143326A6913CC4EB98999999C9BF9E
:10553000711623FEC671BCBF6D9A74AFF2B0B3BFD3
:105540009AFDDE522DDEADBF2F6C6A2C44B4A2BF93
:105550000D5555555555D53FFF8300922449C23FFF
:105560006E204CC5CD45B73F513DD0A0660DB13F33
:10557000EB0D76244B7BA93F11DA22E33AAD903F45
:10558000000000000000F03F000000000000F83FB5
:1055900000000000000000000000004003B8E23FEF
:1055A000000000000000000006D0CF43EBFD4C3EA1
:1055B000033333333333E33FFFAB6FDBB66DDB3F96
:1055C0004D268F515555D53F01411DA96074D13FDE
:1055D00065DBC9934A86CD3FEF4E454A287ECA3FD8
:1055E0003E5555555555C53F93BDBE166CC166BF5A
:1055F0002CDE25AF6A56113FF16BD2C541BDBBBE53
:10560000D0A4BE726937663E4C5555555555A53FD9
:105610007751C1166CC156BF9015CB19A001FA3E47
:10562000AD529C804F7E92BEC4B1B4BD9EEE213E71
:10563000D43888BEE9FAA8BD0000000000000000D0
:1056400000004054FB21F93F3163621A61B4D03D40
:105650000000601A61B4D03D7370032E8A19A33B19
:105660000000002E8A19A33BC14920259A837B396B
:1056700000000000000000006E83F9A22915444ECE
:10568000D15727FCC0DD34F5999562DB4190433C4E
:10569000AB6351FE61C5BBDE3A6E24B7E0D24D422A
:1056A000EA2E49061C92D1091CEB1DFE3EA729B12A
:1056B000F53582E88444BB2E26709CE9417E5FB4B8
:1056C00039D69139F43953838B5F849C3B28F9BDDB
:1056D000FF97F81F0F9805DE8B112FEF1F6D0A5AE9
:1056E000CF7E366DB709CB27663F464F2DEA5F9ECA
:1056F000C7BA27757BF1E5EBF739073DEA92528A85
:10570000B15FFB6B085D8D1FA6F810111111813F71
:10571000D561C119A0012ABF7DFEB157E31DC73E67
:10572000EB9C2B8AE6E55ABE7CD5CF5A3AD9E53DAB
:1057300000404040404040404040414141414140A4
:105740004040404040404040404040404040404059
:1057500040050202020202020202020202020202E8
:1057600002202020202020202020200202020202ED
:105770000202909090909090101010101010101045
:105780001010101010101010101010100202020251
:105790000202888888888888080808080808080895
:1057A0000808080808080808080808080202020291
:1057B0004000000031570008537465707065723105
:1057C0005F5461736B0000005374657070657232D2
:1057D0005F5461736B0000005374657070657233C1
:1057E0005F5461736B0000004D61696E5F41726DC3
:1057F0005F5461736B00000018580008000000201F
:10580000D800000000480008F0580008D800002028
:10581000F0410000104800087A0067000000010015
:105820000100FFFF0000000000000000CDCC0CC212
:1058300066667042000000000000B44200000CC226
:105840000000B4C2000000000000000000000000E2
:10585000000000009600C3007EFFFA00C3007EFF38
:1058600096003DFF7EFFFA003DFF7EFF0000000036
:105870000000000000000000000000000100000027
:1058800010000000000000000024F40000000000F0
:105890000000000000000000000000000000000008
:1058A0000000000000000000AAAAAAAA0000000050
:1058B00000000000000000000000000000000000E8
:1058C00000000000000000000000000000000000D8
:1058D00000000000000000000000000000000000C8
:1058E00000000000000000000000000000000000B8
:04000005080001C925
:00000001FF
